:100000000C946F010C94671B0C943C1B0C94111BFB
:100010000C94E61A0C94BB1A0C94901A0C94651A62
:100020000C943A1A0C94A0010C94A0010C94A00119
:100030000C94A0010C94921B0C94A0010C94A001B0
:100040000C94A0010C948F1C0C94A0010C94A001A2
:100050000C94A0010C94A0010C94A0010C94F01934
:100060000C94A0010C94591C0C942F1C0C94A0010E
:100070000C94A0010C94A0010C94A0010C94A0017C
:100080000C94A0010C94A0010C94A0010C94A0016C
:100090000C94A0010C94A0010C94A0010C94CC1819
:1000A0000C94A0010C94A0010C94A0010C94A0014C
:1000B0000C94A0010C94A0010C94A0010C94A0013C
:1000C0000C94A0010C94A0010C94A0010C94A0012C
:1000D0000C94A0010C94A0010C94A0010C94A0011C
:1000E0000C94A0010C94CA020C94371D0C941002BD
:1000F0000C948A020C94BD020C943D020C949F0255
:100100000C94AB150C94F7080C94AF020C94E70117
:100110000C94A5020C94BD010C94A8150C94F60146
:100120000C9441080C9409020C9472080C949C02E3
:100130000C943E080C94BE010C94F9280C94C10256
:100140000C94C8180C94B7020C9450080C946408D2
:100150000C94C5020C9490020C94CF020C940C08E1
:100160000C94AA080C94CB020C9411080C94A902CC
:100170000C9494020C9410080C94DE0A0C94B302B4
:100180000C94E6010C949802000020002300260045
:1001900029002C002F00320000010000030106019D
:1001A0000901CDCCCC3D0AD7233C17B7D13877CC49
:1001B0002B329595E6241FB14F0A00002041000024
:1001C000C84200401C4620BCBE4CCA1B0E5AAEC5DD
:1001D0009D740200002100240027002A002D003019
:1001E00000330001010000040107010A01000022A0
:1001F00000250028002B002E0031003400020100F1
:1002000000050108010B010505050507050808089B
:1002100008020202020A0A08080404040401010197
:10022000010101010103030303030303030407079F
:10023000070C0C0C0C0C0C0C0C020202020606063D
:1002400006060606060B0B0B0B0B0B0B0B01021025
:1002500020200808102040102040800201020108E0
:100260000402010102040810204080804020100890
:1002700004020180040201804020100804020108E9
:100280000402010102040810204080010204081049
:1002900020408000000A0B02090C0D0E0807030421
:1002A000010000000000000000000000000000004D
:1002B000000000000000000000000000000000122C
:1002C000111000000000000000000000000000000D
:1002D00000000000000000000000371DF928112474
:1002E0001FBECFEFD1E2DEBFCDBF00E00CBF13E0F9
:1002F000A0E0B2E0EEE5FBE500E00BBF02C0079036
:100300000D92AA36B107D9F725E0AAE6B3E001C0FD
:100310001D92A83EB207E1F711E0CEE6D1E000E081
:1003200006C021970109802FFE010E94732ACD3655
:10033000D10780E00807A9F70E94A81E0C949D2D04
:100340000C940000CF93DF93EC0188819981DC014C
:10035000ED91FC910190F081E02D64E270E019953F
:10036000009741F02FE1FC01238321E02283DF91FC
:10037000CF91089521E02A83FACF0895089520911E
:10038000C503260F3327331F21323105ECF42091AA
:100390003404FC0190E080E0243069F082E00895AC
:1003A000A091C5032191AC014B555C4FA40FB52F13
:1003B000B11D2C930196861798F38091C503680FA1
:1003C0006093C50380E0089581E008950895E09169
:1003D000ED038091EC03E81730F4F0E0E251FC4FBC
:1003E000808190E008958FEF9FEF08959091ED0345
:1003F0008091EC032FEF3FEF981748F4E92FF0E0DE
:10040000E251FC4F208130E09F5F9093ED03C901E2
:1004100008958091EC039091ED03891B990B089549
:10042000CF92DF92EF92FF920F931F93CF93DF93C0
:100430007C01CB018A0120913A04222389F0EB014F
:100440006B01C40ED51ECC15DD0569F06991D7018D
:10045000ED91FC910190F081E02DC7011995F3CF4A
:10046000642F0E94BF01C801DF91CF911F910F91AE
:10047000FF90EF90DF90CF900895CF93DF931F927E
:10048000CDB7DEB7698320913A042223F9F0209199
:100490005D04203258F021E030E0FC0133832283F8
:1004A00090E080E00F90DF91CF91089580913B0420
:1004B000E82FF0E0E45CFB4F998190838F5F80939D
:1004C0003B0480935D0481E090E0ECCF61E0CE01DD
:1004D00001960E94BF01F7CF8150823108F05AC0C7
:1004E000E82FF0E08827E858FD4F8F4F0C94732ACF
:1004F00098029C028A0290029402CA029F02A502FC
:10050000A902AF02B302B702BD02C102CA02C5020C
:10051000CB02CF02809180008F7780938000089576
:10052000809180008F7DF9CF80918000877FF5CF0B
:1005300084B58F7784BD089584B58F7DFBCF80917E
:10054000B0008F778093B00008958091B0008F7DC8
:10055000F9CF809190008F778093900008958091DB
:1005600090008F7DF9CF80919000877FF5CF8091AB
:10057000A0008F778093A00008958091A0008F7DC8
:10058000F9CF8091A000877FF5CF809120018F77F0
:10059000809320010895809120018F7DF9CF809173
:1005A0002001877FF5CF1F93CF93DF93282F30E073
:1005B000F901ED56FD4F8491F901E35BFD4FD491B4
:1005C000F901E95FFD4FC491CC23A9F0162F8111E9
:1005D0000E946C02EC2FF0E0EE0FFF1FE351FE4F84
:1005E000A591B4918FB7F894EC91111108C0D095F2
:1005F000DE23DC938FBFDF91CF911F910895DE2B17
:10060000F8CFFC0180819181892B39F0A281B381DF
:100610009C9111968C919CBD8DBD83858F3F19F067
:1006200060E00C94D3020895FC0183858F3F19F09C
:1006300061E00C94D30208951092340481E0809319
:10064000330410920E0461E084E10E94D30261E061
:1006500085E10E94D302E9EBF0E080818E7F808308
:1006600080818D7F808388E48093B80085E48093C7
:10067000BC000895CF93DF9391E09093A403882367
:10068000B9F0C091B800D091BA008091BC008A7BCB
:100690008093BC0060E084E10E94D30260E085E1C9
:1006A0000E94D3020E941C03D093BA00C093B800EA
:1006B000DF91CF910895CF93DF9390E0FC01E35B4E
:1006C000FD4F2491895F9D4FFC0184918823C9F0DF
:1006D00090E0880F991FFC01ED52FE4FA591B49157
:1006E000FC01E351FE4FC591D49161110DC09FB73C
:1006F000F8948C91209582238C93888128232883D9
:100700009FBFDF91CF910895623051F49FB7F89465
:100710003C91822F809583238C93E8812E2BEFCF01
:100720008FB7F894EC912E2B2C938FBFEACF8230A9
:10073000910538F0880F991F880F991F0597019729
:10074000F1F70895AF92BF92CF92DF92EF92FF92AE
:100750000F931F93CF93DF93EC0188819981892BAD
:1007600089F06EBD0DB407FEFDCFBEB48B2DDF91B9
:10077000CF911F910F91FF90EF90DF90CF90BF909E
:10078000AF9008958885998511E0892B09F010E8CC
:10079000AA24A394862F812309F0A12C062F2C8153
:1007A0003D814E815F8160E271EA87E090E00E94C6
:1007B0002E2AF22EB02EE12CC22ED12CFF2019F0C1
:1007C000C6010E9497038A85877F09F042C08D8504
:1007D0008F3F89F0902F912381E009F480E08A1502
:1007E00051F0EF85F8898F89992369F19081892BE0
:1007F0008083AA24A394E989FA898081998D892B21
:100800008083FF2019F0C6010E9497038E858F3FD9
:1008100039F0EB89FC898081988D892309F0E12AE0
:10082000E989FA899081898D8095892380838E85D5
:100830008F3F09F0BE2C88859985892BB9F5110F5A
:100840001111BCCF93CF9081809589238083A12CF7
:10085000D2CFE989FA898081998D892B8083FF2005
:1008600019F0C6010E9497038D858F3F49F0EF85EF
:10087000F8898F89902F9123A9F09081892B80830B
:10088000E989FA899081898D8095892380838E8575
:100890008F3F69F2EB89FC898081988D892339F239
:1008A000E12AC5CF908180958923E9CF1695C8CFDD
:1008B0008F929F92AF92BF92CF92DF92EF92FF9270
:1008C0000F931F93CF93DF937C014B016A01B22EEC
:1008D000A32E0E940103E401C80CD91CCC15DD0530
:1008E00069F4CB2DDA2D0C0F1D1FC017D10759F05D
:1008F0006FEFC7010E94A2038993F7CF6991C701E7
:100900000E94A203EBCFC7010E94140381E0DF9194
:10091000CF911F910F91FF90EF90DF90CF90BF90FC
:10092000AF909F908F9008958F929F92AF92BF92B9
:10093000CF92DF92EF92FF920F931F93CF93DF93AB
:100940007C01B62EA72E6A0149010E940103E40131
:10095000080D191DC017D10761F4CB2DDA2DCC0E6F
:10096000DD1ECC15DD0551F06991C7010E94A2037F
:10097000F8CF6991C7010E94A203ECCFC7010E9482
:10098000140381E0DF91CF911F910F91FF90EF90C1
:10099000DF90CF90BF90AF909F908F9008953FB71A
:1009A000F8948091A0039091A103A091A203B0912B
:1009B000A30326B5A89B05C02F3F19F00196A11DE2
:1009C000B11D3FBFBA2FA92F982F8827BC01CD0199
:1009D000620F711D811D911D42E0660F771F881FF8
:1009E000991F4A95D1F708958F929F92AF92BF9227
:1009F000CF92DF92EF92FF920F931F93CF93DF93EB
:100A0000D0915D04D13208F0D7C0182FC0915C049A
:100A10000E94CF046B017C018091340481116BC072
:100A200082E080933404109333048FEF8093320478
:100A300010923104D0933004ACE3B4E0E0E1F4E090
:100A400080E0D81391C010920F0480910F04CC0F56
:100A5000C82BC0930F0480910E04813009F088C028
:100A600010920E040E94CF046B017C0180910F0450
:100A70008093BB008091360490913704A091380494
:100A8000B0913904892B8A2B8B2BA1F00E94CF04C3
:100A900000913604109137042091380430913904C4
:100AA0006C197D098E099F09061717072807390752
:100AB00008F442C08091BC0083FDD8CF85EC8093C0
:100AC000BC000E94CF046B017C0180913404823011
:100AD00009F450C0809132048F3F09F46FC08091B7
:100AE0003204803209F46CC080913204803309F4FE
:100AF00069C084E026C08091360490913704A091AB
:100B00003804B0913904892B8A2B8B2B09F484CFBC
:100B10000E94CF048090360490903704A09038044F
:100B2000B09039046C197D098E099F0986169706C5
:100B3000A806B90608F070CF809135040E943A03E8
:100B400085E010923B0410925D0410923A04DF910C
:100B5000CF911F910F91FF90EF90DF90CF90BF90BA
:100B6000AF909F908F9008959D9191938F5F69CFE3
:100B700085EEA5CF8091360490913704A09138047A
:100B8000B0913904892B8A2B8B2B09F49ECF0E94BC
:100B9000CF0400913604109137042091380430912D
:100BA00039046C197D098E099F0906171707280754
:100BB000390708F08ACFC0CF81E0C3CF80E0C1CF32
:100BC00082E0BFCF83E0BDCFCF93DF93EC018B8179
:100BD0008823A1F0888191E090933A0480935C048B
:100BE00010923B0410925D0481E00E94F40491E0B5
:100BF000811190E0892FDF91CF9108951092ED033C
:100C00001092EC0310923B0410925D040E941C03AE
:100C10008DEB91E09093E9038093E8038EEB91E0F4
:100C20009093EB038093EA0381E08B83CE010E94D3
:100C3000E405982F8111CECFDDCFCF93DF93EA016A
:100C400091E090933A0480935C0410923B041092DC
:100C50005D048EE594E00E943D0268818EE594E09B
:100C60000E943D0281E00E94F40491E0811190E035
:100C7000892FDF91CF9108951F93CF93DF93EA01DE
:100C8000122FDC0111968D919C91DC01ED91FC916C
:100C90000280F381E02D1995C817D90729F4812F17
:100CA0000E94F40491E0811190E0892FDF91CF91AF
:100CB0001F910895CF92DF92EF92FF920F931F93AF
:100CC000CF93DF931F921F92CDB7DEB7FC0147870A
:100CD000508B618B728B8285882371F14487452FFD
:100CE000562F672F7727882349F143877F018BE0B1
:100CF000E80EF11C9681878199838A83C080D18018
:100D0000C114D10409F443C0018510E098012E5F9D
:100D10003F4FD60114968D919C918217930780F4D2
:100D200080E00F900F90DF91CF911F910F91FF9076
:100D3000EF90DF90CF9008954387D1CF4487D6CFEF
:100D4000F60181819281208131E030933A04209331
:100D50005C0410923B0410925D040115110541F4EE
:100D600021E042E050E0B701C6010E943C06D9CF25
:100D7000DC01ED91FC910280F381E02DA801BE0120
:100D80006F5F7F4F19950817190751F6E9CFA281B8
:100D9000B381109729F224813581018510E0233039
:100DA000310579F48E7F89839A830F5F1F4F9E01EF
:100DB0002F5F3F4F42E050E0B701CD010E94940405
:100DC000B0CF2115310519F49F779983F0CF2230E8
:100DD000310511F49068F9CF2130310541F79F7743
:100DE0009064F3CF8F929F92AF92BF92CF92DF9297
:100DF000EF92FF920F931F93CF93DF93D82FC62FBD
:100E0000142F613208F09CC00E94CF046B017C015A
:100E10008091340481116FC081E080933404109379
:100E200033049FEF90933204109231049C0F9093FF
:100E3000300480930F0480910F04DD0FD82BD093E2
:100E40000F0480910E04813009F07CC010920E04D2
:100E50000E94CF046B017C0180910F048093BB0042
:100E60008091360490913704A0913804B0913904F0
:100E7000892B8A2B8B2BA1F00E94CF040091360482
:100E80001091370420913804309139046C197D0990
:100E90008E099F09061717072807390708F44CC061
:100EA0008091BC0083FDD8CF85EC8093BC000E946C
:100EB000CF046B017C0180913404813009F444C07B
:100EC000809131048C1710F4C0913104E0E1F4E01A
:100ED000AEEEB3E080E08C1359C08C2FDF91CF9140
:100EE0001F910F91FF90EF90DF90CF90BF90AF9048
:100EF0009F908F9008958091360490913704A0912F
:100F00003804B0913904892B8A2B8B2B09F480CFBC
:100F10000E94CF048090360490903704A09038044B
:100F2000B09039046C197D098E099F0986169706C1
:100F3000A806B90608F06CCF809135040E943A03E8
:100F4000C0E0CBCF85EEB1CF8091360490913704CD
:100F5000A0913804B0913904892B8A2B8B2B09F48A
:100F6000AACF0E94CF04009136041091370420913B
:100F70003804309139046C197D098E099F090617D0
:100F800017072807390708F096CFD6CF91919D9380
:100F90008F5FA1CF8F929F92AF92BF92CF92DF923D
:100FA000EF92FF920E94CF044B015C0188EEC82EA5
:100FB00083E0D82EE12CF12C0E94CF046819790926
:100FC0008A099B09683E734081059105A8F321E0D9
:100FD000C21AD108E108F10888EE880E83E0981E55
:100FE000A11CB11CC114D104E104F10429F7FF9044
:100FF000EF90DF90CF90BF90AF909F908F9008952B
:101000002FB7F89460919C0370919D0380919E038B
:1010100090919F032FBF089581E0809399030895D5
:101020000895AF92BF92CF92DF92EF92FF920F930B
:101030001F93CF93DF936C017B018B01040F151F6E
:10104000EB015E01AE18BF08C017D10759F06991D6
:10105000D601ED91FC910190F081E02DC60119952A
:10106000892B79F7C501DF91CF911F910F91FF90E7
:10107000EF90DF90CF90BF90AF90089590E080E028
:101080000895FC01538D448D252F30E0842F90E08E
:10109000821B930B541710F0CF9608950197089573
:1010A000FC01918D828D981761F0A28DAE0FBF2F3C
:1010B000B11D5D968C91928D9F5F9F73928F90E092
:1010C00008958FEF9FEF0895FC01918D828D981701
:1010D00031F0828DE80FF11D858D90E008958FEF3E
:1010E0009FEF0895FC01918D228D892F90E0805C07
:1010F0009F4F821B91098F73992708958AE694E088
:101100000E94720821E0892B09F420E0822F0895C3
:10111000FC01A48DA80FB92FB11DA35ABF4F2C916C
:10112000848D90E001968F739927848FA689B78963
:101130002C93A089B1898C91837080648C93938D5A
:10114000848D981306C00288F389E02D80818F7DFD
:1011500080830895EF92FF920F931F93CF93DF93B5
:10116000EC0181E0888F9B8D8C8D98131AC0E889E3
:10117000F989808185FF15C09FB7F894EE89FF89B2
:101180006083E889F98980818370806480839FBF50
:1011900081E090E0DF91CF911F910F91FF90EF9050
:1011A0000895F62E0B8D10E00F5F1F4F0F73112760
:1011B000E02E8C8D8E110CC00FB607FCFACFE8899B
:1011C000F989808185FFF5CFCE010E948808F1CF93
:1011D000EB8DEC0FFD2FF11DE35AFF4FF0829FB70F
:1011E000F8940B8FEA89FB8980818062CFCFCF93FF
:1011F000DF93EC01888D8823B9F0AA89BB89E8893F
:10120000F9898C9185FD03C0808186FD0DC00FB6E4
:1012100007FCF7CF8C9185FFF2CF808185FFEDCF62
:10122000CE010E948808E9CFDF91CF91089581E037
:1012300080939A0308950E947E08882319F081E024
:1012400080939A0380E090E0892B49F080E090E061
:10125000892B29F00E94000081110E94000080E08B
:1012600090E0892B49F080E090E0892B29F00E94E2
:10127000000081110E94000080E090E0892B49F07D
:1012800080E090E0892B29F00E94000081110C94ED
:10129000000008950F931F93CF93DF93EC010E94FA
:1012A00000080E811F812885398506171707280732
:1012B0003907B8F58A858823A1F18B859C85AD8592
:1012C000BE85892B8A2B8B2B61F1E881F9811995D9
:1012D0008B859C85AD85BE85181619061A061B06DA
:1012E00084F48F859889A989BA890197A109B109E0
:1012F0008F87988BA98BBA8B892B8A2B8B2B09F420
:101300001A860E9400080A811B812C813D81DC0124
:10131000CB01800F911FA21FB31F8E839F83A887CD
:10132000B987DF91CF911F910F9108958EBD000075
:101330000DB407FEFDCF8EB508956F3FB1F0E62FD7
:10134000E295EF7044E0E49F90011124DC01ED91FF
:10135000FC91E20FF31F6F70B8E06B9FC001112486
:1013600062817381860F971F089590E080E0089551
:10137000982F80336CF08A3324F08F3524F08B372C
:1013800024F481E0089581341CF081E09B350CF059
:1013900080E00895CF93DF93EC0188819981DC018F
:1013A000ED91FC910190F081E02D19952A813B810E
:1013B000820F931F9B838A83DF91CF910895CF93F0
:1013C000DF93EC0188819981DC01ED91FC91028031
:1013D000F381E02D19952A813B81820F931F9B8316
:1013E0008A83DF91CF9108958F929F92AF92BF929F
:1013F000CF92DF92EF92FF920F931F93CF93DF93E1
:10140000CDB7DEB766970FB6F894DEBF0FBECDBF7F
:101410006C018E01095E1F4F78018AE0882E912CA5
:10142000A12CB12CCB01BA01A50194010E942E2A56
:10143000942F852F605DF80162938F01A901692FB8
:10144000782F411551056105710561F7A7014E1B04
:101450005F0BBF01C6010E94DF0966960FB6F894C4
:10146000DEBF0FBECDBFDF91CF911F910F91FF90D7
:10147000EF90DF90CF90BF90AF909F908F900895A6
:10148000CF92DF92EF92FF920F931F93CF93DF9350
:10149000EC018A85811130C00F8118850E940008F7
:1014A000D80118966D937D938D939C931B97D801CB
:1014B000ED91FC910284F385E02DC801199597FF09
:1014C00025C00E940008F801C084D184E284F3841E
:1014D0006C197D098E099F09C480D580E680F7804C
:1014E0006C157D058E059F0510F38FEF9FEF97FD1F
:1014F00080E0898781E08A878985DF91CF911F917C
:101500000F91FF90EF90DF90CF9008959927EFCF44
:101510001F93CF93DF93EC01162F0E94400A811393
:1015200006C01A8681E0DF91CF911F91089580E077
:10153000FACF0F931F93CF93DF938C01EB01899127
:10154000882369F0C8010E94400A882379F0FE01CF
:101550003197908198130DC0F8011286F0CF90E07A
:1015600080E0DF91CF911F910F91089582E090E08C
:10157000F8CF83E090E0F5CFCF93DF93EC01CE017D
:101580000E94400A8B304CF489305CF4882359F077
:1015900081E08E8390E080E00BC08D3011F08032CE
:1015A000B9F71A86ECCF8E81811105C081E090E0F9
:1015B000DF91CF91089582E090E0FACFCF93DF934F
:1015C0002091940330E0F901ED56FD4F8491F9012B
:1015D000E35BFD4FD491F901E95FFD4FC491CC234A
:1015E00021F181110E946C02EC2FF0E0EE0FFF1F41
:1015F000E857FE4FA591B491EC91ED23B1F08091A5
:10160000950390919603A0919703B091980301964A
:10161000A11DB11D8093950390939603A09397030A
:10162000B0939803DF91CF910895809195039091A5
:101630009603A0919703B09198030197A109B1096E
:10164000E9CF4F925F926F927F928F929F92AF926B
:10165000BF92CF92DF92EF92FF920F931F93CF939F
:10166000DF93EB01DC012C912B32D9F12D32D1F536
:101670000196FF24F394FC01208130ED320F3A30C3
:1016800018F02E3209F042C18C0160E070E0CB010D
:10169000F801219130ED832E820E39E0381520F1CA
:1016A0006A3949E97407840749E1940738F5AAE0E3
:1016B000B0E09B01AC010E94232A912CB12CA12CFB
:1016C0002401350140945094609470944616570656
:1016D0006806790698F0680D791D8A1D9B1D8F019B
:1016E000D7CF0196F12CC7CF211108C0FF20E9F117
:1016F00061307105810550E89507A0F0E12CBAE052
:101700008B2E912CA12CB12C6115710530E883072B
:101710009105B0F1A50194010E942E2ACA01B901D8
:10172000E394F2CF2C8120782A602C839B01AC01BA
:1017300088279927DC01821B930BA40BB50B8883A8
:101740009983AA83BB838F2DDF91CF911F910F9136
:10175000FF90EF90DF90CF90BF90AF909F908F90D1
:101760007F906F905F904F9008952C812078286033
:101770002C83688379838A839B83FF24F394E3CF4C
:10178000F801D8012D918D0130ED320F3A3010F46F
:10179000E394F6CF2E3201F58F010F5F1F4FF80152
:1017A0000F5F1F4F2081A0EDDA2ED20EB9E0BD15DC
:1017B00098F06C3CECEC7E07ECE08E07910578F736
:1017C000AAE0B0E09B01AC010E94232A6D0D711DBF
:1017D000811D911DEA94E3CF20812F7D10E000E070
:1017E000253409F05BC021812D32D1F53296CC240D
:1017F000C394DF0110E000E02E2D0E2C000C330B03
:101800005AE0B52EFD01DD9040ED4D0D4A3008F057
:1018100040C0B09EA001B19E500D11240D2DDD0CD5
:10182000110B00531109040F151FA801420F531F7C
:10183000473251053CF38C81CC20C9F040E050E0A8
:1018400060E070E8F11003C040E050E0BA01807839
:101850008C608C83488359836A837B83FC2C73CF91
:101860002B3219F03196C12CC4CF3296FCCF40E018
:1018700050E060E87FEFF11004C040E050E060E825
:101880007FE780788C608C83488359836A837B836D
:1018900074CFCC2019F011950195110920812111E7
:1018A00035C00E0D111DE7FC1A950E9404293AEB74
:1018B000C32E31E0D32E101611063CF01195019580
:1018C000110942EAC42E41E0D42EE12C0115110584
:1018D00091F000FF0CC024E0E29EF0011124EC0D19
:1018E000FD1D25913591459154910E9465291595CD
:1018F0000795E394EBCFF11090582C8120782C6061
:101900002C83688379838A839B8337CFF12C1BCF09
:10191000CF93DF9300D01F921F92CDB7DEB7FC01AB
:1019200094819F77963091F030F4943020F560E008
:1019300070E0CB0111C09A30B9F09C3051F1983071
:10194000B1F7608171818281938104C0608170E010
:1019500090E080E00E9404290F900F900F900F906C
:101960000F90DF91CF910895608171818281938181
:101970000E940629F1CF808191811D82BE016F5F97
:101980007F4F04960E94210BCE0101960E94880C85
:10199000E3CF6081718182819381DECFFC019289E6
:1019A000915084E0989F90011124A089B189A20FE1
:1019B000B31F1296ED91FC9113973097E9F01196B1
:1019C0002C9111978C912817B8F481E0820F119611
:1019D0008C9388E0289FA0011124E40FF51F309715
:1019E00059F014828FEF858317821682BF01892FE9
:1019F0008295807F820F089560E070E08FEF0895F8
:101A0000DF92EF92FF920F931F93CF93DF93EC013E
:101A10007B01D12C688979898A89D816E0F484E021
:101A2000D89E80011124060F171FD80112966D91C0
:101A30007C916115710541F0D701ED91FC91028017
:101A4000F381E02DC7011995F801138212821082EB
:101A50001182D394DFCF1A8A8FEF8C8BC617D707EA
:101A600061F0D701ED91FC910280F381E02DC70177
:101A70001995D98BC88B84E08B8BDF91CF911F9107
:101A80000F91FF90EF90DF900895DB01ED91FC91B5
:101A900011970280F381E02DBC01CD0119940F93C1
:101AA0001F93CF93DF93EC01088119818B819C8177
:101AB000009749F0FC01208131813C832B83B801E0
:101AC0000E94450DF3CF68817981CE010596DF91A3
:101AD000CF911F910F910C94000DCF93DF93EC01E8
:101AE000E881F981B0E0A0E03097F9F09F012C5F28
:101AF0003F4F62177307A1F4928191509283911125
:101B000014C080819181109741F08D939C93BA010C
:101B1000CF01DF91CF910C94450D99838883F7CF46
:101B2000DF010190F081E02DDFCFDF91CF910895AB
:101B30008F929F92AF92BF92CF92DF92EF92FF92DD
:101B40000F931F93CF93DF938C01EB01FC018481F2
:101B500080FF0AC048815981608171816C5F7F4F2D
:101B6000CE0103960E946D0DF8018481807681F18B
:101B70000115110569F1D0805E01F5E1AF0EB11CD0
:101B80004E0183E0880E911CEFEFDE16F1F06D2D13
:101B9000C5010E949D097C01FC01C580848187FFED
:101BA00007C04881598166817781C4010E946D0D0B
:101BB000BE01C7010E94980DF7018481807884835B
:101BC000898D8583D98EDC2CDFCFF801D082D1823C
:101BD000DF91CF911F910F91FF90EF90DF90CF9009
:101BE000BF90AF909F908F900895EF92FF920F93C8
:101BF0001F93CF93DF937C018B01EA016F3F710547
:101C000009F0B0F4E881F9810480F581E02DAB01A1
:101C10004B5F5F4FBC01CE011995009749F0FC0165
:101C20000383DF91CF911F910F91FF90EF90089563
:101C3000E881F9810280F381E02DB701CE01199589
:101C400090E080E0EECFFF920F931F93CF93DF934E
:101C5000EC01F62E8A819B810097C9F06C817D8111
:101C6000FC0123812617170691F408811981F801D8
:101C700040815181660F771F6F5F7F4F0E94F50D86
:101C8000009719F421E0F80122839B838A838A81DB
:101C90009B81009759F02C813D81A9014F5F5F4FD7
:101CA0005D834C83820F931FFC01F482DF91CF91FF
:101CB0001F910F91FF9008959F92AF92BF92CF9284
:101CC000DF92EF92FF920F931F93CF93DF9300D099
:101CD0001F921F92CDB7DEB78C010E94400AD82E0A
:101CE000F8011286F12CE12C60EFC62EC8010E948B
:101CF000400AF8011286D81609F4B3C0811113C046
:101D000082E090E00F900F900F900F900F90DF9176
:101D1000CF911F910F91FF90EF90DF90CF90BF90E8
:101D2000AF909F9008958C3509F099C0C8010E942A
:101D3000400A882329F3EBE5F2E0853709F083C0F8
:101D4000F801128654E0952EB12CA12CC8010E94F6
:101D5000400A8823A9F2813434F48053803130F072
:101D600083E090E0CFCF8F7D8753F8CF44E0AA0C7B
:101D7000BB1C4A95E1F7A82AF80112869A949110A3
:101D8000E5CFC501985D8115944020F47501F3E01D
:101D9000FF22ACCFC5019C5D81159440A8F483E07F
:101DA000B822B701762F6627770F770F6A297B292C
:101DB00090E080E00196603871058105910540F45E
:101DC000C8010E94230E92CFB50190E080E0F3CFCE
:101DD0001982262F2F7320682A8326E096958795EF
:101DE000779567952A95D1F76032710580F4606C1C
:101DF0006B835E01E4E0AE0EB11CF50162915F0100
:101E0000662309F473CFC8010E94230EF6CF262F54
:101E10002F7320682B8386E0769567958A95E1F786
:101E20006031710538F4606E6C835E01F5E0AF0ED1
:101E3000B11CE3CF60686C83CD825E0126E0A20E08
:101E4000B11CDBCF32969081992309F489CF891395
:101E5000F9CF8181882309F483CFF8011286682F96
:101E6000AFCF82819381892B19F484E090E04ACF2F
:101E700090E080E047CFAF92BF92CF92DF92EF9297
:101E8000FF920F931F93CF93DF93DC011296ED9196
:101E9000FC91139714968D919C911597E80FF91F5B
:101EA00014820D911C91119714966D917C91159748
:101EB00012968D919C9113979C012C5F3F4FE801E6
:101EC000EB81FC817B01E20EF31E3097B9F0438178
:101ED0004617170679F45901AF014C5F5F4FEA14BA
:101EE000FB0499F1E501C9905E01EA01D990AE01C8
:101EF000CD14A9F30190F081E02DE7CFED01F801B9
:101F0000408151810E94F50DFC01892B21F481E073
:101F1000D80112968C93A881B98113968D919C91CA
:101F20001497918380831496FC93EE9313971B82EE
:101F30001A82CF01DF91CF911F910F91FF90EF9007
:101F4000DF90CF90BF90AF90089582818F5F8283A2
:101F5000F0CF2F923F924F925F926F927F928F922B
:101F60009F92AF92BF92CF92DF92EF92FF920F9328
:101F70001F93CF93DF9300D01F921F92CDB7DEB790
:101F8000B82E962E4D8319010E9400086B017C012A
:101F90008D8019821C82282D30E03B832A83280102
:101FA000712C612C81E080933A04B0925C04109211
:101FB0003B0410925D04692D8EE594E00E943D0281
:101FC00081E00E94F40491E090933A0410923B0463
:101FD00010925D0441E0682D8B2D0E94F206A82E20
:101FE0001092ED038093EC038091ED03A816E1F0CD
:101FF0000115110571F48EE594E00E94F601F101DE
:102000002C81E20FF11D27FDFA9580832F5F2C8331
:10201000EBCF0E9400086C197D098E099F09641599
:1020200075058605970538F381E00E94F4048981DF
:102030003D81830F831A91E09983831708F4B2CF0F
:1020400001151105C1F00E9400086C197D098E0967
:102050009F0930E020E0601771078207930758F06E
:102060002C81822F220F990B2A813B8182179307A3
:1020700014F43FEF3C838C810F900F900F900F90E2
:102080000F90DF91CF911F910F91FF90EF90DF9014
:10209000CF90BF90AF909F908F907F906F905F9008
:1020A0004F903F902F900895BF92CF92DF92EF9282
:1020B000FF920F931F93CF93DF931F921F92CDB781
:1020C000DEB7F82EE62EC42EB22ED02E08EE13E088
:1020D0009E012E5F3F4F41E00E94A90F882399F196
:1020E0008C2D8B19990BAC014F5F5F4F81E090E015
:1020F00002C0880F991FBA94E2F70197042E01C01D
:10210000880F0A94EAF70D2D01C0000F4A95EAF7EF
:10211000982F90952A8192238023892B8A83898303
:10212000AE014F5F5F4F6E2D8F2D0E941D060F90E9
:102130000F90DF91CF911F910F91FF90EF90DF9063
:10214000CF90BF90089580E0F2CF2F923F924F92B0
:102150005F926F927F928F929F92AF92BF92CF9237
:10216000DF92EF92FF920F931F93CF93DF931F9213
:102170001F92CDB7DEB77C013B014C018BE0880E8E
:10218000911CD70116969C91169717968C911797CC
:1021900099838A83CD90DC901197C114D10409F4FE
:1021A00087C019964C9150E0F6018481958184177F
:1021B0009507A8F0808191E090933A0480935C04A5
:1021C00010923B0410925D0420E0BE016F5F7F4FD0
:1021D000C6010E943C06B12CA12C811116C080E0E2
:1021E0000F900F90DF91CF911F910F91FF90EF9083
:1021F000DF90CF90BF90AF909F908F907F906F9027
:102200005F904F903F902F900895D60114968D9136
:102210009C9102E010E00A191B098017910708F44D
:102220008C0141E082E090E0801B910BA816B9067A
:1022300008F440E0602FF60180810E94F2061092BF
:10224000ED038093EC038017110649F624014A0C34
:102250005B1C1201C101841995098017910778F45C
:10226000D60111968D919C91DC01ED91FC91028437
:10227000F385E02D1995F10181931F01EBCFA00E9D
:10228000B11EF2E0AF16B10408F4BFCFF7018285AA
:10229000811140C0848590E0982F8827D301119642
:1022A0009C938E932385822B8D939C9381E098CF72
:1022B0001296ED91FC911397309709F490CF1496F4
:1022C0002D913C91159719964C9150E02330310592
:1022D00089F4816089839A834F5F5F4F02E010E049
:1022E0009401BE016F5F7F4FCF010E94580481119E
:1022F000CDCF76CF2115310519F490689983EECFB3
:102300002230310511F49F77F9CF2130310531F7B3
:10231000906CF4CF838590E0982F8827D301119695
:102320009C938E932485BFCFFC0101900020E9F798
:102330003197AF01481B590BBC018AE694E00C941D
:102340001108DF92EF92FF920F931F93CF93DF93C9
:102350006115710561F460E070E08FEF9D2DDF91F4
:10236000CF911F910F91FF90EF90DF9008958A0118
:10237000EB01DC01FC900B5E1F4F6F2DC8010E942A
:102380009D09009741F3FC01E580009721F3068049
:10239000F781E02DDE010D900020E9F79D0121502D
:1023A00031092C1B3D0BB0E0A0E0309739F0DF0184
:1023B0000D900020E9F71197AE1BBF0B2A173B07C2
:1023C00051F4DE012C0F3D1FA217B30769F05D9198
:1023D00041915417C9F36E2DC8010E949D090097C1
:1023E00009F4B9CFFE2CCFCFBC018F2DDE2CB6CF98
:1023F000FC014081518162817381CA014A9641F09A
:10240000FA01268D25FF04C00E94A111CB01089579
:1024100090E080E00895FF920F931F93CF93DF9396
:10242000FC01C181D2810581168101960E94F811BB
:102430000097E1F0FC01248126FF18C065966081B9
:10244000CE010E949D09009789F0FC01F5800115DD
:102450001105A9F06F2DCE010E949D09009711F082
:10246000FC01F58001501109009789F760E070E0E8
:10247000CB01DF91CF911F910F91FF900895DF91D4
:10248000CF911F910F91FF900C94880CFB0101904C
:102490000020E9F73197AF01461B570B0C94DF0979
:1024A0001F93CF93DF93EBE5F2E01281112379F0D4
:1024B000329621816213F9CFEC016CE50E94CA09C2
:1024C000612FCE01DF91CF911F910C94CA09611148
:1024D000F9CF6CE672E0DF91CF911F910C94461218
:1024E000CF92DF92EF92FF920F931F93CF93DF93E0
:1024F0008C016B017A0162E20E94CA09E601EC0CD0
:10250000FD1CCE15DF0529F06991C8010E9450120B
:10251000F8CF62E2C801DF91CF911F910F91FF9038
:10252000EF90DF90CF900C94CA092F923F924F9278
:102530005F926F927F928F929F92AF92BF92CF9253
:10254000DF92EF92FF920F931F93CF93DF93CDB75C
:10255000DEB76C970FB6F894DEBF0FBECDBF8C010F
:102560001B01DC0114968C9114978F77883009F445
:10257000B2C2E8F4843009F469C248F4833009F443
:102580009FC263E772E0C1010E9446121CC28530FF
:1025900009F470C28630A9F78C9168E772E0811166
:1025A00002C06DE772E0C1010E9446126DC28C301C
:1025B000F1F1C8F48A3029F7CD90DD90ED90FC90D0
:1025C000B701A601F7FE0BC06DE2C1010E94CA0966
:1025D00044275527BA014C195D096E097F09C101CD
:1025E0000E94F40951C2803209F4F7C1803449F6DF
:1025F0006BE5C1010E94CA09F80110811F3F09F46F
:10260000E7C1D10114968D919C91612F45960E944E
:102610009D098C01B1010E949512F80115811F3F9F
:1026200009F4D6C16CE2C1010E94CA09E7CFF801E2
:10263000C080D180E280F380A7019601C701B60176
:102640000E94FF2881119DCF20E030E0A901C70141
:10265000B6010E94FF28882379F0A7019601C701DF
:10266000B6010E947C2A9B01AC01C701B6010E9401
:10267000FF28882309F485CF20E030E0A901C701B5
:10268000B6010E94FF2887FF08C06DE2C1010E94C9
:10269000CA09F7FAF094F7F8F09420E836E948E12F
:1026A0005BE4C701B6010E94892B87FD88C074E1F5
:1026B000A72EB12C00E210E0188E1F8AF501E65417
:1026C000FE4F2591359145915491C701B6010E9465
:1026D000892B87FD13C0F501EE55FE4F25913591ED
:1026E00045915491C701B6010E9465296B017C0197
:1026F0002F89388D200F311F388F2F8B1595079517
:1027000034E0A31AB1088CEFA8168FEFB806B1F623
:1027100055245A9420E030E0A901C701B6010E9477
:10272000892B18160CF052C02CEA35EC47E257E31F
:10273000C701B6010E94FF2818160CF447C0A52D4A
:10274000B4E0AB02C0011124B12CA12CFC01EE5568
:10275000FE4F3F019C0126543E4F49013FEF531667
:1027600009F434C0F301EA0DFB1D65917591859163
:10277000949120E030E040E251E40E946529A701F5
:1027800096010E94892B18169CF4F401EA0DFB1D9A
:102790002591359145915491C701B6010E94652953
:1027A0006B017C018F89988D801B910B988F8F8B8B
:1027B000159507955A9494E0A91AB108CFCF00E275
:1027C00010E055E0552E188E1F8AA4CFC701B60120
:1027D0000E945A2B4B015C012B013C0106E080E476
:1027E00092E4AFE0B0E0898F9A8FAB8FBC8F102F4F
:1027F00001509AE04916510461047104C8F0698DD2
:102800007A8D8B8D9C8D2AE030E040E050E00E9474
:102810002E2A298F3A8F4B8F5C8FC301B2012AE099
:1028200030E040E050E00E942E2A29013A01DFCF3B
:10283000C501B4010E9404299B01AC01C701B60186
:102840000E947B2A6B017C01698D7A8D8B8D9C8D1A
:102850000E9404299B01AC01C701B6010E946529B1
:102860002B013C010E945A2B6B017C010E94042920
:102870009B01AC01C301B2010E947B2A9B01AC0108
:102880000E947C2A0E945A2BC60ED71EE81EF91EF3
:10289000898D9A8DAB8DBC8DC816D906EA06FB06CC
:1028A000D8F09FEF891A990AA90AB90AAF89B88D99
:1028B000AB2B39F1BAE08B169104A104B10408F1F5
:1028C000EF89F88D3196F88FEF8BC12CD12C7601E2
:1028D000812C912C540183942AE0422E512C612C9E
:1028E000712CC701B601A30192010E942E2A672B09
:1028F000682B692B51F4111644F469017A011150C7
:10290000F0CFC12CD12C7601E7CFB501A401C101D4
:102910000E94F409112371F14E01F1E18F0E911C17
:10292000012F54019AE0492E512C612C712C015039
:1029300068F0C701B601A30192010E942E2A605DD2
:10294000D4016E934D0169017A01F1CF812F90E09E
:10295000BC0160957095F501E81BF90B31978EE28B
:10296000808344275527461B570B6A0D7B1DC101E9
:102970000E94DF09EF89F88DEF2B29F165E6C1018F
:102980000E94CA090F89188D17FF07C06DE2C101A7
:102990000E94CA09119501951109FE0177969F01C0
:1029A0008AE0E82EF12CC801B7010E945F2A805D01
:1029B00082938B01672BB9F7A9014E1B5F0BBF01F7
:1029C000C1010E94DF09D10112968D919C915FC0D7
:1029D0006DE5C1010E94CA09F6CF6BE7C1010E94F3
:1029E000CA09F80110811F3F79F1D10114968D9128
:1029F0009C91612F45960E949D098C01FC01C68027
:102A0000D78062E2C1010E94CA097601D7016D91A7
:102A10007D01662321F0C1010E945012F7CF62E2CE
:102A2000C1010E94CA096AE3C1010E94CA09B10139
:102A3000C8010E949512F80115811F3F29F06CE230
:102A4000C1010E94CA09CFCF6DE7C3CFF8016081F1
:102A5000718150E040E06115710541F0FB0101908A
:102A60000020E9F73197AF01461B570BC1010E94C7
:102A70007012A9CFED91FC91438150E0BF016C5FD2
:102A80007F4FC1010E947012F101828193816C9687
:102A90000FB6F894DEBF0FBECDBFDF91CF911F916F
:102AA0000F91FF90EF90DF90CF90BF90AF909F90ED
:102AB0008F907F906F905F904F903F902F900895F0
:102AC000ED91FC91438150E0BF016C5F7F4FC101EC
:102AD0000E94DF09D9CF4D915D916D917C917FCDA1
:102AE00085ED8093BC008091360490913704A091CD
:102AF0003804B09139040796A11DB11D23E0B695A5
:102B0000A795979587952A95D1F72091BC0024FD2C
:102B100003C0109234040895409136045091370454
:102B20006091380470913904452B462B472B69F38B
:102B30000097A105B10541F025E32A95F1F70000C2
:102B40000197A109B109E1CF809135040C943A03B2
:102B5000CB010C948E2BCB010C942A2C8F929F923C
:102B6000AF92BF92CF92DF92EF92FF920F931F939B
:102B7000CF93DF936C018B01DB015996FC90BFEF83
:102B8000FB1621F16F2DC80145960E949D09EC01AD
:102B90008D81F801818F209709F496C01C828FEFF8
:102BA0008D831F821E82D60111966C916F3F09F4AE
:102BB0009FC0C80145960E949D09FC01F582D6017F
:102BC0001196FC92BE018F2D9D8084C05B01F5E0C3
:102BD000AF0EB11CDB01ED90FC90119757968C91D4
:102BE000882349F0C5010E94CE0CC62FD72F20970D
:102BF00011F0F82ED8CFF801C789908DC91325C0E0
:102C0000C03109F461C0CC0F65897689D701ED9197
:102C1000FC91B4E0CB9FA0011124A616B70609F0E1
:102C20004BC00190F081E02DBA01C70119950097C2
:102C300009F44AC020E1F501DC0101900D922A95CA
:102C4000E1F7F801968B858BC08FD8015596CD9111
:102C5000DC91569757968C91579721E0280F5796FD
:102C60002C93B4E08B9FC0011124C80FD91F90E1B1
:102C7000892E203111F48FE0882EE8E08E9EB0017D
:102C80001124D701ED91FC910190F081E02DC70155
:102C900019959B838A83892B09F4812C8882198258
:102CA000CD2B91F0C5010E94CE0CC62FD72FF82E48
:102CB000209709F078CF08C00480F581E02DC70186
:102CC0001995009709F0BDCF81E0F801828360E09B
:102CD00070E08FEF992DDF91CF911F910F91FF90B1
:102CE000EF90DF90CF90BF90AF909F908F9008951E
:102CF000F601F082F18266CF8F929F92AF92BF92DF
:102D0000CF92DF92EF92FF920F931F93CF93DF93B7
:102D1000EC018B01D42E0E94BC0A7C01892B09F0A6
:102D200047C0CE010E94400A863609F452C124F5FC
:102D3000873229F08B3561F1823209F053C11D824F
:102D40001C828A819B81892B31F4888199810E9420
:102D5000A2019B838A83CE010E945C0E7C01892B99
:102D600039F5CE010E943B0FF801248120782560BF
:102D70002483918380831CC0843709F412C18B376C
:102D800009F45BC08E3609F02DC163E772E012C111
:102D9000F80184818078806484830115110519F01D
:102DA0008FEF80838183D11011C025E0E22EF12CBA
:102DB000C701DF91CF911F910F91FF90EF90DF90AE
:102DC000CF90BF90AF909F908F9008951A86CE01BC
:102DD0000E94BC0A009709F085C06DE5CE010E94F3
:102DE000880A8111E5CFDA946B857C85C8010E9441
:102DF000AE156115710521F484E0E82EF12CD8CFD1
:102E00004D2DCE010E947C16009709F06BC0CE01BB
:102E10000E94BC0A009709F065C06DE5CE010E94D2
:102E2000880A8111C5CF6CE2CE010E94880A811107
:102E3000DBCF93E0E92EF12CBBCFF80184818078C1
:102E4000806284830115110519F08FEF80838183DF
:102E5000DD2009F4AACF1A86CE010E94BC0A009791
:102E600009F040C06DE7CE010E94880A8111A0CF11
:102E7000BB24BA94BD0C1D821C828A819B81892B44
:102E800031F4888199810E94A2019B838A83CE01BB
:102E90000E94400A8732E1F08232D1F0CE010E94D6
:102EA000400AD82E0E94B809882319F21A866D2D7F
:102EB000CE010E94230ECE010E94400AD82E0E940D
:102EC000B8098111F3CF8A819B81892B31F494CF8A
:102ED000CE010E945C0E009729F4CE010E94BC0A2C
:102EE000009711F07C0164CF6AE3CE010E94880A4A
:102EF000882309F49ECFEA81FB818C819D81E80FB4
:102F0000F91F14824B855C856A817B816C5F7F4FE2
:102F1000C8010E94A111CB016B01672BC9F5CE013D
:102F20000E943B0F4C016B857C85C8010E94AE1549
:102F30006B016115710509F45FCFFB018481806825
:102F40008483F4E08F0E911CF601978286824B2DCC
:102F5000B601CE010E947C16009721F6CE010E9498
:102F6000BC0A009709F0BECF6DE7CE010E94880A27
:102F700081111ECF6CE2CE010E94880A882309F4D9
:102F800058CFCE010E94BC0A009709F474CFAACF93
:102F90006B857C850E94980DF601848180788483FE
:102FA000D6CFF801848180788660848381E0808335
:102FB00068E772E0CE01DF91CF911F910F91FF90F2
:102FC000EF90DF90CF90BF90AF909F908F900C9438
:102FD000990AF801848180788660848310826DE785
:102FE00072E0E8CFCE010E94400A5E01FDE0AF0E24
:102FF000B11CD12C9A2CCB2C803374F08A3374F40E
:103000009FE3D91699F01A86D394F50181935F0155
:10301000CE010E94400AF0CF8B3291F393ED980FCE
:10302000923070F3982F9F7D953451F3CD0DD11DC3
:103030001D86B801892D9C2D0E94210B8111B8CECF
:10304000F8CEEF92FF920F931F93CF93DF93FC0183
:10305000C081D1817E01FAE1EF0EF11CE114F1048F
:1030600029F1FC01028113810115110551F18E8DA9
:10307000982F9F7721F5807880628E8F8FEF8A8FCF
:103080008B8FAE01B801C7010E94A111FB013097DF
:1030900061F4BE01C7010E94AE15FB01309729F013
:1030A00084818F778483178306837F01B701CE01E4
:1030B000DF91CF911F910F91FF90EF90089585FDC3
:1030C000E0CFF12CE12CF2CFCF92DF92EF92FF9282
:1030D0000F931F93CF93DF938C017B010E942118E4
:1030E000DC01CB01EB01009781F0F701C080D180BA
:1030F000E280F380BD010E94980D8C8180788C6005
:103100008C83C882D982EA82FB82D801ED91FC913E
:1031100080E0309719F0828191E08927DF91CF918B
:103120001F910F91FF90EF90DF90CF900895EF9255
:10313000FF920F931F93CF93DF938C017B010E942B
:103140002118DC01CB01EB01009791F0F701E08041
:10315000F180BD010E94980D8C8180788A608C83FB
:10316000C701FF0CAA0BBB0B88839983AA83BB837F
:10317000D801ED91FC9180E0309719F0828191E0C7
:103180008927DF91CF911F910F91FF90EF900895C4
:10319000CB01BA010C94B32C1F920F920FB60F9271
:1031A00011240BB60F922F933F934F935F936F931E
:1031B0007F938F939F93AF93BF93EF93FF938091F0
:1031C000B900887F803609F44DC008F040C08832CD
:1031D00009F4A9C028F5803109F49DC0C8F48823FA
:1031E00009F4FBC0883009F496C0FF91EF91BF91BC
:1031F000AF919F918F917F916F915F914F913F918F
:103200002F910F900BBE0F900FBE0F901F9018952F
:10321000883109F488C0803241F78093320414C0A9
:10322000803409F49DC040F48033B9F38833E9F663
:103230008093320485ECB0C0803509F485C08835B0
:1032400009F496C0883489F60E947015CECF88396B
:1032500009F48CC038F5883729F050F4883611F01D
:10326000803719F683E0809334041092E70357C047
:10327000883809F47BC0803919F0803809F0B5CF5F
:103280008091E703803208F071C0E091E70381E0AC
:103290008E0F8093E7038091BB00F0E0E953FC4F71
:1032A00080833DC0803B39F0E0F4803A09F479C076
:1032B000883A09F09ACF84E0809334041092C603D0
:1032C0001092C503E091E803F091E903199580910C
:1032D000C50381110FC081E08093C5031092A5033F
:1032E00009C0803C09F4A6CF883C09F4A3CF883BF1
:1032F00009F07BCFE091C60381E08E0F8093C60377
:10330000F0E0EB55FC4F80818093BB009091C603A9
:103310008091C50329C080910F048093BB0085EC88
:103320008093BC0062CF9091310480913004981753
:1033300058F5E091310481E08E0F80933104F0E084
:10334000E05FFB4F8081E9CFE091310481E08E0F97
:10335000809331048091BB00F0E0E05FFB4F8083FD
:1033600090913104809130049817C8F285E8D8CF45
:10337000E091310481E08E0F809331048091BB0095
:10338000F0E0E05FFB4F80838091330481115CCFDC
:1033900081E080930E0484EA8093BC001092340490
:1033A00024CF85EC8093BC00109234048091E70315
:1033B000803230F4E091E703F0E0E953FC4F1082F3
:1033C0006091E70370E0E091EA03F091EB0387EC92
:1033D00093E019951092E70308CF1092320434CF8E
:1033E0001F920F920FB60F9211242F933F938F933A
:1033F0009F93AF93BF9380919C0390919D03A09165
:103400009E03B0919F0330919B0323E0230F2D3740
:1034100058F50196A11DB11D20939B0380939C0339
:1034200090939D03A0939E03B0939F038091A0036C
:103430009091A103A091A203B091A3030196A11DB5
:10344000B11D8093A0039093A103A093A203B09316
:10345000A303BF91AF919F918F913F912F910F90B7
:103460000FBE0F901F90189526E8230F0296A11DFE
:10347000B11DD2CF1F920F920FB60F9211240BB62F
:103480000F922F933F934F935F936F937F938F93FD
:103490009F93AF93BF93EF93FF93E0910F02F0914F
:1034A00010021995FF91EF91BF91AF919F918F916C
:1034B0007F916F915F914F913F912F910F900BBE34
:1034C0000F900FBE0F901F9018951F920F920FB67E
:1034D0000F9211240BB60F922F933F934F935F934C
:1034E0006F937F938F939F93AF93BF93EF93FF93CC
:1034F000E0910D02F0910E021995FF91EF91BF91AD
:10350000AF919F918F917F916F915F914F913F917B
:103510002F910F900BBE0F900FBE0F901F9018951C
:103520001F920F920FB60F9211240BB60F922F938A
:103530003F934F935F936F937F938F939F93AF933B
:10354000BF93EF93FF93E0910302F091040219956A
:10355000FF91EF91BF91AF919F918F917F916F916B
:103560005F914F913F912F910F900BBE0F900FBE27
:103570000F901F9018951F920F920FB60F92112463
:103580000BB60F922F933F934F935F936F937F935D
:103590008F939F93AF93BF93EF93FF93E0910102BB
:1035A000F09102021995FF91EF91BF91AF919F9118
:1035B0008F917F916F915F914F913F912F910F90DC
:1035C0000BBE0F900FBE0F901F9018951F920F9279
:1035D0000FB60F9211240BB60F922F933F934F9378
:1035E0005F936F937F938F939F93AF93BF93EF936B
:1035F000FF93E0910B02F0910C021995FF91EF916E
:10360000BF91AF919F918F917F916F915F914F91FA
:103610003F912F910F900BBE0F900FBE0F901F90F8
:1036200018951F920F920FB60F9211240BB60F929E
:103630002F933F934F935F936F937F938F939F93BA
:10364000AF93BF93EF93FF93E0910902F0910A02C9
:103650001995FF91EF91BF91AF919F918F917F91BC
:103660006F915F914F913F912F910F900BBE0F90F3
:103670000FBE0F901F9018951F920F920FB60F92CA
:1036800011240BB60F922F933F934F935F936F9339
:103690007F938F939F93AF93BF93EF93FF93E091AB
:1036A0000702F09108021995FF91EF91BF91AF9138
:1036B0009F918F917F916F915F914F913F912F914A
:1036C0000F900BBE0F900FBE0F901F9018951F927A
:1036D0000F920FB60F9211240BB60F922F933F93B8
:1036E0004F935F936F937F938F939F93AF93BF930A
:1036F000EF93FF93E0910502F09106021995FF9177
:10370000EF91BF91AF919F918F917F916F915F9159
:103710004F913F912F910F900BBE0F900FBE0F90C6
:103720001F9018951F920F920FB60F9211240BB68F
:103730000F922F933F934F935F936F937F938F934A
:103740009F93AF93BF93EF93FF93809187039091E3
:103750008803A0918903B0918A03892B8A2B8B2B34
:10376000D1F1909186038091000089278093000019
:103770008091870390918803A0918903B0918A0377
:10378000181619061A061B069CF48091870390915F
:103790008803A0918903B0918A030197A109B10917
:1037A0008093870390938803A0938903B0938A033F
:1037B000FF91EF91BF91AF919F918F917F916F9109
:1037C0005F914F913F912F910F900BBE0F900FBEC5
:1037D0000F901F90189580910002E2EDF1E0E491C6
:1037E0009FEF90930002E230E9F040F4EE2389F07D
:1037F000E13091F060E00E94D302DACFE43049F189
:1038000010F1E530B9F7909173009D7F90937300AC
:10381000F1CF10926E00EECF90916F009D7F90934C
:103820006F00E8CF909170009D7F9093700091E0C1
:103830009093B0009091B100987F94609093B10004
:103840001092B300D7CF909171009D7F909371003B
:10385000D1CF909172009D7F90937200CBCF1F9239
:103860000F920FB60F9211240BB60F922F933F9326
:103870004F935F936F937F938F939F93AF93BF9378
:10388000EF93FF938AE694E00E948808FF91EF91FE
:10389000BF91AF919F918F917F916F915F914F9168
:1038A0003F912F910F900BBE0F900FBE0F901F9066
:1038B00018951F920F920FB60F9211240BB60F920C
:1038C0002F938F939F93EF93FF93E0917A04F0915E
:1038D0007B048081E0918004F091810482FD1DC011
:1038E0009081809183048F5F8F732091840482176D
:1038F00041F0E0918304F0E0E659FB4F958F80930F
:103900008304FF91EF919F918F912F910F900BBEA8
:103910000F900FBE0F901F9018958081F2CF1F92CD
:103920000F920FB60F9211240BB60F922F933F9365
:103930004F935F936F937F938F939F93AF93BF93B7
:10394000CF93DF93EF93FF9380918503C09143055D
:10395000D0E087FF23C010928500109284008091F0
:1039600085038F5F8093850380918503082E000C6B
:10397000990B8C179D0724F4809185038C3074F18A
:10398000809184009091850084349C4908F465C03E
:103990008091840090918500049661C08091850398
:1039A000082E000C990B8C179D07CCF630918503DF
:1039B00025E03203F0011124E95FFA4F808186FF90
:1039C000CECF309185033203F0011124E95FFA4F25
:1039D000808160E08F730E94D302C1CF8091840008
:1039E000909185003091850325E03203F001112488
:1039F000E95FFA4F41815281840F951F90938900AE
:103A000080938800309185033203F0011124E95F2F
:103A1000FA4F808186FF0CC0309185033203F0019C
:103A20001124E95FFA4F808161E08F730E94D30215
:103A3000FF91EF91DF91CF91BF91AF919F918F91C6
:103A40007F916F915F914F913F912F910F900BBE9E
:103A50000F900FBE0F901F90189580E49CE99093F3
:103A60008900809388008FEF80938503E1CF1092C7
:103A700061041092600488EE93E0A0E0B0E08093CF
:103A8000620490936304A0936404B09365042BE3F1
:103A900032E030935F0420935E0410926D04109224
:103AA0006C0480936E0490936F04A0937004B093A1
:103AB00071048DE492E090936B0480936A0485EC2A
:103AC00090E0909377048093760484EC90E0909358
:103AD00079048093780480EC90E090937B04809349
:103AE0007A0481EC90E090937D0480937C0482ECD6
:103AF00090E090937F0480937E0486EC90E0909316
:103B000081048093800410928304109284041092A4
:103B10008504109286048CE08093B60584E280933D
:103B2000B70585E08093B80596E09093B9059EE1CE
:103B30009093BA059FE19093BB0592E29093BC05E8
:103B400093E29093BD0594E49093BE0595E4909321
:103B5000BF051092C1051092C00590E49093C30573
:103B60001092C8051092C9051092CA051092CB0593
:103B70001092CC051092CD051092CE051092CF0573
:103B800098E0E9E1F2E0A8EDB5E001900D929A9598
:103B9000E1F740E050E060EA70E44093E0055093C4
:103BA000E1056093E2057093E305E0914305EC3095
:103BB00008F0CAC091E09E0F90934305E093B505CD
:103BC0008E9FF0011124E95FFA4F88EB9BE092830E
:103BD000818388E68093A60510926A0510926B0592
:103BE00010926C0510926D0510926E0510926F0583
:103BF0001092700510927105109272051092730563
:103C00001092740510927505109277051092760542
:103C1000109279051092780510927B0510927A0522
:103C200010927C0510927D0510927E0510927F0502
:103C3000109280051092810510928E0510928F05CA
:103C40001092900510929105109292051092930592
:103C5000109294051092950580E090E0A0EAB0E4FF
:103C60008093960590939705A0939805B093990536
:103C700080E090E0A8ECB2E480939A0590939B05D5
:103C8000A0939C05B0939D0510929E0510929F05F0
:103C90001092A0051092A1051092A2051092A30502
:103CA0001092A4051092A5051092590510925A057C
:103CB00010925B0510925C0510925D0510925E05F6
:103CC00010925F05109260058FEF9FEFDC018093EB
:103CD000620590936305A0936405B0936505809396
:103CE000660590936705A0936805B09369051092E7
:103CF00061051092580510925705109246051092D2
:103D00004705109248051092490510924A051092F5
:103D10004B0510924C0510924D0580934F059093E2
:103D20005005A0935105B09352058093530590938D
:103D30005405A0935505B093560510924E05109268
:103D400045051092440508958FEF8093B50541CF46
:103D5000CF93DF93CDB7DEB7CD58D1090FB6F89426
:103D6000DEBF0FBECDBF789484B5826084BD84B5BC
:103D7000816084BD85B5826085BD85B5816085BD66
:103D800080916E00816080936E001092810080911E
:103D900081008260809381008091810081608093A6
:103DA0008100809180008160809380008091B100CB
:103DB00084608093B1008091B00081608093B000F6
:103DC0008091910082608093910080919100816048
:103DD0008093910080919000816080939000809109
:103DE000A10082608093A1008091A10081608093F6
:103DF000A1008091A00081608093A00080912101AA
:103E00008260809321018091210181608093210152
:103E10008091200181608093200180917A008460EC
:103E200080937A0080917A00826080937A008091FA
:103E30007A00816080937A0080917A008068809314
:103E40007A001092C100E0917A04F0917B0482E044
:103E50008083E0917604F09177041082E0917804F9
:103E6000F091790480E1808310928204E0917E04D5
:103E7000F0917F0486E08083E0917C04F0917D04E2
:103E8000808180618083E0917C04F0917D04808159
:103E900088608083E0917C04F0917D04808180685B
:103EA0008083E0917C04F0917D0480818F7D80830C
:103EB00061E08091B7050E945B0360E08091B705E7
:103EC0000E94D30260E08091B6050E945B0380915E
:103ED000C0059091C105892BA9F486E090E00E946D
:103EE0008E2BFC018091C30580838EE594E0928344
:103EF0008183138280E290E095838483F093C105EF
:103F0000E093C005E090C005F090C1051092ED036C
:103F10001092EC0310923B0410925D040E941C036B
:103F20008DEB91E09093E9038093E8038EEB91E0B1
:103F30009093EB038093EA0311E0F7011383C70129
:103F40000E94E405882309F46AC080E090E1A0E0C3
:103F5000B0E08093C4059093C505A093C605B093C7
:103F6000C7058AE090E0A0E0B0E08093C805909398
:103F7000C905A093CA05B093CB0580E090E0A0E00E
:103F8000B0E48093CC059093CD05A093CE05B0937B
:103F9000CF058091C0059091C105A1961CAE1DAEC4
:103FA0001EAE1FAEA19760969FAF8EAF60976296D0
:103FB0001FAE1EAE629768961FAF689785E090E0CF
:103FC00066969FAF8EAF669769961FAF699702E0BE
:103FD00067960FAF679740E050E160E070E0CE0178
:103FE000825B9F4F0E945A068091C0059091C10547
:103FF000188A198A1A8A1B8A9A8389831C821B82CF
:104000001A8718861F821B8709874FE959E360E0EA
:1040100070E0CE0101960E945A068093C20578EBAB
:10402000E72E75E0F72E06EB15E0ECE36E2EE2E0EE
:104030007E2EF2E88F2EF2E09F2EABECCA2EA7E088
:10404000DA2EBBE8AB2EBB24B394F70192818191A9
:104050007F01F801828F938F61E00E945B0361E032
:10406000F801838D0E945B03F70195818381F8013C
:10407000868F978F61E00E945B0360E0F801878D77
:104080000E945B0361E0F801868D0E94D3025FB657
:10409000F89480918B03811125C0F3018491F40180
:1040A0009491E82FF0E0EE0FFF1FED52FE4FA59127
:1040B000B4918C91982321F461E085E30E94D302AE
:1040C00061E085E30E945B038CB580618CBD8CB59B
:1040D00080648CBD61E084E30E945B0361E083E364
:1040E0000E945B0380918B038F5F80938B035FBE85
:1040F000C6010197F1F760E0F801868D0E94D302B6
:1041000088E80E94960983E00E94960961E0F80120
:10411000868D0E94D302C6010197F1F760E0F80195
:10412000868D0E94D30288E90E94960980E00E9451
:10413000960980E00E94960980E00E94960980E03E
:104140000E94960961E0F801868D0E94D302C501A4
:104150000197F1F760E0F801868D0E94D30280EEAE
:104160000E94960961E0F801868D0E94D3020E5FDD
:104170001F4FF5E00A3B1F0709F067CF01E023E07E
:1041800042E06BE68091A6050E94541000E022E018
:1041900044E06BE18091A6050E94541022E044E0C7
:1041A0006CE18091A6050E945410D090A60508EEFF
:1041B00013E0CE0101967C019C0141E06BE68D2D60
:1041C0000E94A90F89818F7B8983C957DF4F88831C
:1041D000C758D040AE0149575F4F6BE68D2D0E9406
:1041E0001D0682E08093930383E08093940362E052
:1041F00082E00E945B0362E0809194030E945B0373
:1042000090919303923009F0F7C08EED9AE090936D
:1042100002028093010280916A008C7F8260809309
:104220006A00EC9A84E690E0A0E0B0E08093590543
:1042300090935A05A0935B05B0935C058CE098E0E1
:10424000909358058093570581E0809361050E9403
:1042500000080091590510915A0520915B05309195
:104260005C05DC01CB01800F911FA21FB31F80935F
:104270005D0590935E05A0935F05B0936005809106
:10428000620590916305A0916405B09165058093E6
:10429000660590936705A0936805B093690580E073
:1042A00090E0A0E8BEE380936A0590936B05A0932D
:1042B0006C05B0936D058DEC9CECACECBDE380938C
:1042C0006E0590936F05A0937005B09371051092E1
:1042D00072051092730510927405109275058FE6A1
:1042E00092E1A3E8BAE38093960590939705A09393
:1042F0009805B093990588EC90E0A0E0B0E0809339
:10430000860590938705A0938805B09389058DEC69
:104310009CECACE4BEE38093820590938305A0936C
:104320008405B093850561E080E20E945B033EE472
:10433000232E312C2C0E3D1E95E0290E311CEEE46F
:10434000F0E0EC0FFD1F7A96C457DF4FF983E88346
:10435000CC58D04049EBC42E42E0D42E61E080E23C
:104360000E94D3020E94CA0760E080E20E94D3024A
:104370000E94CA07B0909A03BB2009F4D8C081E11B
:1043800092E060969FAF8EAF609761961FAE619787
:1043900063961FAE1EAE6397A5963FAE2EAEA59751
:1043A000A6961FAEA69784E0A7968FAFA7978FEF2C
:1043B000A8968FAFA897AD961FAEAD9761E172E05A
:1043C000C1010E94000D61961FAE619760960EAD0F
:1043D0001FAD609763968EAD9FAD6397009709F40C
:1043E00052C0FC012081318163963FAF2EAF6397AD
:1043F000B8010E94450DEECF933071F48EED9AE036
:10440000909304028093030280916A00837F886006
:1044100080936A00ED9A06CF8EEE890F843008F003
:1044200001CF87E1891BE82FF0E0EE0FFF1FEF5F60
:10443000FD4F2EED3AE0318320838430A1F08530AA
:10444000D1F0833041F0809169008C7F826080934D
:104450006900E89AE7CE80916900837F8860809345
:104460006900E99ADFCE809169008F7C8062809339
:104470006900EA9AD7CE809169008F738068809333
:104480006900EB9ACFCEAD961FAEAD978EE490E06B
:104490008C0F9D1F9A8389831C821B821E821D8222
:1044A0001F82EAE6F4E0F987E8871B869D878C8700
:1044B0004AE0C457DF4F68817981CC58D040C701AA
:1044C0000E947C168C01892B51F48A85882339F04F
:1044D000AD968FADAD9783FF02C003E010E08B81F6
:1044E0009C81009731F0E981FA81608171810E949D
:1044F000450D10929A030115110509F445C483E88E
:1045000092E00E949411000F111FF801E55DFD4F2C
:1045100080819181009711F00E9494118AE992E0C4
:104520000E949411CE01825B9F4F0E944F0D80919B
:104530009903882309F4B2C3E1E1F2E0FA83E98345
:104540001B821D821C8286E090E08C0F9D1F9F8B3A
:104550008E8B188E84E0898F8FEF8A8F1F8E0E943A
:1045600000084B015C016096FFAEEEAE609781ECF7
:1045700092E062969FAF8EAF6297CE01825B9F4FB3
:104580000E942118DC01CB018B01672B61F0BD017A
:104590000E94980DF80184818078886084838082ED
:1045A0009182A282B38280917B00877F80937B007F
:1045B00085E480937C0080917A00806480937A0007
:1045C00080917A0086FDFCCF9091780080917900EF
:1045D000892798278927AF969FAF8EAFAF976096B0
:1045E000FFAEEEAE609786EC92E062969FAF8EAF24
:1045F0006297BE0163597F4FCE01825B9F4F0E943D
:1046000097188090950390909603A0909703B09090
:1046100098036096FFAEEEAE60978DEC92E06296E6
:104620009FAF8EAF6297CE01825B9F4F0E94211891
:10463000DC01CB018B01672B61F0BD010E94980D5D
:10464000F801848180788A60848380829182A2824A
:10465000B38280917C0590917D05A0917E05B091FB
:104660007F0562968CAF9DAFAEAFBFAF6297AF963E
:10467000FFAEEEAEAF9784ED92E0E1969FAF8EAFC6
:10468000E197BE01625B7F4FCE0183599F4F0E942D
:1046900064188091C0059091C105A1961CAE1DAE15
:1046A0001EAE1FAEA19760969FAF8EAF60976296C9
:1046B0001FAE1EAE629711E068961FAF689782E04A
:1046C00090E066969FAF8EAF669769961FAF699729
:1046D00002E067960FAF6797BE0163597F4FCE0127
:1046E000825B9F4F0E94A5108093C205AF96AEAC2F
:1046F000BFACAF9783E0B694A7948A95E1F7AA0C74
:10470000BB1CAA0CBB1C8091C0059091C105A19651
:104710001CAE1DAE1EAE1FAEA19760969FAF8EAFB2
:10472000609762961FAE1EAE629768961FAF68973D
:1047300081E090E066969FAF8EAF669769961FAF57
:10474000699767960FAF6797BE0163597F4FCE0198
:10475000825B9F4F0E94A5108093C205AF966EADFD
:104760007FADAF97072E000C880B990B0E9406298E
:104770002AE037ED43E25CE30E94652920E030E067
:104780004AE754E40E94E82A2B013C01B501BB0C26
:10479000880B990B0E9406292FE632E143E85AE381
:1047A0000E9465299B01AC01C301B2010E947C2AD1
:1047B00062966CAF7DAF8EAF9FAF6297AF96FFAE44
:1047C000EEAEAF9789ED92E0E1969FAF8EAFE197A5
:1047D000BE01625B7F4FCE0183599F4F0E946418D8
:1047E0008091C0059091C105C458DF4F188219828D
:1047F0001A821B82CC57D040AF969FAF8EAFAF9737
:10480000E1961FAE1EAEE197E7961FAFE79785E0F2
:1048100090E0E5969FAF8EAFE597E8961FAFE897DB
:10482000E6960FAFE6974091C4055091C50560919B
:10483000C6057091C705CE0183599F4F0E945A0645
:104840008091C0059091C105A1961CAE1DAE1EAE13
:104850001FAEA19760969FAF8EAF609762961FAE16
:104860001EAE629768961FAF689784E090E06696E8
:104870009FAF8EAF669769961FAF699767960FAF28
:104880006797BE0160587F4FCE01825B9F4F0E94A9
:10489000A5108093C205C058DF4F68817981C05848
:1048A000D040072E000C880B990B0E9406294B0163
:1048B0005C016091C8057091C9058091CA0590910D
:1048C000CB050E9404299B01AC01C501B4010E94E3
:1048D000E82A20E030E04AE754E40E94E82A6296A1
:1048E0006CAF7DAF8EAF9FAF6297AF96FFAEEEAE6F
:1048F000AF9781EE92E0E1969FAF8EAFE197BE0158
:10490000625B7F4FCE0183599F4F0E94641860966F
:10491000FFAEEEAE60978DE992E062969FAF8EAFEC
:1049200062976FE873E0CE01825B9F4F0E9464182C
:104930006096FFAEEEAE609789EE92E062969FAF12
:104940008EAF62976DE873E0CE01825B9F4F0E944D
:10495000971808EE13E027EA35E042E06BE3809118
:10496000A6050E94A90F6091A7057091A80576275A
:1049700067277627072E000C880B990B0E940629C3
:1049800020E030E040E858E30E94652962966CAF71
:104990007DAF8EAF9FAF6297AF96FFAEEEAEAF9793
:1049A00084EF92E0E1969FAF8EAFE197BE01625B2C
:1049B0007F4FCE0183599F4F0E94641827EA35E04C
:1049C00042E06DE38091A6050E94A90F6091A705C2
:1049D0007091A805762767277627072E000C880B8D
:1049E000990B0E94062920E030E040E858E30E943D
:1049F000652962966CAF7DAF8EAF9FAF6297AF9621
:104A0000FFAEEEAEAF978BEF92E0E1969FAF8EAF29
:104A1000E197BE01625B7F4FCE0183599F4F0E9499
:104A2000641827EA35E042E06FE38091A6050E9412
:104A3000A90F6091A7057091A805762767277627AB
:104A4000072E000C880B990B0E94062920E030E00D
:104A500040E858E30E94652962966CAF7DAF8EAF47
:104A60009FAF6297AF96FFAEEEAEAF9782E093E056
:104A7000E1969FAF8EAFE197BE01625B7F4FCE01A3
:104A800083599F4F0E94641827EA35E042E063E4AF
:104A90008091A6050E94A90F6091A7057091A805B5
:104AA000762767277627072E000C880B990B0E9424
:104AB000062920E030E04AE753E40E94652920E01F
:104AC00030E040E058E30E94652962966CAF7DAF0C
:104AD0008EAF9FAF6297AF96FFAEEEAEAF9789E015
:104AE00093E0E1969FAF8EAFE197BE01625B7F4F8F
:104AF000CE0183599F4F0E94641827EA35E042E0B7
:104B000065E48091A6050E94A90F6091A7057091A8
:104B1000A805762767277627072E000C880B990BA8
:104B20000E94062920E030E04AE753E40E9465290C
:104B300020E030E040E058E30E94652962966CAFC7
:104B40007DAF8EAF9FAF6297AF96FFAEEEAEAF97E1
:104B50008FE093E0E1969FAF8EAFE197BE01625B7D
:104B60007F4FCE0183599F4F0E94641827EA35E09A
:104B700042E067E48091A6050E94A90F6091A70515
:104B80007091A805762767277627072E000C880BDB
:104B9000990B0E94062920E030E04AE753E40E9486
:104BA000652920E030E040E058E30E9465296296E4
:104BB0006CAF7DAF8EAF9FAF6297AF96FFAEEEAE9C
:104BC000AF9785E193E0E1969FAF8EAFE197BE018D
:104BD000625B7F4FCE0183599F4F0E946418B09053
:104BE00081056096FFAEEEAE60978BE193E0629632
:104BF0009FAF8EAF6297CE01825B9F4F0E942118BC
:104C0000DC01CB018B01672B49F0BD010E94980D9F
:104C1000F8018481807886608483B08260918A05FF
:104C200070918B0580918C0590918D050E940429CF
:104C300062966CAF7DAF8EAF9FAF6297AF96FFAEBF
:104C4000EEAEAF9782E293E0E1969FAF8EAFE19731
:104C5000BE01625B7F4FCE0183599F4F0E94641853
:104C60008AE694E060969FAF8EAF609762961FAE23
:104C70001EAE62976496FFAEEEAE6497BE01625BB5
:104C80007F4FCE014B960E9495128AE992E00E94D6
:104C9000941110929903C7010E944F0D87E595E08A
:104CA0000E944A0984E495E00E944A090E94000893
:104CB00000918E0510918F052091900530919105FE
:104CC000601771078207930708F45BC08091800525
:104CD000882309F456C00E940008009186051091AF
:104CE00087052091880530918905DC01CB01800F73
:104CF000911FA21FB31F80938E0590938F05A093E1
:104D00009005B093910580907C0590907D05A090D2
:104D10007E05B0907F05E0917605F09177051995B5
:104D20009B01AC01C501B4010E947B2A4B015C01CF
:104D30009F77209196053091970540919805509165
:104D400099050E94FF2887FF7FC181E0809381053C
:104D500010928005E0917A05F0917B05309709F07B
:104D6000199580918E0590918F05A0919005B09135
:104D700091058093920590939305A0939405B09329
:104D800095050E941B09EACA8EE490E08C0F9D1FD6
:104D90009A838983EDE9F2E0FC83EB83C7010E94EB
:104DA000F8110097F1F0FC0184818F77D1F08EE447
:104DB00090E08C0F9D1F9A83898385EA92E09C8303
:104DC0008B83C7010E94F811009709F417C10E9454
:104DD000880C60938F03709390038093910390935A
:104DE0009203EEE4F0E0EC0FFD1FFA83E9838EEA14
:104DF00092E09C838B83C7010E94F811009721F1F8
:104E0000FC0184818F7701F18EE490E08C0F9D1F6F
:104E10009A838983EEEAF2E0FC83EB83C7010E9468
:104E2000F811FC01892B09F40DC194819F7798300A
:104E300009F4FDC008F0E6C0992309F403C19630D7
:104E400009F4F3C0B0928C038EE490E08C0F9D1FA8
:104E50009A838983DC82CB82C7010E94F811009774
:104E600009F460CBFC0184818F7709F45BCB10924D
:104E700080058EE490E08C0F9D1F9B838A83DD82EA
:104E8000CC8282E090E09F838E83C7010E940B1248
:104E90004B015C01EEE4F0E0EC0FFD1FE096FFAF8C
:104EA000EEAFE097E296DFAECEAEE29781E090E023
:104EB000E4969FAF8EAFE497CE0183599F4F0E9437
:104EC0000B122B013C018EE490E08C0F9D1FCF57FD
:104ED000DF4F99838883C158D040CD57DF4FD982A7
:104EE000C882C358D040CB57DF4F19821882C558AB
:104EF000D040C2960E940B1260936A0570936B05B6
:104F000080936C0590936D0540926E0550926F05ED
:104F1000609270057092710580927205909273058F
:104F2000A0927405B0927505EEE4F0E0EC0FFD1F61
:104F3000FB83EA83DD82CC8283E090E09F838E83D3
:104F4000C7010E940B12609396057093970580939A
:104F50009805909399058EE490E08C0F9D1F9B839C
:104F60008A83DD82CC8284E090E09F838E83C701B8
:104F70000E940B1260937C0570937D0580937E05E3
:104F800090937F058091760590917705892B09F4A0
:104F9000C9CA8091780590917905892B09F4C2CA14
:104FA00081E0809380050E940008009186051091A1
:104FB00087052091880530918905DC01CB01800FA0
:104FC000911FA21FB31F80938E0590938F05A0930E
:104FD0009005B09391051092810510929E05109254
:104FE0009F051092A0051092A1051092A2051092A3
:104FF000A3051092A4051092A50594CA60E070E084
:10500000CB01E7CE9A3099F09C3009F01BCFBB243E
:10501000B39420E030E0A9016081718182819381A5
:105020000E94FF2881110ECF0DC0B0800BCFBB2492
:10503000B39480819181A281B381892B8A2B8B2BA0
:1050400009F000CFB12CFECE0091780510917905C2
:105050000E9400084090920550909305609094053E
:1050600070909505641975098609970960938A05FA
:1050700070938B0580938C0590938D0520919E05F0
:1050800030919F054091A0055091A105C501B40143
:105090000E947C2A60939E0570939F058093A005D3
:1050A0009093A10540909A0550909B0560909C05B7
:1050B00070909D05A30192010E94892B181644F45B
:1050C00040929E0550929F056092A0057092A105A6
:1050D00077FA709477F87094A301920160919E051D
:1050E00070919F058091A0059091A1050E94FF28D5
:1050F00087FF08C040929E0550929F056092A005D0
:105100007092A105409082055090830560908405BF
:105110007090850520919E0530919F054091A005D6
:105120005091A10560916E0570916F058091700599
:10513000909171050E946529A30192010E94652941
:10514000C857DF4F688379838A839B83C858D040D0
:1051500020916A0530916B0540916C0550916D0569
:10516000C501B4010E9465299B01AC01C857DF4FFE
:10517000688179818A819B81C858D0400E947C2AAD
:10518000C857DF4F688379838A839B83C858D04090
:105190002091A2053091A3054091A4055091A50549
:1051A000C501B4010E947B2A2091720530917305DC
:1051B00040917405509175050E946529A3019201E3
:1051C0000E94E82A9B01AC01C857DF4F68817981B2
:1051D0008A819B81C858D0400E947C2A8092A20577
:1051E0009092A305A092A405B092A505F801199587
:1051F000B8CD8091C0059091C1050C942A2C0E94D5
:10520000412908F481E00895E89409C097FB3EF431
:1052100090958095709561957F4F8F4F9F4F992303
:10522000A9F0F92F96E9BB279395F6958795779581
:105230006795B795F111F8CFFAF4BB0F11F460FF41
:105240001BC06F5F7F4F8F4F9F4F16C0882311F099
:1052500096E911C0772321F09EE8872F762F05C0AD
:10526000662371F096E8862F70E060E02AF09A9548
:10527000660F771F881FDAF7880F9695879597F93D
:105280000895990F0008550FAA0BE0E8FEEF1616D7
:105290001706E807F907C0F012161306E407F5072A
:1052A00098F0621B730B840B950B39F40A2661F09E
:1052B000232B242B252B21F408950A2609F4A14041
:1052C000A6958FEF811D811D08950E9478290C9469
:1052D000E9290E94DB2938F00E94E22920F0952379
:1052E00011F00C94D2290C94D82911240C941D2A65
:1052F0000E94FA2970F3959FC1F3950F50E0551F56
:10530000629FF001729FBB27F00DB11D639FAA271A
:10531000F00DB11DAA1F649F6627B00DA11D661F69
:10532000829F2227B00DA11D621F739FB00DA11D8A
:10533000621F839FA00D611D221F749F3327A00D44
:10534000611D231F849F600D211D822F762F6A2FE0
:1053500011249F5750409AF0F1F088234AF0EE0F45
:10536000FF1FBB1F661F771F881F91505040A9F772
:105370009E3F510580F00C94D2290C941D2A5F3F6A
:10538000E4F3983ED4F3869577956795B795F795AE
:10539000E7959F5FC1F7FE2B880F911D9695879526
:1053A00097F9089597F99F6780E870E060E00895A5
:1053B0009FEF80EC089500240A941616170618062D
:1053C0000906089500240A94121613061406050609
:1053D0000895092E0394000C11F4882352F0BB0F9A
:1053E00040F4BF2B11F460FF04C06F5F7F4F8F4FFD
:1053F0009F4F089557FD9058440F551F59F05F3F38
:1054000071F04795880F97FB991F61F09F3F79F0E6
:1054100087950895121613061406551FF2CF469568
:10542000F1DF08C0161617061806991FF1CF8695EA
:105430007105610508940895E894BB2766277727CE
:10544000CB0197F908950E94502AA59F900DB49F13
:10545000900DA49F800D911D11240895A1E21A2E94
:10546000AA1BBB1BFD010DC0AA1FBB1FEE1FFF1F08
:10547000A217B307E407F50720F0A21BB30BE40B58
:10548000F50B661F771F881F991F1A9469F760959F
:105490007095809590959B01AC01BD01CF01089559
:1054A000A29FB001B39FC001A39F700D811D112465
:1054B000911DB29F700D811D1124911D0895AA1B8D
:1054C000BB1B51E107C0AA1FBB1FA617B70710F0EF
:1054D000A61BB70B881F991F5A95A9F78095909521
:1054E000BC01CD010895EE0FFF1F881F8BBF0790F1
:1054F000F691E02D19945058BB27AA270E94932AB1
:105500000C94E9290E94DB2938F00E94E22920F05E
:1055100039F49F3F19F426F40C94D8290EF4E09541
:10552000E7FB0C94D229E92F0E94FA2958F3BA1705
:10553000620773078407950720F079F4A6F50C94A9
:105540001C2A0EF4E0950B2EBA2FA02D0B01B901E9
:1055500090010C01CA01A0011124FF27591B99F0E9
:10556000593F50F4503E68F11A16F040A22F232FF5
:10557000342F4427585FF3CF469537952795A79545
:10558000F0405395C9F77EF41F16BA0B620B730BEC
:10559000840BBAF09150A1F0FF0FBB1F661F771F5D
:1055A000881FC2F70EC0BA0F621F731F841F48F412
:1055B000879577956795B795F7959E3F08F0B0CF9B
:1055C0009395880F08F09927EE0F97958795089582
:1055D0000E94FC2A0C94E9290E94E22958F00E94BA
:1055E000DB2940F029F45F3F29F00C94D2295111B6
:1055F0000C941D2A0C94D8290E94FA2968F3992347
:10560000B1F3552391F3951B550BBB27AA276217BE
:105610007307840738F09F5F5F4F220F331F441FCB
:10562000AA1FA9F335D00E2E3AF0E0E832D09150FF
:105630005040E695001CCAF72BD0FE2F29D0660FEC
:10564000771F881FBB1F261737074807AB07B0E82F
:1056500009F0BB0B802DBF01FF2793585F4F3AF035
:105660009E3F510578F00C94D2290C941D2A5F3F7F
:10567000E4F3983ED4F3869577956795B795F795BB
:105680009F5FC9F7880F911D9695879597F90895A3
:10569000E1E0660F771F881FBB1F6217730784073F
:1056A000BA0720F0621B730B840BBA0BEE1F88F74E
:1056B000E09508950E94022A88F09F5798F0B92F2C
:1056C0009927B751B0F0E1F0660F771F881F991F37
:1056D0001AF0BA95C9F714C0B13091F00E941C2A93
:1056E000B1E008950C941C2A672F782F8827B85FA3
:1056F00039F0B93FCCF3869577956795B395D9F78F
:105700003EF490958095709561957F4F8F4F9F4F98
:1057100008950E94412908F48FEF08950F931F9375
:10572000CF93DF938230910510F482E090E0E09116
:10573000E605F091E70530E020E0B0E0A0E030972A
:1057400099F42115310509F44AC0281B390B24307E
:105750003105D8F58A819B816115710589F1FB01BD
:1057600093838283FE0111C04081518102811381A4
:1057700048175907E0F04817590799F4109761F056
:1057800012960C93129713961C933296CF01DF91C9
:10579000CF911F910F9108950093E6051093E705AF
:1057A000F4CF2115310551F04217530738F0A90104
:1057B000DB019A01BD01DF01F801C1CFEF01F9CF93
:1057C0009093E7058093E605CDCFFE01E20FF31F2E
:1057D000819391932250310939832883D7CF209127
:1057E000E4053091E505232B41F420911502309119
:1057F00016023093E5052093E405209113023091C1
:1058000014022115310541F42DB73EB7409117021E
:1058100050911802241B350BE091E405F091E50549
:10582000E217F307A0F42E1B3F0B2817390778F077
:10583000AC014E5F5F4F2417350748F04E0F5F1FD6
:105840005093E5054093E405819391939FCFF0E059
:10585000E0E09CCFCF93DF930097E9F0FC01329713
:1058600013821282A091E605B091E705ED0130E0C8
:1058700020E01097A1F420813181820F931F2091A5
:10588000E4053091E5052817390709F061C0F09368
:10589000E505E093E405DF91CF910895EA01CE1785
:1058A000DF07E8F54A815B819E0141155105B1F79B
:1058B000E901FB83EA8349915991C40FD51FEC1785
:1058C000FD0761F4808191810296840F951FE901A3
:1058D00099838883828193819B838A83F0E0E0E0CF
:1058E00012968D919C9113970097B9F52D913C914B
:1058F0001197CD010296820F931F2091E4053091FC
:10590000E5052817390739F6309751F51092E70564
:105910001092E605B093E505A093E405BCCFD383D0
:10592000C28340815181840F951FC817D90761F444
:105930004E5F5F4F88819981480F591F5183408383
:105940008A819B81938382832115310509F0B0CF31
:10595000F093E705E093E6059ECFFD01DC01C0CFA3
:1059600013821282D7CF4F925F926F927F928F9263
:105970009F92AF92BF92CF92DF92EF92FF920F93DE
:105980001F93CF93DF938C01009799F4CB01DF91A4
:10599000CF911F910F91FF90EF90DF90CF90BF902C
:1059A000AF909F908F907F906F905F904F900C94EE
:1059B0008E2BFC01E60FF71F9C0122503109E217E4
:1059C000F30708F4AEC0D901CD91DC911197C61749
:1059D000D70720F1C530D10578F0CE01049786179E
:1059E000970750F0C61BD70B2297C193D1936D93A5
:1059F0007C93CF010E942A2CC801DF91CF911F9187
:105A00000F91FF90EF90DF90CF90BF90AF909F905D
:105A10008F907F906F905F904F9008955B01AC1ACC
:105A2000BD0A4C018C0E9D1EA091E605B091E705C4
:105A3000512C412CF12CE12C109731F58091E4058B
:105A40009091E5058815990509F05CC04616570642
:105A500008F058C08091130290911402009741F40D
:105A60008DB79EB74091170250911802841B950B79
:105A7000E817F90708F055C0F093E505E093E40551
:105A8000F90171836083B8CF8D919C911197129623
:105A90006C90129713967C901397A815B90559F539
:105AA0006C0142E0C40ED11CCA14DB0420F1AC012D
:105AB0004A195B09DA011296159780F062827382A7
:105AC00051834083D9016D937C93E114F10471F00B
:105AD000D7011396FC93EE9312978ECF22968C0FDC
