:100000000C9497010C943C1C0C94111C0C94E61B52
:100010000C94BB1B0C94901B0C94651B0C943A1B0A
:100020000C940F1B0C94C8010C94C8010C94C801CB
:100030000C94C8010C94671C0C94C8010C94C80162
:100040000C94C8010C94C8010C94C8010C94C8010C
:100050000C94C8010C94C8010C94C8010C94C51AE6
:100060000C94C8010C942E1D0C94041D0C94C80112
:100070000C94C8010C94C8010C94C8010C94C801DC
:100080000C94C8010C94C8010C94C8010C94C801CC
:100090000C94C8010C94C8010C94C8010C94A119CB
:1000A0000C94C8010C94C8010C94C8010C94C801AC
:1000B0000C94C8010C94C8010C94C8010C94C8019C
:1000C0000C94C8010C94C8010C94C8010C94C8018C
:1000D0000C94C8010C94C8010C94C8010C94C8017C
:1000E0000C94C8010C94D4090C94FE070C949D192F
:1000F0000C94E9020C94C7020C94160A0C940C0A96
:100100000C94390A0C942F0A0C94DB020C94E6012F
:100110000C94E5020C949F080C94D1020C94CF0926
:100120000C9403080C941E020C94641D0C94C002E1
:100130000C94E5010C94F3020C9459080C94200AD9
:100140000C9405080C940F020C9402080C944D0AB0
:100150000C94F7020C94C4020C94FA090C94BC029F
:100160000C94B9160C94E8090C940E020C946708D0
:100170000C94570A0C94DE090C9465020C94F2025C
:100180000C94DF020C94430A0C9438020C94B802CD
:100190000C94ED020C94AE0B0C94020A0C9404081F
:1001A0000C94B2020C9436080C94CD020C943308D3
:1001B0000C94F2090C9431020C9445080C94BC1672
:1001C0000C94610A0C94BE090C94EC080C9405295B
:1001D0000C9406080C94D70200002000230026008F
:1001E00029002C002F00320000010000030106014D
:1001F0000901CDCCCC3D0AD7233C17B7D13877CCF9
:100200002B329595E6241FB14F0A000020410000D3
:10021000C84200401C4620BCBE4CCA1B0E5AAEC58C
:100220009D740200002100240027002A002D0030C8
:1002300000330001010000040107010A010000224F
:1002400000250028002B002E0031003400020100A0
:1002500000050108010B010505050507050808084B
:1002600008020202020A0A08080404040401010147
:10027000010101010103030303030303030407074F
:10028000070C0C0C0C0C0C0C0C02020202060606ED
:1002900006060606060B0B0B0B0B0B0B0B010210D5
:1002A0002020080810204010204080020102010890
:1002B0000402010102040810204080804020100840
:1002C0000402018004020180402010080402010899
:1002D00004020101020408102040800102040810F9
:1002E00020408000000A0B02090C0D0E08070304D1
:1002F00001000000000000000000000000000000FD
:1003000000000000000000000000000000000012DB
:1003100011100000000000000000000000000000BC
:1003200000000000000000000000641D05291124E9
:100330001FBECFEFD1E2DEBFCDBF00E00CBF25E096
:10034000AAEAB3E001C01D92A83EB207E1F713E0AC
:10035000A0E0B2E0EEE8FBE500E00BBF02C00790D2
:100360000D92AA3AB107D9F711E0C6E9D1E000E051
:1003700006C021970109802FFE010E947F2AC539FE
:10038000D10780E00807A9F70E94601E0C94B52DE4
:100390000C940000CF93DF93EC0188819981DC01FC
:1003A000ED91FC910190F081E02D64E270E01995EF
:1003B000009741F02FE1FC01238321E02283DF91AC
:1003C000CF91089521E02A83FACF089508952091CE
:1003D000F503260F3327331F21323105ECF420912A
:1003E0006404FC0190E080E0243069F082E008952C
:1003F000A091F5032191AC014B525C4FA40FB52F96
:10040000B11D2C930196861798F38091F503680F20
:100410006093F50380E0089581E008950895E091E8
:100420001D0480911C04E81730F4F0E0E25EFB4FFD
:10043000808190E008958FEF9FEF089590911D04C3
:1004400080911C042FEF3FEF981748F4E92FF0E05C
:10045000E25EFB4F208130E09F5F90931D04C90155
:10046000089580911C0490911D04891B990B089597
:10047000CF92DF92EF92FF920F931F93CF93DF9370
:100480007C01CB018A0120916A04222389F0EB01CF
:100490006B01C40ED51ECC15DD0569F06991D7013D
:1004A000ED91FC910190F081E02DC7011995F3CFFA
:1004B000642F0E94E701C801DF91CF911F910F9136
:1004C000FF90EF90DF90CF900895CF93DF931F922E
:1004D000CDB7DEB7698320916A042223F9F0209119
:1004E0008D04203258F021E030E0FC013383228378
:1004F00090E080E00F90DF91CF91089580916B04A0
:10050000E82FF0E0E459FB4F998190838F5F80934F
:100510006B0480938D0481E090E0ECCF61E0CE012C
:1005200001960E94E701F7CF8150823108F05AC04E
:10053000E82FF0E08827E056FD4F8F4F0C947F2A7C
:10054000C002C402B202B802BC02F202C702CD026B
:10055000D102D702DB02DF02E502E902F202ED027C
:10056000F302F702809180008F77809380000895D6
:10057000809180008F7DF9CF80918000877FF5CFBB
:1005800084B58F7784BD089584B58F7DFBCF80912E
:10059000B0008F778093B00008958091B0008F7D78
:1005A000F9CF809190008F7780939000089580918B
:1005B00090008F7DF9CF80919000877FF5CF80915B
:1005C000A0008F778093A00008958091A0008F7D78
:1005D000F9CF8091A000877FF5CF809120018F77A0
:1005E000809320010895809120018F7DF9CF809123
:1005F0002001877FF5CF1F93CF93DF93282F30E023
:10060000F901ED51FD4F8491F901E356FD4FD4916D
:10061000F901E95AFD4FC491CC23A9F0162F81119D
:100620000E949402EC2FF0E0EE0FFF1FE35CFD4F01
:10063000A591B4918FB7F894EC91111108C0D095A1
:10064000DE23DC938FBFDF91CF911F910895DE2BC6
:10065000F8CFFC0180819181892B39F0A281B3818F
:100660009C9111968C919CBD8DBD83858F3F19F017
:1006700060E00C94FB020895FC0183858F3F19F024
:1006800061E00C94FB0208951092640481E0809371
:10069000630410923E0461E084E10E94FB0261E089
:1006A00085E10E94FB02E9EBF0E080818E7F808390
:1006B00080818D7F808388E48093B80085E4809377
:1006C000BC000895CF93DF9391E09093D4038823E7
:1006D000B9F0C091B800D091BA008091BC008A7B7B
:1006E0008093BC0060E084E10E94FB0260E085E151
:1006F0000E94FB020E944403D093BA00C093B8004A
:10070000DF91CF910895CF93DF9390E0FC01E35602
:10071000FD4F2491895A9D4FFC0184918823C9F093
:1007200090E0880F991FFC01ED5DFD4FA591B491FC
:10073000FC01E35CFD4FC591D49161110DC09FB7E1
:10074000F8948C91209582238C9388812823288388
:100750009FBFDF91CF910895623051F49FB7F89415
:100760003C91822F809583238C93E8812E2BEFCFB1
:100770008FB7F894EC912E2B2C938FBFEACF823059
:10078000910538F0880F991F880F991F05970197D9
:10079000F1F70895AF92BF92CF92DF92EF92FF925E
:1007A0000F931F93CF93DF93EC0188819981892B5D
:1007B00089F06EBD0DB407FEFDCFBEB48B2DDF9169
:1007C000CF911F910F91FF90EF90DF90CF90BF904E
:1007D000AF9008958885998511E0892B09F010E87C
:1007E000AA24A394862F812309F0A12C062F2C8103
:1007F0003D814E815F8160E271EA87E090E00E9476
:100800005D2AF22EB02EE12CC22ED12CFF2019F041
:10081000C6010E94BF038A85877F09F042C08D858B
:100820008F3F89F0902F912381E009F480E08A15B1
:1008300051F0EF85F8898F89992369F19081892B8F
:100840008083AA24A394E989FA898081998D892BD0
:100850008083FF2019F0C6010E94BF038E858F3F61
:1008600039F0EB89FC898081988D892309F0E12A90
:10087000E989FA899081898D8095892380838E8585
:100880008F3F09F0BE2C88859985892BB9F5110F0A
:100890001111BCCF93CF9081809589238083A12CA7
:1008A000D2CFE989FA898081998D892B8083FF20B5
:1008B00019F0C6010E94BF038D858F3F49F0EF8577
:1008C000F8898F89902F9123A9F09081892B8083BB
:1008D000E989FA899081898D8095892380838E8525
:1008E0008F3F69F2EB89FC898081988D892339F2E9
:1008F000E12AC5CF908180958923E9CF1695C8CF8D
:100900008F929F92AF92BF92CF92DF92EF92FF921F
:100910000F931F93CF93DF937C014B016A01B22E9B
:10092000A32E0E942903E401C80CD91CCC15DD05B7
:1009300069F4CB2DDA2D0C0F1D1FC017D10759F00C
:100940006FEFC7010E94CA038993F7CF6991C7016E
:100950000E94CA03EBCFC7010E943C0381E0DF91F4
:10096000CF911F910F91FF90EF90DF90CF90BF90AC
:10097000AF909F908F9008958F929F92AF92BF9269
:10098000CF92DF92EF92FF920F931F93CF93DF935B
:100990007C01B62EA72E6A0149010E942903E401B9
:1009A000080D191DC017D10761F4CB2DDA2DCC0E1F
:1009B000DD1ECC15DD0551F06991C7010E94CA0307
:1009C000F8CF6991C7010E94CA03ECCFC7010E940A
:1009D0003C0381E0DF91CF911F910F91FF90EF9049
:1009E000DF90CF90BF90AF909F908F9008953FB7CA
:1009F000F8948091D0039091D103A091D203B0914B
:100A0000D30326B5A89B05C02F3F19F00196A11D61
:100A1000B11D3FBFBA2FA92F982F8827BC01CD0148
:100A2000620F711D811D911D42E0660F771F881FA7
:100A3000991F4A95D1F708958F929F92AF92BF92D6
:100A4000CF92DF92EF92FF920F931F93CF93DF939A
:100A5000D0918D04D13208F0D7C0182FC0918C04EA
:100A60000E94F7046B017C018091640481116BC0CA
:100A700082E080936404109363048FEF8093620498
:100A800010926104D0936004ACE6B4E0E0E4F4E0DA
:100A900080E0D81391C010923F0480913F04CC0FA6
:100AA000C82BC0933F0480913E04813009F088C078
:100AB00010923E040E94F7046B017C0180913F0478
:100AC0008093BB008091660490916704A0916804B4
:100AD000B0916904892B8A2B8B2BA1F00E94F7041B
:100AE00000916604109167042091680430916904B4
:100AF0006C197D098E099F09061717072807390702
:100B000008F442C08091BC0083FDD8CF85EC80936F
:100B1000BC000E94F7046B017C0180916404823068
:100B200009F450C0809162048F3F09F46FC0809136
:100B30006204803209F46CC080916204803309F44D
:100B400069C084E026C08091660490916704A091FA
:100B50006804B0916904892B8A2B8B2B09F484CF0C
:100B60000E94F7048090660490906704A090680447
:100B7000B09069046C197D098E099F098616970645
:100B8000A806B90608F070CF809165040E94620340
:100B900085E010926B0410928D0410926A04DF912C
:100BA000CF911F910F91FF90EF90DF90CF90BF906A
:100BB000AF909F908F9008959D9191938F5F69CF93
:100BC00085EEA5CF8091660490916704A09168049A
:100BD000B0916904892B8A2B8B2B09F49ECF0E943C
:100BE000F704009166041091670420916804309125
:100BF00069046C197D098E099F09061717072807D4
:100C0000390708F08ACFC0CF81E0C3CF80E0C1CFE1
:100C100082E0BFCF83E0BDCFCF93DF93EC018B8128
:100C20008823A1F0888191E090936A0480938C04DA
:100C300010926B0410928D0481E00E941C0591E0DB
:100C4000811190E0892FDF91CF91089510921D04BA
:100C500010921C0410926B0410928D040E944403A5
:100C600085EE91E0909319048093180486EE91E04C
:100C700090931B0480931A0481E08B83CE010E9421
:100C80000C06982F8111CECFDDCFCF93DF93EA01F1
:100C900091E090936A0480938C0410926B041092FC
:100CA0008D048EE894E00E94650268818EE894E0ED
:100CB0000E94650281E00E941C0591E0811190E094
:100CC000892FDF91CF9108951F93CF93DF93EA018E
:100CD000122FDC0111968D919C91DC01ED91FC911C
:100CE0000280F381E02D1995C817D90729F4812FC7
:100CF0000E941C0591E0811190E0892FDF91CF9136
:100D00001F910895CF92DF92EF92FF920F931F935E
:100D1000CF93DF931F921F92CDB7DEB7FC014787B9
:100D2000508B618B728B8285882371F14487452FAC
:100D3000562F672F7727882349F143877F018BE060
:100D4000E80EF11C9681878199838A83C080D180C7
:100D5000C114D10409F443C0018510E098012E5F4D
:100D60003F4FD60114968D919C918217930780F482
:100D700080E00F900F90DF91CF911F910F91FF9026
:100D8000EF90DF90CF9008954387D1CF4487D6CF9F
:100D9000F60181819281208131E030936A042093B1
:100DA0008C0410926B0410928D040115110541F40E
:100DB00021E042E050E0B701C6010E946406D9CFAD
:100DC000DC01ED91FC910280F381E02DA801BE01D0
:100DD0006F5F7F4F19950817190751F6E9CFA28168
:100DE000B381109729F224813581018510E02330E9
:100DF000310579F48E7F89839A830F5F1F4F9E019F
:100E00002F5F3F4F42E050E0B701CD010E94BC048C
:100E1000B0CF2115310519F49F779983F0CF223097
:100E2000310511F49068F9CF2130310541F79F77F2
:100E30009064F3CF8F929F92AF92BF92CF92DF9246
:100E4000EF92FF920F931F93CF93DF93D82FC62F6C
:100E5000142F613208F09CC00E94F7046B017C01E2
:100E60008091640481116FC081E0809364041093C9
:100E700063049FEF90936204109261049C0F90931F
:100E8000600480933F0480913F04DD0FD82BD09302
:100E90003F0480913E04813009F07CC010923E04F2
:100EA0000E94F7046B017C0180913F048093BB009A
:100EB0008091660490916704A0916804B0916904E0
:100EC000892B8A2B8B2BA1F00E94F70400916604DA
:100ED0001091670420916804309169046C197D09B0
:100EE0008E099F09061717072807390708F44CC011
:100EF0008091BC0083FDD8CF85EC8093BC000E941C
:100F0000F7046B017C0180916404813009F444C0D2
:100F1000809161048C1710F4C0916104E0E4F4E066
:100F2000AEE1B4E080E08C1359C08C2FDF91CF91FB
:100F30001F910F91FF90EF90DF90CF90BF90AF90F7
:100F40009F908F9008958091660490916704A0917E
:100F50006804B0916904892B8A2B8B2B09F480CF0C
:100F60000E94F7048090660490906704A090680443
:100F7000B09069046C197D098E099F098616970641
:100F8000A806B90608F06CCF809165040E94620340
:100F9000C0E0CBCF85EEB1CF80916604909167041D
:100FA000A0916804B0916904892B8A2B8B2B09F4DA
:100FB000AACF0E94F7040091660410916704209163
:100FC0006804309169046C197D098E099F09061720
:100FD00017072807390708F096CFD6CF91919D9330
:100FE0008F5FA1CF2FB7F8946091CC037091CD03A0
:100FF0008091CE039091CF032FBF089581E080931D
:10100000CA0308950895089508950895AF92BF9270
:10101000CF92DF92EF92FF920F931F93CF93DF93C4
:101020006C017B018B01040F151FEB015E01AE18F3
:10103000BF08C017D10759F06991D601ED91FC9115
:101040000190F081E02DC6011995892B79F7C50132
:10105000DF91CF911F910F91FF90EF90DF90CF9094
:10106000BF90AF90089590E080E00895FC01538D0B
:10107000448D252F30E0842F90E0821B930B541772
:1010800010F0CF96089501970895FC01918D828DFF
:10109000981761F0A28DAE0FBF2FB11D5D968C9198
:1010A000928D9F5F9F73928F90E008958FEF9FEFD7
:1010B0000895FC01918D828D981731F0828DE80F93
:1010C000F11D858D90E008958FEF9FEF0895FC014D
:1010D000918D228D892F90E0805C9F4F821B91091A
:1010E0008F73992708958AE994E00E94670821E0A8
:1010F000892B09F420E0822F0895FC01A48DA80F0C
:10110000B92FB11DA35ABF4F2C91848D90E0019649
:101110008F739927848FA689B7892C93A089B18969
:101120008C91837080648C93938D848D981306C00A
:101130000288F389E02D80818F7D80830895EF926E
:10114000FF920F931F93CF93DF93EC0181E0888F81
:101150009B8D8C8D98131AC0E889F989808185FF51
:1011600015C09FB7F894EE89FF896083E889F989F3
:1011700080818370806480839FBF81E090E0DF91F5
:10118000CF911F910F91FF90EF900895F62E0B8D48
:1011900010E00F5F1F4F0F731127E02E8C8D8E1103
:1011A0000CC00FB607FCFACFE889F989808185FF6A
:1011B000F5CFCE010E947D08F1CFEB8DEC0FFD2F16
:1011C000F11DE35AFF4FF0829FB7F8940B8FEA8925
:1011D000FB8980818062CFCFCF93DF93EC01888D34
:1011E0008823B9F0AA89BB89E889F9898C9185FDA2
:1011F00003C0808186FD0DC00FB607FCF7CF8C9130
:1012000085FFF2CF808185FFEDCFCE010E947D0862
:10121000E9CFDF91CF91089581E08093C9030895CC
:101220000E947308882319F081E08093C90380E04D
:1012300090E0892B49F080E090E0892B29F00E9412
:10124000000081110E94000080E090E0892B49F0AD
:1012500080E090E0892B29F00E94000081110E941B
:10126000000080E090E0892B49F080E090E0892B3D
:1012700029F00E94000081110C94000008958F92C3
:101280009F92AF92BF92CF92DF92EF92FF920F9315
:101290001F93CF93DF93EC016A017B0120E030E0E4
:1012A0004FE753E4CB01B6010E9471294B015C0169
:1012B00020E030E0A9010E949C2B18168CF5C50196
:1012C000B4010E94662B8B01B98020E030E0A901B7
:1012D000C701B6010E949C2B60E018160CF061E07B
:1012E0008B2D0E94FB020F3F110509F0ECF4112732
:1012F000C88161E08C2F0E94830301151105B9F4A8
:1013000060E08C2FDF91CF911F910F91FF90EF90B4
:10131000DF90CF90BF90AF909F908F900C94FB0286
:10132000C501B4019058CDCF0FEF10E0E1CF0F3FD2
:10133000110511F461E0E5CFEC2FF0E0ED51FD4F28
:10134000E491E150E23108F0BCC0F0E08827E455B8
:10135000F64F8F4F0C947F2ABE09CF09D409DE09BE
:10136000E809610AF209FA09020A0C0A160A200AB7
:101370002F0A390A610A430A4D0A570A84B5806860
:1013800084BD07BDDF91CF911F910F91FF90EF902A
:10139000DF90CF90BF90AF909F908F90089584B5CD
:1013A000806284BD08BDEECF80918000806880930C
:1013B00080001093890000938800E4CF8091800022
:1013C00080628093800010938B0000938A00DACFB4
:1013D0008091800088608093800010938D0000933E
:1013E0008C00D0CF8091B00080688093B0000093D3
:1013F000B300C8CF8091B00080628093B0000093AA
:10140000B400C0CF809190008068809390001093CA
:10141000990000939800B6CF8091900080628093ED
:10142000900010939B0000939A00ACCF80919000A5
:1014300088608093900010939D0000939C00A2CF41
:101440008091A00080688093A0008091A0008F7B95
:101450008093A0001093A9000093A80093CF8091DF
:10146000A00080628093A0001093AB000093AA00BC
:1014700089CF8091A00088608093A0001093AD0078
:101480000093AC007FCF8091200180688093200181
:10149000109329010093280175CF8091200180626B
:1014A0008093200110932B0100932A016BCF809130
:1014B000200188608093200110932D0100932C015E
:1014C00061CF003811050CF035CF1ACF8EBD00006A
:1014D0000DB407FEFDCF8EB508956F3FB1F0E62F36
:1014E000E295EF7044E0E49F90011124DC01ED915E
:1014F000FC91E20FF31F6F70B8E06B9FC0011124E5
:1015000062817381860F971F089590E080E00895AF
:10151000982F80336CF08A3324F08F3524F08B378A
:1015200024F481E0089581341CF081E09B350CF0B7
:1015300080E00895CF93DF93EC0188819981DC01ED
:10154000ED91FC910190F081E02D19952A813B816C
:10155000820F931F9B838A83DF91CF910895CF934E
:10156000DF93EC0188819981DC01ED91FC9102808F
:10157000F381E02D19952A813B81820F931F9B8374
:101580008A83DF91CF9108958F929F92AF92BF92FD
:10159000CF92DF92EF92FF920F931F93CF93DF933F
:1015A000CDB7DEB766970FB6F894DEBF0FBECDBFDE
:1015B0006C018E01095E1F4F78018AE0882E912C04
:1015C000A12CB12CCB01BA01A50194010E945D2A86
:1015D000942F852F605DF80162938F01A901692F17
:1015E000782F411551056105710561F7A7014E1B63
:1015F0005F0BBF01C6010E94AF0A66960FB6F89452
:10160000DEBF0FBECDBFDF91CF911F910F91FF9035
:10161000EF90DF90CF90BF90AF909F908F90089504
:10162000CF92DF92EF92FF920F931F93CF93DF93AE
:10163000EC018A85811130C00F8118850E94F20764
:10164000D80118966D937D938D939C931B97D80129
:10165000ED91FC910284F385E02DC801199597FF67
:1016600025C00E94F207F801C084D184E284F3848B
:101670006C197D098E099F09C480D580E680F780AA
:101680006C157D058E059F0510F38FEF9FEF97FD7D
:1016900080E0898781E08A878985DF91CF911F91DA
:1016A0000F91FF90EF90DF90CF9008959927EFCFA3
:1016B0001F93CF93DF93EC01162F0E94100B811321
:1016C00006C01A8681E0DF91CF911F91089580E0D6
:1016D000FACF0F931F93CF93DF938C01EB01899186
:1016E000882369F0C8010E94100B882379F0FE015D
:1016F0003197908198130DC0F8011286F0CF90E0D9
:1017000080E0DF91CF911F910F91089582E090E0EA
:10171000F8CF83E090E0F5CFCF93DF93EC01CE01DB
:101720000E94100B8B304CF489305CF4882359F004
:1017300081E08E8390E080E00BC08D3011F080322C
:10174000B9F71A86ECCF8E81811105C081E090E057
:10175000DF91CF91089582E090E0FACF0F931F932D
:10176000CF93DF93C0913705D0913805209749F189
:101770002FA530E0F901ED51FD4F8491F901E356B9
:10178000FD4F0491F901E95AFD4F14911123F1F035
:1017900081110E949402E12FF0E0EE0FFF1FE8524A
:1017A000FE4FA591B491EC910E2381F088A999A9DF
:1017B000AAA9BBA90196A11DB11D88AB99ABAAAB83
:1017C000BBABDF91CF911F910F91089588A999A983
:1017D000AAA9BBA90197A109B109EFCF4F925F92C6
:1017E0006F927F928F929F92AF92BF92CF92DF9231
:1017F000EF92FF920F931F93CF93DF93EB01DC01E6
:101800002C912B32D9F12D32D1F50196FF24F3948E
:10181000FC01208130ED320F3A3018F02E3209F001
:1018200042C18C0160E070E0CB01F801219130ED04
:10183000832E820E39E0381520F16A3949E97407A0
:10184000840749E1940738F5AAE0B0E09B01AC01B8
:101850000E942F2A912CB12CA12C240135014094F7
:10186000509460947094461657066806790698F06E
:10187000680D791D8A1D9B1D8F01D7CF0196F12C14
:10188000C7CF211108C0FF20E9F161307105810542
:1018900050E89507A0F0E12CBAE08B2E912CA12CFA
:1018A000B12C6115710530E883079105B0F1A501F0
:1018B00094010E945D2ACA01B901E394F2CF2C8100
:1018C00020782A602C839B01AC0188279927DC01B2
:1018D000821B930BA40BB50B88839983AA83BB83CC
:1018E0008F2DDF91CF911F910F91FF90EF90DF909F
:1018F000CF90BF90AF909F908F907F906F905F90B0
:101900004F9008952C81207828602C8368837983F8
:101910008A839B83FF24F394E3CFF801D8012D91B0
:101920008D0130ED320F3A3010F4E394F6CF2E32C1
:1019300001F58F010F5F1F4FF8010F5F1F4F2081CF
:10194000A0EDDA2ED20EB9E0BD1598F06C3CECECAF
:101950007E07ECE08E07910578F7AAE0B0E09B01E6
:10196000AC010E942F2A6D0D711D811D911DEA94FD
:10197000E3CF20812F7D10E000E0253409F05BC02B
:1019800021812D32D1F53296CC24C394DF0110E0B1
:1019900000E02E2D0E2C000C330B5AE0B52EFD016D
:1019A000DD9040ED4D0D4A3008F040C0B09EA001E2
:1019B000B19E500D11240D2DDD0C110B005311099A
:1019C000040F151FA801420F531F473251053CF366
:1019D0008C81CC20C9F040E050E060E070E8F1106C
:1019E00003C040E050E0BA0180788C608C8348836B
:1019F00059836A837B83FC2C73CF2B3219F0319689
:101A0000C12CC4CF3296FCCF40E050E060E87FEFBD
:101A1000F11004C040E050E060E87FE780788C601F
:101A20008C83488359836A837B8374CFCC2019F0DD
:101A30001195019511092081211135C00E0D111D3F
:101A4000E7FC1A950E9410293AE0C32E32E0D32E0B
:101A5000101611063CF011950195110942EFC42EA4
:101A600041E0D42EE12C0115110591F000FF0CC0CE
:101A700024E0E29EF0011124EC0DFD1D259135912D
:101A8000459154910E94712915950795E394EBCFE8
:101A9000F11090582C8120782C602C8368837983F6
:101AA0008A839B8337CFF12C1BCFCF93DF9300D05A
:101AB0001F921F92CDB7DEB7FC0194819F779630BD
:101AC00091F030F4943020F560E070E0CB0111C06B
:101AD0009A30B9F09C3051F19830B1F76081718142
:101AE0008281938104C0608170E090E080E00E9478
:101AF00010290F900F900F900F900F90DF91CF91C2
:101B0000089560817181828193810E941229F1CFB1
:101B1000808191811D82BE016F5F7F4F04960E947C
:101B2000EE0BCE0101960E94550DE3CF60817181CD
:101B300082819381DECFFC019289915084E0989F4D
:101B400090011124A089B189A20FB31F1296ED91C3
:101B5000FC9113973097E9F011962C9111978C9185
:101B60002817B8F481E0820F11968C9388E0289FA3
:101B7000A0011124E40FF51F309759F014828FEF64
:101B8000858317821682BF01892F8295807F820FFD
:101B9000089560E070E08FEF0895DF92EF92FF927A
:101BA0000F931F93CF93DF93EC017B01D12C6889B6
:101BB00079898A89D816E0F484E0D89E80011124BE
:101BC000060F171FD80112966D917C916115710552
:101BD00041F0D701ED91FC910280F381E02DC70126
:101BE0001995F8011382128210821182D394DFCFEB
:101BF0001A8A8FEF8C8BC617D70761F0D701ED914A
:101C0000FC910280F381E02DC7011995D98BC88B17
:101C100084E08B8BDF91CF911F910F91FF90EF901C
:101C2000DF900895DB01ED91FC9111970280F38123
:101C3000E02DBC01CD0119940F931F93CF93DF9337
:101C4000EC01088119818B819C81009749F0FC018E
:101C5000208131813C832B83B8010E94120EF3CF87
:101C600068817981CE010596DF91CF911F910F9107
:101C70000C94CD0DCF93DF93EC01E881F981B0E0B6
:101C8000A0E03097F9F09F012C5F3F4F6217730778
:101C9000A1F4928191509283911114C0808191811D
:101CA000109741F08D939C93BA01CF01DF91CF91B2
:101CB0000C94120E99838883F7CFDF010190F08195
:101CC000E02DDFCFDF91CF9108958F929F92AF9259
:101CD000BF92CF92DF92EF92FF920F931F93CF9319
:101CE000DF938C01EB01FC01848180FF0AC04881F5
:101CF0005981608171816C5F7F4FCE0103960E9494
:101D00003A0EF8018481807681F10115110569F19F
:101D1000D0805E01F5E1AF0EB11C4E0183E0880E6C
:101D2000911CEFEFDE16F1F06D2DC5010E946D0ADA
:101D30007C01FC01C580848187FF07C048815981EF
:101D400066817781C4010E943A0EBE01C7010E94DC
:101D5000650EF701848180788483898D8583D98E8F
:101D6000DC2CDFCFF801D082D182DF91CF911F919F
:101D70000F91FF90EF90DF90CF90BF90AF909F902A
:101D80008F900895EF92FF920F931F93CF93DF935D
:101D90007C018B01EA016F3F710509F0B0F4E88125
:101DA000F9810480F581E02DAB014B5F5F4FBC01F1
:101DB000CE011995009749F0FC010383DF91CF9183
:101DC0001F910F91FF90EF900895E881F9810280B3
:101DD000F381E02DB701CE01199590E080E0EECFC0
:101DE000FF920F931F93CF93DF93EC01F62E8A811E
:101DF0009B810097C9F06C817D81FC0123812617AE
:101E0000170691F408811981F80140815181660F0C
:101E1000771F6F5F7F4F0E94C20E009719F421E079
:101E2000F80122839B838A838A819B81009759F0E2
:101E30002C813D81A9014F5F5F4F5D834C83820FF1
:101E4000931FFC01F482DF91CF911F910F91FF90BE
:101E500008959F92AF92BF92CF92DF92EF92FF923E
:101E60000F931F93CF93DF9300D01F921F92CDB794
:101E7000DEB78C010E94100BD82EF8011286F12CCF
:101E8000E12C60EFC62EC8010E94100BF8011286EB
:101E9000D81609F4B3C0811113C082E090E00F900E
:101EA0000F900F900F900F90DF91CF911F910F9196
:101EB000FF90EF90DF90CF90BF90AF909F900895EC
:101EC0008C3509F099C0C8010E94100B882329F3B2
:101ED000EBE5F2E0853709F083C0F801128654E0A3
:101EE000952EB12CA12CC8010E94100B8823A9F2B9
:101EF000813434F48053803130F083E090E0CFCFF0
:101F00008F7D8753F8CF44E0AA0CBB1C4A95E1F7BC
:101F1000A82AF80112869A949110E5CFC501985D20
:101F20008115944020F47501F3E0FF22ACCFC50188
:101F30009C5D81159440A8F483E0B822B701762F08
:101F40006627770F770F6A297B2990E080E001965A
:101F5000603871058105910540F4C8010E94F00EBA
:101F600092CFB50190E080E0F3CF1982262F2F7336
:101F700020682A8326E096958795779567952A9518
:101F8000D1F76032710580F4606C6B835E01E4E030
:101F9000AE0EB11CF50162915F01662309F473CFA7
:101FA000C8010E94F00EF6CF262F2F7320682B83D6
:101FB00086E0769567958A95E1F76031710538F48A
:101FC000606E6C835E01F5E0AF0EB11CE3CF60681C
:101FD0006C83CD825E0126E0A20EB11CDBCF32966F
:101FE0009081992309F489CF8913F9CF81818823BE
:101FF00009F483CFF8011286682FAFCF82819381D5
:10200000892B19F484E090E04ACF90E080E047CF3C
:10201000AF92BF92CF92DF92EF92FF920F931F93F6
:10202000CF93DF93DC011296ED91FC9113971496F8
:102030008D919C911597E80FF91F14820D911C91B9
:10204000119714966D917C91159712968D919C9194
:1020500013979C012C5F3F4FE801EB81FC817B01D2
:10206000E20EF31E3097B9F043814617170679F454
:102070005901AF014C5F5F4FEA14FB0499F1E50190
:10208000C9905E01EA01D990AE01CD14A9F3019087
:10209000F081E02DE7CFED01F801408151810E94F0
:1020A000C20EFC01892B21F481E0D80112968C9399
:1020B000A881B98113968D919C9114979183808307
:1020C0001496FC93EE9313971B821A82CF01DF9133
:1020D000CF911F910F91FF90EF90DF90CF90BF9025
:1020E000AF90089582818F5F8283F0CF2F923F92CD
:1020F0004F925F926F927F928F929F92AF92BF9218
:10210000CF92DF92EF92FF920F931F93CF93DF93C3
:1021100000D01F921F92CDB7DEB7B82E962E4D83FA
:1021200019010E94F2076B017C018D8019821C82CB
:10213000282D30E03B832A832801712C612C81E01B
:1021400080936A04B0928C0410926B0410928D04F8
:10215000692D8EE894E00E94650281E00E941C05D2
:1021600091E090936A0410926B0410928D0441E008
:10217000682D8B2D0E941A07A82E10921D048093A3
:102180001C0480911D04A816E1F00115110571F4DD
:102190008EE894E00E941E02F1012C81E20FF11DF5
:1021A00027FDFA9580832F5F2C83EBCF0E94F207E7
:1021B0006C197D098E099F096415750586059705BB
:1021C00038F381E00E941C0589813D81830F831AC9
:1021D00091E09983831708F4B2CF01151105C1F07E
:1021E0000E94F2076C197D098E099F0930E020E0FA
:1021F000601771078207930758F02C81822F220FF6
:10220000990B2A813B818217930714F43FEF3C839B
:102210008C810F900F900F900F900F90DF91CF91C6
:102220001F910F91FF90EF90DF90CF90BF90AF90F4
:102230009F908F907F906F905F904F903F902F90E6
:102240000895BF92CF92DF92EF92FF920F931F9368
:10225000CF93DF931F921F92CDB7DEB7F82EE62EF5
:10226000C42EB22ED02E08EE13E09E012E5F3F4FFB
:1022700041E00E947610882399F18C2D8B19990BDF
:10228000AC014F5F5F4F81E090E002C0880F991F63
:10229000BA94E2F70197042E01C0880F0A94EAF776
:1022A0000D2D01C0000F4A95EAF7982F90952A81CD
:1022B00092238023892B8A838983AE014F5F5F4FEE
:1022C0006E2D8F2D0E9445060F900F90DF91CF91BC
:1022D0001F910F91FF90EF90DF90CF90BF900895E6
:1022E00080E0F2CF2F923F924F925F926F927F9257
:1022F0008F929F92AF92BF92CF92DF92EF92FF9216
:102300000F931F93CF93DF931F921F92CDB7DEB72A
:102310007C013B014C018BE0880E911CD701169685
:102320009C91169717968C91179799838A83CD90D5
:10233000DC901197C114D10409F487C019964C910F
:1023400050E0F6018481958184179507A8F080817B
:1023500091E090936A0480938C0410926B04109225
:102360008D0420E0BE016F5F7F4FC6010E946406AE
:10237000B12CA12C811116C080E00F900F90DF913D
:10238000CF911F910F91FF90EF90DF90CF90BF9072
:10239000AF909F908F907F906F905F904F903F9005
:1023A0002F900895D60114968D919C9102E010E033
:1023B0000A191B098017910708F48C0141E082E09B
:1023C00090E0801B910BA816B90608F440E0602F3E
:1023D000F60180810E941A0710921D0480931C044C
:1023E0008017110649F624014A0C5B1C1201C10139
:1023F000841995098017910778F4D60111968D916B
:102400009C91DC01ED91FC910284F385E02D1995FE
:10241000F10181931F01EBCFA00EB11EF2E0AF16C8
:10242000B10408F4BFCFF7018285811140C08485D3
:1024300090E0982F8827D30111969C938E93238543
:10244000822B8D939C9381E098CF1296ED91FC9115
:102450001397309709F490CF14962D913C911597CE
:1024600019964C9150E02330310589F481608983BD
:102470009A834F5F5F4F02E010E09401BE016F5FEF
:102480007F4FCF010E9480048111CDCF76CF2115DF
:10249000310519F490689983EECF2230310511F49B
:1024A0009F77F9CF2130310531F7906CF4CF8385D8
:1024B00090E0982F8827D30111969C938E932485C2
:1024C000BFCFFC0101900020E9F73197AF01481B15
:1024D000590BBC018AE994E00C9406088F929F92F4
:1024E000AF92BF920F931F93CF93DF93CDB7DEB719
:1024F000A1970FB6F894DEBF0FBECDBF19A2423030
:1025000008F44AE08E010F5D1F4F842E912CB12CF0
:10251000A12CA50194010E945D2AE62FB901CA01F0
:10252000EA30F4F4E05DD801EE938D01232B242BE7
:10253000252B79F790E080E0109719F0CD010E94EB
:102540006112A1960FB6F894DEBF0FBECDBFDF912A
:10255000CF911F910F91BF90AF909F908F90089552
:10256000E95CE1CFDF92EF92FF920F931F93CF933D
:10257000DF936115710561F460E070E08FEF9D2DD0
:10258000DF91CF911F910F91FF90EF90DF90089511
:102590008A01EB01DC01FC900B5E1F4F6F2DC8011F
:1025A0000E946D0A009741F3FC01E580009721F33A
:1025B0000680F781E02DDE010D900020E9F79D01F6
:1025C000215031092C1B3D0BB0E0A0E0309739F0D1
:1025D000DF010D900020E9F71197AE1BBF0B2A1702
:1025E0003B0751F4DE012C0F3D1FA217B30769F022
:1025F0005D9141915417C9F36E2DC8010E946D0A77
:10260000009709F4B9CFFE2CCFCFBC018F2DDE2C63
:10261000B6CFFC014081518162817381CA014A9623
:1026200041F0FA01268D25FF04C00E94B212CB01B1
:10263000089590E080E00895FF920F931F93CF9349
:10264000DF93FC01C181D2810581168101960E9430
:1026500009130097E1F0FC01248126FF18C065965C
:102660006081CE010E946D0A009789F0FC01F5801F
:1026700001151105A9F06F2DCE010E946D0A00977A
:1026800011F0FC01F58001501109009789F760E015
:1026900070E0CB01DF91CF911F910F91FF900895D2
:1026A000DF91CF911F910F91FF900C94550DFB017D
:1026B00001900020E9F73197AF01461B570B0C94AE
:1026C000AF0A1F93CF93DF93EBE5F2E01281112362
:1026D00079F0329621816213F9CFEC016CE50E940A
:1026E0009A0A612FCE01DF91CF911F910C949A0A23
:1026F0006111F9CF6CE672E0DF91CF911F910C94DC
:102700005713CF92DF92EF92FF920F931F93CF93C5
:10271000DF938C016B017A0162E20E949A0AE60162
:10272000EC0CFD1CCE15DF0529F06991C8010E9453
:102730006113F8CF62E2C801DF91CF911F910F9131
:10274000FF90EF90DF90CF900C949A0A2F923F92D7
:102750004F925F926F927F928F929F92AF92BF92B1
:10276000CF92DF92EF92FF920F931F93CF93DF935D
:10277000CDB7DEB76C970FB6F894DEBF0FBECDBFF6
:102780008C011B01DC0114968C9114978F77883093
:1027900009F4B2C2E8F4843009F469C248F4833021
:1027A00009F49FC263E772E0C1010E9457131CC283
:1027B000853009F470C28630A9F78C9168E772E021
:1027C000811102C06DE772E0C1010E9457136DC212
:1027D0008C30F1F1C8F48A3029F7CD90DD90ED907E
:1027E000FC90B701A601F7FE0BC06DE2C1010E948B
:1027F0009A0A44275527BA014C195D096E097F09C9
:10280000C1010E94C40A51C2803209F4F7C1803468
:1028100049F66BE5C1010E949A0AF80110811F3F39
:1028200009F4E7C1D10114968D919C91612F4596D1
:102830000E946D0A8C01B1010E94A613F801158156
:102840001F3F09F4D6C16CE2C1010E949A0AE7CF8A
:10285000F801C080D180E280F380A7019601C70112
:10286000B6010E940B2981119DCF20E030E0A90123
:10287000C701B6010E940B29882379F0A7019601B0
:10288000C701B6010E94882A9B01AC01C701B601AD
:102890000E940B29882309F485CF20E030E0A901AC
:1028A000C701B6010E940B2987FF08C06DE2C10174
:1028B0000E949A0AF7FAF094F7F8F09420E836E9C3
:1028C00048E15BE4C701B6010E949C2B87FD88C0EC
:1028D00074E1A72EB12C00E210E0188E1F8AF501DA
:1028E000E65FFD4F2591359145915491C701B601A1
:1028F0000E949C2B87FD13C0F501EE50FE4F2591E1
:10290000359145915491C701B6010E9471296B011F
:102910007C012F89388D200F311F388F2F8B159513
:10292000079534E0A31AB1088CEFA8168FEFB8060C
:10293000B1F655245A9420E030E0A901C701B60150
:102940000E949C2B18160CF052C02CEA35EC47E282
:1029500057E3C701B6010E940B2918160CF447C0B3
:10296000A52DB4E0AB02C0011124B12CA12CFC01B7
:10297000EE50FE4F3F019C01265F3D4F49013FEF66
:10298000531609F434C0F301EA0DFB1D65917591EE
:102990008591949120E030E040E251E40E94712959
:1029A000A70196010E949C2B18169CF4F401EA0DD5
:1029B000FB1D2591359145915491C701B6010E94A7
:1029C00071296B017C018F89988D801B910B988FE9
:1029D0008F8B159507955A9494E0A91AB108CFCF1B
:1029E00000E210E055E0552E188E1F8AA4CFC701D3
:1029F000B6010E946D2B4B015C012B013C0106E0EE
:102A000080E492E4AFE0B0E0898F9A8FAB8FBC8F07
:102A1000102F01509AE04916510461047104C8F066
:102A2000698D7A8D8B8D9C8D2AE030E040E050E0FE
:102A30000E945D2A298F3A8F4B8F5C8FC301B201B0
:102A40002AE030E040E050E00E945D2A29013A018E
:102A5000DFCFC501B4010E9410299B01AC01C70161
:102A6000B6010E94872A6B017C01698D7A8D8B8D5E
:102A70009C8D0E9410299B01AC01C701B6010E94E8
:102A800071292B013C010E946D2B6B017C010E947E
:102A900010299B01AC01C301B2010E94872A9B014E
:102AA000AC010E94882A0E946D2BC60ED71EE81E1C
:102AB000F91E898D9A8DAB8DBC8DC816D906EA0694
:102AC000FB06D8F09FEF891A990AA90AB90AAF89BB
:102AD000B88DAB2B39F1BAE08B169104A104B10487
:102AE00008F1EF89F88D3196F88FEF8BC12CD12C3E
:102AF0007601812C912C540183942AE0422E512C92
:102B0000612C712CC701B601A30192010E945D2ABC
:102B1000672B682B692B51F4111644F469017A0173
:102B20001150F0CFC12CD12C7601E7CFB501A40113
:102B3000C1010E94C40A112371F14E01F1E18F0E0F
:102B4000911C012F54019AE0492E512C612C712CBB
:102B5000015068F0C701B601A30192010E945D2AED
:102B6000605DD4016E934D0169017A01F1CF812F2F
:102B700090E0BC0160957095F501E81BF90B319769
:102B80008EE2808344275527461B570B6A0D7B1D19
:102B9000C1010E94AF0AEF89F88DEF2B29F165E69C
:102BA000C1010E949A0A0F89188D17FF07C06DE2B4
:102BB000C1010E949A0A119501951109FE017796AB
:102BC0009F018AE0E82EF12CC801B7010E94492A32
:102BD000805D82938B01672BB9F7A9014E1B5F0BB8
:102BE000BF01C1010E94AF0AD10112968D919C9143
:102BF0005FC06DE5C1010E949A0AF6CF6BE7C10183
:102C00000E949A0AF80110811F3F79F1D1011496B0
:102C10008D919C91612F45960E946D0A8C01FC015B
:102C2000C680D78062E2C1010E949A0A7601D7016C
:102C30006D917D01662321F0C1010E946113F7CFE0
:102C400062E2C1010E949A0A6AE3C1010E949A0AE3
:102C5000B101C8010E94A613F80115811F3F29F098
:102C60006CE2C1010E949A0ACFCF6DE7C3CFF80191
:102C70006081718150E040E06115710541F0FB0118
:102C800001900020E9F73197AF01461B570BC101B6
:102C90000E948113A9CFED91FC91438150E0BF01C7
:102CA0006C5F7F4FC1010E948113F101828193818A
:102CB0006C960FB6F894DEBF0FBECDBFDF91CF91FB
:102CC0001F910F91FF90EF90DF90CF90BF90AF904A
:102CD0009F908F907F906F905F904F903F902F903C
:102CE0000895ED91FC91438150E0BF016C5F7F4FEF
:102CF000C1010E94AF0AD9CF4D915D916D917C9138
:102D00007FCD85ED8093BC0080916604909167042F
:102D1000A0916804B09169040796A11DB11D23E03C
:102D2000B695A795979587952A95D1F72091BC00E0
:102D300024FD03C0109264040895409166045091EC
:102D400067046091680470916904452B462B472BFA
:102D500069F30097A105B10541F02AE22A95F1F740
:102D600000C00197A109B109E1CF809165040C94DD
:102D70006203CB010C94A62BCB010C94422C8F92B6
:102D80009F92AF92BF92CF92DF92EF92FF920F93FA
:102D90001F93CF93DF936C018B01DB015996FC905D
:102DA000BFEFFB1621F16F2DC80145960E946D0AF9
:102DB000EC018D81F801818F209709F496C01C8267
:102DC0008FEF8D831F821E82D60111966C916F3F0B
:102DD00009F49FC0C80145960E946D0AFC01F58266
:102DE000D6011196FC92BE018F2D9D8084C05B019F
:102DF000F5E0AF0EB11CDB01ED90FC9011975796FA
:102E00008C91882349F0C5010E949B0DC62FD72FB6
:102E1000209711F0F82ED8CFF801C789908DC913EB
:102E200025C0C03109F461C0CC0F65897689D7010E
:102E3000ED91FC91B4E0CB9FA0011124A616B7063A
:102E400009F04BC00190F081E02DBA01C70119953E
:102E5000009709F44AC020E1F501DC0101900D92D0
:102E60002A95E1F7F801968B858BC08FD80155968E
:102E7000CD91DC91569757968C91579721E0280F6A
:102E800057962C93B4E08B9FC0011124C80FD91F13
:102E900090E1892E203111F48FE0882EE8E08E9E9B
:102EA000B0011124D701ED91FC910190F081E02D4A
:102EB000C70119959B838A83892B09F4812C888209
:102EC0001982CD2B91F0C5010E949B0DC62FD72FE3
:102ED000F82E209709F078CF08C00480F581E02D06
:102EE000C7011995009709F0BDCF81E0F8018283F1
:102EF00060E070E08FEF992DDF91CF911F910F91DE
:102F0000FF90EF90DF90CF90BF90AF909F908F9009
:102F10000895F601F082F18266CF8F929F92AF9270
:102F2000BF92CF92DF92EF92FF920F931F93CF93B6
:102F3000DF93EC018B01D42E0E948C0B7C01892B3A
:102F400009F047C0CE010E94100B863609F452C129
:102F500024F5873229F08B3561F1823209F053C1B3
:102F60001D821C828A819B81892B31F48881998101
:102F70000E94CA019B838A83CE010E94290F7C0193
:102F8000892B39F5CE010E940810F80124812078A0
:102F900025602483918380831CC0843709F412C187
:102FA0008B3709F45BC08E3609F02DC163E772E000
:102FB00012C1F80184818078806484830115110531
:102FC00019F08FEF80838183D11011C025E0E22EAC
:102FD000F12CC701DF91CF911F910F91FF90EF90DE
:102FE000DF90CF90BF90AF909F908F9008951A86FA
:102FF000CE010E948C0B009709F085C06DE5CE01D3
:103000000E94580B8111E5CFDA946B857C85C8014D
:103010000E94BF166115710521F484E0E82EF12CA1
:10302000D8CF4D2DCE010E948D17009709F06BC0AF
:10303000CE010E948C0B009709F065C06DE5CE01B2
:103040000E94580B8111C5CF6CE2CE010E94580B33
:103050008111DBCF93E0E92EF12CBBCFF801848105
:103060008078806284830115110519F08FEF8083C9
:103070008183DD2009F4AACF1A86CE010E948C0B31
:10308000009709F040C06DE7CE010E94580B8111F6
:10309000A0CFBB24BA94BD0C1D821C828A819B8167
:1030A000892B31F4888199810E94CA019B838A838C
:1030B000CE010E94100B8732E1F08232D1F0CE01B6
:1030C0000E94100BD82E0E94880A882319F21A86B3
:1030D0006D2DCE010E94F00ECE010E94100BD82E55
:1030E0000E94880A8111F3CF8A819B81892B31F458
:1030F00094CFCE010E94290F009729F4CE010E949F
:103100008C0B009711F07C0164CF6AE3CE010E9422
:10311000580B882309F49ECFEA81FB818C819D8125
:10312000E80FF91F14824B855C856A817B816C5F97
:103130007F4FC8010E94B212CB016B01672BC9F50A
:10314000CE010E9408104C016B857C85C8010E944D
:10315000BF166B016115710509F45FCFFB01848116
:1031600080688483F4E08F0E911CF601978286823A
:103170004B2DB601CE010E948D17009721F6CE018E
:103180000E948C0B009709F0BECF6DE7CE010E9424
:10319000580B81111ECF6CE2CE010E94580B882380
:1031A00009F458CFCE010E948C0B009709F474CF1C
:1031B000AACF6B857C850E94650EF601848180789C
:1031C0008483D6CFF801848180788660848381E00F
:1031D000808368E772E0CE01DF91CF911F910F915C
:1031E000FF90EF90DF90CF90BF90AF909F908F9027
:1031F0000C94690BF8018481807886608483108246
:103200006DE772E0E8CFCE010E94100B5E01FDE099
:10321000AF0EB11CD12C9A2CCB2C803374F08A3396
:1032200074F49FE3D91699F01A86D394F50181932B
:103230005F01CE010E94100BF0CF8B3291F393ED22
:10324000980F923070F3982F9F7D953451F3CD0DE8
:10325000D11D1D86B801892D9C2D0E94EE0B811178
:10326000B8CEF8CEEF92FF920F931F93CF93DF93D8
:10327000FC01C081D1817E01FAE1EF0EF11CE11465
:10328000F10429F1FC01028113810115110551F1AD
:103290008E8D982F9F7721F5807880628E8F8FEFAB
:1032A0008A8F8B8FAE01B801C7010E94B212FB0159
:1032B000309761F4BE01C7010E94BF16FB01309731
:1032C00029F084818F778483178306837F01B70178
:1032D000CE01DF91CF911F910F91FF90EF90089554
:1032E00085FDE0CFF12CE12CF2CFCF92DF92EF926F
:1032F000FF92CF93DF937B010E943219DC01CB0157
:10330000EB010097C1F0F701C080D180E280F3802B
:10331000BD010E94650E8C8180788C608C83C88290
:10332000D982EA82FB8281E0DF91CF91FF90EF901A
:10333000DF90CF90089580E0F7CFCB01BA010C94D5
:10334000CB2C1F920F920FB60F9211240BB60F9237
:103350002F933F934F935F936F937F938F939F939D
:10336000AF93BF93EF93FF938091B900887F80362E
:1033700009F44DC008F040C0883209F4A9C028F50E
:10338000803109F49DC0C8F4882309F4FBC088305B
:1033900009F496C0FF91EF91BF91AF919F918F91EA
:1033A0007F916F915F914F913F912F910F900BBE45
:1033B0000F900FBE0F901F901895883109F488C0A8
:1033C000803241F78093620414C0803409F49DC0B8
:1033D00040F48033B9F38833E9F68093620485ECD6
:1033E000B0C0803509F485C0883509F496C08834AA
:1033F00089F60E948116CECF883909F48CC038F541
:10340000883729F050F4883611F0803719F683E0B8
:10341000809364041092170457C0883809F47BC065
:10342000803919F0803809F0B5CF809117048032C7
:1034300008F071C0E091170481E08E0F80931704AB
:103440008091BB00F0E0E950FC4F80833DC0803BA1
:1034500039F0E0F4803A09F479C0883A09F09ACF5B
:1034600084E0809364041092F6031092F503E091D7
:103470001804F091190419958091F50381110FC07A
:1034800081E08093F5031092D50309C0803C09F4D4
:10349000A6CF883C09F4A3CF883B09F07BCFE0910D
:1034A000F60381E08E0F8093F603F0E0EB52FC4FC1
:1034B00080818093BB009091F6038091F50329C031
:1034C00080913F048093BB0085EC8093BC0062CF69
:1034D0009091610480916004981758F5E09161041F
:1034E00081E08E0F80936104F0E0E05CFB4F80810F
:1034F000E9CFE091610481E08E0F809361048091B7
:10350000BB00F0E0E05CFB4F808390916104809110
:1035100060049817C8F285E8D8CFE091610481E093
:103520008E0F809361048091BB00F0E0E05CFB4F64
:1035300080838091630481115CCF81E080933E049D
:1035400084EA8093BC001092640424CF85EC8093BD
:10355000BC001092640480911704803230F4E09132
:103560001704F0E0E950FC4F10826091170470E0FE
:10357000E0911A04F0911B0487EF93E019951092E3
:10358000170408CF1092620434CF1F920F920FB627
:103590000F9211242F933F938F939F93AF93BF93D9
:1035A0008091CC039091CD03A091CE03B091CF0335
:1035B0003091CB0323E0230F2D3758F50196A11D41
:1035C000B11D2093CB038093CC039093CD03A093A4
:1035D000CE03B093CF038091D0039091D103A091FB
:1035E000D203B091D3030196A11DB11D8093D003E6
:1035F0009093D103A093D203B093D303BF91AF9123
:103600009F918F913F912F910F900FBE0F901F9020
:10361000189526E8230F0296A11DB11DD2CF1F9247
:103620000F920FB60F9211240BB60F922F933F9368
:103630004F935F936F937F938F939F93AF93BF93BA
:10364000EF93FF93E0910F02F09110021995FF9113
:10365000EF91BF91AF919F918F917F916F915F910A
:103660004F913F912F910F900BBE0F900FBE0F9077
:103670001F9018951F920F920FB60F9211240BB640
:103680000F922F933F934F935F936F937F938F93FB
:103690009F93AF93BF93EF93FF93E0910D02F0914F
:1036A0000E021995FF91EF91BF91AF919F918F916C
:1036B0007F916F915F914F913F912F910F900BBE32
:1036C0000F900FBE0F901F9018951F920F920FB67C
:1036D0000F9211240BB60F922F933F934F935F934A
:1036E0006F937F938F939F93AF93BF93EF93FF93CA
:1036F000E0910302F09104021995FF91EF91BF91BF
:10370000AF919F918F917F916F915F914F913F9179
:103710002F910F900BBE0F900FBE0F901F9018951A
:103720001F920F920FB60F9211240BB60F922F9388
:103730003F934F935F936F937F938F939F93AF9339
:10374000BF93EF93FF93E0910102F091020219956C
:10375000FF91EF91BF91AF919F918F917F916F9169
:103760005F914F913F912F910F900BBE0F900FBE25
:103770000F901F9018951F920F920FB60F92112461
:103780000BB60F922F933F934F935F936F937F935B
:103790008F939F93AF93BF93EF93FF93E0910B02AF
:1037A000F0910C021995FF91EF91BF91AF919F910C
:1037B0008F917F916F915F914F913F912F910F90DA
:1037C0000BBE0F900FBE0F901F9018951F920F9277
:1037D0000FB60F9211240BB60F922F933F934F9376
:1037E0005F936F937F938F939F93AF93BF93EF9369
:1037F000FF93E0910902F0910A021995FF91EF9170
:10380000BF91AF919F918F917F916F915F914F91F8
:103810003F912F910F900BBE0F900FBE0F901F90F6
:1038200018951F920F920FB60F9211240BB60F929C
:103830002F933F934F935F936F937F938F939F93B8
:10384000AF93BF93EF93FF93E0910702F0910802CB
:103850001995FF91EF91BF91AF919F918F917F91BA
:103860006F915F914F913F912F910F900BBE0F90F1
:103870000FBE0F901F9018951F920F920FB60F92C8
:1038800011240BB60F922F933F934F935F936F9337
:103890007F938F939F93AF93BF93EF93FF93E091A9
:1038A0000502F09106021995FF91EF91BF91AF913A
:1038B0009F918F917F916F915F914F913F912F9148
:1038C0000F900BBE0F900FBE0F901F9018951F9278
:1038D0000F920FB60F9211240BB60F922F933F93B6
:1038E0004F935F936F937F938F939F93AF93BF9308
:1038F000EF93FF938091C4039091C503A091C603F9
:10390000B091C703892B8A2B8B2BD1F19091C303E4
:10391000809100008927809300008091C4039091DA
:10392000C503A091C603B091C703181619061A065D
:103930001B069CF48091C4039091C503A091C6031B
:10394000B091C7030197A109B1098093C403909373
:10395000C503A093C603B093C703FF91EF91BF9136
:10396000AF919F918F917F916F915F914F913F9117
:103970002F910F900BBE0F900FBE0F901F901895B8
:1039800080910002E2E2F2E0E4919FEF9093000266
:10399000E230E9F040F4EE2389F0E13091F060E0AC
:1039A0000E94FB02DACFE43049F110F1E530B9F7BB
:1039B000909173009D7F90937300F1CF10926E00F1
:1039C000EECF90916F009D7F90936F00E8CF909124
:1039D00070009D7F9093700091E09093B000909163
:1039E000B100987F94609093B1001092B300D7CF4C
:1039F000909171009D7F90937100D1CF9091720052
:103A00009D7F90937200CBCF1F920F920FB60F92B3
:103A100011240BB60F922F933F934F935F936F93A5
:103A20007F938F939F93AF93BF93EF93FF938AE915
:103A300094E00E947D08FF91EF91BF91AF919F911B
:103A40008F917F916F915F914F913F912F910F9047
:103A50000BBE0F900FBE0F901F9018951F920F92E4
:103A60000FB60F9211240BB60F922F938F939F9343
:103A7000EF93FF93E091AA04F091AB048081E09171
:103A8000B004F091B10482FD1DC090818091B30417
:103A90008F5F8F732091B404821741F0E091B304DB
:103AA000F0E0E656FB4F958F8093B304FF91EF91C2
:103AB0009F918F912F910F900BBE0F900FBE0F9083
:103AC0001F9018958081F2CFCF93DF93EEE8F4E05A
:103AD0001382128288EE93E0A0E0B0E084839583A5
:103AE000A683B7832BE332E031832083EAE9F4E055
:103AF0001382128284839583A683B7838DE492E038
:103B00009183808385EC90E09587848784EC90E0B6
:103B10009787868780EC90E0918B808B81EC90E09A
:103B2000938B828B82EC90E0958B848B86EC90E07B
:103B3000978B868B118E128E138E148ECCE4D5E06B
:103B40008CE0888384E2898385E08A8386E08B83A6
:103B50008EE18C838FE18D8382E28E8383E28F837B
:103B600084E4888785E489871B861A8680E48D87AC
:103B70001A8A1B8A1C8A1D8A1E8A1F8A188E198E11
:103B800088E0E9E1F2E0AEE6B5E001900D928A95B9
:103B9000E1F780E090E0A0EAB0E48AA79BA7ACA799
:103BA000BDA728E62CAB10928F05109290051092BD
:103BB000910510929205109293051092940510921F
:103BC00095051092960510929705109298051092FF
:103BD000990510929A0510929C0510929B051092DF
:103BE0009E0510929D051092A00510929F051092BF
:103BF000A1051092A2051092A3051092A40510929F
:103C0000A5051092A6051092B3051092B405109266
:103C1000B5051092B6051092B7051092B80510922E
:103C2000B9051092BA058093BB059093BC05A0938B
:103C3000BD05B093BE0580E090E0A8ECB2E48093AF
:103C4000BF059093C005A093C105B093C205109223
:103C5000C3051092C4051092C5051092C6051092B6
:103C6000C7051092C8051092C9051092CA05109296
:103C7000D1051092D2051092D3051092D40510925E
:103C8000D505D0933805C0933705E9E3F5E01282F6
:103C900013821482158216821782108611868FEF86
:103CA0009FEFDC0183879487A587B6878787908BF2
:103CB000A18BB28B128611821082DF91CF91089571
:103CC000CF93DF93CDB7DEB7CB58D1090FB6F894B9
:103CD000DEBF0FBECDBF789484B5826084BD84B54D
:103CE000816084BD85B5826085BD85B5816085BDF7
:103CF00080916E00816080936E00109281008091AF
:103D00008100826080938100809181008160809336
:103D10008100809180008160809380008091B1005B
:103D200084608093B1008091B00081608093B00086
:103D300080919100826080939100809191008160D8
:103D40008093910080919000816080939000809199
:103D5000A10082608093A1008091A1008160809386
:103D6000A1008091A00081608093A000809121013A
:103D700082608093210180912101816080932101E3
:103D80008091200181608093200180917A0084607D
:103D900080937A0080917A00826080937A0080918B
:103DA0007A00816080937A0080917A0080688093A5
:103DB0007A001092C100E091AA04F091AB0482E075
:103DC0008083E091A604F091A7041082E091A804FA
:103DD000F091A90480E180831092B204E091AE04D6
:103DE000F091AF0486E08083E091AC04F091AD04E3
:103DF000808180618083E091AC04F091AD0480818A
:103E000088608083E091AC04F091AD04808180688B
:103E10008083E091AC04F091AD0480818F7D80833C
:103E20000E94F7044B015C0124EFC22EDD24D394E1
:103E3000E12CF12C0E94F704681979098A099B0981
:103E4000683E734081059105A8F321E0C21AD108AC
:103E5000E108F10888EE880E83E0981EA11CB11CD1
:103E6000C114D104E104F10429F783E892E00E942F
:103E700061128EE992E00E94611261E080914D052D
:103E80000E94830360E080914D050E94FB0260E088
:103E900080914C050E9483038091560590915705AF
:103EA000892BA9F486E090E00E94A62BFC0180916A
:103EB000590580838EE894E092838183138280E2A7
:103EC00090E095838483F0935705E0935605E09046
:103ED0005605F090570510921D0410921C04109284
:103EE0006B0410928D040E94440385EE91E0909340
:103EF00019048093180486EE91E090931B0480933C
:103F00001A0411E0F7011383C7010E940C068823ED
:103F100009F46AC080E090E1A0E0B0E080935A0527
:103F200090935B05A0935C05B0935D058AE090E0FB
:103F3000A0E0B0E080935E0590935F05A0936005DC
:103F4000B093610580E090E0A0E0B0E4809362056A
:103F500090936305A0936405B09365058091560521
:103F600090915705A1961CAE1DAE1EAE1FAEA19737
:103F700060969FAF8EAF609762961FAE1EAE62973F
:103F800068961FAF689785E090E066969FAF8EAF0A
:103F9000669769961FAF699702E067960FAF6797BC
:103FA00040E050E160E070E0CE01825B9F4F0E94F4
:103FB00082068091560590915705188A198A1A8AA7
:103FC0001B8A9A8389831C821B821A8718861F8208
:103FD0001B8709874FE959E360E070E0CE01019645
:103FE0000E94820680935805EEE4EE2EE5E0FE2E58
:103FF0000CE415E0F0E5AF2EF5E0BF2EACE84A2E5C
:10400000A2E05A2EB2ED6B2EB2E07B2E8BECC82EC6
:1040100087E0D82E9BE8892E99249394F70192810A
:1040200081917F01F801828F938F61E00E94830369
:1040300061E0F801838D0E948303F70195818381FC
:10404000F801868F978F61E00E94830360E0F8019A
:10405000878D0E94830361E0F801868D0E94FB0238
:104060003FB6F8948091C803811125C0F201849174
:10407000F3019491E82FF0E0EE0FFF1FED5DFD4F8F
:10408000A591B4918C91982321F461E085E30E947D
:10409000FB0261E085E30E9483038CB580618CBDE7
:1040A0008CB580648CBD61E084E30E94830361E091
:1040B00083E30E9483038091C8038F5F8093C803CA
:1040C0003FBEC6010197F1F760E0F801868D0E94BE
:1040D000FB0288E80E94660A83E00E94660A61E0AB
:1040E000F801868D0E94FB02C6010197F1F760E09E
:1040F000F801868D0E94FB0288E90E94660A80E032
:104100000E94660A80E00E94660A80E00E94660AB9
:1041100080E00E94660A61E0F801868D0E94FB0241
:10412000C4010197F1F760E0F801868D0E94FB025F
:1041300080EE0E94660A61E0F801868D0E94FB0213
:104140000E5F1F4FA016B10609F068CF01E023E013
:1041500042E06BE6809180050E94211100E022E0A0
:1041600044E06BE1809180050E94211122E044E04F
:104170006CE1809180050E942111D090800508EEAD
:1041800013E0CE0101967C019C0141E06BE68D2D90
:104190000E94761089818F7B8983C957DF4F88837E
:1041A000C758D040AE0149575F4F6BE68D2D0E9436
:1041B000450682E080937A0583E080937B0562E088
:1041C00082E00E94830362E080917B050E9483036A
:1041D00090917A05923009F05AC58EEA9BE090934F
:1041E00002028093010280916A008C7F826080933A
:1041F0006A00EC9A80E090E0A0E8BEE380938F052F
:1042000090939005A0939105B09392058DEC9CEC52
:10421000ACECBDE38093930590939405A093950532
:10422000B0939605109297051092980510929905F3
:1042300010929A0582E098E090939C0580939B05EC
:1042400083E098E090939E0580939D0584E098E03C
:104250009093A00580939F058FE692E1A3E8BAE3CF
:104260008093BB059093BC05A093BD05B093BE059C
:1042700088EC90E0A0E0B0E08093AB059093AC05B3
:10428000A093AD05B093AE058DEC9CECACE4BEE321
:104290008093A7059093A805A093A905B093AA05BC
:1042A00040E050E0BA0186E695E00E943F0940E018
:1042B00050E060E070E888E695E00E943F0961E028
:1042C00080E20E94830361E08DE00E94830384E624
:1042D00090E0A0E0B0E080933B0590933C05A09374
:1042E0003D05B0933E058EEF97E090933A0580939D
:1042F000390581E0809343050E94F20700913B0558
:1043000010913C0520913D0530913E05DC01CB012B
:10431000800F911FA21FB31F80933F05909340050C
:10432000A0934105B09342058091440590914505C5
:10433000A0914605B09147058093480590934905A3
:10434000A0934A05B0934B05EEE4F0E0EC0FFD1F9F
:104350007096C857DF4FF983E883C858D0405EE4B1
:10436000C52ED12CCC0EDD1EF5E0CF0ED11C8EE477
:1043700090E08C0F9D1F4A96C657DF4F9983888324
:10438000CA58D0408091CA03882309F43AC4E1E1B5
:10439000F2E0FA83E9831B821D821C8286E090E0B2
:1043A0008C0F9D1F9F8B8E8B188E84E0898F8FEFD3
:1043B0008A8F1F8E0E94F2074B015C016096FFAE50
:1043C000EEAE6097E1EAF2E06296FFAFEEAF629781
:1043D000CE01825B9F4F0E943219DC01CB018B0121
:1043E000672B61F0BD010E94650EF8018481807821
:1043F0008860848380829182A282B38280917B00D4
:10440000877F80937B0085E480937C0080917A0095
:10441000806480937A0080917A0086FDFCCFA09022
:104420007800B09079006096FFAEEEAE609786EAB5
:1044300092E062969FAF8EAF6297CE01825B9F4FF4
:104440000E943219DC01CB018B01672B81F0BD0189
:104450000E94650EF801848180788A608483C5019A
:10446000BB0CAA0BBB0B80839183A283B383809088
:104470007C0590907D05A0907E05B0907F056096AC
:10448000FFAEEEAE60978DEA92E062969FAF8EAF80
:104490006297CE01825B9F4F0E943219DC01CB01F3
:1044A0008B01672B61F0BD010E94650EF8018481CC
:1044B00080788A60848380829182A282B382809194
:1044C000A1059091A205A091A305B091A405E19644
:1044D0008CAF9DAFAEAFBFAFE1976096FFAEEEAED3
:1044E000609784EB92E062969FAF8EAF6297BE01B9
:1044F00063597F4FCE01825B9F4F0E947519E196F1
:104500001CAE1DAE1EAE1FAEE1976096FFAEEEAEC6
:10451000609789EB92E062969FAF8EAF6297BE0183
:1045200063597F4FCE01825B9F4F0E947519809126
:10453000560590915705A1961CAE1DAE1EAE1FAE3E
:10454000A19760969FAF8EAF609762961FAE1EAE2A
:10455000629711E068961FAF689782E090E06696D8
:104560009FAF8EAF669769961FAF699702E0679617
:104570000FAF6797BE0163597F4FCE01825B9F4F9C
:104580000E94721180935805AF96AEACBFACAF9746
:1045900033E0B694A7943A95E1F7AA0CBB1CAA0C99
:1045A000BB1C8091560590915705A1961CAE1DAE7F
:1045B0001EAE1FAEA19760969FAF8EAF60976296BA
:1045C0001FAE1EAE629768961FAF689781E090E0BD
:1045D00066969FAF8EAF669769961FAF699767968D
:1045E0000FAF6797BE0163597F4FCE01825B9F4F2C
:1045F0000E94721180935805AF966EAD7FADAF9754
:10460000072E000C880B990B0E9412292AE037ED27
:1046100043E25CE30E94712920E030E04AE754E481
:104620000E94F42A2B013C01B501BB0C880B990BAD
:104630000E9412292FE632E143E85AE30E947129D1
:104640009B01AC01C301B2010E94882AE1966CAFC4
:104650007DAF8EAF9FAFE1976096FFAEEEAE6097F5
:1046600086EC92E062969FAF8EAF6297BE0163596F
:104670007F4FCE01825B9F4F0E9475198091560536
:1046800090915705C458DF4F188219821A821B82F5
:10469000CC57D040AF969FAF8EAFAF97E1961FAE8D
:1046A0001EAEE197E7961FAFE79785E090E0E596AD
:1046B0009FAF8EAFE597E8961FAFE897E6960FAFEE
:1046C000E69740915A0550915B0560915C057091A9
:1046D0005D05CE0183599F4F0E9482068091560549
:1046E00090915705A1961CAE1DAE1EAE1FAEA197B0
:1046F00060969FAF8EAF609762961FAE1EAE6297B8
:1047000068961FAF689784E090E066969FAF8EAF83
:10471000669769961FAF699767960FAF6797BE0157
:1047200060587F4FCE01825B9F4F0E947211809331
:104730005805C058DF4F68817981C058D040072E96
:10474000000C880B990B0E9412294B015C016091AF
:104750005E0570915F0580916005909161050E94F2
:1047600010299B01AC01C501B4010E94F42A20E08C
:1047700030E04AE754E40E94F42AE1966CAF7DAF42
:104780008EAF9FAFE1976096FFAEEEAE60978EEC76
:1047900092E062969FAF8EAF6297BE0163597F4FE2
:1047A000CE01825B9F4F0E94751908EE13E021E84D
:1047B00035E042E06BE3809180050E9476106091C5
:1047C000810570918205762767277627072E000CD2
:1047D000880B990B0E94122920E030E040E858E352
:1047E0000E947129E1966CAF7DAF8EAF9FAFE197CC
:1047F0006096FFAEEEAE609786ED92E062969FAF58
:104800008EAF6297BE0163597F4FCE01825B9F4F8F
:104810000E94751921E835E042E06DE38091800542
:104820000E94761060918105709182057627672736
:104830007627072E000C880B990B0E94122920E086
:1048400030E040E858E30E947129E1966CAF7DAFFB
:104850008EAF9FAFE1976096FFAEEEAE60978DEDA5
:1048600092E062969FAF8EAF6297BE0163597F4F11
:10487000CE01825B9F4F0E94751921E835E042E02E
:104880006FE3809180050E947610609181057091A0
:104890008205762767277627072E000C880B990B51
:1048A0000E94122920E030E040E858E30E9471297C
:1048B000E1966CAF7DAF8EAF9FAFE1976096FFAE94
:1048C000EEAE609784EE92E062969FAF8EAF6297F5
:1048D000BE0163597F4FCE01825B9F4F0E947519C5
:1048E00021E835E042E063E4809180050E94761083
:1048F0006091810570918205762767277627072EBC
:10490000000C880B990B0E94122920E030E04AE746
:1049100053E40E94712920E030E040E058E30E9417
:104920007129E1966CAF7DAF8EAF9FAFE197609636
:10493000FFAEEEAE60978BEE92E062969FAF8EAFC9
:104940006297BE0163597F4FCE01825B9F4F0E94E9
:10495000751921E835E042E065E4809180050E9408
:1049600076106091810570918205762767277627FA
:10497000072E000C880B990B0E94122920E030E0D2
:104980004AE753E40E94712920E030E040E058E318
:104990000E947129E1966CAF7DAF8EAF9FAFE1971A
:1049A0006096FFAEEEAE609781EF92E062969FAFA9
:1049B0008EAF6297BE0163597F4FCE01825B9F4FDE
:1049C0000E94751921E835E042E067E48091800596
:1049D0000E94761060918105709182057627672785
:1049E0007627072E000C880B990B0E94122920E0D5
:1049F00030E04AE753E40E94712920E030E040E0D3
:104A000058E30E947129E1966CAF7DAF8EAF9FAFE6
:104A1000E1976096FFAEEEAE609787EF92E0629608
:104A20009FAF8EAF6297BE0163597F4FCE01825B0D
:104A30009F4F0E947519B090A6056096FFAEEEAE2E
:104A400060978DEF92E062969FAF8EAF6297CE0136
:104A5000825B9F4F0E943219DC01CB018B01672BD7
:104A600049F0BD010E94650EF8018481807886605E
:104A70008483B0826091AF057091B0058091B105DB
:104A80009091B2050E941029E1966CAF7DAF8EAF78
:104A90009FAFE1976096FFAEEEAE609784E093E043
:104AA00062969FAF8EAF6297BE0163597F4FCE0172
:104AB000825B9F4F0E94751960E080916A050E9499
:104AC000FB0280E60E94660ACE01825B9F4F5C017A
:104AD0008C0180E00E94660A90E0B0E0A0E0F8015E
:104AE00081939193A193B1938F01C857DF4F888130
:104AF0009981C858D040E817F90759F761E08091CB
:104B00006A050E94FB02412C512C3201F501819172
:104B10009191A191B1915F01762C652C542C442484
:104B2000480E591E6A1E7B1EE017F10779F78FE0C9
:104B300093E00E9461124AE0C301B2010E946E122A
:104B40008EE992E00E946112C301B2010E94102915
:104B50002CE739ED40EA5EE30E94712920E030E065
:104B600048E455E40E94F42A4B015C01E1968CAEC6
:104B70009DAEAEAEBFAEE1976096FFAEEEAE609773
:104B800080E293E062969FAF8EAF6297BE01635959
:104B90007F4FCE01825B9F4F0E94751982E393E0A5
:104BA0000E946112A5019401C501B4010E94A12BCC
:104BB000882309F4B3C08CE393E00E9461128EE96C
:104BC00092E00E9461128AE994E060969FAF8EAFF6
:104BD000609762961FAE1EAE62976496FFAEEEAE11
:104BE0006497BE01625B7F4FCE014B960E94A61375
:104BF0008EE992E00E9461121092CA03C7010E94DE
:104C00001C0E3090C903332009F45CC161E08DE0D3
:104C10000E94FB0281E192E060969FAF8EAF6097A9
:104C200061961FAE619763961FAE1EAE6397A59601
:104C3000DFAECEAEA597A6961FAEA69784E0A79648
:104C40008FAFA7978FEFA8968FAFA897AD961FAE9F
:104C5000AD9761E172E0C6010E94CD0D61961FAE75
:104C6000619760960EAD1FAD609763968EAD9FAD58
:104C70006397009709F4CEC0FC01208131816396CF
:104C80003FAF2EAF6397B8010E94120EEECF933064
:104C900071F48EEA9BE0909304028093030280916A
:104CA0006A00837F886080936A00ED9AA3CA8EEEC3
:104CB000890F843008F09ECA87E1891BE82FF0E055
:104CC000EE0FFF1FEF5FFD4F2EEA3BE031832083A5
:104CD0008430A1F08530D1F0833041F080916900BB
:104CE0008C7F826080936900E89A84CA8091690011
:104CF000837F886080936900E99A7CCA809169000B
:104D00008F7C806280936900EA9A74CA80916900FE
:104D10008F73806880936900EB9A6CCA2FEF3FEF26
:104D20004FE75FE7C501B4010E94A12B81110DC0BF
:104D30002FEF3FEF4FE75FE7C501B4010E940B295A
:104D400018161CF480E493E038CF2FEF3FEF4FE7C5
:104D50005FE4C501B4010E949C2B18161CF484E486
:104D600093E02BCF2FEF3FEF4FE75FECC501B4018E
:104D70000E940B2987FDF3CF2AE037ED43EA5BE37E
:104D8000C501B4010E94882A2B013C010E946D2BB1
:104D90004B015C010E9410299B01AC01C301B201CF
:104DA0000E94872A2B013C014AE0C501B4010E9400
:104DB0006E126EE28AE994E00E949F0820E030E0E3
:104DC00040E251E4C301B2010E9471292B013C0170
:104DD0000E946D2B4B01B12CA12C4AE0C501B401FE
:104DE0000E946E12C501B4010E9410299B01AC0102
:104DF000C301B2010E94872A20E030E040E251E482
:104E00000E9471290E946D2B90E080E04AE00E9490
:104E10006E12D5CEAD961FAEAD978EE490E08C0F9E
:104E20009D1F9A8389831C821B821E821D821F8282
:104E30008AE994E0998788871B86EEE4F0E0EC0F1E
:104E4000FD1FFD87EC874AE0C657DF4F68817981F7
:104E5000CA58D040C7010E948D178C01892B51F48C
:104E60008A85882339F0AD968FADAD9783FF02C058
:104E700003E010E08B819C81009731F0E981FA8199
:104E8000608171810E94120E1092C90301151105F3
:104E900009F491C088E493E00E946112000F111F91
:104EA000F801E55DFD4F80819181009711F00E942E
:104EB00061128EE992E00E946112CE01825B9F4FE7
:104EC0000E941C0E8091D10561E0811101C060E05B
:104ED00080E20E94FB020E94F20700913F051091C0
:104EE0004005209141053091420506171707280714
:104EF000390708F055C080914305882309F450C054
:104F00008091440590914505A0914605B0914705D3
:104F1000892B8A2B8B2B09F443C0E0913905F09142
:104F20003A0519958091440590914505A091460553
:104F3000B0914705181619061A061B06CCF4809185
:104F4000480590914905A0914A05B0914B050197FC
:104F5000A109B1098093480590934905A0934A059A
:104F6000B0934B05892B8A2B8B2B11F410924305A0
:104F70000E94F20700913B0510913C0520913D05F0
:104F800030913E05DC01CB01800F911FA21FB31FA2
:104F900080933F0590934005A0934105B09342054F
:104FA00040E050E068EC71E486E695E00E943F093D
:104FB0000E941009E7C98EE490E08C0F9D1F9A8330
:104FC00089830FE513E01C830B83C7010E9409133B
:104FD000009709F4CBC0FC0184818F7709F4C6C027
:104FE0001092A5058EE490E08C0F9D1FCF57DF4FE8
:104FF00099838883C158D040CD57DF4F19830883E8
:10500000C358D04082E090E0CB57DF4F998388832C
:10501000C558D040CE0180589F4F0E941C134B01B1
:105020005C01EEE4F0E0EC0FFD1FE096FFAFEEAFA9
:10503000E097E2961FAF0EAFE29781E090E0E49632
:105040009FAF8EAFE497CE0183599F4F0E941C13F0
:105050002B013C018EE490E08C0F9D1F9B838A8383
:105060001D830C831F821E82C7010E941C13609344
:105070008F057093900580939105909392054092CF
:1050800093055092940560929505709296058092D2
:10509000970590929805A0929905B0929A05EEE432
:1050A000F0E0EC0FFD1FFB83EA831D830C8383E09C
:1050B00090E09F838E83C7010E941C136093BB0501
:1050C0007093BC058093BD059093BE058EE490E07F
:1050D0008C0F9D1F9B838A831D830C8384E090E04B
:1050E0009F838E83C7010E941C136093A105709358
:1050F000A2058093A3059093A40580919B059091B0
:105100009C05892B99F180919D0590919E05892B95
:1051100069F181E08093A5050E94F2070091AB053B
:105120001091AC052091AD053091AE05DC01CB01AD
:10513000800F911FA21FB31F8093B3059093B405F6
:10514000A093B505B093B6051092A6051092C305BD
:105150001092C4051092C5051092C6051092C7059D
:105160001092C8051092C9051092CA05EEE4F0E04D
:10517000EC0FFD1FFA83E98307E613E01C830B8322
:10518000C7010E940913009709F497CEFC0184819E
:105190008F7709F492CE8EE490E08C0F9D1F9A8356
:1051A00089831C830B83C7010E940913FC01892B8F
:1051B00051F194819F779830E1F038F4992319F1F7
:1051C0009630A9F03092D10578CE9A3091F09C308B
:1051D000C9F73324339420E030E0A9016081718164
:1051E000828193810E940B298111ECCF0CC0308009
:1051F000E9CF3324339480819181A281B381892BBB
:105200008A2B8B2BF9F6312CDDCF809156059091AE
:1052100057050C94422C0E944D2908F481E0089512
:10522000E89409C097FB3EF4909580957095619540
:105230007F4F8F4F9F4F9923A9F0F92F96E9BB27F6
:105240009395F695879577956795B795F111F8CF72
:10525000FAF4BB0F11F460FF1BC06F5F7F4F8F4FDD
:105260009F4F16C0882311F096E911C0772321F0D3
:105270009EE8872F762F05C0662371F096E8862F6B
:1052800070E060E02AF09A95660F771F881FDAF7C2
:10529000880F9695879597F90895990F0008550FEF
:1052A000AA0BE0E8FEEF16161706E807F907C0F0AC
:1052B00012161306E407F50798F0621B730B840BB4
:1052C000950B39F40A2661F0232B242B252B21F48E
:1052D00008950A2609F4A140A6958FEF811D811D2E
:1052E00008950E9484290C94F5290E94E72938F03A
:1052F0000E94EE2920F0952311F00C94DE290C94E5
:10530000E42911240C94292A0E94062A70F3959FFF
:10531000C1F3950F50E0551F629FF001729FBB27AC
:10532000F00DB11D639FAA27F00DB11DAA1F649F48
:105330006627B00DA11D661F829F2227B00DA11DFB
:10534000621F739FB00DA11D621F839FA00D611D81
:10535000221F749F3327A00D611D231F849F600DA2
:10536000211D822F762F6A2F11249F5750409AF0CB
:10537000F1F088234AF0EE0FFF1FBB1F661F771F57
:10538000881F91505040A9F79E3F510580F00C9422
:10539000DE290C94292A5F3FE4F3983ED4F38695E6
:1053A00077956795B795F795E7959F5FC1F7FE2BC2
:1053B000880F911D9695879597F9089597F99F679E
:1053C00080E870E060E008959FEF80EC089500248D
:1053D0000A941616170618060906089500240A945A
:1053E00012161306140605060895092E0394000CE0
:1053F00011F4882352F0BB0F40F4BF2B11F460FF6F
:1054000004C06F5F7F4F8F4F9F4F089557FD905897
:10541000440F551F59F05F3F71F04795880F97FB78
:10542000991F61F09F3F79F0879508951216130632
:105430001406551FF2CF4695F1DF08C01616170661
:105440001806991FF1CF8695710561050894089596
:10545000E894BB2766277727CB0197F908950E9428
:105460003A2AA59F900DB49F900DA49F800D911D89
:1054700011240895A29FB001B39FC001A39F700D96
:10548000811D1124911DB29F700D811D1124911D4C
:105490000895AA1BBB1B51E107C0AA1FBB1FA6177B
:1054A000B70710F0A61BB70B881F991F5A95A9F7CD
:1054B00080959095BC01CD010895A1E21A2EAA1BFA
:1054C000BB1BFD010DC0AA1FBB1FEE1FFF1FA217B4
:1054D000B307E407F50720F0A21BB30BE40BF50BB1
:1054E000661F771F881F991F1A9469F7609570953A
:1054F000809590959B01AC01BD01CF010895EE0F01
:10550000FF1F881F8BBF0790F691E02D199450580C
:10551000BB27AA270E949F2A0C94F5290E94E729FD
:1055200038F00E94EE2920F039F49F3F19F426F458
:105530000C94E4290EF4E095E7FB0C94DE29E92FA6
:105540000E94062A58F3BA17620773078407950763
:1055500020F079F4A6F50C94282A0EF4E0950B2E91
:10556000BA2FA02D0B01B90190010C01CA01A001B5
:105570001124FF27591B99F0593F50F4503E68F110
:105580001A16F040A22F232F342F4427585FF3CF51
:10559000469537952795A795F0405395C9F77EF422
:1055A0001F16BA0B620B730B840BBAF09150A1F06B
:1055B000FF0FBB1F661F771F881FC2F70EC0BA0FF1
:1055C000621F731F841F48F4879577956795B79579
:1055D000F7959E3F08F0B0CF9395880F08F0992774
:1055E000EE0F9795879508950E94082B0C94F52946
:1055F0000E94EE2958F00E94E72940F029F45F3F0D
:1056000029F00C94DE2951110C94292A0C94E429D8
:105610000E94062A68F39923B1F3552391F3951B51
:10562000550BBB27AA2762177307840738F09F5FC3
:105630005F4F220F331F441FAA1FA9F335D00E2E30
:105640003AF0E0E832D091505040E695001CCAF79D
:105650002BD0FE2F29D0660F771F881FBB1F261760
:1056600037074807AB07B0E809F0BB0B802DBF0137
:10567000FF2793585F4F3AF09E3F510578F00C9406
:10568000DE290C94292A5F3FE4F3983ED4F38695F3
:1056900077956795B795F7959F5FC9F7880F911D27
:1056A0009695879597F90895E1E0660F771F881F13
:1056B000BB1F621773078407BA0720F0621B730BC6
:1056C000840BBA0BEE1F88F7E09508950E946D2BAE
:1056D0006894B1110C94292A08950E940E2A88F02A
:1056E0009F5798F0B92F9927B751B0F0E1F0660FA6
:1056F000771F881F991F1AF0BA95C9F714C0B130E7
:1057000091F00E94282AB1E008950C94282A672F6E
:10571000782F8827B85F39F0B93FCCF38695779515
:105720006795B395D9F73EF49095809570956195FE
:105730007F4F8F4F9F4F08950E944D2908F48FEFA0
:1057400008950E944D29880B990B08950F931F937C
:10575000CF93DF938230910510F482E090E0E091E6
:10576000E605F091E70530E020E0B0E0A0E03097FA
:1057700099F42115310509F44AC0281B390B24304E
:105780003105D8F58A819B816115710589F1FB018D
:1057900093838283FE0111C0408151810281138174
:1057A00048175907E0F04817590799F4109761F026
:1057B00012960C93129713961C933296CF01DF9199
:1057C000CF911F910F9108950093E6051093E7057F
:1057D000F4CF2115310551F04217530738F0A901D4
:1057E000DB019A01BD01DF01F801C1CFEF01F9CF63
:1057F0009093E7058093E605CDCFFE01E20FF31FFE
:10580000819391932250310939832883D7CF2091F6
:10581000E4053091E505232B41F4209115023091E8
:1058200016023093E5052093E40520911302309190
:1058300014022115310541F42DB73EB740911702EE
:1058400050911802241B350BE091E405F091E50519
:10585000E217F307A0F42E1B3F0B2817390778F047
:10586000AC014E5F5F4F2417350748F04E0F5F1FA6
:105870005093E5054093E405819391939FCFF0E029
:10588000E0E09CCFCF93DF930097E9F0FC013297E3
:1058900013821282A091E605B091E705ED0130E098
:1058A00020E01097A1F420813181820F931F209175
:1058B000E4053091E5052817390709F061C0F09338
:1058C000E505E093E405DF91CF910895EA01CE1755
:1058D000DF07E8F54A815B819E0141155105B1F76B
:1058E000E901FB83EA8349915991C40FD51FEC1755
:1058F000FD0761F4808191810296840F951FE90173
:1059000099838883828193819B838A83F0E0E0E09E
:1059100012968D919C9113970097B9F52D913C911A
:105920001197CD010296820F931F2091E4053091CB
:10593000E5052817390739F6309751F51092E70534
:105940001092E605B093E505A093E405BCCFD383A0
:10595000C28340815181840F951FC817D90761F414
:105960004E5F5F4F88819981480F591F5183408353
:105970008A819B81938382832115310509F0B0CF01
:10598000F093E705E093E6059ECFFD01DC01C0CF73
:1059900013821282D7CF4F925F926F927F928F9233
:1059A0009F92AF92BF92CF92DF92EF92FF920F93AE
:1059B0001F93CF93DF938C01009799F4CB01DF9174
:1059C000CF911F910F91FF90EF90DF90CF90BF90FC
:1059D000AF909F908F907F906F905F904F900C94BE
:1059E000A62BFC01E60FF71F9C0122503109E2179C
:1059F000F30708F4AEC0D901CD91DC911197C61719
:105A0000D70720F1C530D10578F0CE01049786176D
:105A1000970750F0C61BD70B2297C193D1936D9374
:105A20007C93CF010E94422CC801DF91CF911F913E
:105A30000F91FF90EF90DF90CF90BF90AF909F902D
:105A40008F907F906F905F904F9008955B01AC1A9C
:105A5000BD0A4C018C0E9D1EA091E605B091E70594
:105A6000512C412CF12CE12C109731F58091E4055B
:105A70009091E5058815990509F05CC04616570612
:105A800008F058C08091130290911402009741F4DD
:105A90008DB79EB74091170250911802841B950B49
:105AA000E817F90708F055C0F093E505E093E40521
:105AB000F90171836083B8CF8D919C9111971296F3
:105AC0006C90129713967C901397A815B90559F509
:105AD0006C0142E0C40ED11CCA14DB0420F1AC01FD
