:100000000C9499010C9442170C9417170C94EC164D
:100010000C94C1160C9496160C946B160C94401606
:100020000C9415160C94CA010C94CA010C94CA01C4
:100030000C94CA010C946D170C94CA010C94CA015B
:100040000C94CA010C946A180C94CA010C94CA014D
:100050000C94CA010C94CA010C94CA010C94CB15DF
:100060000C94CA010C9434180C940A180C94CA010C
:100070000C94CA010C94CA010C94CA010C94CA01D4
:100080000C94CA010C94CA010C94CA010C94CA01C4
:100090000C94CA010C94CA010C94CA010C94A714C4
:1000A0000C94CA010C94CA010C94CA010C94CA01A4
:1000B0000C94CA010C94CA010C94CA010C94CA0194
:1000C0000C94CA010C94CA010C94CA010C94CA0184
:1000D0000C94CA010C94CA010C94CA010C94CA0174
:1000E0000C94CA010C94FF080C9464090C94F80158
:1000F0000C94BE020C94A3140C94D3020C94310201
:100100000C9403030C9421020C9412070C94110715
:100110000C94DC080C94D9020C94C4020C9446098B
:100120000C94E7010C9412190C94C8020C94E70289
:100130000C9410070C94EB020C94E1080C94F90158
:100140000C9422020C94F5080C940F090C94EB0803
:100150000C946E090C94AC070C94F9070C940B07E3
:100160000C94F5020C9450090C94FF020C94440278
:100170000C949B200C942A120C94CB080C94070925
:100180000C94F1020C94E3020C9413070C944007B6
:100190000C942D090C945A090C9452070C942D12AE
:1001A0000C9466070C94F9020C9423090C94FE023B
:1001B0000C94CC020C94D0020C94520A0C94430779
:1001C0000C943C090C9498100C9474070C94DD0268
:1001D0000C9471020C940F070C941909CDCCCC3DF2
:1001E0000AD7233C17B7D13877CC2B329595E62424
:1001F0001FB14F0A000020410000C84200401C46C9
:1002000020BCBE4CCA1B0E5AAEC59D740000200017
:100210002300260029002C002F00320000010000DE
:100220000301060109010200002100240027002A21
:10023000002D003000330001010000040107010A15
:100240000100002200250028002B002E0031003480
:100250000002010000050108010B01050505050765
:100260000508080808020202020A0A080804040431
:10027000040101010101010101030303030303035D
:1002800003040707070C0C0C0C0C0C0C0C020202EC
:100290000206060606060606060B0B0B0B0B0B0BDF
:1002A0000B0102102020080810204010204080027E
:1002B00001020108040201010204081020408080AC
:1002C0004020100804020180040201804020100830
:1002D0000402010804020101020408102040800108
:1002E0000204081020408000000A0B02090C0D0EC9
:1002F00008070304010000000000000000000000E7
:1003000000000000000000000000000000000000ED
:1003100000000012111000000000000000000000AA
:1003200000000000000000000000000000001219A2
:100330009B2011241FBECFEFD1E2DEBFCDBF00E076
:100340000CBF13E0A0E0B2E0EEEAF9E400E00BBF7E
:1003500002C007900D92A032B107D9F725E0A0E2C4
:10036000B3E001C01D92A739B207E1F711E0C8E977
:10037000D1E000E006C021970109802FFE010E9414
:100380000122C739D10780E00807A9F70E94831A24
:100390000C94C5240C940000CF93DF93EC0188816A
:1003A0009981DC01ED91FC910190F081E02D64E2F6
:1003B00070E01995009741F02FE1FC01238321E0C3
:1003C0002283DF91CF91089521E02A83FACF809193
:1003D0009B0390919C03891B990B0895FC0120813C
:1003E0002EBD0DB407FEFDCF2EB5FC012083089570
:1003F0000895089520917403260F3327331F213267
:100400003105ECF42091E303FC0190E080E024301E
:1004100069F082E00895A09174032191AC014C5AD7
:100420005C4FA40FB52FB11D2C930196861798F33E
:1004300080917403680F6093740380E0089581E0F5
:1004400008950895E0919C0380919B03E81730F490
:10045000F0E0E356FC4F808190E008958FEF9FEF2E
:10046000089590919C0380919B032FEF3FEF981785
:1004700048F4E92FF0E0E356FC4F208130E09F5F25
:1004800090939C03C9010895CF92DF92EF92FF925F
:100490000F931F93CF93DF937C01CB018A012091AF
:1004A000E903222389F0EB016B01C40ED51ECC15A4
:1004B000DD0569F06991D701ED91FC910190F08122
:1004C000E02DC7011995F3CF642F0E94FA01C801EE
:1004D000DF91CF911F910F91FF90EF90DF90CF9020
:1004E0000895CF93DF931F92CDB7DEB76983209134
:1004F000E9032223F9F020910C04203258F021E086
:1005000030E0FC013383228390E080E00F90DF91A4
:10051000CF9108958091EA03E82FF0E0E551FC4F78
:10052000998190838F5F8093EA0380930C0481E02C
:1005300090E0ECCF61E0CE0101960E94FA01F7CF86
:100540008150823108F05AC0E82FF0E08827E45546
:10055000FD4F8F4F0C940122CC02D002BE02C40288
:10056000C802FE02D302D902DD02E302E702EB0277
:10057000F102F502FE02F902FF02030380918000FE
:100580008F77809380000895809180008F7DF9CFD0
:1005900080918000877FF5CF84B58F7784BD0895E3
:1005A00084B58F7DFBCF8091B0008F778093B000B2
:1005B00008958091B0008F7DF9CF809190008F7762
:1005C000809390000895809190008F7DF9CF809165
:1005D0009000877FF5CF8091A0008F778093A00057
:1005E00008958091A0008F7DF9CF8091A000877F32
:1005F000F5CF809120018F7780932001089580911D
:1006000020018F7DF9CF80912001877FF5CF1F9347
:10061000CF93DF93282F30E0F901E951FD4F84910A
:10062000F901EF55FD4FD491F901E55AFD4FC49101
:10063000CC23A9F0162F81110E94A002EC2FF0E02C
:10064000EE0FFF1FEF5BFD4FA591B4918FB7F894AC
:10065000EC91111108C0D095DE23DC938FBFDF91A0
:10066000CF911F910895DE2BF8CF1092E30381E024
:100670008093E2031092BD0361E084E10E940703CE
:1006800061E085E10E940703E9EBF0E080818E7F65
:10069000808380818D7F808388E48093B80085E4A7
:1006A0008093BC000895CF93DF9391E09093530320
:1006B0008823B9F0C091B800D091BA008091BC00F5
:1006C0008A7B8093BC0060E084E10E94070360E0C5
:1006D00085E10E9407030E943503D093BA00C093BE
:1006E000B800DF91CF910895CF93DF9390E0FC01A4
:1006F000EF55FD4F2491855A9D4FFC01849188232D
:10070000C9F090E0880F991FFC01E95DFD4FA591AC
:10071000B491FC01EF5BFD4FC591D49161110DC007
:100720009FB7F8948C91209582238C9388812823FD
:1007300028839FBFDF91CF910895623051F49FB716
:10074000F8943C91822F809583238C93E8812E2B03
:10075000EFCF8FB7F894EC912E2B2C938FBFEACF6D
:100760008230910538F0880F991F880F991F0597DF
:100770000197F1F708959F92AF92BF92CF92DF92C7
:10078000EF92FF920F931F93CF93DF93EC016B01D6
:100790008885998511E0892B09F010E8F601A08081
:1007A0008A2D8123992493948111912C2C813D8150
:1007B0004E815F8160E271EA87E090E00E94D02183
:1007C000022FB12CE22EF12C002319F0C7010E9458
:1007D000B0038A85877F09F04FC08D858F3F89F0F0
:1007E0009A2D912381E009F480E0891551F0EF857D
:1007F000F8898F899923D1F19081892B808399245D
:100800009394E989FA898081998D892B80830023CB
:1008100019F0C7010E94B0038E858F3F39F0EB8934
:10082000FC898081988D892309F0B12AE989FA89A8
:100830009081898D8095892380838E858F3F11F0EB
:10084000F601B08288859985892B09F044C0110F83
:100850001111BACFDF91CF911F910F91FF90EF90BF
:10086000DF90CF90BF90AF909F900895908180953A
:1008700089238083912CC5CFE989FA898081998D5C
:10088000892B8083002319F0C7010E94B0038D8556
:100890008F3F49F0EF85F8898F899A2D9123B9F020
:1008A0009081892B8083E989FA899081898D80954F
:1008B000892380838E858F3F09F4BFCFEB89FC8924
:1008C0008081988D892309F4B8CFB12AB6CF908161
:1008D00080958923E7CF1695BBCF6F927F928F9239
:1008E0009F92AF92BF92CF92DF92EF92FF920F93BF
:1008F0001F93CF93DF931F92CDB7DEB77C01962E67
:10090000872E5A013901DC018D919C911197892B19
:1009100039F01296ED91FC91908181819CBD8DBD45
:10092000F70183858F3F19F060E00E9407036301A0
:10093000060D171D0C151D05A9F4092D182DA00E67
:10094000B11E0A151B0551F1D8018D918D018983C6
:10095000F70180819181892BD1F0CE0101960E940F
:10096000EE01EFCFD6018D916D018983F701808172
:100970009181892B29F0CE0101960E94EE01DACFF8
:10098000BE016F5F7F4FC7010E94BB03D3CFBE0183
:100990006F5F7F4FC7010E94BB03D3CFD7011B9668
:1009A0008C918F3F19F061E00E94070381E00F9066
:1009B000DF91CF911F910F91FF90EF90DF90CF903B
:1009C000BF90AF909F908F907F906F9008953FB7AA
:1009D000F89480914F0390915003A0915103B091EE
:1009E000520326B5A89B05C02F3F19F00196A11D03
:1009F000B11D3FBFBA2FA92F982F8827BC01CD0169
:100A0000620F711D811D911D42E0660F771F881FC7
:100A1000991F4A95D1F708958F929F92AF92BF92F6
:100A2000CF92DF92EF92FF920F931F93CF93DF93BA
:100A3000D0910C04D13208F0D7C0182FC0910B040C
:100A40000E94E7046B017C018091E30381116BC07C
:100A500082E08093E3031093E2038FEF8093E1033E
:100A60001092E003D093DF03ABEEB3E0EFEBF3E0E3
:100A700080E0D81391C01092BE038091BE03CC0FCA
:100A8000C82BC093BE038091BD03813009F088C09C
:100A90001092BD030E94E7046B017C018091BE03AC
:100AA0008093BB008091E5039091E603A091E7035A
:100AB000B091E803892B8A2B8B2BA1F00E94E704CD
:100AC0000091E5031091E6032091E7033091E803DC
:100AD0006C197D098E099F09061717072807390722
:100AE00008F442C08091BC0083FDD8CF85EC809390
:100AF000BC000E94E7046B017C018091E30382301B
:100B000009F450C08091E1038F3F09F46FC08091D8
:100B1000E103803209F46CC08091E103803309F471
:100B200069C084E026C08091E5039091E603A0911E
:100B3000E703B091E803892B8A2B8B2B09F484CF30
:100B40000E94E7048090E5039090E603A090E703FD
:100B5000B090E8036C197D098E099F0986169706E7
:100B6000A806B90608F070CF8091E4030E945303F1
:100B700085E01092EA0310920C041092E903DF91D1
:100B8000CF911F910F91FF90EF90DF90CF90BF908A
:100B9000AF909F908F9008959D9191938F5F69CFB3
:100BA00085EEA5CF8091E5039091E603A091E70340
:100BB000B091E803892B8A2B8B2B09F49ECF0E94DE
:100BC000E7040091E5031091E6032091E7033091DB
:100BD000E8036C197D098E099F0906171707280776
:100BE000390708F08ACFC0CF81E0C3CF80E0C1CF02
:100BF00082E0BFCF83E0BDCFCF93DF93EC018B8149
:100C00008823A1F0888191E09093E90380930B04FD
:100C10001092EA0310920C0481E00E940C0591E00E
:100C2000811190E0892FDF91CF91089510929C035C
:100C300010929B031092EA0310920C040E94350359
:100C400088EF91E0909398038093970389EF91E068
:100C500090939A038093990381E08B83CE010E9445
:100C6000FC05982F8111CECFDDCFCF93DF93EA0122
:100C700091E09093E90380930B041092EA031092A1
:100C80000C048DE094E00E94710268818DE094E094
:100C90000E94710281E00E940C0591E0811190E0B8
:100CA000892FDF91CF910895CF92DF92EF92FF923B
:100CB0000F931F93CF93DF931F921F92CDB7DEB791
:100CC000FC014787508B618B728B8285882321F1D1
:100CD0004487452F562F672F77278823F9F04387BE
:100CE0007F018BE0E80EF11C9681878199838A83CE
:100CF000C080D180C114D10409F454C0018510E032
:100D000098012E5F3F4FD60114968D919C918217CA
:100D1000930730F490E02AC04387DBCF4487E0CFCD
:100D2000F60181819281208131E03093E9032093A3
:100D30000B041092EA0310920C040115110511F531
:100D4000D60111968D919C91DC01ED91FC91028070
:100D5000F381E02D42E050E0B70119950297D1F6FA
:100D600081E00E940C0591E08111D4CF892F0F9072
:100D70000F90DF91CF911F910F91FF90EF90DF9037
:100D8000CF900895DC01ED91FC910280F381E02D7C
:100D9000A801BE016F5F7F4F19950817190709F069
:100DA000B9CFCECFA281B381109709F4B3CF2481FC
:100DB0003581018510E02330310581F48E7F8983F0
:100DC0009A830F5F1F4F9E012F5F3F4F42E050E01D
:100DD000B701CD010E946D04982FC8CF21153105B0
:100DE00019F49F779983EFCF2230310511F4906881
:100DF000F9CF2130310539F79F779064F3CF2FB7C2
:100E0000F89460914B0370914C0380914D03909145
:100E10004E032FBF089581E080933903089508950C
:100E2000089508950895AF92BF92CF92DF92EF9206
:100E3000FF920F931F93CF93DF936C017B018B0184
:100E4000040F151FEB015E01AE18BF08C017D107D4
:100E500059F06991D601ED91FC910190F081E02D5E
:100E6000C6011995892B79F7C501DF91CF911F91A3
:100E70000F91FF90EF90DF90CF90BF90AF900895CB
:100E800090E080E00895FC01538D448D252F30E0E3
:100E9000842F90E0821B930B541710F0CF96089587
:100EA00001970895FC01918D828D981761F0A28DB4
:100EB000AE0FBF2FB11D5D968C91928D9F5F9F737A
:100EC000928F90E008958FEF9FEF0895FC01918D30
:100ED000828D981731F0828DE80FF11D858D90E09D
:100EE00008958FEF9FEF0895FC01918D228D892F3A
:100EF00090E0805C9F4F821B91098F739927089522
:100F000089E194E00E94740721E0892B09F420E034
:100F1000822F0895FC01A48DA80FB92FB11DA35AEB
:100F2000BF4F2C91848D90E001968F739927848F09
:100F3000A689B7892C93A089B1898C91837080642C
:100F40008C93938D848D981306C00288F389E02DCD
:100F500080818F7D80830895EF92FF920F931F937E
:100F6000CF93DF93EC0181E0888F9B8D8C8D98135C
:100F70001AC0E889F989808185FF15C09FB7F89468
:100F8000EE89FF896083E889F989808183708064B4
:100F900080839FBF81E090E0DF91CF911F910F91FF
:100FA000FF90EF900895F62E0B8D10E00F5F1F4F0E
:100FB0000F731127E02E8C8D8E110CC00FB607FC1D
:100FC000FACFE889F989808185FFF5CFCE010E94AB
:100FD0008A07F1CFEB8DEC0FFD2FF11DE35AFF4F88
:100FE000F0829FB7F8940B8FEA89FB898081806239
:100FF000CFCFCF93DF93EC01888D8823B9F0AA89F6
:10100000BB89E889F9898C9185FD03C0808186FDC3
:101010000DC00FB607FCF7CF8C9185FFF2CF808112
:1010200085FFEDCFCE010E948A07E9CFDF91CF91F6
:10103000089581E08093490308950E9480078823E2
:1010400019F081E08093490380E090E0892B49F01A
:1010500080E090E0892B29F00E94000081110E941D
:10106000000080E090E0892B49F080E090E0892B3F
:1010700029F00E94000081110E94000080E090E0B1
:10108000892B49F080E090E0892B29F00E94000034
:1010900081110C94000008958F929F92AF92BF929D
:1010A000CF92DF92EF92FF920F931F93CF93DF9334
:1010B000EC016A017B0120E030E04FE753E4CB0113
:1010C000B6010E9407214B015C0120E030E0A9013C
:1010D0000E94AC2218168CF5C501B4010E9476223C
:1010E0008B01B98020E030E0A901C701B6010E9460
:1010F000AC2260E018160CF061E08B2D0E94070313
:101100000F3F110509F0ECF41127C88161E08C2F25
:101110000E94740301151105B9F460E08C2FDF9172
:10112000CF911F910F91FF90EF90DF90CF90BF90E4
:10113000AF909F908F900C940703C501B401905815
:10114000CDCF0FEF10E0E1CF0F3F110511F461E0BB
:10115000E5CFEC2FF0E0E951FD4FE491E150E231B1
:1011600008F0BCC0F0E08827E754F74F8F4F0C948D
:101170000122CB08DC08E108EB08F5086E09FF083E
:1011800007090F09190923092D093C0946096E09A8
:1011900050095A09640984B5806884BD07BDDF9190
:1011A000CF911F910F91FF90EF90DF90CF90BF9064
:1011B000AF909F908F90089584B5806284BD08BDE4
:1011C000EECF80918000806880938000109389002A
:1011D00000938800E4CF809180008062809380003B
:1011E00010938B0000938A00DACF80918000886092
:1011F0008093800010938D0000938C00D0CF80915D
:10120000B00080688093B0000093B300C8CF809195
:10121000B00080628093B0000093B400C0CF809192
:10122000900080688093900010939900009398003C
:10123000B6CF8091900080628093900010939B00C5
:1012400000939A00ACCF80919000886080939000CA
:1012500010939D0000939C00A2CF8091A000806815
:101260008093A0008091A0008F7B8093A0001093BA
:10127000A9000093A80093CF8091A0008062809382
:10128000A0001093AB000093AA0089CF8091A0002A
:1012900088608093A0001093AD000093AC007FCFD6
:1012A0008091200180688093200110932901009390
:1012B000280175CF809120018062809320011093D6
:1012C0002B0100932A016BCF8091200188608093CD
:1012D000200110932D0100932C0161CF00381105DE
:1012E0000CF035CF1ACF8EBD00000DB407FEFDCF38
:1012F0008EB508956F3FB1F0E62FE295EF7044E0B0
:10130000E49F90011124DC01ED91FC91E20FF31FA9
:101310006F70B8E06B9FC001112462817381860FEA
:10132000971F089590E080E00895982F80336CF027
:101330008A3324F08F3524F08B3724F481E008952C
:1013400081341CF081E09B350CF080E00895CF9251
:10135000DF92EF92FF920F931F93CF93DF93EC01F5
:101360008A85811130C00F8118850E94FF06D8013F
:1013700018966D937D938D939C931B97D801ED9157
:10138000FC910284F385E02DC801199597FF25C0D3
:101390000E94FF06F801C084D184E284F3846C19B2
:1013A0007D098E099F09C480D580E680F7806C1581
:1013B0007D058E059F0510F38FEF9FEF97FD80E071
:1013C000898781E08A878985DF91CF911F910F916D
:1013D000FF90EF90DF90CF9008959927EFCF1F9364
:1013E000CF93DF93EC01162F0E94A709811306C04B
:1013F0001A8681E0DF91CF911F91089580E0FACFA6
:101400000F931F93CF93DF938C01EB018991882376
:1014100069F0C8010E94A709882379F0FE0131977D
:10142000908198130DC0F8011286F0CF90E080E013
:10143000DF91CF911F910F91089582E090E0F8CF56
:1014400083E090E0F5CFCF93DF93EC01CE010E94D3
:10145000A7098B304CF489305CF4882359F081E083
:101460008E8390E080E00BC08D3011F08032B9F7B0
:101470001A86ECCF8E81811105C081E090E0DF916A
:10148000CF91089582E090E0FACFDC01ED91FC91DC
:10149000309731F094819F7781E019F080E00895D2
:1014A00081E00895CF93DF932091430330E0F90169
:1014B000E951FD4F8491F901EF55FD4FD491F901A8
:1014C000E55AFD4FC491CC2321F181110E94A00265
:1014D000EC2FF0E0EE0FFF1FE45FFD4FA591B491FC
:1014E000EC91ED23B1F08091440390914503A091DC
:1014F0004603B09147030196A11DB11D809344039B
:1015000090934503A0934603B0934703DF91CF9197
:1015100008958091440390914503A0914603B091B2
:1015200047030197A109B109E9CF4F925F926F92EA
:101530007F928F929F92AF92BF92CF92DF92EF9263
:10154000FF920F931F93CF93DF93EB01DC012C915C
:101550002B32D9F12D32D1F50196FF24F394FC0101
:10156000208130ED320F3A3018F02E3209F042C1AE
:101570008C0160E070E0CB01F801219130ED832E09
:10158000820E39E0381520F16A3949E97407840779
:1015900049E1940738F5AAE0B0E09B01AC010E9454
:1015A000C521912CB12CA12C2401350140945094DB
:1015B00060947094461657066806790698F0680D90
:1015C000791D8A1D9B1D8F01D7CF0196F12CC7CFA6
:1015D000211108C0FF20E9F161307105810550E853
:1015E0009507A0F0E12CBAE08B2E912CA12CB12C08
:1015F0006115710530E883079105B0F1A5019401EB
:101600000E94D021CA01B901E394F2CF2C81207845
:101610002A602C839B01AC0188279927DC01821B5F
:10162000930BA40BB50B88839983AA83BB838F2D5F
:10163000DF91CF911F910F91FF90EF90DF90CF90AE
:10164000BF90AF909F908F907F906F905F904F90E2
:1016500008952C81207828602C83688379838A837D
:101660009B83FF24F394E3CFF801D8012D918D01E2
:1016700030ED320F3A3010F4E394F6CF2E3201F50C
:101680008F010F5F1F4FF8010F5F1F4F2081A0EDEB
:10169000DA2ED20EB9E0BD1598F06C3CECEC7E076A
:1016A000ECE08E07910578F7AAE0B0E09B01AC0171
:1016B0000E94C5216D0D711D811D911DEA94E3CF1E
:1016C00020812F7D10E000E0253409F05BC02181EE
:1016D0002D32D1F53296CC24C394DF0110E000E026
:1016E0002E2D0E2C000C330B5AE0B52EFD01DD9093
:1016F00040ED4D0D4A3008F040C0B09EA001B19EB3
:10170000500D11240D2DDD0C110B00531109040F88
:10171000151FA801420F531F473251053CF38C811E
:10172000CC20C9F040E050E060E070E8F11003C068
:1017300040E050E0BA0180788C608C834883598304
:101740006A837B83FC2C73CF2B3219F03196C12C2A
:10175000C4CF3296FCCF40E050E060E87FEFF1105C
:1017600004C040E050E060E87FE780788C608C83C4
:10177000488359836A837B8374CFCC2019F01195F9
:10178000019511092081211135C00E0D111DE7FCB5
:101790001A950E94A62034EFC32E31E0D32E1016E6
:1017A00011063CF01195019511094CEDC42E41E054
:1017B000D42EE12C0115110591F000FF0CC024E09E
:1017C000E29EF0011124EC0DFD1D2591359145910E
:1017D00054910E94072115950795E394EBCFF110E2
:1017E00090582C8120782C602C83688379838A839D
:1017F0009B8337CFF12C1BCFCF93DF9300D01F9269
:101800001F92CDB7DEB7FC0194819F77963091F09F
:1018100030F4943020F560E070E0CB0111C09A30D4
:10182000B9F09C3051F19830B1F7608171818281BB
:10183000938104C0608170E090E080E00E94A62067
:101840000F900F900F900F900F90DF91CF91089510
:1018500060817181828193810E94A820F1CF808173
:1018600091811D82BE016F5F7F4F04960E94950A91
:10187000CE0101960E94FC0BE3CF608171818281D1
:101880009381DECFFC019289915084E0989F900172
:101890001124A089B189A20FB31F1296ED91FC917A
:1018A00013973097E9F011962C9111978C91281786
:1018B000B8F481E0820F11968C9388E0289FA001F4
:1018C0001124E40FF51F309759F014828FEF8583B0
:1018D00017821682BF01892F8295807F820F08951B
:1018E00060E070E08FEF0895DF92EF92FF920F9328
:1018F0001F93CF93DF93EC017B01D12C6889798909
:101900008A89D816E0F484E0D89E80011124060F5D
:10191000171FD80112966D917C916115710541F0E8
:10192000D701ED91FC910280F381E02DC70119955B
:10193000F8011382128210821182D394DFCF1A8AA7
:101940008FEF8C8BC617D70761F0D701ED91FC9113
:101950000280F381E02DC7011995D98BC88B84E0F3
:101960008B8BDF91CF911F910F91FF90EF90DF90C4
:101970000895DB01ED91FC9111970280F381E02D38
:10198000BC01CD0119940F931F93CF93DF93EC010A
:10199000088119818B819C81009749F0FC0120818D
:1019A00031813C832B83B8010E94B90CF3CF68814D
:1019B0007981CE010596DF91CF911F910F910C9403
:1019C000740CCF93DF93EC01E881F981B0E0A0E0E3
:1019D0003097F9F09F012C5F3F4F62177307A1F416
:1019E000928191509283911114C0808191811097BE
:1019F00041F08D939C93BA01CF01DF91CF910C946C
:101A0000B90C99838883F7CFDF010190F081E02D35
:101A1000DFCFDF91CF9108958F929F92AF92BF92C7
:101A2000CF92DF92EF92FF920F931F93CF93DF93AA
:101A30008C01EB01FC01848180FF0AC0488159813F
:101A4000608171816C5F7F4FCE0103960E94E10C33
:101A5000F8018481807681F10115110569F1D0804A
:101A60005E01F5E1AF0EB11C4E0183E0880E911CC2
:101A7000EFEFDE16F1F06D2DC5010E947A097C01B1
:101A8000FC01C580848187FF07C048815981668138
:101A90007781C4010E94E10CBE01C7010E940C0DB8
:101AA000F701848180788483898D8583D98EDC2CAD
:101AB000DFCFF801D082D182DF91CF911F910F91BA
:101AC000FF90EF90DF90CF90BF90AF909F908F905E
:101AD0000895EF92FF920F931F93CF93DF937C01B2
:101AE0008B01EA016F3F710509F0B0F4E881F981DB
:101AF0000480F581E02DAB014B5F5F4FBC01CE014F
:101B00001995009749F0FC010383DF91CF911F9154
:101B10000F91FF90EF900895E881F9810280F381A1
:101B2000E02DB701CE01199590E080E0EECFFF9255
:101B30000F931F93CF93DF93EC01F62E8A819B8145
:101B40000097C9F06C817D81FC012381261717065F
:101B500091F408811981F80140815181660F771F46
:101B60006F5F7F4F0E94690D009719F421E0F80123
:101B700022839B838A838A819B81009759F02C81E1
:101B80003D81A9014F5F5F4F5D834C83820F931F9F
:101B9000FC01F482DF91CF911F910F91FF90089586
:101BA0009F92AF92BF92CF92DF92EF92FF920F93EC
:101BB0001F93CF93DF9300D01F921F92CDB7DEB754
:101BC0008C010E94A709D82EF8011286F12CE12C75
:101BD00060EFC62EC8010E94A709F8011286D81628
:101BE00009F4B3C0811113C082E090E00F900F9010
:101BF0000F900F900F90DF91CF911F910F91FF9059
:101C0000EF90DF90CF90BF90AF909F9008958C356C
:101C100009F099C0C8010E94A709882329F3EFE5BC
:101C2000F2E0853709F083C0F801128654E0952E62
:101C3000B12CA12CC8010E94A7098823A9F28134E4
:101C400034F48053803130F083E090E0CFCF8F7D4B
:101C50008753F8CF44E0AA0CBB1C4A95E1F7A82AA9
:101C6000F80112869A949110E5CFC501985D81150F
:101C7000944020F47501F3E0FF22ACCFC5019C5DD8
:101C800081159440A8F483E0B822B701762F662727
:101C9000770F770F6A297B2990E080E00196603802
:101CA00071058105910540F4C8010E94970D92CFFE
:101CB000B50190E080E0F3CF1982262F2F732068C2
:101CC0002A8326E096958795779567952A95D1F78B
:101CD0006032710580F4606C6B835E01E4E0AE0EEF
:101CE000B11CF50162915F01662309F473CFC8014D
:101CF0000E94970DF6CF262F2F7320682B8386E046
:101D0000769567958A95E1F76031710538F4606ED4
:101D10006C835E01F5E0AF0EB11CE3CF60686C83AD
:101D2000CD825E0126E0A20EB11CDBCF32969081FF
:101D3000992309F489CF8913F9CF8181882309F484
:101D400083CFF8011286682FAFCF82819381892BD0
:101D500019F484E090E04ACF90E080E047CFAF9262
:101D6000BF92CF92DF92EF92FF920F931F93CF9388
:101D7000DF93DC011296ED91FC91139714968D91EF
:101D80009C911597E80FF91F14820D911C911197E2
:101D900014966D917C91159712968D919C91139745
:101DA0009C012C5F3F4FE801EB81FC817B01E20E3F
:101DB000F31E3097B9F043814617170679F459019D
:101DC000AF014C5F5F4FEA14FB0499F1E501C99044
:101DD0005E01EA01D990AE01CD14A9F30190F08122
:101DE000E02DE7CFED01F801408151810E94690D9E
:101DF000FC01892B21F481E0D80112968C93A881F3
:101E0000B98113968D919C91149791838083149638
:101E1000FC93EE9313971B821A82CF01DF91CF912F
:101E20001F910F91FF90EF90DF90CF90BF90AF90F8
:101E3000089582818F5F8283F0CF4F925F926F927D
:101E40007F92AF92BF92CF92DF92EF92FF920F9369
:101E50001F93CF93DF93C82F762E5A0189010E94DA
:101E6000FF066B017C01D1E0D093E903C0930B0422
:101E70001092EA0310920C04672D8DE094E00E940A
:101E8000710281E00E940C05D093E9031092EA03ED
:101E900010920C040E94E7042B013C018091E303A3
:101EA000811165C081E08093E3038093E2039FEF9B
:101EB0009093E1031092E0031092DF038093BE033E
:101EC0008091BE03CC0FC82BC093BE038091BD038D
:101ED000813009F08EC01092BD030E94E7042B01EF
:101EE0003C018091BE038093BB008091E5039091FB
:101EF000E603A091E703B091E803892B8A2B8B2B93
:101F0000A1F00E94E7042091E5033091E60340919F
:101F1000E7035091E80364197509860997092617A4
:101F200037074807590708F443C08091BC0083FD78
:101F3000D8CF85EC8093BC000E94E7042B013C01C4
:101F40008091E303813009F456C08091E003C1E041
:101F5000811102C0C091E003EFEBF3E0ADE9B3E023
:101F600080E08C1751F191919D938F5FFACF809112
:101F7000E5039091E603A091E703B091E803892B74
:101F80008A2B8B2B09F48ACF0E94E7042091E5036A
:101F90003091E6034091E7035091E8036419750915
:101FA00086099709261737074807590708F076CF9B
:101FB0008091E4030E945303C0E010929C03C093FD
:101FC0009B03D0E02801712C612C80919C03C817E1
:101FD00009F43EC00115110581F58DE094E00E94E1
:101FE0003102F501ED0FF11DD7FDFA958083DF5F1A
:101FF000ECCF85EE9FCF8091E5039091E603A09111
:10200000E703B091E803892B8A2B8B2B09F498CF37
:102010000E94E7042091E5033091E6034091E70335
:102020005091E8036419750986099709261737073F
:102030004807590708F084CFBBCF0E94FF066C19F0
:102040007D098E099F09641575058605970528F297
:1020500081E00E940C050115110581F00E94FF0628
:102060006C197D098E099F0930E020E06017710727
:102070008207930718F01D160CF0DFEF8D2FDF910C
:10208000CF911F910F91FF90EF90DF90CF90BF9075
:10209000AF907F906F905F904F900895DF92EF9296
:1020A000FF920F931F93CF93DF931F921F92CDB791
:1020B000DEB7F82EE62E142FD22E28EE33E0AE0136
:1020C0004E5F5F4F0E941D0F882381F1812F8D1974
:1020D000990BAC014F5F5F4F81E090E002C0880F29
:1020E000991FDA94E2F70197042E01C0880F0A9431
:1020F000EAF701C0000F4A95EAF7982F90952A81D8
:1021000092238023892B8A838983AE014F5F5F4F9F
:102110006E2D8F2D0E9435060F900F90DF91CF917D
:102120001F910F91FF90EF90DF90089580E0F4CF22
:1021300040E050E0BA018FE795E00E944C0840E093
:1021400050E060E070E881E895E00E944C08109251
:10215000FD0410923A030895FC0101900020E9F774
:102160003197AF01481B590BBC0189E194E00C94F5
:1021700013078F929F92AF92BF920F931F93CF93AB
:10218000DF93CDB7DEB7A1970FB6F894DEBF0FBED1
:10219000CDBF19A2423008F44AE08E010F5D1F4FF7
:1021A000842E912CB12CA12CA50194010E94D02148
:1021B000E62FB901CA01EA30F4F4E05DD801EE93EC
:1021C0008D01232B242B252B79F790E080E01097AD
:1021D00019F0CD010E94AC10A1960FB6F894DEBFA5
:1021E0000FBECDBFDF91CF911F910F91BF90AF90E8
:1021F0009F908F900895E95CE1CFCF93DF93D0E07B
:10220000C0E0009719F00E94AC10EC0180E792E06A
:102210000E94AC108C0F9D1FDF91CF910895DF922B
:10222000EF92FF920F931F93CF93DF936115710588
:1022300061F460E070E08FEF9D2DDF91CF911F91F1
:102240000F91FF90EF90DF9008958A01EB01DC0180
:10225000FC900B5E1F4F6F2DC8010E947A090097FA
:1022600041F3FC01E580009721F30680F781E02D22
:10227000DE010D900020E9F79D01215031092C1B52
:102280003D0BB0E0A0E0309739F0DF010D90002069
:10229000E9F71197AE1BBF0B2A173B0751F4DE017C
:1022A0002C0F3D1FA217B30769F05D9141915417A0
:1022B000C9F36E2DC8010E947A09009709F4B9CFBD
:1022C000FE2CCFCFBC018F2DDE2CB6CFFC01408180
:1022D000518162817381CA014A9641F0FA01268DCB
:1022E00025FF04C00E940F11CB01089590E080E00B
:1022F0000895FF920F931F93CF93DF93FC01C18149
:10230000D2810581168101960E9466110097E1F045
:10231000FC01248126FF18C065966081CE010E94D1
:102320007A09009789F0FC01F58001151105A9F0E3
:102330006F2DCE010E947A09009711F0FC01F58003
:1023400001501109009789F760E070E0CB01DF913F
:10235000CF911F910F91FF900895DF91CF911F9121
:102360000F91FF900C94FC0BCF930E946611FC011F
:10237000892B49F194819F779830E1F040F49923BB
:1023800011F19630A9F0C1E08C2FCF9108959A30C9
:1023900089F09C30C1F7C1E020E030E0A901608104
:1023A0007181828193810E94A1208111EDCF0BC0A8
:1023B000C081EACFC1E080819181A281B381892B64
:1023C0008A2B8B2B09F7C0E0DFCFCF93DF93FC0183
:1023D000C081D1810E946611AC01CE01BA01DF91AA
:1023E000CF91089585ED8093BC008091E503909195
:1023F000E603A091E703B091E8030796A11DB11D84
:1024000023E0B695A795979587952A95D1F72091C2
:10241000BC0024FD03C01092E30308954091E5033E
:102420005091E6036091E7037091E803452B462B3A
:10243000472B69F30097A105B10541F02AE22A95DF
:10244000F1F700C00197A109B109E1CF8091E40340
:102450000C945303CB010C94B622CB010C94522361
:102460008F929F92AF92BF92CF92DF92EF92FF92A4
:102470000F931F93CF93DF936C018B01DB01599670
:10248000FC90BFEFFB1621F16F2DC80145960E940D
:102490007A09EC018D81F801818F209709F496C0AB
:1024A0001C828FEF8D831F821E82D60111966C9144
:1024B0006F3F09F49FC0C80145960E947A09FC014C
:1024C000F582D6011196FC92BE018F2D9D8084C0AD
:1024D0005B01F5E0AF0EB11CDB01ED90FC901197B4
:1024E00057968C91882349F0C5010E94420CC62F53
:1024F000D72F209711F0F82ED8CFF801C789908DEB
:10250000C91325C0C03109F461C0CC0F6589768933
:10251000D701ED91FC91B4E0CB9FA0011124A61648
:10252000B70609F04BC00190F081E02DBA01C70158
:102530001995009709F44AC020E1F501DC010190EA
:102540000D922A95E1F7F801968B858BC08FD80103
:102550005596CD91DC91569757968C91579721E0DF
:10256000280F57962C93B4E08B9FC0011124C80FFD
:10257000D91F90E1892E203111F48FE0882EE8E0F8
:102580008E9EB0011124D701ED91FC910190F08154
:10259000E02DC70119959B838A83892B09F4812C2F
:1025A00088821982CD2B91F0C5010E94420CC62F62
:1025B000D72FF82E209709F078CF08C00480F58136
:1025C000E02DC7011995009709F0BDCF81E0F80112
:1025D000828360E070E08FEF992DDF91CF911F91A2
:1025E0000F91FF90EF90DF90CF90BF90AF909F90B2
:1025F0008F900895F601F082F18266CF8F929F92BC
:10260000AF92BF92CF92DF92EF92FF920F931F9300
:10261000CF93DF93EC018B01D42E0E94230A7C011F
:10262000892B09F047C0CE010E94A709863609F41C
:1026300052C124F5873229F08B3561F1823209F0DD
:1026400053C11D821C828A819B81892B31F4888130
:1026500099810E94CC019B838A83CE010E94D00D78
:102660007C01892B39F5CE010E94AF0EF80124813F
:10267000207825602483918380831CC0843709F4EB
:1026800012C18B3709F45BC08E3609F02DC16EE79D
:1026900072E012C1F801848180788064848301151E
:1026A000110519F08FEF80838183D11011C025E0CF
:1026B000E22EF12CC701DF91CF911F910F91FF9076
:1026C000EF90DF90CF90BF90AF909F908F90089544
:1026D0001A86CE010E94230A009709F085C06DE595
:1026E000CE010E94EF098111E5CFDA946B857C85DC
:1026F000C8010E9430126115710521F484E0E82EB2
:10270000F12CD8CF4D2DCE010E94FE12009709F07A
:102710006BC0CE010E94230A009709F065C06DE5E9
:10272000CE010E94EF098111C5CF6CE2CE010E945B
:10273000EF098111DBCF93E0E92EF12CBBCFF8013B
:1027400084818078806284830115110519F08FEFF0
:1027500080838183DD2009F4AACF1A86CE010E94EE
:10276000230A009709F040C06DE7CE010E94EF09EF
:102770008111A0CFBB24BA94BD0C1D821C828A811A
:102780009B81892B31F4888199810E94CC019B83A4
:102790008A83CE010E94A7098732E1F08232D1F00C
:1027A000CE010E94A709D82E0E949509882319F20C
:1027B0001A866D2DCE010E94970DCE010E94A709A9
:1027C000D82E0E9495098111F3CF8A819B81892B94
:1027D00031F494CFCE010E94D00D009729F4CE01A0
:1027E0000E94230A009711F07C0164CF6AE3CE01B6
:1027F0000E94EF09882309F49ECFEA81FB818C8136
:102800009D81E80FF91F14824B855C856A817B816D
:102810006C5F7F4FC8010E940F11CB016B01672BCA
:10282000C9F5CE010E94AF0E4C016B857C85C801B5
:102830000E9430126B016115710509F45FCFFB0135
:10284000848180688483F4E08F0E911CF601978266
:1028500086824B2DB601CE010E94FE12009721F612
:10286000CE010E94230A009709F0BECF6DE7CE018A
:102870000E94EF0981111ECF6CE2CE010E94EF0988
:10288000882309F458CFCE010E94230A009709F447
:1028900074CFAACF6B857C850E940C0DF6018481D4
:1028A00080788483D6CFF8018481807886608483A1
:1028B00081E0808363E772E0CE01DF91CF911F91C9
:1028C0000F91FF90EF90DF90CF90BF90AF909F90CF
:1028D0008F900C94000AF80184818078866084834C
:1028E000108268E772E0E8CFCE010E94A7095E017E
:1028F000FDE0AF0EB11CD12C9A2CCB2C803374F0A0
:102900008A3374F49FE3D91699F01A86D394F501AB
:1029100081935F01CE010E94A709F0CF8B3291F322
:1029200093ED980F923070F3982F9F7D953451F36B
:10293000CD0DD11D1D86B801892D9C2D0E94950AB3
:102940008111B8CEF8CECB01BA010C94DB231F92D3
:102950000F920FB60F9211240BB60F922F933F9345
:102960004F935F936F937F938F939F93AF93BF9397
:10297000EF93FF938091B900887F803609F44DC0B2
:1029800008F040C0883209F4A9C028F5803109F464
:102990009DC0C8F4882309F4FBC0883009F496C0B0
:1029A000FF91EF91BF91AF919F918F917F916F9127
:1029B0005F914F913F912F910F900BBE0F900FBEE3
:1029C0000F901F901895883109F488C0803241F724
:1029D0008093E10314C0803409F49DC040F4803337
:1029E000B9F38833E9F68093E10385ECB0C0803514
:1029F00009F485C0883509F496C0883489F60E94A8
:102A0000F211CECF883909F48CC038F5883729F017
:102A100050F4883611F0803719F683E08093E30391
:102A20001092960357C0883809F47BC0803919F09A
:102A3000803809F0B5CF80919603803208F071C0DC
:102A4000E091960381E08E0F809396038091BB0006
:102A5000F0E0EA58FC4F80833DC0803B39F0E0F461
:102A6000803A09F479C0883A09F09ACF84E08093DB
:102A7000E3031092750310927403E0919703F091B1
:102A8000980319958091740381110FC081E08093A0
:102A900074031092540309C0803C09F4A6CF883C0B
:102AA00009F4A3CF883B09F07BCFE091750381E067
:102AB0008E0F80937503F0E0EC5AFC4F8081809379
:102AC000BB00909175038091740329C08091BE036F
:102AD0008093BB0085EC8093BC0062CF9091E003B3
:102AE0008091DF03981758F5E091E00381E08E0FA5
:102AF0008093E003F0E0E154FC4F8081E9CFE09166
:102B0000E00381E08E0F8093E0038091BB00F0E052
:102B1000E154FC4F80839091E0038091DF0398178C
:102B2000C8F285E8D8CFE091E00381E08E0F809372
:102B3000E0038091BB00F0E0E154FC4F8083809182
:102B4000E20381115CCF81E08093BD0384EA80932E
:102B5000BC001092E30324CF85EC8093BC0010925C
:102B6000E30380919603803230F4E0919603F0E025
:102B7000EA58FC4F10826091960370E0E09199034F
:102B8000F0919A0386E793E019951092960308CF87
:102B90001092E10334CF1F920F920FB60F921124BF
:102BA0002F933F938F939F93AF93BF9380914B034A
:102BB00090914C03A0914D03B0914E0330914A0384
:102BC00023E0230F2D3758F50196A11DB11D209349
:102BD0004A0380934B0390934C03A0934D03B0930F
:102BE0004E0380914F0390915003A0915103B091F7
:102BF00052030196A11DB11D80934F039093500382
:102C0000A0935103B0935203BF91AF919F918F91C5
:102C10003F912F910F900FBE0F901F90189526E8AF
:102C2000230F0296A11DB11DD2CF1F920F920FB696
:102C30000F9211240BB60F922F933F934F935F93F4
:102C40006F937F938F939F93AF93BF93EF93FF9374
:102C5000E0910F02F09110021995FF91EF91BF9151
:102C6000AF919F918F917F916F915F914F913F9124
:102C70002F910F900BBE0F900FBE0F901F901895C5
:102C80001F920F920FB60F9211240BB60F922F9333
:102C90003F934F935F936F937F938F939F93AF93E4
:102CA000BF93EF93FF93E0910D02F0910E021995FF
:102CB000FF91EF91BF91AF919F918F917F916F9114
:102CC0005F914F913F912F910F900BBE0F900FBED0
:102CD0000F901F9018951F920F920FB60F9211240C
:102CE0000BB60F922F933F934F935F936F937F9306
:102CF0008F939F93AF93BF93EF93FF93E091030262
:102D0000F09104021995FF91EF91BF91AF919F91BE
:102D10008F917F916F915F914F913F912F910F9084
:102D20000BBE0F900FBE0F901F9018951F920F9221
:102D30000FB60F9211240BB60F922F933F934F9320
:102D40005F936F937F938F939F93AF93BF93EF9313
:102D5000FF93E0910102F09102021995FF91EF912A
:102D6000BF91AF919F918F917F916F915F914F91A3
:102D70003F912F910F900BBE0F900FBE0F901F90A1
:102D800018951F920F920FB60F9211240BB60F9247
:102D90002F933F934F935F936F937F938F939F9363
:102DA000AF93BF93EF93FF93E0910B02F0910C026E
:102DB0001995FF91EF91BF91AF919F918F917F9165
:102DC0006F915F914F913F912F910F900BBE0F909C
:102DD0000FBE0F901F9018951F920F920FB60F9273
:102DE00011240BB60F922F933F934F935F936F93E2
:102DF0007F938F939F93AF93BF93EF93FF93E09154
:102E00000902F0910A021995FF91EF91BF91AF91DC
:102E10009F918F917F916F915F914F913F912F91F2
:102E20000F900BBE0F900FBE0F901F9018951F9222
:102E30000F920FB60F9211240BB60F922F933F9360
:102E40004F935F936F937F938F939F93AF93BF93B2
:102E5000EF93FF93E0910702F09108021995FF911B
:102E6000EF91BF91AF919F918F917F916F915F9102
:102E70004F913F912F910F900BBE0F900FBE0F906F
:102E80001F9018951F920F920FB60F9211240BB638
:102E90000F922F933F934F935F936F937F938F93F3
:102EA0009F93AF93BF93EF93FF93E0910502F0914F
:102EB00006021995FF91EF91BF91AF919F918F916C
:102EC0007F916F915F914F913F912F910F900BBE2A
:102ED0000F900FBE0F901F9018951F920F920FB674
:102EE0000F9211240BB60F922F933F934F935F9342
:102EF0006F937F938F939F93AF93BF93EF93FF93C2
:102F000080913D0390913E03A0913F03B091400317
:102F1000892B8A2B8B2BD1F190913C03809100005F
:102F200089278093000080913D0390913E03A091FA
:102F30003F03B0914003181619061A061B069CF4AD
:102F400080913D0390913E03A0913F03B0914003D7
:102F50000197A109B10980933D0390933E03A0938B
:102F60003F03B0934003FF91EF91BF91AF919F91C9
:102F70008F917F916F915F914F913F912F910F9022
:102F80000BBE0F900FBE0F901F90189580910002FE
:102F9000E6E2F2E0E4919FEF90930002E230E9F084
:102FA00040F4EE2389F0E13091F060E00E940703E5
:102FB000DACFE43049F110F1E530B9F790917300C0
:102FC0009D7F90937300F1CF10926E00EECF9091A1
:102FD0006F009D7F90936F00E8CF909170009D7F70
:102FE0009093700091E09093B0009091B100987F21
:102FF00094609093B1001092B300D7CF909171007C
:103000009D7F90937100D1CF909172009D7F90939E
:103010007200CBCF1F920F920FB60F9211240BB6F6
:103020000F922F933F934F935F936F937F938F9361
:103030009F93AF93BF93EF93FF9389E194E00E9436
:103040008A07FF91EF91BF91AF919F918F917F91EF
:103050006F915F914F913F912F910F900BBE0F9009
:103060000FBE0F901F9018951F920F920FB60F92E0
:1030700011240BB60F922F938F939F93EF93FF938F
:10308000E0912904F0912A048081E0912F04F091CD
:10309000300482FD1DC09081809132048F5F8F7358
:1030A00020913304821741F0E0913204F0E0E75EB2
:1030B000FB4F958F80933204FF91EF919F918F91F9
:1030C0002F910F900BBE0F900FBE0F901F90189571
:1030D0008081F2CF1F920F920FB60F9211240BB680
:1030E0000F922F933F934F935F936F937F938F93A1
:1030F0009F93AF93BF93CF93DF93EF93FF93809111
:103100003B03C091F204D0E087FF23C010928500FA
:103110001092840080913B038F5F80933B038091EA
:103120003B03082E000C990B8C179D0724F480910B
:103130003B038C3074F1809184009091850084343D
:103140009C4908F465C080918400909185000496A4
:1031500061C080913B03082E000C990B8C179D07D2
:10316000CCF630913B0325E03203F0011124EA5400
:10317000FB4F808186FFCECF30913B033203F001BD
:103180001124EA54FB4F808160E08F730E94070393
:10319000C1CF809184009091850030913B0325E060
:1031A0003203F0011124EA54FB4F41815281840F14
:1031B000951F909389008093880030913B033203E0
:1031C000F0011124EA54FB4F808186FF0CC030913E
:1031D0003B033203F0011124EA54FB4F808161E08C
:1031E0008F730E940703FF91EF91DF91CF91BF9101
:1031F000AF919F918F917F916F915F914F913F918F
:103200002F910F900BBE0F900FBE0F901F9018952F
:1032100080E49CE990938900809388008FEF8093ED
:103220003B03E1CF1092100410920F0488EE93E05C
:10323000A0E0B0E08093110490931204A0931304D3
:10324000B09314042FE332E030930E0420930D0466
:1032500010921C0410921B0480931D0490931E0472
:10326000A0931F04B093200481E592E090931A0488
:103270008093190485EC90E09093260480932504B4
:1032800084EC90E0909328048093270480EC90E0F5
:1032900090932A048093290481EC90E090932C046D
:1032A00080932B0482EC90E090932E0480932D0465
:1032B00086EC90E09093300480932F0410923204B7
:1032C0001092330410923404109235048CE08093F1
:1032D000650584E28093660585E08093670596E046
:1032E000909368059EE1909369059FE190936A052C
:1032F00092E290936B0593E290936C0594E4909323
:103300006D0595E490936E051092700510926F050F
:1033100090E49093720510927705109278051092C0
:10332000790510927A0510927B0510927C05109217
:103330007D0510927E0598E0EDE1F2E0A7E8B5E0AA
:1033400001900D929A95E1F740E050E060EA70E458
:1033500040938F055093900560939105709392056B
:10336000E091F204EC3008F0CAC091E09E0F909317
:10337000F204E09364058E9FF0011124EA54FB4FA0
:1033800088EB9BE09283818388E6809355051092B9
:10339000190510921A0510921B0510921C05109227
:1033A0001D0510921E0510921F0510922005109207
:1033B00021051092220510922305109224051092E7
:1033C00026051092250510922805109227051092C7
:1033D0002A051092290510922B0510922C051092A7
:1033E0002D0510922E0510922F0510923005109287
:1033F0003D0510923E0510923F0510924005109237
:10340000410510924205109243051092440580E058
:1034100090E0A0EAB0E48093450590934605A09320
:103420004705B093480580E090E0A8ECB2E48093B3
:10343000490590934A05A0934B05B0934C05109213
:103440004D0510924E0510924F05109250051092A6
:103450005105109252051092530510925405109286
:1034600008051092090510920A0510920B0510929A
:103470000C0510920D0510920E0510920F058FEF9E
:103480009FEFDC018093110590931205A093130523
:10349000B09314058093150590931605A093170516
:1034A000B0931805109210051092070510920605AA
:1034B0001092F5041092F6041092F7041092F8049A
:1034C0001092F9041092FA041092FB041092FC047A
:1034D0008093FE049093FF04A0930005B093010530
:1034E0008093020590930305A0930405B09305050E
:1034F0001092FD041092F4041092F30408958FEFDB
:103500008093640541CFCF93DF93CDB7DEB7C15829
:10351000D1090FB6F894DEBF0FBECDBF789484B545
:10352000826084BD84B5816084BD85B5826085BDBF
:1035300085B5816085BD80916E00816080936E004D
:10354000109281008091810082608093810080913F
:1035500081008160809381008091800081608093F0
:1035600080008091B10084608093B1008091B000B0
:1035700081608093B000809191008260809391007F
:103580008091910081608093910080919000816092
:10359000809390008091A10082608093A10080912F
:1035A000A10081608093A1008091A0008160809340
:1035B000A0008091210182608093210180912101EE
:1035C000816080932101809120018160809320019E
:1035D00080917A00846080937A0080917A00826082
:1035E00080937A0080917A00816080937A00809144
:1035F0007A00806880937A001092C100E0912904DB
:10360000F0912A0482E08083E0912504F091260461
:103610001082E0912704F091280480E180831092C9
:103620003104E0912D04F0912E0486E08083E09136
:103630002B04F0912C04808180618083E0912B0425
:10364000F0912C04808188608083E0912B04F091BC
:103650002C04808180688083E0912B04F0912C04FD
:1036600080818F7D808361E0809166050E94740374
:1036700060E0809166050E94070360E08091650527
:103680000E94740380916F0590917005892BA9F4B5
:1036900086E090E00E94B622FC0180917205808352
:1036A0008DE094E092838183138280E290E09583A1
:1036B0008483F0937005E0936F05E0906F05F090C0
:1036C000700510929C0310929B031092EA031092D3
:1036D0000C040E94350388EF91E090939803809347
:1036E000970389EF91E090939A038093990311E0F7
:1036F000F7011383C7010E94FC05882309F46AC0FF
:1037000080E090E1A0E0B0E08093730590937405B1
:10371000A0937505B09376058AE090E0A0E0B0E054
:103720008093770590937805A0937905B0937A05F7
:1037300080E090E0A0E0B0E480937B0590937C056E
:10374000A0937D05B0937E0580916F0590917005E3
:10375000A1961CAE1DAE1EAE1FAEA19760969FAF88
:103760008EAF609762961FAE1EAE629768961FAFCF
:10377000689785E090E066969FAF8EAF66976996F2
:103780001FAF699702E067960FAF679740E050E17F
:1037900060E070E0CE01825B9F4F0E9454068091F2
:1037A0006F0590917005188A198A1A8A1B8A9A8364
:1037B00089831C821B821A8718861F821B870987B0
:1037C0004FE959E360E070E0CE0101960E94540693
:1037D0008093710577E6E72E75E0F72E05E615E094
:1037E000E0E96E2EE2E07E2EF6ED8F2EF2E09F2EC7
:1037F000ABECCA2EA7E0DA2EBBE8AB2EBB24B39409
:10380000F701928181917F01F801828F938F61E0AE
:103810000E94740361E0F801838D0E947403F70134
:1038200095818381F801868F978F61E00E947403F0
:1038300060E0F801878D0E94740361E0F801868DD5
:103840000E9407035FB6F89480914103811125C05F
:10385000F3018491F4019491E82FF0E0EE0FFF1F43
:10386000E95DFD4FA591B4918C91982321F461E01D
:1038700085E30E94070361E085E30E9474038CB531
:1038800080618CBD8CB580648CBD61E084E30E9456
:10389000740361E083E30E947403809141038F5FAE
:1038A000809341035FBEC6010197F1F760E0F80124
:1038B000868D0E94070388E80E94730983E00E94B6
:1038C000730961E0F801868D0E940703C601019724
:1038D000F1F760E0F801868D0E94070388E90E94F5
:1038E000730980E00E94730980E00E94730980E000
:1038F0000E94730980E00E94730961E0F801868DDF
:103900000E940703C5010197F1F760E0F801868D79
:103910000E94070380EE0E94730961E0F801868D22
:103920000E9407030E5F1F4FF5E009361F0709F0DD
:1039300067CF01E023E042E06BE6809155050E94ED
:103940004E1000E022E044E06BE1809155050E94BA
:103950004E1022E044E06CE1809155050E944E102B
:103960001091550528EE33E0AE014F5F5F4F6BE6D7
:10397000812F0E941D0F89818F7B8983C158DF4F62
:103980008883CF57D040AE0141585F4F6BE6812FFF
:103990000E94350682E08093420383E080934303D4
:1039A00062E082E00E94740362E0809143030E941F
:1039B000740390914203923009F002C182E59AE0CB
:1039C000909302028093010280916A008C7F826052
:1039D00080936A00EC9A61E080E20E94740384E6BE
:1039E00090E0A0E0B0E08093080590930905A093D3
:1039F0000A05B0930B058BE097E090930705809341
:103A0000060581E0809310050E94FF0600910805DD
:103A10001091090520910A0530910B05DC01CB01BD
:103A2000800F911FA21FB31F80930C0590930D056B
:103A3000A0930E05B0930F0580911105909112058A
:103A4000A0911305B0911405809315059093160568
:103A5000A0931705B093180588E990E19093F404BA
:103A60008093F30480E090E0A0E8BEE38093190522
:103A700090931A05A0931B05B0931C058DEC9CEC4C
:103A8000ACECBDE380931D0590931E05A0931F052C
:103A9000B093200510922105109222051092230563
:103AA000109224058FE097E09093260580932505DA
:103AB00080E197E0909328058093270581E197E0C6
:103AC00090932A05809329058FE692E1A3E8BAE353
:103AD0008093450590934605A0934705B09348050C
:103AE00088EC90E0A0E0B0E0809335059093360537
:103AF000A0933705B09338058DEC9CECACE4BEE3A5
:103B00008093310590933205A0933305B09334052B
:103B100040E050E0BA018FE795E00E944C0840E099
:103B200050E060E070E881E895E00E944C088E016A
:103B3000025B1F4F680185E0C80ED11CF8017A9620
:103B4000C058DF4FF983E883C058D0404AE9242E9B
:103B500042E0342E80914903882309F4BEC081E1FC
:103B600092E0F80191838083128214821382D68AB4
:103B7000C58A178A84E0808F8FEF818F168EED962D
:103B80001FAE1EAEED97EF961FAE1EAEEF9761E132
:103B900072E0C6010E94740CF8011282E080F1808C
:103BA000F80183819481009709F451C0FC012081C0
:103BB0003181F80134832383B7010E94B90CF0CF1F
:103BC000933071F482E59AE09093040280930302AB
:103BD00080916A00837F886080936A00ED9AFBCEB3
:103BE0008EEE890F843008F0F6CE87E1891BE82F2E
:103BF000F0E0EE0FFF1FEF5FFD4F22E53AE031836B
:103C000020838430A1F08530D1F0833041F0809161
:103C100069008C7F826080936900E89ADCCE809195
:103C20006900837F886080936900E99AD4CE80918F
:103C300069008F7C806280936900EA9ACCCE809183
:103C400069008F73806880936900EB9AC4CE168EEA
:103C50001A8309831C821B821E821D821F8289E1B6
:103C600094E0998788871B861D870C874AE0C05897
:103C7000DF4F68817981C058D040CE0101960E9403
:103C8000FE127C01892B51F48A85882339F0F801D2
:103C9000868D83FF03C033E0E32EF12C8B819C8162
:103CA000009731F0E981FA81608171810E94B90C3D
:103CB00010924903E114F10441F183E892E00E947B
:103CC000AC10F701EE0FFF1FE15DFD4F8081918188
:103CD0000E94FD10C8010E94C30C809013029090B6
:103CE0001402A0901502B0901602B501A4018FE74E
:103CF00095E00E944C08B501A401705881E895E058
:103D00000E944C080E941D0825CF1A8309833C821B
:103D10002B82CE0101960E94E511EF966CAF7DAF2C
:103D20008EAF9FAFEF97CE0185589F4F0E94450AF7
:103D300081112AC01A8309833C822B82CE0101960D
:103D40000E946611812C912C5401009721F00E9451
:103D5000FC0B4B015C018092130290921402A09222
:103D60001502B0921602A5019401C501B4010E948A
:103D7000B122882309F447C183EA92E00E94AC1083
:103D800080E792E00E94AC101A8309838FEA92E0E8
:103D90009C838B83CE0101960E94E511EF966CAF58
:103DA0007DAF8EAF9FAFEF97CE0185589F4F0E949A
:103DB000450A811115C01A83098386EB92E09C8322
:103DC0008B83CE0101960E94B411882309F4ADC102
:103DD0008CEB92E00E94FD1061E080E20E940703FC
:103DE0001A830983E1EDF2E0FC83EB83CE010196B7
:103DF0000E94E511EF966CAF7DAF8EAF9FAFEF974E
:103E0000CE0185589F4F0E94450A81110EC01A832A
:103E1000098381ED92E09C838B83CE0101960E9401
:103E20006611009711F00E94FC0B1A83098396EB30
:103E3000E92E92E0F92EFC82EB82CE0101960E94DF
:103E4000E511EF966CAF7DAF8EAF9FAFEF97CE01D0
:103E500085589F4F0E94450A81110AC01A83098321
:103E6000FC82EB82CE0101960E94B411809348033C
:103E70001A8309838BEDE82E82E0F82EFC82EB8218
:103E8000CE0101960E94E511EF966CAF7DAF8EAF2B
:103E90009FAFEF97CE0185589F4F0E94450A811131
:103EA00019CF10922F051B830A83FD82EC8282E0DA
:103EB00090E09F838E83CE0101960E9479114B0181
:103EC0005C01E0961FAF0EAFE097E296FFAEEEAE5C
:103ED000E29781E090E0E4969FAF8EAFE497CE0149
:103EE00083599F4F0E9479112B013C01E7961FAF28
:103EF0000EAFE797E996FFAEEEAEE997EB961FAEF1
:103F00001EAEEB97CE018C589F4F0E9479116093A3
:103F1000190570931A0580931B0590931C05409218
:103F20001D0550921E0560921F057092200580921B
:103F3000210590922205A0922305B09224051B83AF
:103F40000A83FD82EC8283E090E09F838E83CE0122
:103F500001960E9479116093450570934605809300
:103F60004705909348051B830A83FD82EC8284E019
:103F700090E09F838E83CE0101960E947911609319
:103F80002B0570932C0580932D0590932E05809121
:103F9000250590912605892B09F49CCE8091270553
:103FA00090912805892B09F495CE81E080932F0507
:103FB0000E94FF068090350590903605A090370549
:103FC000B0903805DC01CB01880D991DAA1DBB1DE1
:103FD00080933D0590933E05A0933F05B093400527
:103FE0001092300510924D0510924E0510924F051B
:103FF00010925005109251051092520510925305DF
:104000001092540567CE24013501E89477F82FEF1C
:104010003FEF4FE75FE7C301B2010E94B122811178
:104020000DC02FEF3FEF4FE75FE7C301B2010E94E2
:10403000A12018161CF487EA92E0A0CE2FEF3FEFE4
:104040004FE75FE4C501B4010E94AC2218161CF4CE
:104050008BEA92E093CE2FEF3FEF4FE75FECC50185
:10406000B4010E94A12087FDF3CF20E030E0A90138
:10407000C501B4010E94A12087FF09C06DE289E15A
:1040800094E00E94AC07B7FAB094B7F8B0942AE075
:1040900037ED43EA5BE3C501B4010E940A222B011C
:1040A0003C010E947D224B015C010E94A6209B01E5
:1040B000AC01C301B2010E9409222B013C014AE07C
:1040C000C501B4010E94B9106EE289E194E00E943A
:1040D000AC0720E030E040E251E4C301B2010E94AD
:1040E00007212B013C010E947D224B01B12CA12C08
:1040F0004AE0C501B4010E94B910C501B4010E9493
:10410000A6209B01AC01C301B2010E94092220E05C
:1041100030E040E251E40E9407210E947D2290E0BD
:1041200080E04AE00E94B9102BCE86EC92E00E941B
:10413000FD1060E052CE80916F05909170050C9457
:1041400052230E94E32008F481E00895E89409C016
:1041500097FB3EF490958095709561957F4F8F4FBA
:104160009F4F9923A9F0F92F96E9BB279395F695D0
:10417000879577956795B795F111F8CFFAF4BB0F4E
:1041800011F460FF1BC06F5F7F4F8F4F9F4F16C0B2
:10419000882311F096E911C0772321F09EE8872F3C
:1041A000762F05C0662371F096E8862F70E060E0F8
:1041B0002AF09A95660F771F881FDAF7880F969571
:1041C000879597F90895990F0008550FAA0BE0E815
:1041D000FEEF16161706E807F907C0F012161306C9
:1041E000E407F50798F0621B730B840B950B39F409
:1041F0000A2661F0232B242B252B21F408950A266F
:1042000009F4A140A6958FEF811D811D08950E949C
:104210001A210C948B210E947D2138F00E94842168
:1042200020F0952311F00C9474210C947A21112420
:104230000C94BF210E949C2170F3959FC1F3950FB0
:1042400050E0551F629FF001729FBB27F00DB11D1A
:10425000639FAA27F00DB11DAA1F649F6627B00DAA
:10426000A11D661F829F2227B00DA11D621F739F93
:10427000B00DA11D621F839FA00D611D221F749FA1
:104280003327A00D611D231F849F600D211D822FE8
:10429000762F6A2F11249F5750409AF0F1F088230F
:1042A0004AF0EE0FFF1FBB1F661F771F881F91503C
:1042B0005040A9F79E3F510580F00C9474210C9456
:1042C000BF215F3FE4F3983ED4F3869577956795D9
:1042D000B795F795E7959F5FC1F7FE2B880F911D66
:1042E0009695879597F9089597F99F6780E870E00C
:1042F00060E008959FEF80EC089500240A9416165C
:10430000170618060906089500240A9412161306C3
:10431000140605060895092E0394000C11F4882351
:1043200052F0BB0F40F4BF2B11F460FF04C06F5F6D
:104330007F4F8F4F9F4F089557FD9058440F551F43
:1043400059F05F3F71F04795880F97FB991F61F017
:104350009F3F79F087950895121613061406551F8E
:10436000F2CF4695F1DF08C0161617061806991FFA
:10437000F1CF86957105610508940895E894BB27EF
:1043800066277727CB0197F908950E94F221A59F10
:10439000900DB49F900DA49F800D911D1124089540
:1043A000A1E21A2EAA1BBB1BFD010DC0AA1FBB1F39
:1043B000EE1FFF1FA217B307E407F50720F0A21BAB
:1043C000B30BE40BF50B661F771F881F991F1A9418
:1043D00069F760957095809590959B01AC01BD0142
:1043E000CF010895A29FB001B39FC001A39F700D9C
:1043F000811D1124911DB29F700D811D1124911DED
:104400000895EE0FFF1F881F8BBF0790F691E02DD8
:1044100019945058BB27AA270E9421220C948B2163
:104420000E947D2138F00E94842120F039F49F3FC2
:1044300019F426F40C947A210EF4E095E7FB0C9421
:104440007421E92F0E949C2158F3BA176207730761
:104450008407950720F079F4A6F50C94BE210EF49C
:10446000E0950B2EBA2FA02D0B01B90190010C0184
:10447000CA01A0011124FF27591B99F0593F50F49C
:10448000503E68F11A16F040A22F232F342F4427F4
:10449000585FF3CF469537952795A795F0405395EC
:1044A000C9F77EF41F16BA0B620B730B840BBAF0BC
:1044B0009150A1F0FF0FBB1F661F771F881FC2F727
:1044C0000EC0BA0F621F731F841F48F4879577953B
:1044D0006795B795F7959E3F08F0B0CF9395880FF5
:1044E00008F09927EE0F9795879508950E947D22F1
:1044F0006894B1110C94BF2108950E94A42188F002
:104500009F5798F0B92F9927B751B0F0E1F0660F97
:10451000771F881F991F1AF0BA95C9F714C0B130D8
:1045200091F00E94BE21B1E008950C94BE21672F46
:10453000782F8827B85F39F0B93FCCF38695779507
:104540006795B395D9F73EF49095809570956195F0
:104550007F4F8F4F9F4F08950E94E32008F48FEF05
:1045600008950E94E320880B990B08950F931F93E1
:10457000CF93DF938230910510F482E090E0E091D8
:104580009505F091960530E020E0B0E0A0E030978E
:1045900099F42115310509F44AC0281B390B243040
:1045A0003105D8F58A819B816115710589F1FB017F
:1045B00093838283FE0111C0408151810281138166
:1045C00048175907E0F04817590799F4109761F018
:1045D00012960C93129713961C933296CF01DF918B
:1045E000CF911F910F910895009395051093960513
:1045F000F4CF2115310551F04217530738F0A901C6
:10460000DB019A01BD01DF01F801C1CFEF01F9CF54
:104610009093960580939505CDCFFE01E20FF31F91
:10462000819391932250310939832883D7CF2091E8
:10463000930530919405232B41F420911902309178
:104640001A0230939405209393052091170230911C
:1046500018022115310541F42DB73EB740911B02D8
:1046600050911C02241B350BE0919305F0919405A9
:10467000E217F307A0F42E1B3F0B2817390778F039
:10468000AC014E5F5F4F2417350748F04E0F5F1F98
:104690005093940540939305819391939FCFF0E0BD
:1046A000E0E09CCFCF93DF930097E9F0FC013297D5
:1046B00013821282A0919505B0919605ED0130E02C
:1046C00020E01097A1F420813181820F931F209167
:1046D0009305309194052817390709F061C0F093CC
:1046E0009405E0939305DF91CF910895EA01CE17E9
:1046F000DF07E8F54A815B819E0141155105B1F75D
:10470000E901FB83EA8349915991C40FD51FEC1746
:10471000FD0761F4808191810296840F951FE90164
:1047200099838883828193819B838A83F0E0E0E090
:1047300012968D919C9113970097B9F52D913C910C
:104740001197CD010296820F931F2091930530910E
:1047500094052817390739F6309751F510929605C8
:1047600010929505B0939405A0939305BCCFD38385
:10477000C28340815181840F951FC817D90761F406
:104780004E5F5F4F88819981480F591F5183408345
:104790008A819B81938382832115310509F0B0CFF3
:1047A000F0939605E09395059ECFFD01DC01C0CF07
:1047B00013821282D7CF4F925F926F927F928F9225
:1047C0009F92AF92BF92CF92DF92EF92FF920F93A0
:1047D0001F93CF93DF938C01009799F4CB01DF9166
:1047E000CF911F910F91FF90EF90DF90CF90BF90EE
:1047F000AF909F908F907F906F905F904F900C94B0
:10480000B622FC01E60FF71F9C0122503109E21786
:10481000F30708F4AEC0D901CD91DC911197C6170A
:10482000D70720F1C530D10578F0CE01049786175F
:10483000970750F0C61BD70B2297C193D1936D9366
:104840007C93CF010E945223C801DF91CF911F9129
:104850000F91FF90EF90DF90CF90BF90AF909F901F
:104860008F907F906F905F904F9008955B01AC1A8E
:10487000BD0A4C018C0E9D1EA0919505B091960528
:10488000512C412CF12CE12C109731F5809193059E
:10489000909194058815990509F05CC04616570655
:1048A00008F058C08091170290911802009741F4C7
:1048B0008DB79EB740911B0250911C02841B950B33
:1048C000E817F90708F055C0F0939405E0939305B5
:1048D000F90171836083B8CF8D919C9111971296E5
:1048E0006C90129713967C901397A815B90559F5FB
:1048F0006C0142E0C40ED11CCA14DB0420F1AC01EF
:104900004A195B09DA011296159780F06282738268
:1049100051834083D9016D937C93E114F10471F0CC
:10492000D7011396FC93EE9312978ECF22968C0F9D
:104930009D1FF90191838083F301EFCFF0939605DA
:10494000E093950581CF4816590608F42C017D01A6
:10495000D3019ACFCB010E94B6227C01009749F087
:10496000AE01B8010E94BC24C8010E9452238701F5
:104970006BCF10E000E068CFFB01DC0102C00190CA
:104980000D9241505040D8F7089511E0C8E9D1E0A8
:1049900000E006C0802FFE010E9401222196011D29
:0E49A000C939D10780E00807A9F7F894FFCFC6
:1049AE00FF12071207120712071207120712071239
:1049BE000729020000803F0000970580003000317B
:1049CE000032003300000000002A122D12A314E35F
:1049DE0002E602F10201030E03170300000000714C
:1049EE0002440240072102E70131022202000000C8
:1049FE0000AC0713074307F9077407520766072F22
:104A0E002F22225C5C6208660C6E0A720D7409001D
:104A1E000D0A00747275650066616C7365006E75C3
:104A2E006C6C00646573657269616C697A652829BE
:104A3E00206661696C65643A200070756C73655010
:104A4E00574D006E616E00696E66006F7666006D82
:104A5E0061676E65740070756C73650041696D6198
:104A6E006E74206F6E0041696D616E74206F6666A4
:104A7E000070756C736554696D6500736574476F6E
:104A8E00616C004F6B00456D707479496E70757472
:104A9E0000496E636F6D706C657465496E707574E8
:104AAE0000496E76616C6964496E707574004E6F64
:104ABE004D656D6F727900546F6F446565700000BF
:00000001FF
