:100000000C9473010C94130E0C94E80D0C94BD0D1C
:100010000C94920D0C94670D0C943C0D0C94110DE6
:100020000C94E60C0C94A4010C94A4010C94A4016F
:100030000C94A4010C943E0E0C94A4010C94A40105
:100040000C94A4010C943B0F0C94A4010C94A401F7
:100050000C94A4010C94A4010C94A4010C949C0C89
:100060000C94A4010C94050F0C94DB0E0C94A401C9
:100070000C94A4010C94A4010C94A4010C94A4016C
:100080000C94A4010C94A4010C94A4010C94A4015C
:100090000C94A4010C94A4010C94A4010C94780B6E
:1000A0000C94A4010C94A4010C94A4010C94A4013C
:1000B0000C94A4010C94A4010C94A4010C94A4012C
:1000C0000C94A4010C94A4010C94A4010C94A4011C
:1000D0000C94A4010C94A4010C94A4010C94A4010C
:1000E0000C94A4010C9468070C9422070C940F093B
:1000F0000C94BD020C94B8010C94E1010C948F0295
:100100000C94AA020C94B0020C9476090C94170972
:100110000C94FF060C94FD080C9498020C94F001CA
:100120000C948B020C944E090C94B4020C94E408C9
:100130000C9421090C94A6020C94A6010C949C0228
:100140000C94F3080C94B5070C9403020C94580912
:100150000C94FC060C94D3080C9430070C94C20247
:100160000C94CE060C9482090C940E070C94300269
:100170000C94B7010C9435090C9487020C94B802C6
:100180000C94E9080C9462090C94CF060C9492022A
:100190000C94E1150C9407090C94E0010C944409AB
:1001A0000C94BE020C946C090C94A2020C94830271
:1001B0000C94E30F0C942B090C947D020C94CA064A
:1001C000000020002300260029002C002F00320010
:1001D00000010000030106010901020000210024C2
:1001E0000027002A002D0030003300010100000428
:1001F0000107010A0100002200250028002B002E23
:10020000003100340002010000050108010B010566
:10021000050505070508080808020202020A0A087F
:1002200008040404040101010101010101030303A5
:100230000303030303040707070C0C0C0C0C0C0C42
:100240000C0202020206060606060606060B0B0B49
:100250000B0B0B0B0B010210202008081020401084
:10026000204080020102010804020101020408107A
:100270002040808040201008040201800402018098
:1002800040201008040201080402010102040810C1
:10029000204080010204081020408000000A0B0268
:1002A000090C0D0E08070304010000000000000007
:1002B000000000000000000000000000000000003E
:1002C00000000000000000121110000000000000FB
:1002D000000000000000000000000000000000001E
:1002E0000000E30FE11511241FBECFEFD1E2DEBF06
:1002F000CDBF00E00CBF12E0A0E0B2E0E2E9F2E323
:1003000000E00BBF02C007900D92A434B107D9F7EB
:1003100024E0A4E4B2E001C01D92AC3BB207E1F7D7
:1003200011E0C2E7D1E000E006C021970109802F6B
:10033000FE010E94F016C137D10780E00807A9F737
:100340000E9454110C9437190C9400008091C00243
:100350009091C102891B990B0895FC0120812EBD4B
:100360000DB407FEFDCF2EB5FC012083089508953E
:10037000089520919902260F3327331F213231052A
:10038000ECF420910803FC0190E080E0243069F057
:1003900082E00895A09199022191AC0147585D4FE8
:1003A000A40FB52FB11D2C930196861798F3809159
:1003B0009902680F6093990280E0089581E00895A2
:1003C0000895E091C1028091C002E81730F4F0E096
:1003D000EE53FD4F808190E008958FEF9FEF0895D9
:1003E0009091C1028091C0022FEF3FEF981748F41F
:1003F000E92FF0E0EE53FD4F208130E09F5F9093B6
:10040000C102C9010895CF92DF92EF92FF920F933C
:100410001F93CF93DF937C01CB018A0120910E03C0
:10042000222389F0EB016B01C40ED51ECC15DD052E
:1004300069F06991D701ED91FC910190F081E02D77
:10044000C7011995F3CF642F0E94B901C801DF914C
:10045000CF911F910F91FF90EF90DF90CF90089573
:10046000CF93DF931F92CDB7DEB7698320910E0340
:100470002223F9F020913103203258F021E030E0BE
:10048000FC013383228390E080E00F90DF91CF91D5
:10049000089580910F03E82FF0E0E05FFC4F998111
:1004A00090838F5F80930F038093310381E090E00E
:1004B000ECCF61E0CE0101960E94B901F7CF8150E7
:1004C000823108F05AC0E82FF0E08827E559FD4F47
:1004D0008F4F0C94F0168B028F027D0283028702ED
:1004E000BD02920298029C02A202A602AA02B002D7
:1004F000B402BD02B802BE02C202809180008F77B2
:10050000809380000895809180008F7DF9CF809145
:100510008000877FF5CF84B58F7784BD089584B53B
:100520008F7DFBCF8091B0008F778093B0000895CE
:100530008091B0008F7DF9CF809190008F7780936C
:1005400090000895809190008F7DF9CF8091900068
:10055000877FF5CF8091A0008F778093A0000895CA
:100560008091A0008F7DF9CF8091A000877FF5CF8B
:10057000809120018F778093200108958091200140
:100580008F7DF9CF80912001877FF5CF1F93CF9387
:10059000DF93282F30E0F901E556FD4F8491F901F2
:1005A000EB5AFD4FD491F901E15FFD4FC491CC238B
:1005B000A9F0162F81110E945F02EC2FF0E0EE0FE0
:1005C000FF1FEB50FE4FA591B4918FB7F894EC91BB
:1005D000111108C0D095DE23DC938FBFDF91CF913E
:1005E0001F910895DE2BF8CF1092080381E08093CD
:1005F00007031092E20261E084E10E94C60261E01A
:1006000085E10E94C602E9EBF0E080818E7F808365
:1006100080818D7F808388E48093B80085E4809317
:10062000BC000895CF93DF9391E0909378028823E4
:10063000B9F0C091B800D091BA008091BC008A7B1B
:100640008093BC0060E084E10E94C60260E085E126
:100650000E94C6020E94F402D093BA00C093B80070
:10066000DF91CF910895CF93DF9390E0FC01EB5A97
:10067000FD4F2491815F9D4FFC0184918823C9F037
:1006800090E0880F991FFC01E552FE4FA591B491AF
:10069000FC01EB50FE4FC591D49161110DC09FB785
:1006A000F8948C91209582238C9388812823288329
:1006B0009FBFDF91CF910895623051F49FB7F894B6
:1006C0003C91822F809583238C93E8812E2BEFCF52
:1006D0008FB7F894EC912E2B2C938FBFEACF8230FA
:1006E000910538F0880F991F880F991F059701977A
:1006F000F1F708959F92AF92BF92CF92DF92EF925F
:10070000FF920F931F93CF93DF93EC016B018885CA
:10071000998511E0892B09F010E8F601A0808A2D57
:100720008123992493948111912C2C813D814E81B8
:100730005F8160E271EA87E090E00E94CE16022FAE
:10074000B12CE22EF12C002319F0C7010E946F0397
:100750008A85877F09F04FC08D858F3F89F09A2D5C
:10076000912381E009F480E0891551F0EF85F88943
:100770008F899923D1F19081892B80839924939437
:10078000E989FA898081998D892B8083002319F06A
:10079000C7010E946F038E858F3F39F0EB89FC897A
:1007A0008081988D892309F0B12AE989FA8990819D
:1007B000898D8095892380838E858F3F11F0F60186
:1007C000B08288859985892B09F044C0110F1111D9
:1007D000BACFDF91CF911F910F91FF90EF90DF90F3
:1007E000CF90BF90AF909F9008959081809589237E
:1007F0008083912CC5CFE989FA898081998D892BD5
:100800008083002319F0C7010E946F038D858F3FFD
:1008100049F0EF85F8898F899A2D9123B9F090815D
:10082000892B8083E989FA899081898D8095892334
:1008300080838E858F3F09F4BFCFEB89FC8980814F
:10084000988D892309F4B8CFB12AB6CF90818095CD
:100850008923E7CF1695BBCF6F927F928F929F929D
:10086000AF92BF92CF92DF92EF92FF920F931F93BE
:10087000CF93DF931F92CDB7DEB77C01962E872EE4
:100880005A013901DC018D919C911197892B39F026
:100890001296ED91FC91908181819CBD8DBDF701F7
:1008A00083858F3F19F060E00E94C6026301060D48
:1008B000171D0C151D05A9F4092D182DA00EB11E2C
:1008C0000A151B0551F1D8018D918D018983F7011E
:1008D00080819181892BD1F0CE0101960E94AD01DA
:1008E000EFCFD6018D916D018983F70180819181D0
:1008F000892B29F0CE0101960E94AD01DACFBE010D
:100900006F5F7F4FC7010E947A03D3CFBE016F5F35
:100910007F4FC7010E947A03D3CFD7011B968C91DA
:100920008F3F19F061E00E94C60281E00F90DF91D5
:10093000CF911F910F91FF90EF90DF90CF90BF90DC
:10094000AF909F908F907F906F9008953FB7F894ED
:100950008091740290917502A0917602B091770215
:1009600026B5A89B05C02F3F19F00196A11DB11D0A
:100970003FBFBA2FA92F982F8827BC01CD01620F46
:10098000711D811D911D42E0660F771F881F991F01
:100990004A95D1F708958F929F92AF92BF92CF92CE
:1009A000DF92EF92FF920F931F93CF93DF93D0913B
:1009B0003103D13208F0D7C0182FC09130030E9404
:1009C000A6046B017C018091080381116BC082E059
:1009D00080930803109307038FEF80930603109210
:1009E0000503D0930403A0E1B3E0E4EEF2E080E07D
:1009F000D81391C01092E3028091E302CC0FC82B70
:100A0000C093E3028091E202813009F088C0109225
:100A1000E2020E94A6046B017C018091E3028093B4
:100A2000BB0080910A0390910B03A0910C03B0913D
:100A30000D03892B8A2B8B2BA1F00E94A604009119
:100A40000A0310910B0320910C0330910D036C19D4
:100A50007D098E099F09061717072807390708F42B
:100A600042C08091BC0083FDD8CF85EC8093BC0050
:100A70000E94A6046B017C0180910803823009F476
:100A800050C0809106038F3F09F46FC08091060328
:100A9000803209F46CC080910603803309F469C088
:100AA00084E026C080910A0390910B03A0910C036F
:100AB000B0910D03892B8A2B8B2B09F484CF0E94D4
:100AC000A60480900A0390900B03A0900C03B090B2
:100AD0000D036C197D098E099F0986169706A806D5
:100AE000B90608F070CF809109030E94120385E0D7
:100AF00010920F031092310310920E03DF91CF91E9
:100B00001F910F91FF90EF90DF90CF90BF90AF902B
:100B10009F908F9008959D9191938F5F69CF85EEFF
:100B2000A5CF80910A0390910B03A0910C03B09183
:100B30000D03892B8A2B8B2B09F49ECF0E94A604D0
:100B400000910A0310910B0320910C0330910D03C7
:100B50006C197D098E099F090617170728073907A1
:100B600008F08ACFC0CF81E0C3CF80E0C1CF82E060
:100B7000BFCF83E0BDCFCF93DF93EC018B81882380
:100B8000A1F0888191E090930E038093300310923E
:100B90000F031092310381E00E94CB0491E0811198
:100BA00090E0892FDF91CF9108951092C1021092A9
:100BB000C00210920F03109231030E94F40287EBDF
:100BC00091E09093BD028093BC0288EB91E09093FA
:100BD000BF028093BE0281E08B83CE010E94BB05E1
:100BE000982F8111CECFDDCFCF93DF93EA0191E033
:100BF00090930E038093300310920F0310923103F1
:100C000082E393E00E943002688182E393E00E94D5
:100C1000300281E00E94CB0491E0811190E0892FA5
:100C2000DF91CF910895CF92DF92EF92FF920F93D1
:100C30001F93CF93DF931F921F92CDB7DEB7FC01B6
:100C40004787508B618B728B8285882321F1448783
:100C5000452F562F672F77278823F9F043877F0189
:100C60008BE0E80EF11C9681878199838A83C0808E
:100C7000D180C114D10409F454C0018510E0980159
:100C80002E5F3F4FD60114968D919C91821793074A
:100C900030F490E02AC04387DBCF4487E0CFF601F1
:100CA00081819281208131E030930E0320933003C3
:100CB00010920F03109231030115110511F5D601A1
:100CC00011968D919C91DC01ED91FC910280F38154
:100CD000E02D42E050E0B70119950297D1F681E08E
:100CE0000E94CB0491E08111D4CF892F0F900F90F7
:100CF000DF91CF911F910F91FF90EF90DF90CF90F8
:100D00000895DC01ED91FC910280F381E02DA801B2
:100D1000BE016F5F7F4F19950817190709F0B9CF0A
:100D2000CECFA281B381109709F4B3CF248135814E
:100D3000018510E02330310581F48E7F89839A8309
:100D40000F5F1F4F9E012F5F3F4F42E050E0B70102
:100D5000CD010E942C04982FC8CF2115310519F41C
:100D60009F779983EFCF2230310511F49068F9CF46
:100D70002130310539F79F779064F3CF2FB7F8947E
:100D80006091700270917102809172029091730271
:100D90002FBF089581E08093600208950895AF9277
:100DA000BF92CF92DF92EF92FF920F931F93CF9358
:100DB000DF936C017B018B01040F151FEB015E01BA
:100DC000AE18BF08C017D10759F06991D601ED914F
:100DD000FC910190F081E02DC6011995892B79F7DE
:100DE000C501DF91CF911F910F91FF90EF90DF90A0
:100DF000CF90BF90AF90089590E080E00895FC01FF
:100E0000538D448D252F30E0842F90E0821B930B6F
:100E1000541710F0CF96089501970895FC01918D15
:100E2000828D981761F0A28DAE0FBF2FB11D5D9618
:100E30008C91928D9F5F9F73928F90E008958FEFBA
:100E40009FEF0895FC01918D828D981731F0828D6E
:100E5000E80FF11D858D90E008958FEF9FEF0895C5
:100E6000FC01918D228D892F90E0805C9F4F821B29
:100E700091098F73992708958EE393E00E943007BC
:100E800021E0892B09F420E0822F0895FC01A48D34
:100E9000A80FB92FB11DA35ABF4F2C91848D90E09C
:100EA00001968F739927848FA689B7892C93A0897F
:100EB000B1898C91837080648C93938D848D981309
:100EC00006C00288F389E02D80818F7D808308959C
:100ED000EF92FF920F931F93CF93DF93EC0181E08A
:100EE000888F9B8D8C8D98131AC0E889F989808131
:100EF00085FF15C09FB7F894EE89FF896083E88964
:100F0000F98980818370806480839FBF81E090E055
:100F1000DF91CF911F910F91FF90EF900895F62EE2
:100F20000B8D10E00F5F1F4F0F731127E02E8C8D7C
:100F30008E110CC00FB607FCFACFE889F9898081C1
:100F400085FFF5CFCE010E944607F1CFEB8DEC0F68
:100F5000FD2FF11DE35AFF4FF0829FB7F8940B8FDE
:100F6000EA89FB8980818062CFCFCF93DF93EC0148
:100F7000888D8823B9F0AA89BB89E889F9898C9181
:100F800085FD03C0808186FD0DC00FB607FCF7CF3D
:100F90008C9185FFF2CF808185FFEDCFCE010E943D
:100FA0004607E9CFDF91CF91089581E080936202F7
:100FB00008950E943C07882319F081E08093620223
:100FC00080E090E0892B49F080E090E0892B29F0C7
:100FD0000E94000081110E94000080E090E0892BB7
:100FE00049F080E090E0892B29F00E9400008111F7
:100FF0000E94000080E090E0892B49F080E090E0C2
:10100000892B29F00E94000081110C9400000895A2
:101010000F931F93CF93DF93EC010E94BE060E81C6
:101020001F81288539850617170728073907B8F55E
:101030008A858823A1F18B859C85AD85BE85892B0A
:101040008A2B8B2B61F1E881F98119958B859C8521
:10105000AD85BE85181619061A061B0684F48F8501
:101060009889A989BA890197A109B1098F87988BB5
:10107000A98BBA8B892B8A2B8B2B09F41A860E9499
:10108000BE060A811B812C813D81DC01CB01800FD2
:10109000911FA21FB31F8E839F83A887B987DF91FB
:1010A000CF911F910F9108958F929F92AF92BF920F
:1010B000CF92DF92EF92FF920F931F93CF93DF9324
:1010C000EC016A017B0120E030E04FE753E4CB0103
:1010D000B6010E9410164B015C0120E030E0A9012E
:1010E0000E940D1818168CF5C501B4010E94D7177F
:1010F0008B01B98020E030E0A901C701B6010E9450
:101100000D1860E018160CF061E08B2D0E94C602ED
:101110000F3F110509F0ECF41127C88161E08C2F15
:101120000E94330301151105B9F460E08C2FDF91A3
:10113000CF911F910F91FF90EF90DF90CF90BF90D4
:10114000AF909F908F900C94C602C501B401905847
:10115000CDCF0FEF10E0E1CF0F3F110511F461E0AB
:10116000E5CFEC2FF0E0E556FD4FE491E150E231A0
:1011700008F0BCC0F0E08827EF53F74F8F4F0C9476
:10118000F016D308E408E908F308FD087609070912
:101190000F09170921092B09350944094E09760958
:1011A000580962096C0984B5806884BD07BDDF9168
:1011B000CF911F910F91FF90EF90DF90CF90BF9054
:1011C000AF909F908F90089584B5806284BD08BDD4
:1011D000EECF80918000806880938000109389001A
:1011E00000938800E4CF809180008062809380002B
:1011F00010938B0000938A00DACF80918000886082
:101200008093800010938D0000938C00D0CF80914C
:10121000B00080688093B0000093B300C8CF809185
:10122000B00080628093B0000093B400C0CF809182
:10123000900080688093900010939900009398002C
:10124000B6CF8091900080628093900010939B00B5
:1012500000939A00ACCF80919000886080939000BA
:1012600010939D0000939C00A2CF8091A000806805
:101270008093A0008091A0008F7B8093A0001093AA
:10128000A9000093A80093CF8091A0008062809372
:10129000A0001093AB000093AA0089CF8091A0001A
:1012A00088608093A0001093AD000093AC007FCFC6
:1012B0008091200180688093200110932901009380
:1012C000280175CF809120018062809320011093C6
:1012D0002B0100932A016BCF8091200188608093BD
:1012E000200110932D0100932C0161CF00381105CE
:1012F0000CF035CF1ACF8EBD00000DB407FEFDCF28
:101300008EB50895CF93DF9320916A0230E0F90102
:10131000E556FD4F8491F901EB5AFD4FD491F90147
:10132000E15FFD4FC491CC2321F181110E945F0246
:10133000EC2FF0E0EE0FFF1FE054FE4FA591B491AB
:10134000EC91ED23B1F080916B0290916C02A09131
:101350006D02B0916E020196A11DB11D80936B02CA
:1013600090936C02A0936D02B0936E02DF91CF91C7
:10137000089580916B0290916C02A0916D02B091E2
:101380006E020197A109B109E9CF4F925F926F9266
:101390007F92AF92BF92CF92DF92EF92FF920F9324
:1013A0001F93CF93DF93C82F762E5A0189010E9495
:1013B000BE066B017C01D1E0D0930E03C0933003D5
:1013C00010920F0310923103672D82E393E00E9485
:1013D000300281E00E94CB04D0930E0310920F03E1
:1013E000109231030E94A6042B013C018091080356
:1013F000811165C081E080930803809307039FEF0C
:101400009093060310920503109204038093E30265
:101410008091E302CC0FC82BC093E3028091E202DB
:10142000813009F08EC01092E2020E94A6042B01C6
:101430003C018091E3028093BB0080910A0390916C
:101440000B03A0910C03B0910D03892B8A2B8B2BDE
:10145000A1F00E94A60420910A0330910B03409151
:101460000C0350910D036419750986099709261715
:1014700037074807590708F443C08091BC0083FD33
:10148000D8CF85EC8093BC000E94A6042B013C01C0
:1014900080910803813009F456C080910503C1E0B2
:1014A000811102C0C0910503E4EEF2E0A2ECB2E0CB
:1014B00080E08C1751F191919D938F5FFACF8091CD
:1014C0000A0390910B03A0910C03B0910D03892B9B
:1014D0008A2B8B2B09F48ACF0E94A60420910A0341
:1014E00030910B0340910C0350910D036419750961
:1014F00086099709261737074807590708F076CF56
:10150000809109030E941203C0E01092C102C093AF
:10151000C002D0E02801712C612C8091C102C81753
:1015200009F43EC00115110581F582E393E00E94A4
:10153000F001F501ED0FF11DD7FDFA958083DF5F16
:10154000ECCF85EE9FCF80910A0390910B03A09181
:101550000C03B0910D03892B8A2B8B2B09F498CFA8
:101560000E94A60420910A0330910B0340910C03C2
:1015700050910D03641975098609970926173707D5
:101580004807590708F084CFBBCF0E94BE066C19EC
:101590007D098E099F09641575058605970528F252
:1015A00081E00E94CB040115110581F00E94BE0666
:1015B0006C197D098E099F0930E020E060177107E2
:1015C0008207930718F01D160CF0DFEF8D2FDF91C7
:1015D000CF911F910F91FF90EF90DF90CF90BF9030
:1015E000AF907F906F905F904F900895DF92EF9251
:1015F000FF920F931F93CF93DF931F921F92CDB74C
:10160000DEB7F82EE62E142FD22E28EE33E0AE01F0
:101610004E5F5F4F0E94C509882381F1812F8D198C
:10162000990BAC014F5F5F4F81E090E002C0880FE3
:10163000991FDA94E2F70197042E01C0880F0A94EB
:10164000EAF701C0000F4A95EAF7982F90952A8192
:1016500092238023892B8A838983AE014F5F5F4F5A
:101660006E2D8F2D0E94F4050F900F90DF91CF917A
:101670001F910F91FF90EF90DF90089580E0F4CFDD
:1016800085ED8093BC0080910A0390910B03A0919B
:101690000C03B0910D030796A11DB11D23E0B69573
:1016A000A795979587952A95D1F72091BC0024FDA1
:1016B00003C010920803089540910A0350910B0350
:1016C00060910C0370910D03452B462B472B69F35A
:1016D0000097A105B10541F025E32A95F1F7000037
:1016E0000197A109B109E1CF809109030C9412037C
:1016F0001F920F920FB60F9211240BB60F922F93D9
:101700003F934F935F936F937F938F939F93AF9389
:10171000BF93EF93FF938091B900887F803609F4DF
:101720004DC008F040C0883209F4A9C028F58031C6
:1017300009F49DC0C8F4882309F4FBC0883009F47B
:1017400096C0FF91EF91BF91AF919F918F917F9143
:101750006F915F914F913F912F910F900BBE0F9022
:101760000FBE0F901F901895883109F488C0803201
:1017700041F78093060314C0803409F49DC040F4FF
:101780008033B9F38833E9F68093060385ECB0C063
:10179000803509F485C0883509F496C0883489F607
:1017A0000E94400BCECF883909F48CC038F58837B9
:1017B00029F050F4883611F0803719F683E08093D1
:1017C00008031092BB0257C0883809F47BC08039E7
:1017D00019F0803809F0B5CF8091BB02803208F053
:1017E00071C0E091BB0281E08E0F8093BB028091BB
:1017F000BB00F0E0E556FD4F80833DC0803B39F0F3
:10180000E0F4803A09F479C0883A09F09ACF84E08C
:101810008093080310929A0210929902E091BC0200
:10182000F091BD0219958091990281110FC081E05C
:10183000809399021092790209C0803C09F4A6CFE6
:10184000883C09F4A3CF883B09F07BCFE0919A0252
:1018500081E08E0F80939A02F0E0E758FD4F80817F
:101860008093BB0090919A028091990229C0809147
:10187000E3028093BB0085EC8093BC0062CF909123
:10188000050380910403981758F5E091050381E062
:101890008E0F80930503F0E0EC51FD4F8081E9CF7E
:1018A000E091050381E08E0F809305038091BB00DA
:1018B000F0E0EC51FD4F808390910503809104038B
:1018C0009817C8F285E8D8CFE091050381E08E0F24
:1018D000809305038091BB00F0E0EC51FD4F8083C5
:1018E0008091070381115CCF81E08093E20284EA5A
:1018F0008093BC001092080324CF85EC8093BC0039
:10190000109208038091BB02803230F4E091BB0258
:10191000F0E0E556FD4F10826091BB0270E0E0916F
:10192000BE02F091BF028BE992E019951092BB02C2
:1019300008CF1092060334CF1F920F920FB60F926A
:1019400011242F933F938F939F93AF93BF938091D5
:10195000700290917102A0917202B0917302309165
:101960006F0223E0230F2D3758F50196A11DB11DFD
:1019700020936F028093700290937102A093720281
:10198000B09373028091740290917502A0917602D7
:10199000B09177020196A11DB11D809374029093BE
:1019A0007502A0937602B0937702BF91AF919F9199
:1019B0008F913F912F910F900FBE0F901F90189510
:1019C00026E8230F0296A11DB11DD2CF1F920F92C0
:1019D0000FB60F9211240BB60F922F933F934F9394
:1019E0005F936F937F938F939F93AF93BF93EF9387
:1019F000FF93E0910F02F09110021995FF91EF9182
:101A0000BF91AF919F918F917F916F915F914F9116
:101A10003F912F910F900BBE0F900FBE0F901F9014
:101A200018951F920F920FB60F9211240BB60F92BA
:101A30002F933F934F935F936F937F938F939F93D6
:101A4000AF93BF93EF93FF93E0910D02F0910E02DD
:101A50001995FF91EF91BF91AF919F918F917F91D8
:101A60006F915F914F913F912F910F900BBE0F900F
:101A70000FBE0F901F9018951F920F920FB60F92E6
:101A800011240BB60F922F933F934F935F936F9355
:101A90007F938F939F93AF93BF93EF93FF93E091C7
:101AA0000302F09104021995FF91EF91BF91AF915C
:101AB0009F918F917F916F915F914F913F912F9166
:101AC0000F900BBE0F900FBE0F901F9018951F9296
:101AD0000F920FB60F9211240BB60F922F933F93D4
:101AE0004F935F936F937F938F939F93AF93BF9326
:101AF000EF93FF93E0910102F09102021995FF919B
:101B0000EF91BF91AF919F918F917F916F915F9175
:101B10004F913F912F910F900BBE0F900FBE0F90E2
:101B20001F9018951F920F920FB60F9211240BB6AB
:101B30000F922F933F934F935F936F937F938F9366
:101B40009F93AF93BF93EF93FF93E0910B02F091BC
:101B50000C021995FF91EF91BF91AF919F918F91D9
:101B60007F916F915F914F913F912F910F900BBE9D
:101B70000F900FBE0F901F9018951F920F920FB6E7
:101B80000F9211240BB60F922F933F934F935F93B5
:101B90006F937F938F939F93AF93BF93EF93FF9335
:101BA000E0910902F0910A021995FF91EF91BF911E
:101BB000AF919F918F917F916F915F914F913F91E5
:101BC0002F910F900BBE0F900FBE0F901F90189586
:101BD0001F920F920FB60F9211240BB60F922F93F4
:101BE0003F934F935F936F937F938F939F93AF93A5
:101BF000BF93EF93FF93E0910702F09108021995CC
:101C0000FF91EF91BF91AF919F918F917F916F91D4
:101C10005F914F913F912F910F900BBE0F900FBE90
:101C20000F901F9018951F920F920FB60F921124CC
:101C30000BB60F922F933F934F935F936F937F93C6
:101C40008F939F93AF93BF93EF93FF93E091050220
:101C5000F09106021995FF91EF91BF91AF919F917D
:101C60008F917F916F915F914F913F912F910F9045
:101C70000BBE0F900FBE0F901F9018951F920F92E2
:101C80000FB60F9211240BB60F922F933F934F93E1
:101C90005F936F937F938F939F93AF93BF93EF93D4
:101CA000FF938091640290916502A0916602B091C9
:101CB0006702892B8A2B8B2BD1F190916302809143
:101CC0000000892780930000809164029091650252
:101CD000A0916602B0916702181619061A061B0633
:101CE0009CF48091640290916502A0916602B0918B
:101CF00067020197A109B10980936402909365027C
:101D0000A0936602B0936702FF91EF91BF91AF91EC
:101D10009F918F917F916F915F914F913F912F9103
:101D20000F900BBE0F900FBE0F901F9018958091D3
:101D30000002EAEDF1E0E4919FEF90930002E230BF
:101D4000E9F040F4EE2389F0E13091F060E00E9488
:101D5000C602DACFE43049F110F1E530B9F79091DD
:101D600073009D7F90937300F1CF10926E00EECFC1
:101D700090916F009D7F90936F00E8CF90917000DD
:101D80009D7F9093700091E09093B0009091B1008E
:101D9000987F94609093B1001092B300D7CF909148
:101DA00071009D7F90937100D1CF909172009D7FC3
:101DB00090937200CBCF1F920F920FB60F92112407
:101DC0000BB60F922F933F934F935F936F937F9335
:101DD0008F939F93AF93BF93EF93FF938EE393E023
:101DE0000E944607FF91EF91BF91AF919F918F9114
:101DF0007F916F915F914F913F912F910F900BBE0B
:101E00000F900FBE0F901F9018951F920F920FB654
:101E10000F9211240BB60F922F938F939F93EF93F2
:101E2000FF93E0914E03F0914F038081E0915403C2
:101E3000F091550382FD1DC09081809157038F5F03
:101E40008F7320915803821741F0E0915703F0E01F
:101E5000E25CFC4F958F80935703FF91EF919F9128
:101E60008F912F910F900BBE0F900FBE0F901F9070
:101E700018958081F2CF1F920F920FB60F92112406
:101E80000BB60F922F933F934F935F936F937F9374
:101E90008F939F93AF93BF93CF93DF93EF93FF9372
:101EA00080916102C0911704D0E087FF23C0109297
:101EB000850010928400809161028F5F809361029F
:101EC00080916102082E000C990B8C179D0724F459
:101ED000809161028C3074F1809184009091850032
:101EE00084349C4908F465C08091840090918500F9
:101EF000049661C080916102082E000C990B8C172A
:101F00009D07CCF63091610225E03203F0011124E7
:101F1000E552FC4F808186FFCECF309161023203C3
:101F2000F0011124E552FC4F808160E08F730E9424
:101F3000C602C1CF809184009091850030916102EA
:101F400025E03203F0011124E552FC4F418152811A
:101F5000840F951F909389008093880030916102CF
:101F60003203F0011124E552FC4F808186FF0CC042
:101F7000309161023203F0011124E552FC4F80815F
:101F800061E08F730E94C602FF91EF91DF91CF91C4
:101F9000BF91AF919F918F917F916F915F914F9181
:101FA0003F912F910F900BBE0F900FBE0F901F907F
:101FB000189580E49CE990938900809388008FEFC6
:101FC00080936102E1CF109235031092340388EEC2
:101FD00093E0A0E0B0E08093360390933703A093A2
:101FE0003803B093390323E232E030933303209374
:101FF0003203109241031092400380934203909366
:102000004303A0934403B093450385E392E0909388
:102010003F0380933E0385EC90E090934B038093C5
:102020004A0384EC90E090934D0380934C0380EC42
:1020300090E090934F0380934E0381EC90E0909357
:1020400051038093500382EC90E09093530380936C
:10205000520386EC90E090935503809354031092C2
:102060005703109258031092590310925A038CE0B0
:1020700080938A0484E280938B0485E080938C04AF
:1020800096E090938D049EE190938E049FE190934F
:102090008F0492E29093900493E29093910494E4DD
:1020A0009093920495E49093930410929504109267
:1020B000940490E49093970410929C0410929D04D1
:1020C00010929E0410929F041092A0041092A104FA
:1020D0001092A2041092A30498E0E7E1F2E0ACEAC7
:1020E000B4E001900D929A95E1F740E050E060EA8B
:1020F00070E44093B4045093B5046093B6047093B5
:10210000B704E0911704EC3008F0CAC091E09E0FCC
:1021100090931704E09389048E9FF0011124E552F7
:10212000FC4F88EB9BE09283818388E680937A045E
:1021300010923E0410923F04109240041092410409
:1021400010924204109243041092440410924504E9
:1021500010924604109247041092480410924904C9
:1021600010924B0410924A0410924D0410924C04A9
:1021700010924F0410924E04109250041092510489
:102180001092520410925304109254041092550469
:102190001092620410926304109264041092650419
:1021A00010926604109267041092680410926904F9
:1021B00080E090E0A0EAB0E480936A0490936B041E
:1021C000A0936C04B0936D0480E090E0A8ECB2E4BE
:1021D00080936E0490936F04A0937004B093710485
:1021E0001092720410927304109274041092750489
:1021F0001092760410927704109278041092790469
:1022000010922D0410922E0410922F04109230047C
:10221000109231041092320410923304109234045C
:102220008FEF9FEFDC018093360490933704A093E7
:102230003804B093390480933A0490933B04A093FC
:102240003C04B0933D041092350410922C0410927B
:102250002B0410921A0410921B0410921C0410926A
:102260001D0410921E0410921F041092200410925C
:1022700021048093230490932404A0932504B09315
:1022800026048093270490932804A0932904B093F4
:102290002A0410922204109219041092180408952E
:1022A0008FEF8093890441CFCF93DF93CDB7DEB713
:1022B000A6970FB6F894DEBF0FBECDBF789484B555
:1022C000826084BD84B5816084BD85B5826085BD32
:1022D00085B5816085BD80916E00816080936E00C0
:1022E00010928100809181008260809381008091B2
:1022F0008100816080938100809180008160809363
:1023000080008091B10084608093B1008091B00022
:1023100081608093B00080919100826080939100F1
:102320008091910081608093910080919000816004
:10233000809390008091A10082608093A1008091A1
:10234000A10081608093A1008091A00081608093B2
:10235000A000809121018260809321018091210160
:102360008160809321018091200181608093200110
:1023700080917A00846080937A0080917A008260F4
:1023800080937A0080917A00816080937A008091B6
:102390007A00806880937A001092C100E0914E0329
:1023A000F0914F0382E08083E0914A03F0914B0368
:1023B0001082E0914C03F0914D0380E180831092F4
:1023C0005603E0915203F091530386E08083E0913D
:1023D0005003F0915103808180618083E09150032C
:1023E000F0915103808188608083E0915003F091E7
:1023F0005103808180688083E0915003F091510304
:1024000080818F7D808361E080918B040E94330303
:1024100060E080918B040E94C60260E080918A0493
:102420000E9433038091940490919504892BA9F420
:1024300086E090E00E941218FC018091970480834E
:1024400082E393E092838183138280E290E095831C
:102450008483F0939504E0939404E0909404F090C6
:1024600095041092C1021092C00210920F031092B4
:1024700031030E94F40287EB91E09093BD028093B8
:10248000BC0288EB91E09093BF028093BE0211E002
:10249000F7011383C7010E94BB05882309F45BC0C1
:1024A00080E090E1A0E0B0E08093980490939904DC
:1024B000A0939A04B0939B048AE090E0A0E0B0E07F
:1024C00080939C0490939D04A0939E04B0939F04DA
:1024D00080E090E0A0E0B0E48093A0049093A10499
:1024E000A093A204B093A3048091940490919504C6
:1024F0001BA21CA21DA21EA29D8B8C8B1F8A1E8A52
:102500001D8F85E090E09B8F8A8F1E8F02E00C8FDD
:1025100040E050E160E070E0CE0144960E94130676
:102520008091940490919504188A198A1A8A1B8ABA
:102530009A8389831C821B821A8718861F821B87B5
:1025400009874FE959E360E070E0CE0101960E94EF
:102550001306809396043CE8E32E34E0F32E0AE859
:1025600014E044E4642E42E0742E5AE8852E52E0D2
:10257000952E6BECC62E67E0D62E7BE8A72EBB24EB
:10258000B394F701928181917F01F801828F938F3B
:1025900061E00E94330361E0F801838D0E94330300
:1025A000F70195818381F801868F978F61E00E9402
:1025B000330360E0F801878D0E94330361E0F80186
:1025C000868D0E94C6025FB6F894809168028111E0
:1025D00025C0F3018491F4019491E82FF0E0EE0F0F
:1025E000FF1FE552FE4FA591B4918C91982321F4E1
:1025F00061E085E30E94C60261E085E30E94330347
:102600008CB580618CBD8CB580648CBD61E084E349
:102610000E94330361E083E30E94330380916802E8
:102620008F5F809368025FBEC6010197F1F760E09B
:10263000F801868D0E94C60288E80E947B0983E02B
:102640000E947B0961E0F801868D0E94C602C601E6
:102650000197F1F760E0F801868D0E94C60288E9D3
:102660000E947B0980E00E947B0980E00E947B0938
:1026700080E00E947B0980E00E947B0961E0F80114
:10268000868D0E94C602C5010197F1F760E0F8014E
:10269000868D0E94C60280EE0E947B0961E0F801EF
:1026A000868D0E94C6020E5F1F4FF4E00E381F0792
:1026B00009F067CF01E023E042E06BE680917A0405
:1026C0000E94F60A00E022E044E06BE180917A0487
:1026D0000E94F60A22E044E06CE180917A040E94B4
:1026E000F60A10917A0428EE33E0AE014C5E5F4F9B
:1026F0006BE6812F0E94C5098C898F7B8C8B898327
:10270000AE014F5F5F4F6BE6812F0E94F40582E0C0
:102710008093690283E080936A0262E082E00E9413
:10272000330362E080916A020E9433039091690250
:10273000923009F027C182E899E0909302028093D9
:10274000010280916A008C7F826080936A00EC9A1B
:1027500084E690E0A0E0B0E080932D0490932E04F6
:10276000A0932F04B09330048AEC96E090932C044D
:1027700080932B0481E0809335040E94BE06009173
:102780002D0410912E0420912F0430913004DC018F
:10279000CB01800F911FA21FB31F80933104909330
:1027A0003204A0933304B0933404809136049091A2
:1027B0003704A0913804B091390480933A0490937F
:1027C0003B04A0933C04B0933D0480E090E0A0E87B
:1027D000BEE380933E0490933F04A0934004B093E3
:1027E00041048DEC9CECACECBDE3809342049093EF
:1027F0004304A0934404B0934504109246041092FD
:10280000470410924804109249048FE692E1A3E82D
:10281000BAE380936A0490936B04A0936C04B09322
:102820006D0488EC90E0A0E0B0E080935A049093AF
:102830005B04A0935C04B0935D048DEC9CECACE471
:10284000BEE38093560490935704A0935804B0932A
:10285000590461E080E20E943303772473948EE38D
:1028600093E00E94300718161906BCF48EE393E03B
:102870000E940E07873709F0CCC040E050E060E0CE
:102880007FE384EA94E00E94540840E050E060E076
:102890007FEB86EA94E00E9454088BE294E00E9469
:1028A000080888E194E00E9408080E94BE06009192
:1028B00062041091630420916404309165046017F0
:1028C00071078207930708F45AC080915404882343
:1028D00009F455C00E94BE0600915A0410915B0491
:1028E00020915C0430915D04DC01CB01800F911FCD
:1028F000A21FB31F8093620490936304A0936404A7
:10290000B0936504C0905004D0905104E0905204FC
:10291000F0905304E0914A04F0914B0419959B0107
:10292000AC01C701B6010E94F8164B015C019F770C
:1029300020916A0430916B0440916C0450916D04B5
:102940000E94E71587FF80C07092550410925404CE
:10295000E0914E04F0914F04309709F01995809161
:10296000620490916304A0916404B0916504809323
:10297000660490936704A0936804B09369040E946E
:10298000D9076DCF933071F482E899E090930402F7
:102990008093030280916A00837F886080936A003D
:1029A000ED9AD6CE8EEE890F843008F0D1CE87E135
:1029B000891BE82FF0E0EE0FFF1FEF5FFD4F22E8CD
:1029C00039E0318320838430A1F08530D1F0833029
:1029D00041F0809169008C7F826080936900E89A61
:1029E000B7CE80916900837F886080936900E99AFF
:1029F000AFCE809169008F7C806280936900EA9AF3
:102A0000A7CE809169008F73806880936900EB9AEC
:102A10009FCE833769F440E050E060E07FEB84EACA
:102A200094E00E94540840E050E060E07FE331CF42
:102A300040E050E0BA0184EA94E00E94540840E08B
:102A400050E060E070E825CF00914C0410914D04F7
:102A50000E94BE06C0906604D0906704E0906804AF
:102A6000F09069046C197D098E099F0960935E04DA
:102A700070935F04809360049093610420917204CA
:102A8000309173044091740450917504C501B401F0
:102A90000E94F91660937204709373048093740417
:102AA00090937504C0906E04D0906F04E090700411
:102AB000F0907104A70196010E940D18181644F4B5
:102AC000C0927204D0927304E0927404F092750480
:102AD000F7FAF094F7F8F094A70196016091720468
:102AE0007091730480917404909175040E94E715AD
:102AF00087FF08C0C0927204D0927304E0927404FD
:102B0000F0927504C0905604D0905704E090580499
:102B1000F090590420917204309173044091740430
:102B20005091750460914204709143048091440473
:102B3000909145040E941016A70196010E9410165C
:102B40001B012C0120913E0430913F044091400430
:102B500050914104C501B4010E9410169B01AC01C3
:102B6000C201B1010E94F9161B012C0120917604CB
:102B7000309177044091780450917904C501B401F3
:102B80000E94F81620914604309147044091480471
:102B9000509149040E941016A70196010E946517E2
:102BA0009B01AC01C201B1010E94F916809276042A
:102BB00090927704A0927804B0927904F801199564
:102BC000CECE80919404909195040C94AE180E94FE
:102BD000EC1508F481E00895990F0008550FAA0B31
:102BE000E0E8FEEF16161706E807F907C0F0121620
:102BF0001306E407F50798F0621B730B840B950B23
:102C000039F40A2661F0232B242B252B21F4089577
:102C10000A2609F4A140A6958FEF811D811D089514
:102C20000E9423160C9494160E94861638F00E9477
:102C30008D1620F0952311F00C947D160C948316BC
:102C400011240C94C8160E94A51670F3959FC1F329
:102C5000950F50E0551F629FF001729FBB27F00D4A
:102C6000B11D639FAA27F00DB11DAA1F649F66279F
:102C7000B00DA11D661F829F2227B00DA11D621FEE
:102C8000739FB00DA11D621F839FA00D611D221FA8
:102C9000749F3327A00D611D231F849F600D211D8C
:102CA000822F762F6A2F11249F5750409AF0F1F00F
:102CB00088234AF0EE0FFF1FBB1F661F771F881F78
:102CC00091505040A9F79E3F510580F00C947D161D
:102CD0000C94C8165F3FE4F3983ED4F3869577953D
:102CE0006795B795F795E7959F5FC1F7FE2B880F1E
:102CF000911D9695879597F9089597F99F6780E8B4
:102D000070E060E008959FEF80EC089500240A943D
:102D10001616170618060906089500240A941216B6
:102D20001306140605060895092E0394000C11F4E9
:102D3000882352F0BB0F40F4BF2B11F460FF04C096
:102D40006F5F7F4F8F4F9F4F089557FD9058440FEF
:102D5000551F59F05F3F71F04795880F97FB991FFA
:102D600061F09F3F79F087950895121613061406B7
:102D7000551FF2CF4695F1DF08C016161706180644
:102D8000991FF1CF86957105610508940895E8941F
:102D9000BB2766277727CB0197F90895A1E21A2E62
:102DA000AA1BBB1BFD010DC0AA1FBB1FEE1FFF1FEF
:102DB000A217B307E407F50720F0A21BB30BE40B3F
:102DC000F50B661F771F881F991F1A9469F7609586
:102DD0007095809590959B01AC01BD01CF01089540
:102DE000EE0FFF1F881F8BBF0790F691E02D1994FF
:102DF0005058BB27AA270E9410170C9494160E94C3
:102E0000861638F00E948D1620F039F49F3F19F491
:102E100026F40C9483160EF4E095E7FB0C947D16D3
:102E2000E92F0E94A51658F3BA17620773078407A3
:102E3000950720F079F4A6F50C94C7160EF4E095EA
:102E40000B2EBA2FA02D0B01B90190010C01CA0164
:102E5000A0011124FF27591B99F0593F50F4503E0F
:102E600068F11A16F040A22F232F342F4427585F01
:102E7000F3CF469537952795A795F0405395C9F719
:102E80007EF41F16BA0B620B730B840BBAF09150D1
:102E9000A1F0FF0FBB1F661F771F881FC2F70EC070
:102EA000BA0F621F731F841F48F487957795679543
:102EB000B795F7959E3F08F0B0CF9395880F08F02F
:102EC0009927EE0F9795879508950E9479170C948E
:102ED00094160E948D1658F00E94861640F029F430
:102EE0005F3F29F00C947D1651110C94C8160C9478
:102EF00083160E94A51668F39923B1F3552391F325
:102F0000951B550BBB27AA2762177307840738F058
:102F10009F5F5F4F220F331F441FAA1FA9F335D0B5
:102F20000E2E3AF0E0E832D091505040E695001C69
:102F3000CAF72BD0FE2F29D0660F771F881FBB1F23
:102F4000261737074807AB07B0E809F0BB0B802D01
:102F5000BF01FF2793585F4F3AF09E3F510578F02D
:102F60000C947D160C94C8165F3FE4F3983ED4F39E
:102F7000869577956795B795F7959F5FC9F7880F01
:102F8000911D9695879597F90895E1E0660F771F53
:102F9000881FBB1F621773078407BA0720F0621BE4
:102FA000730B840BBA0BEE1F88F7E09508950E940F
:102FB000DE176894B1110C94C81608950E94AD16DE
:102FC00088F09F5798F0B92F9927B751B0F0E1F0EA
:102FD000660F771F881F991F1AF0BA95C9F714C09A
:102FE000B13091F00E94C716B1E008950C94C71655
:102FF000672F782F8827B85F39F0B93FCCF38695D3
:1030000077956795B395D9F73EF49095809570952F
:1030100061957F4F8F4F9F4F08950E94EC1508F4E4
:103020008FEF08950F931F93CF93DF938230910515
:1030300010F482E090E0E091BA04F091BB0430E03B
:1030400020E0B0E0A0E0309799F42115310509F4B3
:103050004AC0281B390B24303105D8F58A819B8161
:103060006115710589F1FB0193838283FE0111C013
:10307000408151810281138148175907E0F04817B8
:10308000590799F4109761F012960C9312971396C2
:103090001C933296CF01DF91CF911F910F9108952C
:1030A0000093BA041093BB04F4CF2115310551F0FD
:1030B0004217530738F0A901DB019A01BD01DF0176
:1030C000F801C1CFEF01F9CF9093BB048093BA040C
:1030D000CDCFFE01E20FF31F81939193225031096E
:1030E00039832883D7CF2091B8043091B904232B9A
:1030F00041F420911302309114023093B9042093CB
:10310000B80420911102309112022115310541F4C9
:103110002DB73EB74091150250911602241B350B76
:10312000E091B804F091B904E217F307A0F42E1B64
:103130003F0B2817390778F0AC014E5F5F4F24171B
:10314000350748F04E0F5F1F5093B9044093B80401
:10315000819391939FCFF0E0E0E09CCFCF93DF93FA
:103160000097E9F0FC01329713821282A091BA0411
:10317000B091BB04ED0130E020E01097A1F4208174
:103180003181820F931F2091B8043091B904281720
:10319000390709F061C0F093B904E093B804DF91F6
:1031A000CF910895EA01CE17DF07E8F54A815B81E8
:1031B0009E0141155105B1F7E901FB83EA8349916D
:1031C0005991C40FD51FEC17FD0761F480819181DF
:1031D0000296840F951FE9019983888382819381E8
:1031E0009B838A83F0E0E0E012968D919C91139787
:1031F0000097B9F52D913C911197CD010296820F60
:10320000931F2091B8043091B9042817390739F673
:10321000309751F51092BB041092BA04B093B904E0
:10322000A093B804BCCFD383C28340815181840F63
:10323000951FC817D90761F44E5F5F4F8881998148
:10324000480F591F518340838A819B8193838283D6
:103250002115310509F0B0CFF093BB04E093BA0417
:103260009ECFFD01DC01C0CF13821282D7CF11E0C7
:10327000C2E7D1E000E006C0802FFE010E94F016F8
:103280002196011DC337D10780E00807A9F7F894FC
:02329000FFCF6E
:10329200FFCE06CE06CE06CE06CE06CE06CE06CE93
:1032A200060000BC04800030003100320033000010
:1032B20000000030020302FC06E001A601F001E179
:1032C20001000000006807CF06FF06B50730070EB1
:0432D20007220700C8
:00000001FF
