:100000000C947B010C94930E0C94680E0C943D0E92
:100010000C94120E0C94E70D0C94BC0D0C94910DE5
:100020000C94660D0C94AC010C94AC010C94AC01D6
:100030000C94AC010C94BE0E0C94AC010C94AC016D
:100040000C94AC010C94BB0F0C94AC010C94AC015F
:100050000C94AC010C94AC010C94AC010C941C0DF0
:100060000C94AC010C94850F0C945B0F0C94AC01B8
:100070000C94AC010C94AC010C94AC010C94AC014C
:100080000C94AC010C94AC010C94AC010C94AC013C
:100090000C94AC010C94AC010C94AC010C94F80BD6
:1000A0000C94AC010C94AC010C94AC010C94AC011C
:1000B0000C94AC010C94AC010C94AC010C94AC010C
:1000C0000C94AC010C94AC010C94AC010C94AC01FC
:1000D0000C94AC010C94AC010C94AC010C94AC01EC
:1000E0000C94AC010C94AE020C94FB060C94A4028C
:1000F0000C94CE060C9493020C948F020C949C08E2
:100100000C9498150C94C6090C94C6020C943802F1
:100110000C94AA020C94D4080C9497020C94A0029C
:100120000C940B020C949A020C94E9010C94BC02FE
:100130000C942F070C94B2020C9467070C940109DD
:100140000C941F090C9421070C94E8010C94CC0624
:100150000C9485020C94B4070C9429090C94CA06DB
:100160000C94F8010C94C6060C94C2080C94C002BE
:100170000C9415090C94CD060C9486080C949708E1
:100180000C94E8080C94AE010C94C0010C94B802D5
:100190000C94C5020C94BA080C949F0B0C94631039
:1001A0000C94CB060C94B0080C94CA020C948B02ED
:1001B0000C94F7080C940B090C94FE060C940D0794
:1001C0000C94BF010C94CA080C94A6080C94DE0889
:1001D000000020002300260029002C002F00320000
:1001E00000010000030106010901020000210024B2
:1001F0000027002A002D0030003300010100000418
:100200000107010A0100002200250028002B002E12
:10021000003100340002010000050108010B010556
:10022000050505070508080808020202020A0A086F
:100230000804040404010101010101010103030395
:100240000303030303040707070C0C0C0C0C0C0C32
:100250000C0202020206060606060606060B0B0B39
:100260000B0B0B0B0B010210202008081020401074
:10027000204080020102010804020101020408106A
:100280002040808040201008040201800402018088
:1002900040201008040201080402010102040810B1
:1002A000204080010204081020408000000A0B0258
:1002B000090C0D0E080703040100000000000000F7
:1002C000000000000000000000000000000000002E
:1002D00000000000000000121110000000000000EB
:1002E000000000000000000000000000000000000E
:1002F00000006310981511241FBECFEFD1E2DEBFBE
:10030000CDBF00E00CBF12E0A0E0B2E0EAEFF0E306
:1003100000E00BBF02C007900D92A634B107D9F7D9
:1003200024E0A6E4B2E001C01D92AF3BB207E1F7C2
:1003300011E0CAE7D1E000E006C021970109802F53
:10034000FE010E940317C937D10780E00807A9F70B
:100350000E94D4110C946B180C9400008091BF0281
:100360009091C002891B990B0895FC0120812EBD3C
:100370000DB407FEFDCF2EB5FC012083089508952E
:10038000089520919802260F3327331F213231051B
:10039000ECF420910B03FC0190E080E0243069F044
:1003A00082E00895A09198022191AC0148585D4FD8
:1003B000A40FB52FB11D2C930196861798F3809149
:1003C0009802680F6093980280E0089581E0089594
:1003D0000895E091C0028091BF02E81730F4F0E088
:1003E000EF53FD4F808190E008958FEF9FEF0895C8
:1003F0009091C0028091BF022FEF3FEF981748F411
:10040000E92FF0E0EF53FD4F208130E09F5F9093A4
:10041000C002C9010895CF92DF92EF92FF920F932D
:100420001F93CF93DF937C01CB018A0120911103AD
:10043000222389F0EB016B01C40ED51ECC15DD051E
:1004400069F06991D701ED91FC910190F081E02D67
:10045000C7011995F3CF642F0E94C101C801DF9134
:10046000CF911F910F91FF90EF90DF90CF90089563
:10047000CF93DF931F92CDB7DEB76983209111032D
:100480002223F9F020913403203258F021E030E0AB
:10049000FC013383228390E080E00F90DF91CF91C5
:1004A000089580911203E82FF0E0ED5EFC4F9981F2
:1004B00090838F5F809312038093340381E090E0F8
:1004C000ECCF61E0CE0101960E94C101F7CF8150CF
:1004D000823108F05AC0E82FF0E08827ED58FD4F30
:1004E0008F4F0C9403179302970285028B028F02A1
:1004F000C5029A02A002A402AA02AE02B202B80287
:10050000BC02C502C002C602CA02809180008F7779
:10051000809380000895809180008F7DF9CF809135
:100520008000877FF5CF84B58F7784BD089584B52B
:100530008F7DFBCF8091B0008F778093B0000895BE
:100540008091B0008F7DF9CF809190008F7780935C
:1005500090000895809190008F7DF9CF8091900058
:10056000877FF5CF8091A0008F778093A0000895BA
:100570008091A0008F7DF9CF8091A000877FF5CF7B
:10058000809120018F778093200108958091200130
:100590008F7DF9CF80912001877FF5CF1F93CF9377
:1005A000DF93282F30E0F901E555FD4F8491F901E3
:1005B000EB59FD4FD491F901E15EFD4FC491CC237D
:1005C000A9F0162F81110E946702EC2FF0E0EE0FC8
:1005D000FF1FEB5FFD4FA591B4918FB7F894EC919D
:1005E000111108C0D095DE23DC938FBFDF91CF912E
:1005F0001F910895DE2BF8CF10920B0381E08093BA
:100600000A031092E50261E084E10E94CE0261E0FB
:1006100085E10E94CE02E9EBF0E080818E7F80834D
:1006200080818D7F808388E48093B80085E4809307
:10063000BC000895CF93DF9391E0909377028823D5
:10064000B9F0C091B800D091BA008091BC008A7B0B
:100650008093BC0060E084E10E94CE0260E085E10E
:100660000E94CE020E94FC02D093BA00C093B80050
:10067000DF91CF910895CF93DF9390E0FC01EB5988
:10068000FD4F2491815E9D4FFC0184918823C9F028
:1006900090E0880F991FFC01E551FE4FA591B491A0
:1006A000FC01EB5FFD4FC591D49161110DC09FB767
:1006B000F8948C91209582238C9388812823288319
:1006C0009FBFDF91CF910895623051F49FB7F894A6
:1006D0003C91822F809583238C93E8812E2BEFCF42
:1006E0008FB7F894EC912E2B2C938FBFEACF8230EA
:1006F000910538F0880F991F880F991F059701976A
:10070000F1F708959F92AF92BF92CF92DF92EF924E
:10071000FF920F931F93CF93DF93EC016B018885BA
:10072000998511E0892B09F010E8F601A0808A2D47
:100730008123992493948111912C2C813D814E81A8
:100740005F8160E271EA87E090E00E94E116022F8B
:10075000B12CE22EF12C002319F0C7010E9477037F
:100760008A85877F09F04FC08D858F3F89F09A2D4C
:10077000912381E009F480E0891551F0EF85F88933
:100780008F899923D1F19081892B80839924939427
:10079000E989FA898081998D892B8083002319F05A
:1007A000C7010E9477038E858F3F39F0EB89FC8962
:1007B0008081988D892309F0B12AE989FA8990818D
:1007C000898D8095892380838E858F3F11F0F60176
:1007D000B08288859985892B09F044C0110F1111C9
:1007E000BACFDF91CF911F910F91FF90EF90DF90E3
:1007F000CF90BF90AF909F9008959081809589236E
:100800008083912CC5CFE989FA898081998D892BC4
:100810008083002319F0C7010E9477038D858F3FE5
:1008200049F0EF85F8898F899A2D9123B9F090814D
:10083000892B8083E989FA899081898D8095892324
:1008400080838E858F3F09F4BFCFEB89FC8980813F
:10085000988D892309F4B8CFB12AB6CF90818095BD
:100860008923E7CF1695BBCF6F927F928F929F928D
:10087000AF92BF92CF92DF92EF92FF920F931F93AE
:10088000CF93DF931F92CDB7DEB77C01962E872ED4
:100890005A013901DC018D919C911197892B39F016
:1008A0001296ED91FC91908181819CBD8DBDF701E7
:1008B00083858F3F19F060E00E94CE026301060D30
:1008C000171D0C151D05A9F4092D182DA00EB11E1C
:1008D0000A151B0551F1D8018D918D018983F7010E
:1008E00080819181892BD1F0CE0101960E94B501C2
:1008F000EFCFD6018D916D018983F70180819181C0
:10090000892B29F0CE0101960E94B501DACFBE01F4
:100910006F5F7F4FC7010E948203D3CFBE016F5F1D
:100920007F4FC7010E948203D3CFD7011B968C91C2
:100930008F3F19F061E00E94CE0281E00F90DF91BD
:10094000CF911F910F91FF90EF90DF90CF90BF90CC
:10095000AF909F908F907F906F9008953FB7F894DD
:100960008091730290917402A0917502B091760209
:1009700026B5A89B05C02F3F19F00196A11DB11DFA
:100980003FBFBA2FA92F982F8827BC01CD01620F36
:10099000711D811D911D42E0660F771F881F991FF1
:1009A0004A95D1F708958F929F92AF92BF92CF92BE
:1009B000DF92EF92FF920F931F93CF93DF93D0912B
:1009C0003403D13208F0D7C0182FC09133030E94EE
:1009D000AE046B017C0180910B0381116BC082E03E
:1009E00080930B0310930A038FEF809309031092F7
:1009F0000803D0930703A3E1B3E0E7EEF2E080E061
:100A0000D81391C01092E6028091E602CC0FC82B59
:100A1000C093E6028091E502813009F088C010920F
:100A2000E5020E94AE046B017C018091E602809396
:100A3000BB0080910D0390910E03A0910F03B09124
:100A40001003892B8A2B8B2BA1F00E94AE040091FE
:100A50000D0310910E0320910F03309110036C19B8
:100A60007D098E099F09061717072807390708F41B
:100A700042C08091BC0083FDD8CF85EC8093BC0040
:100A80000E94AE046B017C0180910B03823009F45B
:100A900050C0809109038F3F09F46FC08091090312
:100AA000803209F46CC080910903803309F469C075
:100AB00084E026C080910D0390910E03A0910F0356
:100AC000B0911003892B8A2B8B2B09F484CF0E94C1
:100AD000AE0480900D0390900E03A0900F03B09091
:100AE00010036C197D098E099F0986169706A806C2
:100AF000B90608F070CF80910C030E941A0385E0BC
:100B0000109212031092340310921103DF91CF91CF
:100B10001F910F91FF90EF90DF90CF90BF90AF901B
:100B20009F908F9008959D9191938F5F69CF85EEEF
:100B3000A5CF80910D0390910E03A0910F03B0916A
:100B40001003892B8A2B8B2B09F49ECF0E94AE04B5
:100B500000910D0310910E0320910F0330911003AB
:100B60006C197D098E099F09061717072807390791
:100B700008F08ACFC0CF81E0C3CF80E0C1CF82E050
:100B8000BFCF83E0BDCFCF93DF93EC018B81882370
:100B9000A1F0888191E09093110380933303109228
:100BA00012031092340381E00E94D30491E081117A
:100BB00090E0892FDF91CF9108951092C00210929A
:100BC000BF0210921203109234030E94FC028FEBBA
:100BD00091E09093BC028093BB0280EC91E09093F3
:100BE000BE028093BD0281E08B83CE010E94C305CB
:100BF000982F8111CECFDDCFCF93DF93EA0191E023
:100C000090931103809333031092120310923403D4
:100C100085E393E00E943802688185E393E00E94B7
:100C2000380281E00E94D30491E0811190E0892F85
:100C3000DF91CF910895CF92DF92EF92FF920F93C1
:100C40001F93CF93DF931F921F92CDB7DEB7FC01A6
:100C50004787508B618B728B8285882321F1448773
:100C6000452F562F672F77278823F9F043877F0179
:100C70008BE0E80EF11C9681878199838A83C0807E
:100C8000D180C114D10409F454C0018510E0980149
:100C90002E5F3F4FD60114968D919C91821793073A
:100CA00030F490E02AC04387DBCF4487E0CFF601E1
:100CB00081819281208131E03093110320933303AD
:100CC00010921203109234030115110511F5D6018B
:100CD00011968D919C91DC01ED91FC910280F38144
:100CE000E02D42E050E0B70119950297D1F681E07E
:100CF0000E94D30491E08111D4CF892F0F900F90DF
:100D0000DF91CF911F910F91FF90EF90DF90CF90E7
:100D10000895DC01ED91FC910280F381E02DA801A2
:100D2000BE016F5F7F4F19950817190709F0B9CFFA
:100D3000CECFA281B381109709F4B3CF248135813E
:100D4000018510E02330310581F48E7F89839A83F9
:100D50000F5F1F4F9E012F5F3F4F42E050E0B701F2
:100D6000CD010E943404982FC8CF2115310519F404
:100D70009F779983EFCF2230310511F49068F9CF36
:100D80002130310539F79F779064F3CF81E080936C
:100D9000600208950895089508950895AF92BF924E
:100DA000CF92DF92EF92FF920F931F93CF93DF9337
:100DB0006C017B018B01040F151FEB015E01AE1866
:100DC000BF08C017D10759F06991D601ED91FC9188
:100DD0000190F081E02DC6011995892B79F7C501A5
:100DE000DF91CF911F910F91FF90EF90DF90CF9007
:100DF000BF90AF90089590E080E00895FC01538D7E
:100E0000448D252F30E0842F90E0821B930B5417E4
:100E100010F0CF96089501970895FC01918D828D71
:100E2000981761F0A28DAE0FBF2FB11D5D968C910A
:100E3000928D9F5F9F73928F90E008958FEF9FEF49
:100E40000895FC01918D828D981731F0828DE80F05
:100E5000F11D858D90E008958FEF9FEF0895FC01BF
:100E6000918D228D892F90E0805C9F4F821B91098C
:100E70008F739927089581E493E00E942F0721E062
:100E8000892B09F420E0822F0895FC01A48DA80F7E
:100E9000B92FB11DA35ABF4F2C91848D90E00196BC
:100EA0008F739927848FA689B7892C93A089B189DC
:100EB0008C91837080648C93938D848D981306C07D
:100EC0000288F389E02D80818F7D80830895EF92E1
:100ED000FF920F931F93CF93DF93EC0181E0888FF4
:100EE0009B8D8C8D98131AC0E889F989808185FFC4
:100EF00015C09FB7F894EE89FF896083E889F98966
:100F000080818370806480839FBF81E090E0DF9167
:100F1000CF911F910F91FF90EF900895F62E0B8DBA
:100F200010E00F5F1F4F0F731127E02E8C8D8E1175
:100F30000CC00FB607FCFACFE889F989808185FFDC
:100F4000F5CFCE010E944507F1CFEB8DEC0FFD2FC1
:100F5000F11DE35AFF4FF0829FB7F8940B8FEA8997
:100F6000FB8980818062CFCFCF93DF93EC01888DA6
:100F70008823B9F0AA89BB89E889F9898C9185FD14
:100F800003C0808186FD0DC00FB607FCF7CF8C91A2
:100F900085FFF2CF808185FFEDCFCE010E9445070E
:100FA000E9CFDF91CF91089581E0809363020895A6
:100FB0000E943B07882319F081E08093630280E060
:100FC00090E0892B49F080E090E0892B29F00E9485
:100FD000000081110E94000080E090E0892B49F020
:100FE00080E090E0892B29F00E94000081110E948E
:100FF000000080E090E0892B49F080E090E0892BB0
:1010000029F00E94000081110C94000008958F9235
:101010009F92AF92BF92CF92DF92EF92FF920F9387
:101020001F93CF93DF93EC016A017B0120E030E056
:101030004FE753E4CB01B6010E9404164B015C015B
:1010400020E030E0A9010E94411718168CF5C50177
:10105000B4010E940B178B01B98020E030E0A90198
:10106000C701B6010E94411760E018160CF061E05C
:101070008B2D0E94CE020F3F110509F0ECF41127D1
:10108000C88161E08C2F0E943B0301151105B9F462
:1010900060E08C2FDF91CF911F910F91FF90EF9027
:1010A000DF90CF90BF90AF909F908F900C94CE0226
:1010B000C501B4019058CDCF0FEF10E0E1CF0F3F45
:1010C000110511F461E0E5CFEC2FF0E0E555FD4F9F
:1010D000E491E150E23108F0BCC0F0E08827EC5820
:1010E000F74F8F4F0C940317860897089C08A608A3
:1010F000B0082909BA08C208CA08D408DE08E808F6
:10110000F708010929090B0915091F0984B5806829
:1011100084BD07BDDF91CF911F910F91FF90EF909C
:10112000DF90CF90BF90AF909F908F90089584B53F
:10113000806284BD08BDEECF80918000806880937E
:1011400080001093890000938800E4CF8091800094
:1011500080628093800010938B0000938A00DACF26
:101160008091800088608093800010938D000093B0
:101170008C00D0CF8091B00080688093B000009345
:10118000B300C8CF8091B00080628093B00000931C
:10119000B400C0CF8091900080688093900010933D
:1011A000990000939800B6CF809190008062809360
:1011B000900010939B0000939A00ACCF8091900018
:1011C00088608093900010939D0000939C00A2CFB4
:1011D0008091A00080688093A0008091A0008F7B08
:1011E0008093A0001093A9000093A80093CF809152
:1011F000A00080628093A0001093AB000093AA002F
:1012000089CF8091A00088608093A0001093AD00EA
:101210000093AC007FCF80912001806880932001F3
:10122000109329010093280175CF809120018062DD
:101230008093200110932B0100932A016BCF8091A2
:10124000200188608093200110932D0100932C01D0
:1012500061CF003811050CF035CF1ACF8EBD0000DC
:101260000DB407FEFDCF8EB50895CF93DF93EC014B
:1012700060E088810E94CE0288E90E942E0980E009
:101280000E942E0980E00E942E0980E00E942E0913
:1012900080E00E942E0961E088810E94CE028BE8E6
:1012A00091E00197F1F760E088810E94CE0280EE24
:1012B0000E942E0961E08881DF91CF910C94CE02CB
:1012C000AF92BF92CF92DF92EF92FF920F931F9354
:1012D000CF93DF93CDB7DEB760970FB6F894DEBF3C
:1012E0000FBECDBF6C0160E0FC0180810E94CE0288
:1012F00080E60E942E099E012F5F3F4F79015E011B
:1013000031E1A30EB11C870180E00E942E0990E01C
:10131000B0E0A0E0F80181939193A193B1938F0184
:10132000EA15FB0589F761E0F60180810E94CE0293
:1013300080E090E0DC01F701419151916191719160
:101340007F01BA2FA92F982F8827840F951FA61FDA
:10135000B71FE017F10779F79C01AD0166277727E2
:10136000CB01621B730B840B950B60960FB6F89440
:10137000DEBF0FBECDBFDF91CF911F910F91FF90C8
:10138000EF90DF90CF90BF90AF900895CF93DF9311
:1013900020916B0230E0F901E555FD4F8491F90190
:1013A000EB59FD4FD491F901E15EFD4FC491CC237F
:1013B00021F181110E946702EC2FF0E0EE0FFF1F78
:1013C000E053FE4FA591B491EC91ED23B1F08091E3
:1013D0006C0290916D02A0916E02B0916F02019625
:1013E000A11DB11D80936C0290936D02A0936E02BB
:1013F000B0936F02DF91CF91089580916C0290912C
:101400006D02A0916E02B0916F020197A109B1091E
:10141000E9CF4F925F926F927F928F929F92AF929D
:10142000BF92EF92FF920F931F93CF93DF93C82F3A
:101430007A0189018FB7F8948090E1029090E202DE
:10144000A090E302B090E4028FBFD1E0D0931103EB
:10145000C0933303109212031092340385E393E098
:101460000E94380281E00E94D304D09311031092AD
:101470001203109234030E94AE042B013C018091B0
:101480000B03811164C081E080930B0380930A03F6
:101490009FEF909309031092080310920703809323
:1014A000E6028091E602CC0FC82BC093E602809141
:1014B000E502813009F08FC01092E5020E94AE046F
:1014C0002B013C018091E6028093BB0080910D03CB
:1014D00090910E03A0910F03B0911003892B8A2BDA
:1014E0008B2BA1F00E94AE0420910D0330910E03CE
:1014F00040910F03509110036419750986099709EB
:10150000261737074807590708F442C08091BC00E6
:1015100083FDD8CF85EC8093BC000E94AE042B01E4
:101520003C0180910B03813009F457C0809108037E
:10153000811175C080910803E7EEF2E0A1ECB2E002
:1015400090E0981751F121912D939F5FFACF8091F0
:101550000D0390910E03A0910F03B0911003892BFE
:101560008A2B8B2B09F48BCF0E94AE0420910D03A4
:1015700030910E0340910F035091100364197509C7
:1015800086099709261737074807590708F077CFC4
:1015900080910C030E941A0380E01092C002809395
:1015A000BF02C0E02801712C612C9091BF02809194
:1015B000C002981709F44AC00115110591F585E399
:1015C00093E00E94F801F701EC0FF11DC7FDFA95B9
:1015D0008083CF5FEACF85EE9ECF80910D039091FF
:1015E0000E03A0910F03B0911003892B8A2B8B2B34
:1015F00009F497CF0E94AE0420910D0330910E03A1
:1016000040910F03509110036419750986099709D9
:10161000261737074807590708F083CFB9CF81E06D
:101620008BCF2FB7F8948091E1029091E202A091C4
:10163000E302B091E4022FBF88199909AA09BB09F6
:1016400084159505A605B70508F4B9CF81E00E9479
:10165000D30401151105C9F08FB7F8944091E10248
:101660005091E2026091E3027091E4028FBF481949
:1016700059096A097B0930E020E0401751076207E9
:10168000730718F01C160CF0CFEF8C2FDF91CF9161
:101690001F910F91FF90EF90BF90AF909F908F9010
:1016A0007F906F905F904F900895DF92EF92FF923E
:1016B0000F931F93CF93DF931F921F92CDB7DEB787
:1016C000F82EE62E142FD22E28EE33E0AE014E5F18
:1016D0005F4F0E94090A882381F1812F8D19990B90
:1016E000AC014F5F5F4F81E090E002C0880F991F0F
:1016F000DA94E2F70197042E01C0880F0A94EAF702
:1017000001C0000F4A95EAF7982F90952A819223FD
:101710008023892B8A838983AE014F5F5F4F6E2DB3
:101720008F2D0E94FC050F900F90DF91CF911F919C
:101730000F91FF90EF90DF90089580E0F4CF40E0AC
:1017400050E0BA0187EA94E00E94070840E050E0C8
:1017500060E070E889EA94E00E940708109225048E
:10176000109261020895FC0101900020E9F7319781
:10177000AF01481B590BBC0181E493E00C94CE06E9
:1017800085ED8093BC0080910D0390910E03A09194
:101790000F03B09110030796A11DB11D23E0B6956C
:1017A000A795979587952A95D1F72091BC0024FDA0
:1017B00003C010920B03089540910D0350910E0346
:1017C00060910F0370911003452B462B472B69F353
:1017D0000097A105B10541F025E32A95F1F7000036
:1017E0000197A109B109E1CF80910C030C941A0370
:1017F0001F920F920FB60F9211240BB60F922F93D8
:101800003F934F935F936F937F938F939F93AF9388
:10181000BF93EF93FF938091B900887F803609F4DE
:101820004DC008F040C0883209F4A9C028F58031C5
:1018300009F49DC0C8F4882309F4FBC0883009F47A
:1018400096C0FF91EF91BF91AF919F918F917F9142
:101850006F915F914F913F912F910F900BBE0F9021
:101860000FBE0F901F901895883109F488C0803200
:1018700041F78093090314C0803409F49DC040F4FB
:101880008033B9F38833E9F68093090385ECB0C05F
:10189000803509F485C0883509F496C0883489F606
:1018A0000E94C00BCECF883909F48CC038F5883738
:1018B00029F050F4883611F0803719F683E08093D0
:1018C0000B031092BA0257C0883809F47BC08039E4
:1018D00019F0803809F0B5CF8091BA02803208F053
:1018E00071C0E091BA0281E08E0F8093BA028091BC
:1018F000BB00F0E0E656FD4F80833DC0803B39F0F1
:10190000E0F4803A09F479C0883A09F09ACF84E08B
:1019100080930B031092990210929802E091BB02FF
:10192000F091BC0219958091980281110FC081E05D
:10193000809398021092780209C0803C09F4A6CFE7
:10194000883C09F4A3CF883B09F07BCFE091990252
:1019500081E08E0F80939902F0E0E858FD4F80817E
:101960008093BB00909199028091980229C0809148
:10197000E6028093BB0085EC8093BC0062CF90911F
:10198000080380910703981758F5E091080381E058
:101990008E0F80930803F0E0E951FD4F8081E9CF7D
:1019A000E091080381E08E0F809308038091BB00D3
:1019B000F0E0E951FD4F8083909108038091070387
:1019C0009817C8F285E8D8CFE091080381E08E0F20
:1019D000809308038091BB00F0E0E951FD4F8083C4
:1019E00080910A0381115CCF81E08093E50284EA53
:1019F0008093BC0010920B0324CF85EC8093BC0035
:101A000010920B038091BA02803230F4E091BA0256
:101A1000F0E0E656FD4F10826091BA0270E0E0916E
:101A2000BD02F091BE028AE992E019951092BA02C5
:101A300008CF1092090334CF1F920F920FB60F9266
:101A400011242F933F938F939F93AF93BF938091D4
:101A5000E1029091E202A091E302B091E4023091A0
:101A6000720223E0230F2D3758F50196A11DB11DF9
:101A7000209372028093E1029093E202A093E3022A
:101A8000B093E4028091730290917402A091750268
:101A9000B09176020196A11DB11D809373029093BF
:101AA0007402A0937502B0937602BF91AF919F919B
:101AB0008F913F912F910F900FBE0F901F9018950F
:101AC00026E8230F0296A11DB11DD2CF1F920F92BF
:101AD0000FB60F9211240BB60F922F933F934F9393
:101AE0005F936F937F938F939F93AF93BF93EF9386
:101AF000FF93E0910F02F09110021995FF91EF9181
:101B0000BF91AF919F918F917F916F915F914F9115
:101B10003F912F910F900BBE0F900FBE0F901F9013
:101B200018951F920F920FB60F9211240BB60F92B9
:101B30002F933F934F935F936F937F938F939F93D5
:101B4000AF93BF93EF93FF93E0910D02F0910E02DC
:101B50001995FF91EF91BF91AF919F918F917F91D7
:101B60006F915F914F913F912F910F900BBE0F900E
:101B70000FBE0F901F9018951F920F920FB60F92E5
:101B800011240BB60F922F933F934F935F936F9354
:101B90007F938F939F93AF93BF93EF93FF93E091C6
:101BA0000302F09104021995FF91EF91BF91AF915B
:101BB0009F918F917F916F915F914F913F912F9165
:101BC0000F900BBE0F900FBE0F901F9018951F9295
:101BD0000F920FB60F9211240BB60F922F933F93D3
:101BE0004F935F936F937F938F939F93AF93BF9325
:101BF000EF93FF93E0910102F09102021995FF919A
:101C0000EF91BF91AF919F918F917F916F915F9174
:101C10004F913F912F910F900BBE0F900FBE0F90E1
:101C20001F9018951F920F920FB60F9211240BB6AA
:101C30000F922F933F934F935F936F937F938F9365
:101C40009F93AF93BF93EF93FF93E0910B02F091BB
:101C50000C021995FF91EF91BF91AF919F918F91D8
:101C60007F916F915F914F913F912F910F900BBE9C
:101C70000F900FBE0F901F9018951F920F920FB6E6
:101C80000F9211240BB60F922F933F934F935F93B4
:101C90006F937F938F939F93AF93BF93EF93FF9334
:101CA000E0910902F0910A021995FF91EF91BF911D
:101CB000AF919F918F917F916F915F914F913F91E4
:101CC0002F910F900BBE0F900FBE0F901F90189585
:101CD0001F920F920FB60F9211240BB60F922F93F3
:101CE0003F934F935F936F937F938F939F93AF93A4
:101CF000BF93EF93FF93E0910702F09108021995CB
:101D0000FF91EF91BF91AF919F918F917F916F91D3
:101D10005F914F913F912F910F900BBE0F900FBE8F
:101D20000F901F9018951F920F920FB60F921124CB
:101D30000BB60F922F933F934F935F936F937F93C5
:101D40008F939F93AF93BF93EF93FF93E09105021F
:101D5000F09106021995FF91EF91BF91AF919F917C
:101D60008F917F916F915F914F913F912F910F9044
:101D70000BBE0F900FBE0F901F9018951F920F92E1
:101D80000FB60F9211240BB60F922F933F934F93E0
:101D90005F936F937F938F939F93AF93BF93EF93D3
:101DA000FF938091650290916602A0916702B091C5
:101DB0006802892B8A2B8B2BD1F190916402809140
:101DC000000089278093000080916502909166024F
:101DD000A0916702B0916802181619061A061B0630
:101DE0009CF48091650290916602A0916702B09187
:101DF00068020197A109B109809365029093660278
:101E0000A0936702B0936802FF91EF91BF91AF91E9
:101E10009F918F917F916F915F914F913F912F9102
:101E20000F900BBE0F900FBE0F901F9018958091D2
:101E30000002EAEEF1E0E4919FEF90930002E230BD
:101E4000E9F040F4EE2389F0E13091F060E00E9487
:101E5000CE02DACFE43049F110F1E530B9F79091D4
:101E600073009D7F90937300F1CF10926E00EECFC0
:101E700090916F009D7F90936F00E8CF90917000DC
:101E80009D7F9093700091E09093B0009091B1008D
:101E9000987F94609093B1001092B300D7CF909147
:101EA00071009D7F90937100D1CF909172009D7FC2
:101EB00090937200CBCF1F920F920FB60F92112406
:101EC0000BB60F922F933F934F935F936F937F9334
:101ED0008F939F93AF93BF93EF93FF9381E493E02E
:101EE0000E944507FF91EF91BF91AF919F918F9114
:101EF0007F916F915F914F913F912F910F900BBE0A
:101F00000F900FBE0F901F9018951F920F920FB653
:101F10000F9211240BB60F922F938F939F93EF93F1
:101F2000FF93E0915103F09152038081E0915703B8
:101F3000F091580382FD1DC0908180915A038F5FFC
:101F40008F7320915B03821741F0E0915A03F0E018
:101F5000EF5BFC4F958F80935A03FF91EF919F9118
:101F60008F912F910F900BBE0F900FBE0F901F906F
:101F700018958081F2CF1F920F920FB60F92112405
:101F80000BB60F922F933F934F935F936F937F9373
:101F90008F939F93AF93BF93CF93DF93EF93FF9371
:101FA00080916202C0911A04D0E087FF23C0109292
:101FB000850010928400809162028F5F809362029C
:101FC00080916202082E000C990B8C179D0724F457
:101FD000809162028C3074F1809184009091850030
:101FE00084349C4908F465C08091840090918500F8
:101FF000049661C080916202082E000C990B8C1728
:102000009D07CCF63091620225E03203F0011124E5
:10201000E252FC4F808186FFCECF309162023203C4
:10202000F0011124E252FC4F808160E08F730E9426
:10203000CE02C1CF809184009091850030916202E0
:1020400025E03203F0011124E252FC4F418152811C
:10205000840F951F909389008093880030916202CD
:102060003203F0011124E252FC4F808186FF0CC044
:10207000309162023203F0011124E252FC4F808160
:1020800061E08F730E94CE02FF91EF91DF91CF91BB
:10209000BF91AF919F918F917F916F915F914F9180
:1020A0003F912F910F900BBE0F900FBE0F901F907E
:1020B000189580E49CE990938900809388008FEFC5
:1020C00080936202E1CF109238031092370388EEBA
:1020D00093E0A0E0B0E08093390390933A03A0939B
:1020E0003B03B0933C0323E232E03093360320936A
:1020F0003503109244031092430380934503909359
:102100004603A0934703B093480385E392E090937E
:1021100042038093410385EC90E090934E038093BB
:102120004D0384EC90E09093500380934F0380EC38
:1021300090E0909352038093510381EC90E0909350
:1021400054038093530382EC90E090935603809362
:10215000550386EC90E090935803809357031092B8
:102160005A0310925B0310925C0310925D038CE0A3
:1021700080938D0484E280938E0485E080938F04A5
:1021800096E0909390049EE1909391049FE1909348
:10219000920492E29093930493E29093940494E4D3
:1021A0009093950495E4909396041092980410925D
:1021B000970490E490939A0410929F041092A004C4
:1021C0001092A1041092A2041092A3041092A404ED
:1021D0001092A5041092A60498E0E7E1F2E0AFEABD
:1021E000B4E001900D929A95E1F740E050E060EA8A
:1021F00070E44093B7045093B8046093B9047093AB
:10220000BA04E0911A04EC3008F0CAC091E09E0FC5
:1022100090931A04E0938C048E9FF0011124E252F3
:10222000FC4F88EB9BE09283818388E680937D045A
:1022300010924104109242041092430410924404FC
:1022400010924504109246041092470410924804DC
:102250001092490410924A0410924B0410924C04BC
:1022600010924E0410924D041092500410924F049C
:10227000109252041092510410925304109254047C
:10228000109255041092560410925704109258045C
:10229000109265041092660410926704109268040C
:1022A0001092690410926A0410926B0410926C04EC
:1022B00080E090E0A0EAB0E480936D0490936E0417
:1022C000A0936F04B093700480E090E0A8ECB2E4B7
:1022D0008093710490937204A0937304B093740478
:1022E000109275041092760410927704109278047C
:1022F0001092790410927A0410927B0410927C045C
:10230000109230041092310410923204109233046F
:10231000109234041092350410923604109237044F
:102320008FEF9FEFDC018093390490933A04A093E0
:102330003B04B0933C0480933D0490933E04A093EF
:102340003F04B09340041092380410922F0410926E
:102350002E0410921D0410921E0410921F0410925D
:10236000200410922104109222041092230410924F
:1023700024048093260490932704A0932804B09308
:10238000290480932A0490932B04A0932C04B093E7
:102390002D041092250410921C0410921B04089521
:1023A0008FEF80938C0441CFCF93DF93CDB7DEB70F
:1023B000E4970FB6F894DEBF0FBECDBF789484B516
:1023C000826084BD84B5816084BD85B5826085BD31
:1023D00085B5816085BD80916E00816080936E00BF
:1023E00010928100809181008260809381008091B1
:1023F0008100816080938100809180008160809362
:1024000080008091B10084608093B1008091B00021
:1024100081608093B00080919100826080939100F0
:102420008091910081608093910080919000816003
:10243000809390008091A10082608093A1008091A0
:10244000A10081608093A1008091A00081608093B1
:10245000A00080912101826080932101809121015F
:10246000816080932101809120018160809320010F
:1024700080917A00846080937A0080917A008260F3
:1024800080937A0080917A00816080937A008091B5
:102490007A00806880937A001092C100E091510325
:1024A000F091520382E08083E0914D03F0914E035E
:1024B0001082E0914F03F091500380E180831092ED
:1024C0005903E0915503F091560386E08083E09133
:1024D0005303F0915403808180618083E091530322
:1024E000F0915403808188608083E0915303F091E0
:1024F0005403808180688083E0915303F0915403FA
:1025000080818F7D808361E080918E040E943B03F7
:1025100060E080918E040E94CE0260E080918D0484
:102520000E943B038091970490919804892BA9F411
:1025300086E090E00E944617FC0180919A04808317
:1025400085E393E092838183138280E290E0958318
:102550008483F0939804E0939704E0909704F090BC
:1025600098041092C0021092BF02109212031092AF
:1025700034030E94FC028FEB91E09093BC028093A5
:10258000BB0280EC91E09093BE028093BD0211E00B
:10259000F7011383C7010E94C305882309F45BC0B8
:1025A00080E090E1A0E0B0E080939B0490939C04D5
:1025B000A0939D04B0939E048AE090E0A0E0B0E078
:1025C00080939F049093A004A093A104B093A204CD
:1025D00080E090E0A0E0B0E48093A3049093A40492
:1025E000A093A504B093A6048091970490919804B9
:1025F00019AA1AAA1BAA1CAA9BA38AA31DA21CA2E1
:102600001BA785E090E099A788A71CA702E00AA76E
:1026100040E050E160E070E0CE0182960E941B062F
:102620008091970490919804188A198A1A8A1B8AB3
:102630009A8389831C821B821A8718861F821B87B4
:1026400009874FE959E360E070E0CE0101960E94EE
:102650001B06809399045FE8E52E54E0F52E0DE803
:1026600014E061E9A62E64E0B62E74E5472E72E010
:10267000572EEAE96E2EE2E07E2EFBECCF2EF7E03D
:10268000DF2EF701928181917F01F801828F938F74
:1026900061E00E943B0361E0F801838D0E943B03EF
:1026A0004801FEE18F0E911CF70195818381F801AD
:1026B000868F978F61E00E943B0360E0F801878D71
:1026C0000E943B0361E0F801868D0E94CE023FB676
:1026D000F89480916902811125C0F2018491F3017F
:1026E0009491E82FF0E0EE0FFF1FE551FE4FA5910A
:1026F000B4918C91982321F461E085E30E94CE028D
:1027000061E085E30E943B038CB580618CBD8CB594
:1027100080648CBD61E084E30E943B0361E083E35D
:102720000E943B03809169028F5F809369023FBEE4
:10273000C6010197F1F760E0F801868D0E94CE0294
:1027400088E80E942E0983E00E942E0961E0F801CA
:10275000868D0E94CE02C6010197F1F7C4010E9446
:1027600035090E5F1F4FA016B10609F08ACF01E0B0
:1027700023E042E06BE680917D040E94550B00E06F
:1027800022E044E06BE180917D040E94550B22E041
:1027900044E06CE180917D040E94550B10917D0412
:1027A00028EE33E0AE014F5F5F4F6BE6812F0E9452
:1027B000090A89818F7B89838AA3AE014E5D5F4FB1
:1027C0006BE6812F0E94FC0582E080936A0283E021
:1027D00080936B0262E082E00E943B0362E08091A2
:1027E0006B020E943B0390916A02923009F0F8C09C
:1027F00086EC99E0909302028093010280916A0036
:102800008C7F826080936A00EC9A84E690E0A0E07E
:10281000B0E08093300490933104A0933204B093DD
:10282000330486EC96E090932F0480932E0481E08D
:10283000809338048FB7F8944091E1025091E202FE
:102840006091E3027091E4028FBF80913004909117
:102850003104A0913204B0913304840F951FA61F58
:10286000B71F8093340490933504A0933604B0933B
:1028700037048091390490913A04A0913B04B091BF
:102880003C0480933D0490933E04A0933F04B09396
:1028900040048FE99BE090931C0480931B0480E02C
:1028A00090E0A0E8BEE38093410490934204A0939B
:1028B0004304B09344048DEC9CECACECBDE38093FA
:1028C000450490934604A0934704B09348041092A3
:1028D000490410924A0410924B0410924C048AEC62
:1028E00096E090934E0480934D048BEC96E0909389
:1028F000500480934F048CEC96E0909352048093A4
:1029000051048FE692E1A3E8BAE380936D049093BB
:102910006E04A0936F04B093700488EC90E0A0E084
:10292000B0E080935D0490935E04A0935F04B09345
:1029300060048DEC9CECACE4BEE38093590490936E
:102940005A04A0935B04B0935C0480E8482E8CE0AA
:10295000582E612C712C92E0292E312C2AE0C22EA7
:10296000D12CE12CF12C8091700290917102009792
:1029700009F47DC0019709F484C08BEA94E00E94B9
:1029800060094B015C01181419041A041B040CF0B3
:10299000B4C06DE281E493E00E946707A501940151
:1029A00019A28E010F5D1F4FCA01B901A70196013F
:1029B0000E94E116605DF80162938F0121153105D7
:1029C0004105510589F70115110519F0C8010E944B
:1029D000B30B83E492E00E94B30B0E94D807C3CFED
:1029E000933071F486EC99E0909304028093030293
:1029F00080916A00837F886080936A00ED9A05CF9A
:102A00008EEE890F843008F000CF87E1891BE82F14
:102A1000F0E0EE0FFF1FEF5FFD4F26EC39E0318352
:102A200020838430A1F08530D1F0833041F0809153
:102A300069008C7F826080936900E89AE6CE80917D
:102A40006900837F886080936900E99ADECE809177
:102A500069008F7C806280936900EA9AD6CE80916B
:102A600069008F73806880936900EB9ACECE8BEA01
:102A700094E00E94350981E090E090937102809388
:102A8000700240E050E060E07FE387EA94E00E945B
:102A900007088BEA94E00E946009909580957095F4
:102AA00061957F4F8F4F9F4FA30192010E94C216E5
:102AB000CA01B9010E94A5152DEC3CEC4CEC5DE37C
:102AC0000E9404162BED3FE049E450E40E940416F6
:102AD00020E030E040E85FE30E949E1518160CF4F9
:102AE0004CCF40E050E0BA0187EA94E00E9407082A
:102AF000309271022092700240CF22273327A90121
:102B0000281939094A095B0919A28E010F5D1F4F67
:102B1000CA01B901A70196010E94E116605DF801A2
:102B200062938F01211531054105510589F74BCF7E
:102B300080919704909198040C94E2170E94E015FC
:102B400008F481E00895E89409C097FB3EF490955D
:102B50008095709561957F4F8F4F9F4F9923A9F076
:102B6000F92F96E9BB279395F69587957795679505
:102B7000B795F111F8CFFAF4BB0F11F460FF1BC049
:102B80006F5F7F4F8F4F9F4F16C0882311F096E9DC
:102B900011C0772321F09EE8872F762F05C066238A
:102BA00071F096E8862F70E060E02AF09A95660F43
:102BB000771F881FDAF7880F9695879597F90895FC
:102BC000990F0008550FAA0BE0E8FEEF161617063E
:102BD000E807F907C0F012161306E407F50798F0A6
:102BE000621B730B840B950B39F40A2661F0232BBF
:102BF000242B252B21F408950A2609F4A140A6953B
:102C00008FEF811D811D08950E9417160C94881660
:102C10000E947A1638F00E94811620F0952311F058
:102C20000C9471160C94771611240C94BC160E9407
:102C3000991670F3959FC1F3950F50E0551F629F51
:102C4000F001729FBB27F00DB11D639FAA27F00D05
:102C5000B11DAA1F649F6627B00DA11D661F829F2C
:102C60002227B00DA11D621F739FB00DA11D621F11
:102C7000839FA00D611D221F749F3327A00D611D2E
:102C8000231F849F600D211D822F762F6A2F112410
:102C90009F5750409AF0F1F088234AF0EE0FFF1F43
:102CA000BB1F661F771F881F91505040A9F79E3F9A
:102CB000510580F00C9471160C94BC165F3FE4F340
:102CC000983ED4F3869577956795B795F795E795F0
:102CD0009F5FC1F7FE2B880F911D9695879597F9F9
:102CE000089597F99F6780E870E060E008959FEF8E
:102CF00080EC089500240A94161617061806090693
:102D0000089500240A941216130614060506089561
:102D1000092E0394000C11F4882352F0BB0F40F4E9
:102D2000BF2B11F460FF04C06F5F7F4F8F4F9F4F29
:102D3000089557FD9058440F551F59F05F3F71F0AB
:102D40004795880F97FB991F61F09F3F79F0879512
:102D50000895121613061406551FF2CF4695F1DF9B
:102D600008C0161617061806991FF1CF869571052B
:102D7000610508940895E894BB2766277727CB015F
:102D800097F90895052E97FB1EF400940E94D9161A
:102D900057FD07D00E94E11607FC03D04EF40C94B7
:102DA000D91650954095309521953F4F4F4F5F4F25
:102DB000089590958095709561957F4F8F4F9F4FA7
:102DC0000895A1E21A2EAA1BBB1BFD010DC0AA1F6C
:102DD000BB1FEE1FFF1FA217B307E407F50720F084
:102DE000A21BB30BE40BF50B661F771F881F991FFF
:102DF0001A9469F760957095809590959B01AC0148
:102E0000BD01CF010895EE0FFF1F881F8BBF0790F4
:102E1000F691E02D19940E9412176894B1110C9448
:102E2000BC1608950E94A11688F09F5798F0B92FFC
:102E30009927B751B0F0E1F0660F771F881F991FEF
:102E40001AF0BA95C9F714C0B13091F00E94BB16C0
:102E5000B1E008950C94BB16672F782F8827B85FD0
:102E600039F0B93FCCF3869577956795B395D9F747
:102E70003EF490958095709561957F4F8F4F9F4F51
:102E800008950E94E01508F48FEF08950F931F93A3
:102E9000CF93DF938230910510F482E090E0E091CF
:102EA000BD04F091BE0430E020E0B0E0A0E0309737
:102EB00099F42115310509F44AC0281B390B243037
:102EC0003105D8F58A819B816115710589F1FB0176
:102ED00093838283FE0111C040815181028113815D
:102EE00048175907E0F04817590799F4109761F00F
:102EF00012960C93129713961C933296CF01DF9182
:102F0000CF911F910F9108950093BD041093BE04BB
:102F1000F4CF2115310551F04217530738F0A901BC
:102F2000DB019A01BD01DF01F801C1CFEF01F9CF4B
:102F30009093BE048093BD04CDCFFE01E20FF31F3A
:102F4000819391932250310939832883D7CF2091DF
:102F5000BB043091BC04232B41F420911302309127
:102F600014023093BC042093BB04209111023091D1
:102F700012022115310541F42DB73EB740911502DB
:102F800050911602241B350BE091BB04F091BC0458
:102F9000E217F307A0F42E1B3F0B2817390778F030
:102FA000AC014E5F5F4F2417350748F04E0F5F1F8F
:102FB0005093BC044093BB04819391939FCFF0E066
:102FC000E0E09CCFCF93DF930097E9F0FC013297CC
:102FD00013821282A091BD04B091BE04ED0130E0D5
:102FE00020E01097A1F420813181820F931F20915E
:102FF000BB043091BC042817390709F061C0F09375
:10300000BC04E093BB04DF91CF910895EA01CE1791
:10301000DF07E8F54A815B819E0141155105B1F753
:10302000E901FB83EA8349915991C40FD51FEC173D
:10303000FD0761F4808191810296840F951FE9015B
:1030400099838883828193819B838A83F0E0E0E087
:1030500012968D919C9113970097B9F52D913C9103
:103060001197CD010296820F931F2091BB043091DE
:10307000BC042817390739F6309751F51092BE0471
:103080001092BD04B093BC04A093BB04BCCFD38307
:10309000C28340815181840F951FC817D90761F4FD
:1030A0004E5F5F4F88819981480F591F518340833C
:1030B0008A819B81938382832115310509F0B0CFEA
:1030C000F093BE04E093BD049ECFFD01DC01C0CFB0
:1030D00013821282D7CF11E0CAE7D1E000E006C028
:1030E000802FFE010E9403172196011DCB37D107C7
:0A30F00080E00807A9F7F894FFCF6D
:1030FA00FFCD06CD06CD06CD06CD06CD06CD06CD35
:10310A00060000BF048000300031003200330000A6
:10311A0000000038020B02FB06E801AE01F801E9E3
:10312A0001000000006707CE06FE06B4072F070D50
:06313A000721070D0A0049
:00000001FF
