:100000000C9499010C94681C0C943D1C0C94121CCB
:100010000C94E71B0C94BC1B0C94911B0C94661B5A
:100020000C943B1B0C94CA010C94CA010C94CA0199
:100030000C94CA010C94931C0C94CA010C94CA0130
:100040000C94CA010C94901D0C94CA010C94CA0122
:100050000C94CA010C94CA010C94CA010C94F11AB4
:100060000C94CA010C945A1D0C94301D0C94CA01B6
:100070000C94CA010C94CA010C94CA010C94CA01D4
:100080000C94CA010C94CA010C94CA010C94CA01C4
:100090000C94CA010C94CA010C94CA010C94CD1999
:1000A0000C94CA010C94CA010C94CA010C94CA01A4
:1000B0000C94CA010C94CA010C94CA010C94CA0194
:1000C0000C94CA010C94CA010C94CA010C94CA0184
:1000D0000C94CA010C94CA010C94CA010C94CA0174
:1000E0000C94CA010C94DD160C945B080C94EE0879
:1000F0000C94381E0C94A1080C94400A0C94080827
:100100000C94FC0B0C94D3020C94BE020C940508C6
:100110000C9410020C940C0A0C94C6020C94040863
:100120000C94E1020C94D9020C94CF020C947D0A39
:100130000C94F5020C94870A0C9411020C9467023B
:100140000C94E7010C942C0A0C9447080C941D2B7A
:100150000C9433020C94EB020C9400080C94E7020C
:100160000C94EF020C94C2020C9435080C94640AAF
:100170000C9407080C941D0A0C94DD020C94F402F4
:100180000C94C9190C94C9020C9469080C94220AA5
:100190000C94E8010C94BA020C9420020C94910A7D
:1001A0000C946E0A0C94AF0A0C949B0A0C945A0A95
:1001B0000C94500A0C94DA160C94480A0C94B4026D
:1001C0000C94A50A0C94B2120C9406080C943808EE
:1001D0000C94360A0C943A020C94F90200002000A8
:1001E0002300260029002C002F003200000100000F
:1001F000030106010901CDCCCC3D0AD7233C17B73A
:10020000D13877CC2B329595E6241FB14F0A0000E8
:1002100020410000C84200401C4620BCBE4CCA1B06
:100220000E5AAEC59D740200002100240027002A4A
:10023000002D003000330001010000040107010A15
:100240000100002200250028002B002E0031003480
:100250000002010000050108010B01050505050765
:100260000508080808020202020A0A080804040431
:10027000040101010101010101030303030303035D
:1002800003040707070C0C0C0C0C0C0C0C020202EC
:100290000206060606060606060B0B0B0B0B0B0BDF
:1002A0000B0102102020080810204010204080027E
:1002B00001020108040201010204081020408080AC
:1002C0004020100804020180040201804020100830
:1002D0000402010804020101020408102040800108
:1002E0000204081020408000000A0B02090C0D0EC9
:1002F00008070304010000000000000000000000E7
:1003000000000000000000000000000000000000ED
:1003100000000012111000000000000000000000AA
:100320000000000000000000000000000000381E77
:100330001D2B11241FBECFEFD1E2DEBFCDBF00E0E9
:100340000CBF13E0A0E0B2E0E4EBFFE500E00BBF80
:1003500002C007900D92A637B107D9F725E0A6E7AE
:10036000B3E001C01D92AD3EB207E1F711E0C8E96C
:10037000D1E000E006C021970109802FFE010E9414
:10038000972CC739D10780E00807A9F70E94A91F59
:100390000C94C82F0C940000CF93DF93EC0188815C
:1003A0009981DC01ED91FC910190F081E02D64E2F6
:1003B00070E01995009741F02FE1FC01238321E0C3
:1003C0002283DF91CF91089521E02A83FACF089507
:1003D00008952091CA03260F3327331F2132310598
:1003E000ECF420913904FC0190E080E0243069F0C5
:1003F00082E00895A091CA032191AC0146555C4F5B
:10040000A40FB52FB11D2C930196861798F38091F8
:10041000CA03680F6093CA0380E0089581E00895DD
:100420000895E091F2038091F103E81730F4F0E0D1
:10043000ED50FC4F808190E008958FEF9FEF08957D
:100440009091F2038091F1032FEF3FEF981748F45A
:10045000E92FF0E0ED50FC4F208130E09F5F90935A
:10046000F203C90108958091F1039091F203891B71
:10047000990B0895CF92DF92EF92FF920F931F9303
:10048000CF93DF937C01CB018A0120913F0422238B
:1004900089F0EB016B01C40ED51ECC15DD0569F0AA
:1004A0006991D701ED91FC910190F081E02DC70198
:1004B0001995F3CF642F0E94E901C801DF91CF9114
:1004C0001F910F91FF90EF90DF90CF900895CF9301
:1004D000DF931F92CDB7DEB7698320913F042223BB
:1004E000F9F020916204203258F021E030E0FC0164
:1004F0003383228390E080E00F90DF91CF910895C5
:1005000080914004E82FF0E0EF5BFB4F99819083EE
:100510008F5F809340048093620481E090E0ECCF91
:1005200061E0CE0101960E94E901F7CF815082314E
:1005300008F05AC0E82FF0E08827EE55FD4F8F4FA6
:100540000C94972CC202C602B402BA02BE02F40294
:10055000C902CF02D302D902DD02E102E702EB02B7
:10056000F402EF02F502F902809180008F77809308
:1005700080000895809180008F7DF9CF8091800068
:10058000877FF5CF84B58F7784BD089584B58F7D3F
:10059000FBCF8091B0008F778093B0000895809159
:1005A000B0008F7DF9CF809190008F77809390007D
:1005B0000895809190008F7DF9CF80919000877F82
:1005C000F5CF8091A0008F778093A000089580914F
:1005D000A0008F7DF9CF8091A000877FF5CF80911B
:1005E00020018F77809320010895809120018F7DD5
:1005F000F9CF80912001877FF5CF1F93CF93DF93B1
:10060000282F30E0F901E951FD4F8491F901EF55B0
:10061000FD4FD491F901E55AFD4FC491CC23A9F0C7
:10062000162F81110E949602EC2FF0E0EE0FFF1FB3
:10063000EF5BFD4FA591B4918FB7F894EC91111138
:1006400008C0D095DE23DC938FBFDF91CF911F913F
:100650000895DE2BF8CFFC0183858F3F19F061E010
:100660000C94FD020895FC0180819181892B39F061
:10067000A281B3819C9111968C919CBD8DBD838587
:100680008F3F19F060E00C94FD0208951092390438
:1006900081E0809338041092130461E084E10E94A9
:1006A000FD0261E085E10E94FD02E9EBF0E080815E
:1006B0008E7F808380818D7F808388E48093B800E3
:1006C00085E48093BC000895CF93DF9391E09093ED
:1006D000A9038823B9F0C091B800D091BA008091E5
:1006E000BC008A7B8093BC0060E084E10E94FD0234
:1006F00060E085E10E94FD020E944603D093BA00AB
:10070000C093B800DF91CF910895CF93DF9390E02D
:10071000FC01EF55FD4F2491855A9D4FFC018491BA
:100720008823C9F090E0880F991FFC01E95DFD4F17
:10073000A591B491FC01EF5BFD4FC591D49161117E
:100740000DC09FB7F8948C91209582238C9388815B
:10075000282328839FBFDF91CF910895623051F401
:100760009FB7F8943C91822F809583238C93E881E6
:100770002E2BEFCF8FB7F894EC912E2B2C938FBFAD
:10078000EACF8230910538F0880F991F880F991FA2
:1007900005970197F1F70895AF92BF92CF92DF923C
:1007A000EF92FF920F931F93CF93DF93EC01888119
:1007B0009981892B89F06EBD0DB407FEFDCFBEB4C3
:1007C0008B2DDF91CF911F910F91FF90EF90DF90D4
:1007D000CF90BF90AF9008958885998511E0892BBF
:1007E00009F010E8AA24A394862F812309F0A12CF4
:1007F000062F2C813D814E815F8160E271EA87E0A6
:1008000090E00E94522CF22EB02EE12CC22ED12C60
:10081000FF2019F0C6010E94C1038A85877F09F075
:1008200042C08D858F3F89F0902F912381E009F49C
:1008300080E08A1551F0EF85F8898F89992369F155
:100840009081892B8083AA24A394E989FA898081E5
:10085000998D892B8083FF2019F0C6010E94C10366
:100860008E858F3F39F0EB89FC898081988D8923B3
:1008700009F0E12AE989FA899081898D8095892397
:1008800080838E858F3F09F0BE2C88859985892BC2
:10089000B9F5110F1111BCCF93CF908180958923A9
:1008A0008083A12CD2CFE989FA898081998D892B07
:1008B0008083FF2019F0C6010E94C1038D858F3F00
:1008C00049F0EF85F8898F89902F9123A9F09081C5
:1008D000892B8083E989FA899081898D8095892384
:1008E00080838E858F3F69F2EB89FC898081988DAA
:1008F000892339F2E12AC5CF908180958923E9CFF8
:100900001695C8CF8F929F92AF92BF92CF92DF92EF
:10091000EF92FF920F931F93CF93DF937C014B01D4
:100920006A01B22EA32E0E943303E401C80CD91C25
:10093000CC15DD0569F4CB2DDA2D0C0F1D1FC0176A
:10094000D10759F06FEFC7010E94CC038993F7CF0D
:100950006991C7010E94CC03EBCFC7010E942B0312
:1009600081E0DF91CF911F910F91FF90EF90DF9089
:10097000CF90BF90AF909F908F9008958F929F924D
:10098000AF92BF92CF92DF92EF92FF920F931F939D
:10099000CF93DF937C01B62EA72E6A0149010E94F6
:1009A0003303E401080D191DC017D10761F4CB2DE5
:1009B000DA2DCC0EDD1ECC15DD0551F06991C70195
:1009C0000E94CC03F8CF6991C7010E94CC03ECCF01
:1009D000C7010E942B0381E0DF91CF911F910F91FE
:1009E000FF90EF90DF90CF90BF90AF909F908F904F
:1009F00008953FB7F8948091A5039091A603A09124
:100A0000A703B091A80326B5A89B05C02F3F19F0F6
:100A10000196A11DB11D3FBFBA2FA92F982F88277E
:100A2000BC01CD01620F711D811D911D42E0660F59
:100A3000771F881F991F4A95D1F708958F929F922B
:100A4000AF92BF92CF92DF92EF92FF920F931F93DC
:100A5000CF93DF93D0916204D13208F0D7C0182F22
:100A6000C09161040E94F9046B017C0180913904FA
:100A700081116BC082E080933904109338048FEFAA
:100A80008093370410923604D0933504A1E4B4E087
:100A9000E5E1F4E080E0D81391C010921404809155
:100AA0001404CC0FC82BC09314048091130481301C
:100AB00009F088C0109213040E94F9046B017C01B4
:100AC000809114048093BB0080913B0490913C047E
:100AD000A0913D04B0913E04892B8A2B8B2BA1F071
:100AE0000E94F90400913B0410913C0420913D04C4
:100AF00030913E046C197D098E099F09061717076E
:100B00002807390708F442C08091BC0083FDD8CF84
:100B100085EC8093BC000E94F9046B017C018091FC
:100B20003904823009F450C0809137048F3F09F4B2
:100B30006FC080913704803209F46CC08091370413
:100B4000803309F469C084E026C080913B04909111
:100B50003C04A0913D04B0913E04892B8A2B8B2B41
:100B600009F484CF0E94F90480903B0490903C04E7
:100B7000A0903D04B0903E046C197D098E099F0938
:100B800086169706A806B90608F070CF80913A0439
:100B90000E94640385E01092400410926204109257
:100BA0003F04DF91CF911F910F91FF90EF90DF9065
:100BB000CF90BF90AF909F908F9008959D9191930B
:100BC0008F5F69CF85EEA5CF80913B0490913C0467
:100BD000A0913D04B0913E04892B8A2B8B2B09F404
:100BE0009ECF0E94F90400913B0410913C04209197
:100BF0003D0430913E046C197D098E099F0906174A
:100C000017072807390708F08ACFC0CF81E0C3CF84
:100C100080E0C1CF82E0BFCF83E0BDCFCF93DF9331
:100C2000EC018B818823A1F0888191E090933F04AF
:100C300080936104109240041092620481E00E944B
:100C40001E0591E0811190E0892FDF91CF910895E9
:100C50001092F2031092F103109240041092620479
:100C60000E94460387EE91E09093EE038093ED039C
:100C700088EE91E09093F0038093EF0381E08B8303
:100C8000CE010E940E06982F8111CECFDDCFCF93DB
:100C9000DF93EA0191E090933F0480936104109206
:100CA00040041092620483E694E00E946702688127
:100CB00083E694E00E94670281E00E941E0591E0B5
:100CC000811190E0892FDF91CF9108951F93CF93E9
:100CD000DF93EA01122FDC0111968D919C91DC01CA
:100CE000ED91FC910280F381E02D1995C817D90789
:100CF00029F4812F0E941E0591E0811190E0892F37
:100D0000DF91CF911F910895CF92DF92EF92FF92E2
:100D10000F931F93CF93DF931F921F92CDB7DEB730
:100D2000FC014787508B618B728B8285882371F120
:100D30004487452F562F672F7727882349F143870C
:100D40007F018BE0E80EF11C9681878199838A836D
:100D5000C080D180C114D10409F443C0018510E0E2
:100D600098012E5F3F4FD60114968D919C9182176A
:100D7000930780F480E00F900F90DF91CF911F9147
:100D80000F91FF90EF90DF90CF9008954387D1CFE0
:100D90004487D6CFF60181819281208131E0309362
:100DA0003F042093610410924004109262040115E4
:100DB000110541F421E042E050E0B701C6010E9474
:100DC0006606D9CFDC01ED91FC910280F381E02D24
:100DD000A801BE016F5F7F4F19950817190751F6DB
:100DE000E9CFA281B381109729F224813581018551
:100DF00010E02330310579F48E7F89839A830F5F69
:100E00001F4F9E012F5F3F4F42E050E0B701CD01E1
:100E10000E94BE04B0CF2115310519F49F77998344
:100E2000F0CF2230310511F49068F9CF213031052F
:100E300041F79F779064F3CF8F929F92AF92BF92CA
:100E4000CF92DF92EF92FF920F931F93CF93DF9396
:100E5000D82FC62F142F613208F09CC00E94F904CD
:100E60006B017C018091390481116FC081E0809316
:100E70003904109338049FEF90933704109236048E
:100E80009C0F909335048093140480911404DD0F1B
:100E9000D82BD093140480911304813009F07CC0C6
:100EA000109213040E94F9046B017C0180911404D8
:100EB0008093BB0080913B0490913C04A0913D0441
:100EC000B0913E04892B8A2B8B2BA1F00E94F90450
:100ED00000913B0410913C0420913D0430913E046C
:100EE0006C197D098E099F0906171707280739070E
:100EF00008F44CC08091BC0083FDD8CF85EC809372
:100F0000BC000E94F9046B017C018091390481309E
:100F100009F444C0809136048C1710F4C091360453
:100F2000E5E1F4E0A3EFB3E080E08C1359C08C2F2F
:100F3000DF91CF911F910F91FF90EF90DF90CF90B5
:100F4000BF90AF909F908F90089580913B049091B7
:100F50003C04A0913D04B0913E04892B8A2B8B2B3D
:100F600009F480CF0E94F90480903B0490903C04E7
:100F7000A0903D04B0903E046C197D098E099F0934
:100F800086169706A806B90608F06CCF80913A0439
:100F90000E946403C0E0CBCF85EEB1CF80913B04CB
:100FA00090913C04A0913D04B0913E04892B8A2B82
:100FB0008B2B09F4AACF0E94F90400913B041091F5
:100FC0003C0420913D0430913E046C197D098E094A
:100FD0009F09061717072807390708F096CFD6CFBD
:100FE00091919D938F5FA1CF2FB7F8946091A1034A
:100FF0007091A2038091A3039091A4032FBF089541
:1010000081E080939E0308950895089508950895BA
:10101000AF92BF92CF92DF92EF92FF920F931F9306
:10102000CF93DF936C017B018B01040F151FEB0144
:101030005E01AE18BF08C017D10759F06991D601FB
:10104000ED91FC910190F081E02DC6011995892B5D
:1010500079F7C501DF91CF911F910F91FF90EF902C
:10106000DF90CF90BF90AF90089590E080E008951A
:10107000FC01538D448D252F30E0842F90E0821B9E
:10108000930B541710F0CF96089501970895FC0123
:10109000918D828D981761F0A28DAE0FBF2FB11D7B
:1010A0005D968C91928D9F5F9F73928F90E00895D3
:1010B0008FEF9FEF0895FC01918D828D981731F08D
:1010C000828DE80FF11D858D90E008958FEF9FEFE1
:1010D0000895FC01918D228D892F90E0805C9F4FB7
:1010E000821B91098F73992708958FE694E00E94DF
:1010F000690821E0892B09F420E0822F0895FC0182
:10110000A48DA80FB92FB11DA35ABF4F2C91848D68
:1011100090E001968F739927848FA689B7892C93C5
:10112000A089B1898C91837080648C93938D848D18
:10113000981306C00288F389E02D80818F7D80831B
:101140000895EF92FF920F931F93CF93DF93EC01DB
:1011500081E0888F9B8D8C8D98131AC0E889F9895E
:10116000808185FF15C09FB7F894EE89FF89608361
:10117000E889F98980818370806480839FBF81E0E2
:1011800090E0DF91CF911F910F91FF90EF90089524
:10119000F62E0B8D10E00F5F1F4F0F731127E02EFF
:1011A0008C8D8E110CC00FB607FCFACFE889F98937
:1011B000808185FFF5CFCE010E947F08F1CFEB8DB6
:1011C000EC0FFD2FF11DE35AFF4FF0829FB7F8940B
:1011D0000B8FEA89FB8980818062CFCFCF93DF9329
:1011E000EC01888D8823B9F0AA89BB89E889F9893F
:1011F0008C9185FD03C0808186FD0DC00FB607FC74
:10120000F7CF8C9185FFF2CF808185FFEDCFCE01A6
:101210000E947F08E9CFDF91CF91089581E080930C
:101220009F0308950E947508882319F081E0809338
:101230009F0380E090E0892B49F080E090E0892BCB
:1012400029F00E94000081110E94000080E090E0DF
:10125000892B49F080E090E0892B29F00E94000062
:1012600081110E94000080E090E0892B49F080E02D
:1012700090E0892B29F00E94000081110C9400005D
:1012800008950F931F93CF93DF93EC010E94F4070F
:101290000E811F812885398506171707280739070A
:1012A000B8F58A858823A1F18B859C85AD85BE859F
:1012B000892B8A2B8B2B61F1E881F98119958B851C
:1012C0009C85AD85BE85181619061A061B0684F482
:1012D0008F859889A989BA890197A109B1098F8752
:1012E000988BA98BBA8B892B8A2B8B2B09F41A86A6
:1012F0000E94F4070A811B812C813D81DC01CB0116
:10130000800F911FA21FB31F8E839F83A887B98769
:10131000DF91CF911F910F9108958F929F92AF927D
:10132000BF92CF92DF92EF92FF920F931F93CF93D2
:10133000DF93EC016A017B0120E030E04FE753E4EA
:10134000CB01B6010E94892B4B015C0120E030E00B
:10135000A9010E94B42D18168CF5C501B4010E9494
:101360007E2D8B01B98020E030E0A901C701B601D4
:101370000E94B42D60E018160CF061E08B2D0E94E5
:10138000FD020F3F110509F0ECF41127C88161E05F
:101390008C2F0E94850301151105B9F460E08C2F94
:1013A000DF91CF911F910F91FF90EF90DF90CF9041
:1013B000BF90AF909F908F900C94FD02C501B40137
:1013C0009058CDCF0FEF10E0E1CF0F3F110511F492
:1013D00061E0E5CFEC2FF0E0E951FD4FE491E15001
:1013E000E23108F0BCC0F0E08827E650F64F8F4F9E
:1013F0000C94972C0C0A1D0A220A2C0A360AAF0AF2
:10140000400A480A500A5A0A640A6E0A7D0A870A84
:10141000AF0A910A9B0AA50A84B5806884BD07BDFE
:10142000DF91CF911F910F91FF90EF90DF90CF90C0
:10143000BF90AF909F908F90089584B5806284BDD7
:1014400008BDEECF8091800080688093800010936B
:10145000890000938800E4CF8091800080628093AF
:10146000800010938B0000938A00DACF8091800077
:1014700088608093800010938D0000938C00D0CF03
:101480008091B00080688093B0000093B300C8CF13
:101490008091B00080628093B0000093B400C0CF10
:1014A0008091900080688093900010939900009341
:1014B0009800B6CF80919000806280939000109346
:1014C0009B0000939A00ACCF80919000886080933D
:1014D000900010939D0000939C00A2CF8091A000EB
:1014E00080688093A0008091A0008F7B8093A000F3
:1014F0001093A9000093A80093CF8091A000806270
:101500008093A0001093AB000093AA0089CF809134
:10151000A00088608093A0001093AD000093AC0001
:101520007FCF809120018068809320011093290152
:101530000093280175CF8091200180628093200163
:1015400010932B0100932A016BCF809120018860BA
:101550008093200110932D0100932C0161CF00385E
:1015600011050CF035CF1ACF8EBD00000DB407FE6B
:10157000FDCF8EB508956F3FB1F0E62FE295EF7085
:1015800044E0E49F90011124DC01ED91FC91E20F15
:10159000F31F6F70B8E06B9FC001112462817381EB
:1015A000860F971F089590E080E00895982F80336C
:1015B0006CF08A3324F08F3524F08B3724F481E0EB
:1015C000089581341CF081E09B350CF080E0089593
:1015D000CF93DF93EC0188819981DC01ED91FC913F
:1015E0000190F081E02D19952A813B81820F931F94
:1015F0009B838A83DF91CF910895CF93DF93EC0192
:1016000088819981DC01ED91FC910280F381E02DCC
:1016100019952A813B81820F931F9B838A83DF91D7
:10162000CF9108958F929F92AF92BF92CF92DF9207
:10163000EF92FF920F931F93CF93DF93CDB7DEB757
:1016400066970FB6F894DEBF0FBECDBF6C018E015A
:10165000095E1F4F78018AE0882E912CA12CB12CB5
:10166000CB01BA01A50194010E94522C942F852F21
:10167000605DF80162938F01A901692F782F4115F0
:1016800051056105710561F7A7014E1B5F0BBF0195
:10169000C6010E94FD0A66960FB6F894DEBF0FBE23
:1016A000CDBFDF91CF911F910F91FF90EF90DF9011
:1016B000CF90BF90AF909F908F900895CF92DF9280
:1016C000EF92FF920F931F93CF93DF93EC018A85E4
:1016D000811130C00F8118850E94F407D801189637
:1016E0006D937D938D939C931B97D801ED91FC9105
:1016F0000284F385E02DC801199597FF25C00E944B
:10170000F407F801C084D184E284F3846C197D0964
:101710008E099F09C480D580E680F7806C157D0511
:101720008E059F0510F38FEF9FEF97FD80E089876F
:1017300081E08A878985DF91CF911F910F91FF907A
:10174000EF90DF90CF9008959927EFCF1F93CF931D
:10175000DF93EC01162F0E945E0B811306C01A86E0
:1017600081E0DF91CF911F91089580E0FACF0F9330
:101770001F93CF93DF938C01EB018991882369F04C
:10178000C8010E945E0B882379F0FE013197908199
:1017900098130DC0F8011286F0CF90E080E0DF9141
:1017A000CF911F910F91089582E090E0F8CF83E0F0
:1017B00090E0F5CFCF93DF93EC01CE010E945E0B5A
:1017C0008B304CF489305CF4882359F081E08E83AF
:1017D00090E080E00BC08D3011F08032B9F71A86AE
:1017E000ECCF8E81811105C081E090E0DF91CF9137
:1017F000089582E090E0FACFCF93DF932091970392
:1018000030E0F901E951FD4F8491F901EF55FD4FA9
:10181000D491F901E55AFD4FC491CC2321F18111F6
:101820000E949602EC2FF0E0EE0FFF1FE452FE4FF5
:10183000A591B491EC91ED23B1F080919803909132
:101840009903A0919A03B0919B030196A11DB11D2C
:101850008093980390939903A0939A03B0939B036A
:10186000DF91CF9108958091980390919903A09171
:101870009A03B0919B030197A109B109E9CF4F9257
:101880005F926F927F928F929F92AF92BF92CF9210
:10189000DF92EF92FF920F931F93CF93DF93EB01B1
:1018A000DC012C912B32D9F12D32D1F50196FF2498
:1018B000F394FC01208130ED320F3A3018F02E32D3
:1018C00009F042C18C0160E070E0CB01F801219188
:1018D00030ED832E820E39E0381520F16A3949E95E
:1018E0007407840749E1940738F5AAE0B0E09B014A
:1018F000AC010E94472C912CB12CA12C2401350164
:101900004094509460947094461657066806790681
:1019100098F0680D791D8A1D9B1D8F01D7CF019608
:10192000F12CC7CF211108C0FF20E9F1613071050A
:10193000810550E89507A0F0E12CBAE08B2E912CA0
:10194000A12CB12C6115710530E883079105B0F128
:10195000A50194010E94522CCA01B901E394F2CF6F
:101960002C8120782A602C839B01AC018827992741
:10197000DC01821B930BA40BB50B88839983AA838C
:10198000BB838F2DDF91CF911F910F91FF90EF902F
:10199000DF90CF90BF90AF909F908F907F906F908F
:1019A0005F904F9008952C81207828602C83688365
:1019B00079838A839B83FF24F394E3CFF801D801D2
:1019C0002D918D0130ED320F3A3010F4E394F6CFC3
:1019D0002E3201F58F010F5F1F4FF8010F5F1F4F70
:1019E0002081A0EDDA2ED20EB9E0BD1598F06C3C46
:1019F000ECEC7E07ECE08E07910578F7AAE0B0E00A
:101A00009B01AC010E94472C6D0D711D811D911D24
:101A1000EA94E3CF20812F7D10E000E0253409F027
:101A20005BC021812D32D1F53296CC24C394DF01E5
:101A300010E000E02E2D0E2C000C330B5AE0B52EDA
:101A4000FD01DD9040ED4D0D4A3008F040C0B09EE4
:101A5000A001B19E500D11240D2DDD0C110B005372
:101A60001109040F151FA801420F531F47325105DA
:101A70003CF38C81CC20C9F040E050E060E070E89D
:101A8000F11003C040E050E0BA0180788C608C8394
:101A9000488359836A837B83FC2C73CF2B3219F0E4
:101AA0003196C12CC4CF3296FCCF40E050E060E8C4
:101AB0007FEFF11004C040E050E060E87FE78078FD
:101AC0008C608C83488359836A837B8374CFCC205A
:101AD00019F01195019511092081211135C00E0DC4
:101AE000111DE7FC1A950E94282B3EE0C32E32E020
:101AF000D32E101611063CF011950195110946EFF1
:101B0000C42E41E0D42EE12C0115110591F000FF07
:101B10000CC024E0E29EF0011124EC0DFD1D259186
:101B20003591459154910E94892B15950795E39421
:101B3000EBCFF11090582C8120782C602C83688397
:101B400079838A839B8337CFF12C1BCFCF93DF938D
:101B500000D01F921F92CDB7DEB7FC0194819F7712
:101B6000963091F030F4943020F560E070E0CB01D5
:101B700011C09A30B9F09C3051F19830B1F76081C2
:101B800071818281938104C0608170E090E080E087
:101B90000E94282B0F900F900F900F900F90DF91C5
:101BA000CF91089560817181828193810E942A2B57
:101BB000F1CF808191811D82BE016F5F7F4F0496BE
:101BC0000E943F0CCE0101960E94A60DE3CF6081DA
:101BD000718182819381DECFFC019289915084E0F2
:101BE000989F90011124A089B189A20FB31F12966A
:101BF000ED91FC9113973097E9F011962C91119784
:101C00008C912817B8F481E0820F11968C9388E0AC
:101C1000289FA0011124E40FF51F309759F014827A
:101C20008FEF858317821682BF01892F8295807F6F
:101C3000820F089560E070E08FEF0895DF92EF92D9
:101C4000FF920F931F93CF93DF93EC017B01D12C75
:101C5000688979898A89D816E0F484E0D89E800161
:101C60001124060F171FD80112966D917C916115F2
:101C7000710541F0D701ED91FC910280F381E02DD7
:101C8000C7011995F8011382128210821182D39430
:101C9000DFCF1A8A8FEF8C8BC617D70761F0D70179
:101CA000ED91FC910280F381E02DC7011995D98B4C
:101CB000C88B84E08B8BDF91CF911F910F91FF90A8
:101CC000EF90DF900895DB01ED91FC911197028078
:101CD000F381E02DBC01CD0119940F931F93CF9395
:101CE000DF93EC01088119818B819C81009749F079
:101CF000FC01208131813C832B83B8010E94630E5B
:101D0000F3CF68817981CE010596DF91CF911F9144
:101D10000F910C941E0ECF93DF93EC01E881F981B3
:101D2000B0E0A0E03097F9F09F012C5F3F4F6217C1
:101D30007307A1F4928191509283911114C0808114
:101D40009181109741F08D939C93BA01CF01DF915F
:101D5000CF910C94630E99838883F7CFDF010190B4
:101D6000F081E02DDFCFDF91CF9108958F929F9288
:101D7000AF92BF92CF92DF92EF92FF920F931F9399
:101D8000CF93DF938C01EB01FC01848180FF0AC0BB
:101D900048815981608171816C5F7F4FCE010396CC
:101DA0000E948B0EF8018481807681F10115110566
:101DB00069F1D0805E01F5E1AF0EB11C4E0183E008
:101DC000880E911CEFEFDE16F1F06D2DC5010E941B
:101DD000BB0A7C01FC01C580848187FF07C0488164
:101DE000598166817781C4010E948B0EBE01C701B3
:101DF0000E94B60EF701848180788483898D858363
:101E0000D98EDC2CDFCFF801D082D182DF91CF9147
:101E10001F910F91FF90EF90DF90CF90BF90AF9008
:101E20009F908F900895EF92FF920F931F93CF93FF
:101E3000DF937C018B01EA016F3F710509F0B0F47B
:101E4000E881F9810480F581E02DAB014B5F5F4FA4
:101E5000BC01CE011995009749F0FC010383DF9185
:101E6000CF911F910F91FF90EF900895E881F98134
:101E70000280F381E02DB701CE01199590E080E05A
:101E8000EECFFF920F931F93CF93DF93EC01F62ECB
:101E90008A819B810097C9F06C817D81FC0123813F
:101EA0002617170691F408811981F80140815181A4
:101EB000660F771F6F5F7F4F0E94130F009719F413
:101EC00021E0F80122839B838A838A819B8100978A
:101ED00059F02C813D81A9014F5F5F4F5D834C8399
:101EE000820F931FFC01F482DF91CF911F910F911C
:101EF000FF9008959F92AF92BF92CF92DF92EF92A0
:101F0000FF920F931F93CF93DF9300D01F921F92E6
:101F1000CDB7DEB78C010E945E0BD82EF801128679
:101F2000F12CE12C60EFC62EC8010E945E0BF80177
:101F30001286D81609F4B3C0811113C082E090E074
:101F40000F900F900F900F900F90DF91CF911F91F6
:101F50000F91FF90EF90DF90CF90BF90AF909F9048
:101F600008958C3509F099C0C8010E945E0B882342
:101F700029F3E1E6F2E0853709F083C0F801128623
:101F800054E0952EB12CA12CC8010E945E0B882331
:101F9000A9F2813434F48053803130F083E090E052
:101FA000CFCF8F7D8753F8CF44E0AA0CBB1C4A9556
:101FB000E1F7A82AF80112869A949110E5CFC5019D
:101FC000985D8115944020F47501F3E0FF22ACCFB9
:101FD000C5019C5D81159440A8F483E0B822B70147
:101FE000762F6627770F770F6A297B2990E080E0AC
:101FF0000196603871058105910540F4C8010E9481
:10200000410F92CFB50190E080E0F3CF1982262FE7
:102010002F7320682A8326E0969587957795679594
:102020002A95D1F76032710580F4606C6B835E0194
:10203000E4E0AE0EB11CF50162915F01662309F484
:1020400073CFC8010E94410FF6CF262F2F7320684F
:102050002B8386E0769567958A95E1F76031710567
:1020600038F4606E6C835E01F5E0AF0EB11CE3CF17
:1020700060686C83CD825E0126E0A20EB11CDBCFCE
:1020800032969081992309F489CF8913F9CF818100
:10209000882309F483CFF8011286682FAFCF82819D
:1020A0009381892B19F484E090E04ACF90E080E09E
:1020B00047CFAF92BF92CF92DF92EF92FF920F93F2
:1020C0001F93CF93DF93DC011296ED91FC91139750
:1020D00014968D919C911597E80FF91F14820D911C
:1020E0001C91119714966D917C91159712968D9174
:1020F0009C9113979C012C5F3F4FE801EB81FC8181
:102100007B01E20EF31E3097B9F0438146171706A4
:1021100079F45901AF014C5F5F4FEA14FB0499F168
:10212000E501C9905E01EA01D990AE01CD14A9F391
:102130000190F081E02DE7CFED01F8014081518160
:102140000E94130FFC01892B21F481E0D801129623
:102150008C93A881B98113968D919C91149791834A
:1021600080831496FC93EE9313971B821A82CF01FF
:10217000DF91CF911F910F91FF90EF90DF90CF9063
:10218000BF90AF90089582818F5F8283F0CF2F92AE
:102190003F924F925F926F927F928F929F92AF92F7
:1021A000BF92CF92DF92EF92FF920F931F93CF9344
:1021B000DF9300D01F921F92CDB7DEB7B82E962EB8
:1021C0004D8319010E94F4076B017C018D801982F7
:1021D0001C82282D30E03B832A832801712C612C3E
:1021E00081E080933F04B092610410924004109209
:1021F0006204692D83E694E00E94670281E00E94F8
:102200001E0591E090933F041092400410926204E6
:1022100041E0682D8B2D0E941C07A82E1092F2031E
:102220008093F1038091F203A816E1F001151105E6
:1022300071F483E694E00E942002F1012C81E20F08
:10224000F11D27FDFA9580832F5F2C83EBCF0E9431
:10225000F4076C197D098E099F09641575058605BB
:10226000970538F381E00E941E0589813D81830F27
:10227000831A91E09983831708F4B2CF01151105F1
:10228000C1F00E94F4076C197D098E099F0930E0A6
:1022900020E0601771078207930758F02C81822F86
:1022A000220F990B2A813B818217930714F43FEF89
:1022B0003C838C810F900F900F900F900F90DF91C7
:1022C000CF911F910F91FF90EF90DF90CF90BF9033
:1022D000AF909F908F907F906F905F904F903F90C6
:1022E0002F900895BF92CF92DF92EF92FF920F93BB
:1022F0001F93CF93DF931F921F92CDB7DEB7F82EB7
:10230000E62EC42EB22ED02E08EE13E09E012E5FD4
:102310003F4F41E00E94C710882399F18C2D8B1903
:10232000990BAC014F5F5F4F81E090E002C0880FD6
:10233000991FBA94E2F70197042E01C0880F0A94FE
:10234000EAF70D2D01C0000F4A95EAF7982F9095F6
:102350002A8192238023892B8A838983AE014F5F50
:102360005F4F6E2D8F2D0E9447060F900F90DF91CB
:10237000CF911F910F91FF90EF90DF90CF90BF9082
:10238000089580E0F2CF2F923F924F925F926F922A
:102390007F928F929F92AF92BF92CF92DF92EF92F5
:1023A000FF920F931F93CF93DF931F921F92CDB78E
:1023B000DEB77C013B014C018BE0880E911CD701FC
:1023C00016969C91169717968C91179799838A83E6
:1023D000CD90DC901197C114D10409F487C01996EF
:1023E0004C9150E0F6018481958184179507A8F0FF
:1023F000808191E090933F048093610410924004A7
:102400001092620420E0BE016F5F7F4FC6010E9400
:102410006606B12CA12C811116C080E00F900F90A0
:10242000DF91CF911F910F91FF90EF90DF90CF90B0
:10243000BF90AF909F908F907F906F905F904F90E4
:102440003F902F900895D60114968D919C9102E0B3
:1024500010E00A191B098017910708F48C0141E06C
:1024600082E090E0801B910BA816B90608F440E0CA
:10247000602FF60180810E941C071092F203809366
:10248000F1038017110649F624014A0C5B1C120166
:10249000C101841995098017910778F4D601119626
:1024A0008D919C91DC01ED91FC910284F385E02DEE
:1024B0001995F10181931F01EBCFA00EB11EF2E03F
:1024C000AF16B10408F4BFCFF7018285811140C077
:1024D000848590E0982F8827D30111969C938E9342
:1024E0002385822B8D939C9381E098CF1296ED915A
:1024F000FC911397309709F490CF14962D913C914D
:10250000159719964C9150E02330310589F481607C
:1025100089839A834F5F5F4F02E010E09401BE0110
:102520006F5F7F4FCF010E9482048111CDCF76CFA4
:102530002115310519F490689983EECF22303105C9
:1025400011F49F77F9CF2130310531F7906CF4CF3A
:10255000838590E0982F8827D30111969C938E93C2
:102560002485BFCF40E050E0BA0185ED95E00E94A0
:102570008D0940E050E060E070E887ED95E00E9452
:102580008D091092530510929C030895FC0101904F
:102590000020E9F73197AF01481B590BBC018FE6CA
:1025A00094E00C940808DF92EF92FF920F931F9330
:1025B000CF93DF936115710561F460E070E08FEFF8
:1025C0009D2DDF91CF911F910F91FF90EF90DF90A4
:1025D00008958A01EB01DC01FC900B5E1F4F6F2D0B
:1025E000C8010E94BB0A009741F3FC01E5800097F7
:1025F00021F30680F781E02DDE010D900020E9F740
:102600009D01215031092C1B3D0BB0E0A0E030971B
:1026100039F0DF010D900020E9F71197AE1BBF0BD9
:102620002A173B0751F4DE012C0F3D1FA217B307F9
:1026300069F05D9141915417C9F36E2DC8010E9454
:10264000BB0A009709F4B9CFFE2CCFCFBC018F2D68
:10265000DE2CB6CFFC014081518162817381CA01B9
:102660004A9641F0FA01268D25FF04C00E94D3123C
:10267000CB01089590E080E00895FF920F931F939F
:10268000CF93DF93FC01C181D28105811681019630
:102690000E942A130097E1F0FC01248126FF18C054
:1026A00065966081CE010E94BB0A009789F0FC010B
:1026B000F58001151105A9F06F2DCE010E94BB0A0E
:1026C000009711F0FC01F58001501109009789F77E
:1026D00060E070E0CB01DF91CF911F910F91FF90EF
:1026E0000895DF91CF911F910F91FF900C94A60D4B
:1026F000FB0101900020E9F73197AF01461B570B12
:102700000C94FD0A1F93CF93DF93E1E6F2E0128170
:10271000112379F0329621816213F9CFEC016CE537
:102720000E94E80A612FCE01DF91CF911F910C9496
:10273000E80A6111F9CF62E772E0DF91CF911F9152
:102740000C947813CF92DF92EF92FF920F931F9326
:10275000CF93DF938C016B017A0162E20E94E80A59
:10276000E601EC0CFD1CCE15DF0529F06991C801CE
:102770000E948213F8CF62E2C801DF91CF911F91CE
:102780000F91FF90EF90DF90CF900C94E80A2F927A
:102790003F924F925F926F927F928F929F92AF92F1
:1027A000BF92CF92DF92EF92FF920F931F93CF933E
:1027B000DF93CDB7DEB76C970FB6F894DEBF0FBED0
:1027C000CDBF8C011B01DC0114968C9114978F777F
:1027D000883009F4B2C2E8F4843009F469C248F4DC
:1027E000833009F49FC269E772E0C1010E94781347
:1027F0001CC2853009F470C28630A9F78C916EE74F
:1028000072E0811102C063E872E0C1010E94781396
:102810006DC28C30F1F1C8F48A3029F7CD90DD908B
:10282000ED90FC90B701A601F7FE0BC06DE2C1016F
:102830000E94E80A44275527BA014C195D096E0920
:102840007F09C1010E94120B51C2803209F4F7C105
:10285000803449F66BE5C1010E94E80AF801108155
:102860001F3F09F4E7C1D10114968D919C91612F0E
:1028700045960E94BB0A8C01B1010E94C713F80162
:1028800015811F3F09F4D6C16CE2C1010E94E80A1C
:10289000E7CFF801C080D180E280F380A7019601E4
:1028A000C701B6010E94232B81119DCF20E030E0AB
:1028B000A901C701B6010E94232B882379F0A70143
:1028C0009601C701B6010E94A02C9B01AC01C70173
:1028D000B6010E94232B882309F485CF20E030E045
:1028E000A901C701B6010E94232B87FF08C06DE232
:1028F000C1010E94E80AF7FAF094F7F8F09420E892
:1029000036E948E15BE4C701B6010E94B42D87FDBA
:1029100088C074E1A72EB12C00E210E0188E1F8A47
:10292000F501E25FFD4F2591359145915491C70125
:10293000B6010E94B42D87FD13C0F501EA50FE4F89
:102940002591359145915491C701B6010E94892B7B
:102950006B017C012F89388D200F311F388F2F8B11
:102960001595079534E0A31AB1088CEFA8168FEFE0
:10297000B806B1F655245A9420E030E0A901C70109
:10298000B6010E94B42D18160CF052C02CEA35EC9A
:1029900047E257E3C701B6010E94232B18160CF437
:1029A00047C0A52DB4E0AB02C0011124B12CA12C6D
:1029B000FC01EA50FE4F3F019C01225F3D4F49015F
:1029C0003FEF531609F434C0F301EA0DFB1D659186
:1029D00075918591949120E030E040E251E40E94AD
:1029E000892BA70196010E94B42D18169CF4F401BE
:1029F000EA0DFB1D2591359145915491C701B60112
:102A00000E94892B6B017C018F89988D801B910B13
:102A1000988F8F8B159507955A9494E0A91AB10851
:102A2000CFCF00E210E055E0552E188E1F8AA4CFBC
:102A3000C701B6010E94852D4B015C012B013C01B1
:102A400006E080E492E4AFE0B0E0898F9A8FAB8F2C
:102A5000BC8F102F01509AE0491651046104710493
:102A6000C8F0698D7A8D8B8D9C8D2AE030E040E036
:102A700050E00E94522C298F3A8F4B8F5C8FC301FC
:102A8000B2012AE030E040E050E00E94522C2901DF
:102A90003A01DFCFC501B4010E94282B9B01AC0194
:102AA000C701B6010E949F2C6B017C01698D7A8D54
:102AB0008B8D9C8D0E94282B9B01AC01C701B60118
:102AC0000E94892B2B013C010E94852D6B017C010A
:102AD0000E94282B9B01AC01C301B2010E949F2CD4
:102AE0009B01AC010E94A02C0E94852DC60ED71E12
:102AF000E81EF91E898D9A8DAB8DBC8DC816D9063E
:102B0000EA06FB06D8F09FEF891A990AA90AB90AC2
:102B1000AF89B88DAB2B39F1BAE08B169104A104C3
:102B2000B10408F1EF89F88D3196F88FEF8BC12C45
:102B3000D12C7601812C912C540183942AE0422ED1
:102B4000512C612C712CC701B601A30192010E9486
:102B5000522C672B682B692B51F4111644F4690130
:102B60007A011150F0CFC12CD12C7601E7CFB501FD
:102B7000A401C1010E94120B112371F14E01F1E178
:102B80008F0E911C012F54019AE0492E512C612C7B
:102B9000712C015068F0C701B601A30192010E9497
:102BA000522C605DD4016E934D0169017A01F1CF21
:102BB000812F90E0BC0160957095F501E81BF90B41
:102BC00031978EE2808344275527461B570B6A0DA9
:102BD0007B1DC1010E94FD0AEF89F88DEF2B29F1C1
:102BE00065E6C1010E94E80A0F89188D17FF07C02A
:102BF0006DE2C1010E94E80A119501951109FE01DB
:102C000077969F018AE0E82EF12CC801B7010E9457
:102C1000832C805D82938B01672BB9F7A9014E1B32
:102C20005F0BBF01C1010E94FD0AD10112968D9177
:102C30009C915FC06DE5C1010E94E80AF6CF6BE789
:102C4000C1010E94E80AF80110811F3F79F1D1010A
:102C500014968D919C91612F45960E94BB0A8C0120
:102C6000FC01C680D78062E2C1010E94E80A7601B9
:102C7000D7016D917D01662321F0C1010E9482136D
:102C8000F7CF62E2C1010E94E80A6AE3C1010E9433
:102C9000E80AB101C8010E94C713F80115811F3F5E
:102CA00029F06CE2C1010E94E80ACFCF6DE7C3CFE3
:102CB000F8016081718150E040E06115710541F0DB
:102CC000FB0101900020E9F73197AF01461B570B3C
:102CD000C1010E94A213A9CFED91FC91438150E064
:102CE000BF016C5F7F4FC1010E94A213F10182817D
:102CF00093816C960FB6F894DEBF0FBECDBFDF9107
:102D0000CF911F910F91FF90EF90DF90CF90BF90E8
:102D1000AF909F908F907F906F905F904F903F907B
:102D20002F900895ED91FC91438150E0BF016C5FBD
:102D30007F4FC1010E94FD0AD9CF4D915D916D91E8
:102D40007C917FCD85ED8093BC0080913B04909178
:102D50003C04A0913D04B0913E040796A11DB11D15
:102D600023E0B695A795979587952A95D1F7209159
:102D7000BC0024FD03C010923904089540913B0427
:102D800050913C0460913D0470913E04452B462BCC
:102D9000472B69F30097A105B10541F025E32A957A
:102DA000F1F700000197A109B109E1CF80913A0440
:102DB0000C946403CB010C94B92DCB010C94552ECB
:102DC0008F929F92AF92BF92CF92DF92EF92FF923B
:102DD0000F931F93CF93DF936C018B01DB01599607
:102DE000FC90BFEFFB1621F16F2DC80145960E94A4
:102DF000BB0AEC018D81F801818F209709F496C000
:102E00001C828FEF8D831F821E82D60111966C91DA
:102E10006F3F09F49FC0C80145960E94BB0AFC01A0
:102E2000F582D6011196FC92BE018F2D9D8084C043
:102E30005B01F5E0AF0EB11CDB01ED90FC9011974A
:102E400057968C91882349F0C5010E94EC0DC62F3E
:102E5000D72F209711F0F82ED8CFF801C789908D81
:102E6000C91325C0C03109F461C0CC0F65897689CA
:102E7000D701ED91FC91B4E0CB9FA0011124A616DF
:102E8000B70609F04BC00190F081E02DBA01C701EF
:102E90001995009709F44AC020E1F501DC01019081
:102EA0000D922A95E1F7F801968B858BC08FD8019A
:102EB0005596CD91DC91569757968C91579721E076
:102EC000280F57962C93B4E08B9FC0011124C80F94
:102ED000D91F90E1892E203111F48FE0882EE8E08F
:102EE0008E9EB0011124D701ED91FC910190F081EB
:102EF000E02DC70119959B838A83892B09F4812CC6
:102F000088821982CD2B91F0C5010E94EC0DC62F4D
:102F1000D72FF82E209709F078CF08C00480F581CC
:102F2000E02DC7011995009709F0BDCF81E0F801A8
:102F3000828360E070E08FEF992DDF91CF911F9138
:102F40000F91FF90EF90DF90CF90BF90AF909F9048
:102F50008F900895F601F082F18266CF8F929F9252
:102F6000AF92BF92CF92DF92EF92FF920F931F9397
:102F7000CF93DF93EC018B01D42E0E94DA0B7C01FE
:102F8000892B09F047C0CE010E945E0B863609F4FA
:102F900052C124F5873229F08B3561F1823209F074
:102FA00053C11D821C828A819B81892B31F48881C7
:102FB00099810E94CC019B838A83CE010E947A0F63
:102FC0007C01892B39F5CE010E945910F80124812A
:102FD000207825602483918380831CC0843709F482
:102FE00012C18B3709F45BC08E3609F02DC169E739
:102FF00072E012C1F80184818078806484830115B5
:10300000110519F08FEF80838183D11011C025E065
:10301000E22EF12CC701DF91CF911F910F91FF900C
:10302000EF90DF90CF90BF90AF909F908F900895DA
:103030001A86CE010E94DA0B009709F085C06DE573
:10304000CE010E94A60B8111E5CFDA946B857C85B9
:10305000C8010E94E0166115710521F484E0E82E94
:10306000F12CD8CF4D2DCE010E94AE17009709F05C
:103070006BC0CE010E94DA0B009709F065C06DE5C8
:10308000CE010E94A60B8111C5CF6CE2CE010E9439
:10309000A60B8111DBCF93E0E92EF12CBBCFF80119
:1030A00084818078806284830115110519F08FEF87
:1030B00080838183DD2009F4AACF1A86CE010E9485
:1030C000DA0B009709F040C06DE7CE010E94A60B15
:1030D0008111A0CFBB24BA94BD0C1D821C828A81B1
:1030E0009B81892B31F4888199810E94CC019B833B
:1030F0008A83CE010E945E0B8732E1F08232D1F0EA
:10310000CE010E945E0BD82E0E94D60A882319F2A7
:103110001A866D2DCE010E94410FCE010E945E0BDA
:10312000D82E0E94D60A8111F3CF8A819B81892BE8
:1031300031F494CFCE010E947A0F009729F4CE018A
:103140000E94DA0B009711F07C0164CF6AE3CE0194
:103150000E94A60B882309F49ECFEA81FB818C8113
:103160009D81E80FF91F14824B855C856A817B8104
:103170006C5F7F4FC8010E94D312CB016B01672B9C
:10318000C9F5CE010E9459104C016B857C85C801A0
:103190000E94E0166B016115710509F45FCFFB0118
:1031A000848180688483F4E08F0E911CF6019782FD
:1031B00086824B2DB601CE010E94AE17009721F6F4
:1031C000CE010E94DA0B009709F0BECF6DE7CE0169
:1031D0000E94A60B81111ECF6CE2CE010E94A60BAD
:1031E000882309F458CFCE010E94DA0B009709F426
:1031F00074CFAACF6B857C850E94B60EF6018481C0
:1032000080788483D6CFF801848180788660848337
:1032100081E080836EE772E0CE01DF91CF911F9154
:103220000F91FF90EF90DF90CF90BF90AF909F9065
:103230008F900C94B70BF80184818078866084832A
:10324000108263E872E0E8CFCE010E945E0B5E015F
:10325000FDE0AF0EB11CD12C9A2CCB2C803374F036
:103260008A3374F49FE3D91699F01A86D394F50142
:1032700081935F01CE010E945E0BF0CF8B3291F300
:1032800093ED980F923070F3982F9F7D953451F302
:10329000CD0DD11D1D86B801892D9C2D0E943F0C9E
:1032A0008111B8CEF8CEEF92FF920F931F93CF9378
:1032B000DF93FC01C081D1817E01FAE1EF0EF11CA8
:1032C000E114F10429F1FC010281138101151105BA
:1032D00051F18E8D982F9F7721F5807880628E8FA7
:1032E0008FEF8A8F8B8FAE01B801C7010E94D31276
:1032F000FB01309761F4BE01C7010E94E016FB019B
:10330000309729F084818F778483178306837F0128
:10331000B701CE01DF91CF911F910F91FF90EF90F8
:10332000089585FDE0CFF12CE12CF2CFCF92DF9212
:10333000EF92FF920F931F93CF93DF938C017B014A
:103340000E945319DC01CB01EB01009781F0F701DA
:10335000C080D180E280F380BD010E94B60E8C81D6
:1033600080788C608C83C882D982EA82FB82D80103
:10337000ED91FC9180E0309719F0828191E08927EE
:10338000DF91CF911F910F91FF90EF90DF90CF9041
:103390000895CB01BA010C94DE2E1F920F920FB646
:1033A0000F9211240BB60F922F933F934F935F937D
:1033B0006F937F938F939F93AF93BF93EF93FF93FD
:1033C0008091B900887F803609F44DC008F040C074
:1033D000883209F4A9C028F5803109F49DC0C8F4E9
:1033E000882309F4FBC0883009F496C0FF91EF915F
:1033F000BF91AF919F918F917F916F915F914F910D
:103400003F912F910F900BBE0F900FBE0F901F900A
:103410001895883109F488C0803241F780933704C9
:1034200014C0803409F49DC040F48033B9F388336C
:10343000E9F68093370485ECB0C0803509F485C087
:10344000883509F496C0883489F60E94A216CECF3A
:10345000883909F48CC038F5883729F050F488365B
:1034600011F0803719F683E0809339041092EC0351
:1034700057C0883809F47BC0803919F0803809F0CA
:10348000B5CF8091EC03803208F071C0E091EC037D
:1034900081E08E0F8093EC038091BB00F0E0E45359
:1034A000FC4F80833DC0803B39F0E0F4803A09F462
:1034B00079C0883A09F09ACF84E080933904109259
:1034C000CB031092CA03E091ED03F091EE0319953E
:1034D0008091CA0381110FC081E08093CA031092CA
:1034E000AA0309C0803C09F4A6CF883C09F4A3CF05
:1034F000883B09F07BCFE091CB0381E08E0F809376
:10350000CB03F0E0E655FC4F80818093BB009091A7
:10351000CB038091CA0329C0809114048093BB001F
:1035200085EC8093BC0062CF909136048091350485
:10353000981758F5E091360481E08E0F8093360499
:10354000F0E0EB5EFB4F8081E9CFE091360481E053
:103550008E0F809336048091BB00F0E0EB5EFB4F52
:10356000808390913604809135049817C8F285E8DD
:10357000D8CFE091360481E08E0F8093360480919D
:10358000BB00F0E0EB5EFB4F80838091380481113B
:103590005CCF81E08093130484EA8093BC00109296
:1035A000390424CF85EC8093BC00109239048091BB
:1035B000EC03803230F4E091EC03F0E0E453FC4F94
:1035C00010826091EC0370E0E091EF03F091F00362
:1035D0008CEC93E019951092EC0308CF109237040D
:1035E00034CF1F920F920FB60F9211242F933F9357
:1035F0008F939F93AF93BF938091A1039091A20368
:10360000A091A303B091A4033091A00323E0230F62
:103610002D3758F50196A11DB11D2093A00380936D
:10362000A1039093A203A093A303B093A40380915A
:10363000A5039091A603A091A703B091A8030196BA
:10364000A11DB11D8093A5039093A603A093A7038A
:10365000B093A803BF91AF919F918F913F912F910C
:103660000F900FBE0F901F90189526E8230F02961B
:10367000A11DB11DD2CF1F920F920FB60F92112430
:103680000BB60F922F933F934F935F936F937F935C
:103690008F939F93AF93BF93EF93FF93E0910F02AC
:1036A000F09110021995FF91EF91BF91AF919F9109
:1036B0008F917F916F915F914F913F912F910F90DB
:1036C0000BBE0F900FBE0F901F9018951F920F9278
:1036D0000FB60F9211240BB60F922F933F934F9377
:1036E0005F936F937F938F939F93AF93BF93EF936A
:1036F000FF93E0910D02F0910E021995FF91EF9169
:10370000BF91AF919F918F917F916F915F914F91F9
:103710003F912F910F900BBE0F900FBE0F901F90F7
:1037200018951F920F920FB60F9211240BB60F929D
:103730002F933F934F935F936F937F938F939F93B9
:10374000AF93BF93EF93FF93E0910302F0910402D4
:103750001995FF91EF91BF91AF919F918F917F91BB
:103760006F915F914F913F912F910F900BBE0F90F2
:103770000FBE0F901F9018951F920F920FB60F92C9
:1037800011240BB60F922F933F934F935F936F9338
:103790007F938F939F93AF93BF93EF93FF93E091AA
:1037A0000102F09102021995FF91EF91BF91AF9143
:1037B0009F918F917F916F915F914F913F912F9149
:1037C0000F900BBE0F900FBE0F901F9018951F9279
:1037D0000F920FB60F9211240BB60F922F933F93B7
:1037E0004F935F936F937F938F939F93AF93BF9309
:1037F000EF93FF93E0910B02F0910C021995FF916A
:10380000EF91BF91AF919F918F917F916F915F9158
:103810004F913F912F910F900BBE0F900FBE0F90C5
:103820001F9018951F920F920FB60F9211240BB68E
:103830000F922F933F934F935F936F937F938F9349
:103840009F93AF93BF93EF93FF93E0910902F091A1
:103850000A021995FF91EF91BF91AF919F918F91BE
:103860007F916F915F914F913F912F910F900BBE80
:103870000F900FBE0F901F9018951F920F920FB6CA
:103880000F9211240BB60F922F933F934F935F9398
:103890006F937F938F939F93AF93BF93EF93FF9318
:1038A000E0910702F09108021995FF91EF91BF9105
:1038B000AF919F918F917F916F915F914F913F91C8
:1038C0002F910F900BBE0F900FBE0F901F90189569
:1038D0001F920F920FB60F9211240BB60F922F93D7
:1038E0003F934F935F936F937F938F939F93AF9388
:1038F000BF93EF93FF93E0910502F09106021995B3
:10390000FF91EF91BF91AF919F918F917F916F91B7
:103910005F914F913F912F910F900BBE0F900FBE73
:103920000F901F9018951F920F920FB60F921124AF
:103930000BB60F922F933F934F935F936F937F93A9
:103940008F939F93AF93BF93EF93FF9380919103D6
:1039500090919203A0919303B0919403892B8A2BA9
:103960008B2BD1F190919003809100008927809357
:1039700000008091910390919203A0919303B091E4
:103980009403181619061A061B069CF480919103DD
:1039900090919203A0919303B09194030197A10990
:1039A000B1098093910390939203A0939303B093F2
:1039B0009403FF91EF91BF91AF919F918F917F9170
:1039C0006F915F914F913F912F910F900BBE0F9090
:1039D0000FBE0F901F90189580910002E6E2F2E072
:1039E000E4919FEF90930002E230E9F040F4EE237F
:1039F00089F0E13091F060E00E94FD02DACFE4301E
:103A000049F110F1E530B9F7909173009D7F9093E3
:103A10007300F1CF10926E00EECF90916F009D7FFA
:103A200090936F00E8CF909170009D7F909370000D
:103A300091E09093B0009091B100987F9460909342
:103A4000B1001092B300D7CF909171009D7F9093F9
:103A50007100D1CF909172009D7F90937200CBCF77
:103A60001F920F920FB60F9211240BB60F922F9345
:103A70003F934F935F936F937F938F939F93AF93F6
:103A8000BF93EF93FF938FE694E00E947F08FF912E
:103A9000EF91BF91AF919F918F917F916F915F91C6
:103AA0004F913F912F910F900BBE0F900FBE0F9033
:103AB0001F9018951F920F920FB60F9211240BB6FC
:103AC0000F922F938F939F93EF93FF93E0917F0437
:103AD000F09180048081E0918504F091860482FD5C
:103AE0001DC09081809188048F5F8F73209189041D
:103AF000821741F0E0918804F0E0E159FB4F958F87
:103B000080938804FF91EF919F918F912F910F9057
:103B10000BBE0F900FBE0F901F9018958081F2CFB3
:103B20001F920F920FB60F9211240BB60F922F9384
:103B30003F934F935F936F937F938F939F93AF9335
:103B4000BF93CF93DF93EF93FF9380918F03C09147
:103B50004805D0E087FF23C01092850010928400B2
:103B600080918F038F5F80938F0380918F03082E46
:103B7000000C990B8C179D0724F480918F038C30D7
:103B800074F1809184009091850084349C4908F4FC
:103B900065C08091840090918500049661C08091F9
:103BA0008F03082E000C990B8C179D07CCF63091D3
:103BB0008F0325E03203F0011124E45FFA4F808186
:103BC00086FFCECF30918F033203F0011124E45FE2
:103BD000FA4F808160E08F730E94FD02C1CF809117
:103BE00084009091850030918F0325E03203F0012D
:103BF0001124E45FFA4F41815281840F951F909305
:103C000089008093880030918F033203F0011124E2
:103C1000E45FFA4F808186FF0CC030918F0332033E
:103C2000F0011124E45FFA4F808161E08F730E94FC
:103C3000FD02FF91EF91DF91CF91BF91AF919F91E5
:103C40008F917F916F915F914F913F912F910F9045
:103C50000BBE0F900FBE0F901F90189580E49CE94B
:103C600090938900809388008FEF80938F03E1CF3A
:103C7000109266041092650488EE93E0A0E0B0E034
:103C80008093670490936804A0936904B0936A04D6
:103C900021E432E0309364042093630410927204B0
:103CA000109271048093730490937404A09375042C
:103CB000B093760483E592E09093700480936F0450
:103CC00085EC90E090937C0480937B0484EC90E0FE
:103CD00090937E0480937D0480EC90E09093800428
:103CE00080937F0481EC90E0909382048093810420
:103CF00082EC90E0909384048093830486EC90E0BF
:103D0000909386048093850410928804109289040D
:103D100010928A0410928B048CE08093BB0584E29D
:103D20008093BC0585E08093BD0596E09093BE0529
:103D30009EE19093BF059FE19093C00592E290931E
:103D4000C10593E29093C20594E49093C30595E472
:103D50009093C4051092C6051092C50590E4909307
:103D6000C8051092CD051092CE051092CF05109285
:103D7000D0051092D1051092D2051092D305109261
:103D8000D40598E0EFE1F2E0ADEDB5E001900D92E1
:103D90009A95E1F740E050E060EA70E44093E50571
:103DA0005093E6056093E7057093E805E0914805B8
:103DB000EC3008F0CAC091E09E0F90934805E09364
:103DC000BA058E9FF0011124E45FFA4F88EB9BE067
:103DD0009283818388E68093AB0510926F051092E1
:103DE0007005109271051092720510927305109271
:103DF0007405109275051092760510927705109251
:103E000078051092790510927A0510927C0510922F
:103E10007B0510927E0510927D0510928005109210
:103E20007F051092810510928205109283051092F1
:103E300084051092850510928605109293051092C4
:103E40009405109295051092960510929705109280
:103E500098051092990510929A0580E090E0A0EAEA
:103E6000B0E480939B0590939C05A0939D05B0932F
:103E70009E0580E090E0A8ECB2E480939F059093CB
:103E8000A005A093A105B093A2051092A3051092DE
:103E9000A4051092A5051092A6051092A7051092F0
:103EA000A8051092A9051092AA0510925E0510921D
:103EB0005F051092600510926105109262051092E4
:103EC000630510926405109265058FEF9FEFDC018A
:103ED0008093670590936805A0936905B0936A0580
:103EE00080936B0590936C05A0936D05B0936E0560
:103EF0001092660510925D0510925C0510924B05BC
:103F000010924C0510924D0510924E0510924F05DF
:103F1000109250051092510510925205809354054D
:103F200090935505A0935605B09357058093580577
:103F300090935905A0935A05B0935B0510925305D1
:103F400010924A051092490508958FEF8093BA05A3
:103F500041CFCF93DF93CDB7DEB7CF58D1090FB69E
:103F6000F894DEBF0FBECDBF789484B5826084BD67
:103F700084B5816084BD85B5826085BD85B581606D
:103F800085BD80916E00816080936E0010928100EB
:103F900080918100826080938100809181008160A6
:103FA0008093810080918000816080938000809167
:103FB000B10084608093B1008091B00081608093F3
:103FC000B000809191008260809391008091910077
:103FD0008160809391008091900081608093900037
:103FE0008091A10082608093A1008091A1008160F6
:103FF0008093A1008091A00081608093A0008091B7
:104000002101826080932101809121018160809350
:1040100021018091200181608093200180917A00AC
:10402000846080937A0080917A00826080937A0025
:1040300080917A00816080937A0080917A00806814
:1040400080937A001092C100E0917F04F091800487
:1040500082E08083E0917B04F0917C041082E09107
:104060007D04F0917E0480E1808310928704E091CA
:104070008304F091840486E08083E0918104F091D0
:104080008204808180618083E0918104F0918204C8
:10409000808188608083E0918104F0918204808136
:1040A00080688083E0918104F091820480818F7D1B
:1040B000808361E08091BC050E94850360E080916F
:1040C000BC050E94FD0260E08091BB050E94850353
:1040D0008091C5059091C605892BA9F486E090E0F2
:1040E0000E94B92DFC018091C805808383E694E08D
:1040F00092838183138280E290E095838483F0939E
:10410000C605E093C505E090C505F090C605109280
:10411000F2031092F10310924004109262040E9484
:10412000460387EE91E09093EE038093ED0388EED3
:1041300091E09093F0038093EF0311E0D701139681
:104140001C93C7010E940E06882309F46AC080E010
:1041500090E1A0E0B0E08093C9059093CA05A093D8
:10416000CB05B093CC058AE090E0A0E0B0E080936E
:10417000CD059093CE05A093CF05B093D00580E0F8
:1041800090E0A0E0B0E48093D1059093D205A09395
:10419000D305B093D4058091C5059091C605A1962D
:1041A0001CAE1DAE1EAE1FAEA19760969FAF8EAF28
:1041B000609762961FAE1EAE629768961FAF6897B3
:1041C00085E090E066969FAF8EAF669769961FAFC9
:1041D000699702E067960FAF679740E050E160E0B3
:1041E00070E0CE01825B9F4F0E9484068091C505DE
:1041F0009091C605188A198A1A8A1B8A9A8389831C
:104200001C821B821A8718861F821B8709874FE929
:1042100059E360E070E0CE0101960E94840680932D
:10422000C7057DEBE72E75E0F72E0BEB15E0E0E917
:104230006E2EE2E07E2EF6ED8F2EF2E09F2EABEC9E
:10424000CA2EA7E0DA2EBBE8AB2EBB24B394F7014D
:104250009281D7018D917D01F801828F938F61E06A
:104260000E94850361E0D8015B968C910E948503D2
:10427000F70195818381D8015E968C935E975F9656
:104280009C9361E00E94850360E0F801878D0E94A5
:10429000850361E0D8015E968C910E94FD025FB6B5
:1042A000F89480919503811125C0F3018491F40164
:1042B0009491E82FF0E0EE0FFF1FE95DFD4FA5910F
:1042C000B4918C91982321F461E085E30E94FD0272
:1042D00061E085E30E9485038CB580618CBD8CB55F
:1042E00080648CBD61E084E30E94850361E083E328
:1042F0000E948503809195038F5F809395035FBE35
:10430000C6010197F1F760E0D8015E968C910E949A
:10431000FD0288E80E94B40A83E00E94B40A61E0CA
:10432000F801868D0E94FD02C6010197F1F760E059
:10433000D8015E968C910E94FD0288E90E94B40A21
:1043400080E00E94B40A80E00E94B40A80E00E94EB
:10435000B40A80E00E94B40A61E0F801868D0E94F0
:10436000FD02C5010197F1F760E0D8015E968C91DE
:104370000E94FD0280EE0E94B40A61E0F801868D81
:104380000E94FD020E5F1F4FF5E00F3B1F0709F073
:104390005ECF01E023E042E06BE68091AB050E9436
:1043A000721100E022E044E06BE18091AB050E94D5
:1043B000721122E044E06CE18091AB050E94721121
:1043C000D090AB0508EE13E0CE0101967C019C0174
:1043D00041E06BE68D2D0E94C71089818F7B898318
:1043E000C957DF4F8883C758D040AE0149575F4F48
:1043F0006BE68D2D0E94470682E08093960383E052
:104400008093970362E082E00E94850362E08091DE
:1044100097030E94850390919603923009F008C19A
:104420008CEF9BE0909302028093010280916A00DE
:104430008C7F826080936A00EC9A84E690E0A0E032
:10444000B0E080935E0590935F05A0936005B09304
:10445000610580E098E090935D0580935C0581E0C4
:10446000809366050E94F40700915E0510915F0538
:104470002091600530916105DC01CB01800F911F17
:10448000A21FB31F8093620590936305A0936405F8
:10449000B09365058091670590916805A0916905C5
:1044A000B0916A0580936B0590936C05A0936D05A0
:1044B000B0936E0582EB92E190934A058093490593
:1044C00080E090E0A0E8BEE380936F0590937005D4
:1044D000A0937105B09372058DEC9CECACECBDE340
:1044E0008093730590937405A0937505B09376053A
:1044F00010927705109278051092790510927A053E
:1045000084E098E090937C0580937B0585E098E0BB
:1045100090937E0580937D0586E098E090938005DA
:1045200080937F058FE692E1A3E8BAE380939B0531
:1045300090939C05A0939D05B0939E0588EC90E018
:10454000A0E0B0E080938B0590938C05A0938D053F
:10455000B0938E058DEC9CECACE4BEE380938705B4
:1045600090938805A0938905B0938A05AEE4B0E0E6
:10457000AC0FBD1F1596C457DF4FB983A883CC5825
:10458000D040EEE4F0E0EC0FFD1F7A96C257DF4F0B
:10459000F983E883CE58D0404CEA242E42E0342EF2
:1045A000D0909F03DD2009F4DEC081E192E06096A7
:1045B0009FAF8EAF609761961FAE619763961FAEF7
:1045C0001EAE6397C457DF4FA881B981CC58D04045
:1045D000A596BFAFAEAFA597A6961FAEA69784E0EF
:1045E000A7968FAFA7978FEFA8968FAFA897AD9696
:1045F0001FAEAD9761E172E0CD010E941E0E619683
:104600001FAE619760960EAD1FAD609763968EAD3D
:104610009FAD6397009709F452C0FC01208131815E
:1046200063963FAF2EAF6397B8010E94630EEECF43
:10463000933071F48CEF9BE090930402809303021B
:1046400080916A00837F886080936A00ED9AF5CE3E
:104650008EEE890F843008F0F0CE87E1891BE82FB9
:10466000F0E0EE0FFF1FEF5FFD4F2CEF3BE03183DB
:1046700020838430A1F08530D1F0833041F08091E7
:1046800069008C7F826080936900E89AD6CE809121
:104690006900837F886080936900E99ACECE80911B
:1046A00069008F7C806280936900EA9AC6CE80910F
:1046B00069008F73806880936900EB9ABECEAD96D7
:1046C0001FAEAD978EE490E08C0F9D1F9A83898377
:1046D0001C821B821E821D821F82AFE6B4E0B98756
:1046E000A8871B869D878C874AE0C257DF4F688169
:1046F0007981CE58D040C7010E94AE178C01892B1A
:1047000051F48A85882339F0AD968FADAD9783FF3C
:1047100002C003E010E08B819C81009731F0E981B9
:10472000FA81608171810E94630E10929F030115CE
:10473000110509F41FC589E892E00E94C612000F16
:10474000111FF801EF5CFD4F80819181009711F0FE
:104750000E94C61280EA92E00E94C612CE01825BDD
:104760009F4F0E946D0E80919E03882309F41EC402
:10477000E1E1F2E0FA83E9831B821D821C8286E07C
:1047800090E08C0F9D1F9F8B8E8B188E84E0898FFD
:104790008FEF8A8F1F8E0E94F4074B015C01609699
:1047A000FFAEEEAE609784EC92E062969FAF8EAF64
:1047B0006297CE01825B9F4F0E945319DC01CB01AF
:1047C0008B01672B81F0BD010E94B60ED8011496B3
:1047D0008C9114978078886014968C93F80180826D
:1047E0009182A282B38280917B00877F80937B003D
:1047F00085E480937C0080917A00806480937A00C5
:1048000080917A0086FDFCCFC0907800D09079002E
:104810006096FFAEEEAE609789EC92E062969FAF35
:104820008EAF6297CE01825B9F4F0E945319DC01CD
:10483000CB018B01672BA9F0BD010E94B60ED801F8
:1048400014968C91149780788A6014968C93C60184
:10485000092E000CAA0BBB0BF80180839183A28365
:10486000B3838090980390909903A0909A03B0909E
:104870009B036096FFAEEEAE609780ED92E062968D
:104880009FAF8EAF6297CE01825B9F4F0E945319FC
:10489000DC01CB018B01672B81F0BD010E94B60EBC
:1048A000D80114968C91149780788A6014968C9312
:1048B000F80180829182A282B382809181059091D9
:1048C0008205A0918305B091840562968CAF9DAF5F
:1048D000AEAFBFAF6297AF96FFAEEEAEAF9787EDCC
:1048E00092E0E1969FAF8EAFE197BE01625B7F4F92
:1048F000CE0183599F4F0E94961962961CAE1DAE41
:104900001EAE1FAE6297AF96FFAEEEAEAF978CEDC8
:1049100092E0E1969FAF8EAFE197BE01625B7F4F61
:10492000CE0183599F4F0E9496198091C5059091A1
:10493000C605A1961CAE1DAE1EAE1FAEA197609619
:104940009FAF8EAF609762961FAE1EAE6297DD245A
:10495000D3946896DFAE689782E090E066969FAF4A
:104960008EAF66976996DFAE699782E0C82E67962C
:10497000CFAE6797BE0163597F4FCE01825B9F4FD9
:104980000E94C3118093C705AF960EAD1FADAF97C0
:1049900093E0169507959A95E1F7000F111F000F08
:1049A000111F8091C5059091C605A1961CAE1DAE44
:1049B0001EAE1FAEA19760969FAF8EAF60976296B6
:1049C0001FAE1EAE62976896DFAE689781E090E0FA
:1049D00066969FAF8EAF66976996DFAE69976796CA
:1049E000CFAE6797BE0163597F4FCE01825B9F4F69
:1049F0000E94C3118093C705AF966EAD7FADAF9790
:104A0000072E000C880B990B0E942A2B2AE037ED09
:104A100043E25CE30E94892B20E030E04AE754E463
:104A20000E940C2D4B015C01B801110F880B990BF2
:104A30000E942A2B2FE632E143E85AE30E94892B99
:104A40009B01AC01C501B4010E94A02C62966CAF21
:104A50007DAF8EAF9FAF6297AF96FFAEEEAEAF97D2
:104A600089EE92E0E1969FAF8EAFE197BE01625B67
:104A70007F4FCE0183599F4F0E9496198091C505A3
:104A80009091C605C458DF4F188219821A821B8282
:104A9000CC57D040AF969FAF8EAFAF97E1961FAE89
:104AA0001EAEE197E796DFAEE79785E090E0E596EA
:104AB0009FAF8EAFE597E896DFAEE897E696CFAE6C
:104AC000E6974091C9055091CA056091CB05709158
:104AD000CC05CE0183599F4F0E9484068091C50565
:104AE0009091C605A1961CAE1DAE1EAE1FAEA1973D
:104AF00060969FAF8EAF609762961FAE1EAE6297B4
:104B00006896DFAE689784E090E066969FAF8EAFC0
:104B100066976996DFAE69976796CFAE6797BE01D5
:104B200060587F4FCE01825B9F4F0E94C3118093DC
:104B3000C705C058DF4F68817981C058D040072E23
:104B4000000C880B990B0E942A2B4B015C01609191
:104B5000CD057091CE058091CF059091D0050E9432
:104B6000282B9B01AC01C501B4010E940C2D20E053
:104B700030E04AE754E40E940C2D62966CAF7DAFA2
:104B80008EAF9FAF6297AF96FFAEEEAEAF9781EF5D
:104B900092E0E1969FAF8EAFE197BE01625B7F4FDF
:104BA000CE0183599F4F0E9496196096FFAEEEAEDC
:104BB000609783EA92E062969FAF8EAF629763E15F
:104BC00072E0CE01825B9F4F0E9496196096FFAE05
:104BD000EEAE609762963FAE2EAE6297CE01825BDC
:104BE0009F4F0E945319DC01CB016B01672BB1F081
:104BF0000091170210911802BD010E94B60ED60155
:104C000014968C9114978078886014968C9330E079
:104C100020E0F60100831183228333836096FFAE88
:104C2000EEAE609789EF92E062969FAF8EAF62978B
:104C3000CE01825B9F4F0E945319DC01CB01D090C3
:104C40009C038B01672B69F0BD010E94B60ED80151
:104C500014968C9114978078866014968C93149790
:104C6000DC9208EE13E02CEA35E042E06BE3809141
:104C7000AB050E94C7106091AC057091AD05762719
:104C800067277627072E000C880B990B0E942A2B8A
:104C900020E030E040E858E30E94892B62966CAF38
:104CA0007DAF8EAF9FAF6297AF96FFAEEEAEAF9780
:104CB00081E093E0E1969FAF8EAFE197BE01625B2A
:104CC0007F4FCE0183599F4F0E9496192CEA35E001
:104CD00042E06DE38091AB050E94C7106091AC0586
:104CE0007091AD05762767277627072E000C880B75
:104CF000990B0E942A2B20E030E040E858E30E9404
:104D0000892B62966CAF7DAF8EAF9FAF6297AF96E7
:104D1000FFAEEEAEAF9788E093E0E1969FAF8EAF27
:104D2000E197BE01625B7F4FCE0183599F4F0E9486
:104D300096192CEA35E042E06FE38091AB050E94C2
:104D4000C7106091AC057091AD057627672776276F
:104D5000072E000C880B990B0E942A2B20E030E0D4
:104D600040E858E30E94892B62966CAF7DAF8EAF0E
:104D70009FAF6297AF96FFAEEEAEAF978FE093E036
:104D8000E1969FAF8EAFE197BE01625B7F4FCE0190
:104D900083599F4F0E9496192CEA35E042E063E464
:104DA0008091AB050E94C7106091AC057091AD0574
:104DB000762767277627072E000C880B990B0E9411
:104DC0002A2B20E030E04AE753E40E94892B20E0C0
:104DD00030E040E058E30E94892B62966CAF7DAFD3
:104DE0008EAF9FAF6297AF96FFAEEEAEAF9786E104
:104DF00093E0E1969FAF8EAFE197BE01625B7F4F7C
:104E0000CE0183599F4F0E9496192CEA35E042E06B
:104E100065E48091AB050E94C7106091AC0570916C
:104E2000AD05762767277627072E000C880B990B90
:104E30000E942A2B20E030E04AE753E40E94892BAD
:104E400020E030E040E058E30E94892B62966CAF8E
:104E50007DAF8EAF9FAF6297AF96FFAEEEAEAF97CE
:104E60008CE193E0E1969FAF8EAFE197BE01625B6C
:104E70007F4FCE0183599F4F0E9496192CEA35E04F
:104E800042E067E48091AB050E94C7106091AC05D9
:104E90007091AD05762767277627072E000C880BC3
:104EA000990B0E942A2B20E030E04AE753E40E944D
:104EB000892B20E030E040E058E30E94892B629685
:104EC0006CAF7DAF8EAF9FAF6297AF96FFAEEEAE89
:104ED000AF9782E293E0E1969FAF8EAFE197BE017C
:104EE000625B7F4FCE0183599F4F0E949619D090ED
:104EF00086056096FFAEEEAE609788E293E062961C
:104F00009FAF8EAF6297CE01825B9F4F0E94531975
:104F1000DC01CB018B01672B49F0BD010E94B60E6D
:104F2000F8018481807886608483D08260918F05C7
:104F30007091900580919105909192050E94282B87
:104F400062966CAF7DAF8EAF9FAF6297AF96FFAEAC
:104F5000EEAEAF978FE293E0E1969FAF8EAFE19711
:104F6000BE01625B7F4FCE0183599F4F0E9496190D
:104F70008FE694E060969FAF8EAF609762961FAE0B
:104F80001EAE62976496FFAEEEAE6497BE01625BA2
:104F90007F4FCE014B960E94C71380EA92E00E9499
:104FA000C61210929E03C7010E946D0E80919D0350
:104FB000882309F469C08091170290911802B0E02B
:104FC000A0E080934B0590934C05A0934D05B093C2
:104FD0004E058091490590914A05892B59F181E050
:104FE000809353050E94F40700914B0510914C05E6
:104FF00020914D0530914E05DC01CB01800F911FB2
:10500000A21FB31F80934F0590935005A0935105A5
:10501000B09352058091540590915505A091560585
:10502000B09157058093580590935905A0935A0560
:10503000B0935B0581E090E0A0E0B0E08093540580
:1050400090935505A0935605B093570540911302D0
:1050500050911402609115027091160285ED95E051
:105060000E948D0940911302509114026091150223
:1050700070911602705887ED95E00E948D0910928C
:105080009D0381E080939C038CE595E00E9441099B
:1050900089E495E00E9441090E94F407009193057C
:1050A0001091940520919505309196056017710730
:1050B0008207930708F45BC080918505882309F473
:1050C00056C00E94F40700918B0510918C05209129
:1050D0008D0530918E05DC01CB01800F911FA21F41
:1050E000B31F8093930590939405A0939505B09377
:1050F00096058090810590908205A0908305B090E0
:105100008405E0917B05F0917C0519959B01AC012C
:10511000C501B4010E949F2C4B015C019F77209137
:105120009B0530919C0540919D0550919E050E94E4
:10513000232B87FFADC181E0809386051092850502
:10514000E0917F05F0918005309709F019958091E5
:10515000930590919405A0919505B0919605809343
:10516000970590939805A0939905B0939A050E948E
:10517000120916CAEEE4F0E0EC0FFD1FFA83E98392
:1051800083EA92E09C838B83C7010E942A130097D5
:10519000F9F0DC0114968C918F77D1F0EEE4F0E019
:1051A000EC0FFD1FFA83E98383EA92E09C838B83F3
:1051B000C7010E942A13009709F440C10E94A60D5E
:1051C0006093130270931402809315029093160259
:1051D000AEE4B0E0AC0FBD1FBA83A9833C822B8242
:1051E000C7010E942A130097D1F0FC0184818F77B8
:1051F000B1F08EE490E08C0F9D1F9A8389833C82EE
:105200002B82C7010E942A13009709F41BC10E9438
:10521000A60D0E94852D7093180260931702AEE4CC
:10522000B0E0AC0FBD1FBA83A98306EB12E01C836C
:105230000B83C7010E942A13009711F1FC0184819E
:105240008F77F1F08EE490E08C0F9D1F9A83898315
:105250001C830B83C7010E942A13FC01892B09F4CC
:1052600015C194819F77983009F405C108F0EEC00C
:10527000992309F40BC1963009F4FBC0D0929D0329
:10528000AEE4B0E0AC0FBD1FBA83A9830CEB12E013
:105290001C830B83C7010E942A13009709F45ECA7E
:1052A000FC0184818F7709F459CA109285058EE438
:1052B00090E08C0F9D1F9B838A831D830C8382E06B
:1052C00090E09F838E83C7010E943D134B015C01D8
:1052D000AEE4B0E0AC0FBD1FE096BFAFAEAFE0975D
:1052E000E2961FAF0EAFE29781E090E0E4969FAFA9
:1052F0008EAFE497CE0183599F4F0E943D132B013F
:105300003C01EEE4F0E0EC0FFD1FCF57DF4FF983D7
:10531000E883C158D040CD57DF4F19830883C35865
:10532000D040CB57DF4F19821882C558D040CE01EC
:1053300080589F4F0E943D1360936F0570937005D6
:105340008093710590937205409273055092740595
:105350006092750570927605809277059092780537
:10536000A0927905B0927A058EE490E08C0F9D1F93
:105370009B838A831D830C8383E090E09F838E83CD
:10538000C7010E943D1360939B0570939C05809319
:105390009D0590939E05AEE4B0E0AC0FBD1FBB83AE
:1053A000AA831D830C8384E090E09F838E83C701D2
:1053B0000E943D136093810570938205809383055D
:1053C0009093840580917B0590917C05892B09F44D
:1053D000C5C980917D0590917E05892B09F4BEC9D0
:1053E00081E0809385050E94F40700918B05109160
:1053F0008C0520918D0530918E05DC01CB01800F4D
:10540000911FA21FB31F8093930590939405A093BF
:105410009505B0939605109286051092A3051092FB
:10542000A4051092A5051092A6051092A70510924A
:10543000A8051092A9051092AA0590C960E070E035
:10544000CB01BECE60E070E0CB01E3CE9A3099F0A4
:105450009C3009F013CFDD24D39420E030E0A90183
:1054600060817181828193810E94232B811106CFFB
:105470000DC0D08003CFDD24D39480819181A2819F
:10548000B381892B8A2B8B2B09F0F8CED12CF6CE49
:1054900000917D0510917E050E94F40740909705CC
:1054A000509098056090990570909A056419750957
:1054B0008609970960938F057093900580939105F5
:1054C000909392052091A3053091A4054091A505E4
:1054D0005091A605C501B4010E94A02C6093A305BC
:1054E0007093A4058093A5059093A60540909F0511
:1054F0005090A0056090A1057090A205A3019201B3
:105500000E94B42D181644F44092A3055092A405AD
:105510006092A5057092A60577FA709477F870945A
:10552000A30192016091A3057091A4058091A50546
:105530009091A6050E94232B87FF08C04092A305E7
:105540005092A4056092A5057092A605409087052B
:10555000509088056090890570908A052091A30578
:105560003091A4054091A5055091A6056091730561
:105570007091740580917505909176050E94892B34
:10558000A30192010E94892BC857DF4F688379835A
:105590008A839B83C858D04020916F053091700555
:1055A0004091710550917205C501B4010E94892B8B
:1055B0009B01AC01C857DF4F688179818A819B814B
:1055C000C858D0400E94A02CC857DF4F6883798309
:1055D0008A839B83C858D0402091A7053091A805A5
:1055E0004091A9055091AA05C501B4010E949F2CC4
:1055F00020917705309178054091790550917A0591
:105600000E94892BA30192010E940C2D9B01AC01E9
:10561000C857DF4F688179818A819B81C858D04003
:105620000E94A02C8092A7059092A805A092A9059F
:10563000B092AA05F80119958ACD8091C50590917F
:10564000C6050C94552E0E94652B08F481E0089540
:10565000E89409C097FB3EF490958095709561950C
:105660007F4F8F4F9F4F9923A9F0F92F96E9BB27C2
:105670009395F695879577956795B795F111F8CF3E
:10568000FAF4BB0F11F460FF1BC06F5F7F4F8F4FA9
:105690009F4F16C0882311F096E911C0772321F09F
:1056A0009EE8872F762F05C0662371F096E8862F37
:1056B00070E060E02AF09A95660F771F881FDAF78E
:1056C000880F9695879597F90895990F0008550FBB
:1056D000AA0BE0E8FEEF16161706E807F907C0F078
:1056E00012161306E407F50798F0621B730B840B80
:1056F000950B39F40A2661F0232B242B252B21F45A
:1057000008950A2609F4A140A6958FEF811D811DF9
:1057100008950E949C2B0C940D2C0E94FF2B38F0B6
:105720000E94062C20F0952311F00C94F62B0C947B
:10573000FC2B11240C94412C0E941E2C70F3959F7D
:10574000C1F3950F50E0551F629FF001729FBB2778
:10575000F00DB11D639FAA27F00DB11DAA1F649F14
:105760006627B00DA11D661F829F2227B00DA11DC7
:10577000621F739FB00DA11D621F839FA00D611D4D
:10578000221F749F3327A00D611D231F849F600D6E
:10579000211D822F762F6A2F11249F5750409AF097
:1057A000F1F088234AF0EE0FFF1FBB1F661F771F23
:1057B000881F91505040A9F79E3F510580F00C94EE
:1057C000F62B0C94412C5F3FE4F3983ED4F386957E
:1057D00077956795B795F795E7959F5FC1F7FE2B8E
:1057E000880F911D9695879597F9089597F99F676A
:1057F00080E870E060E008959FEF80EC0895002459
:105800000A941616170618060906089500240A9425
:1058100012161306140605060895092E0394000CAB
:1058200011F4882352F0BB0F40F4BF2B11F460FF3A
:1058300004C06F5F7F4F8F4F9F4F089557FD905863
:10584000440F551F59F05F3F71F04795880F97FB44
:10585000991F61F09F3F79F08795089512161306FE
:105860001406551FF2CF4695F1DF08C0161617062D
:105870001806991FF1CF8695710561050894089562
:10588000E894BB2766277727CB0197F908950E94F4
:10589000742CA59F900DB49F900DA49F800D911D19
:1058A00011240895A1E21A2EAA1BBB1BFD010DC0F5
:1058B000AA1FBB1FEE1FFF1FA217B307E407F507C0
:1058C00020F0A21BB30BE40BF50B661F771F881F9C
:1058D000991F1A9469F760957095809590959B0132
:1058E000AC01BD01CF010895A29FB001B39FC001DB
:1058F000A39F700D811D1124911DB29F700D811DFC
:105900001124911D0895AA1BBB1B51E107C0AA1FBA
:10591000BB1FA617B70710F0A61BB70B881F991F50
:105920005A95A9F780959095BC01CD010895EE0F89
:10593000FF1F881F8BBF0790F691E02D19945058D8
:10594000BB27AA270E94B72C0C940D2C0E94FF2B7A
:1059500038F00E94062C20F039F49F3F19F426F409
:105960000C94FC2B0EF4E095E7FB0C94F62BE92F3E
:105970000E941E2C58F3BA17620773078407950715
:1059800020F079F4A6F50C94402C0EF4E0950B2E43
:10599000BA2FA02D0B01B90190010C01CA01A00181
:1059A0001124FF27591B99F0593F50F4503E68F1DC
:1059B0001A16F040A22F232F342F4427585FF3CF1D
:1059C000469537952795A795F0405395C9F77EF4EE
:1059D0001F16BA0B620B730B840BBAF09150A1F037
:1059E000FF0FBB1F661F771F881FC2F70EC0BA0FBD
:1059F000621F731F841F48F4879577956795B79545
:105A0000F7959E3F08F0B0CF9395880F08F099273F
:105A1000EE0F9795879508950E94202D0C940D2CDC
:105A20000E94062C58F00E94FF2B40F029F45F3FA3
:105A300029F00C94F62B51110C94412C0C94FC2B56
:105A40000E941E2C68F39923B1F3552391F3951B03
:105A5000550BBB27AA2762177307840738F09F5F8F
:105A60005F4F220F331F441FAA1FA9F335D00E2EFC
:105A70003AF0E0E832D091505040E695001CCAF769
:105A80002BD0FE2F29D0660F771F881FBB1F26172C
:105A900037074807AB07B0E809F0BB0B802DBF0103
:105AA000FF2793585F4F3AF09E3F510578F00C94D2
:105AB000F62B0C94412C5F3FE4F3983ED4F386958B
:105AC00077956795B795F7959F5FC9F7880F911DF3
:105AD0009695879597F90895E1E0660F771F881FDF
